{
    "contractName": "BlindAuction",
    "abi": [
        {
            "inputs": [
                {
                    "internalType": "string",
                    "name": "_node",
                    "type": "string"
                }
            ],
            "stateMutability": "nonpayable",
            "type": "constructor"
        },
        {
            "anonymous": false,
            "inputs": [
                {
                    "indexed": false,
                    "internalType": "address",
                    "name": "winner",
                    "type": "address"
                },
                {
                    "indexed": false,
                    "internalType": "uint256",
                    "name": "highestBid",
                    "type": "uint256"
                }
            ],
            "name": "PotentialWinnerFound",
            "type": "event"
        },
        {
            "anonymous": false,
            "inputs": [
                {
                    "indexed": false,
                    "internalType": "address",
                    "name": "winner",
                    "type": "address"
                },
                {
                    "indexed": false,
                    "internalType": "uint256",
                    "name": "highestBid",
                    "type": "uint256"
                }
            ],
            "name": "WinnerClaimed",
            "type": "event"
        },
        {
            "anonymous": false,
            "inputs": [
                {
                    "indexed": false,
                    "internalType": "address",
                    "name": "winner",
                    "type": "address"
                },
                {
                    "indexed": false,
                    "internalType": "uint256",
                    "name": "highestBid",
                    "type": "uint256"
                }
            ],
            "name": "revealSuccess",
            "type": "event"
        },
        {
            "inputs": [
                {
                    "internalType": "bytes32",
                    "name": "_blindedBid",
                    "type": "bytes32"
                }
            ],
            "name": "bid",
            "outputs": [],
            "stateMutability": "payable",
            "type": "function"
        },
        {
            "inputs": [],
            "name": "biddingDuration",
            "outputs": [
                {
                    "internalType": "uint256",
                    "name": "",
                    "type": "uint256"
                }
            ],
            "stateMutability": "view",
            "type": "function"
        },
        {
            "inputs": [],
            "name": "biddingEnd",
            "outputs": [
                {
                    "internalType": "uint256",
                    "name": "",
                    "type": "uint256"
                }
            ],
            "stateMutability": "view",
            "type": "function"
        },
        {
            "inputs": [
                {
                    "internalType": "address",
                    "name": "",
                    "type": "address"
                },
                {
                    "internalType": "uint256",
                    "name": "",
                    "type": "uint256"
                }
            ],
            "name": "bids",
            "outputs": [
                {
                    "internalType": "bytes32",
                    "name": "blindedBid",
                    "type": "bytes32"
                },
                {
                    "internalType": "uint256",
                    "name": "deposit",
                    "type": "uint256"
                }
            ],
            "stateMutability": "view",
            "type": "function"
        },
        {
            "inputs": [],
            "name": "checkBidAmount",
            "outputs": [
                {
                    "internalType": "uint256",
                    "name": "",
                    "type": "uint256"
                }
            ],
            "stateMutability": "view",
            "type": "function"
        },
        {
            "inputs": [
                {
                    "internalType": "uint256[]",
                    "name": "_values",
                    "type": "uint256[]"
                },
                {
                    "internalType": "bool[]",
                    "name": "_fake",
                    "type": "bool[]"
                },
                {
                    "internalType": "bytes32[]",
                    "name": "_secret",
                    "type": "bytes32[]"
                }
            ],
            "name": "checkHash",
            "outputs": [
                {
                    "internalType": "bool",
                    "name": "",
                    "type": "bool"
                }
            ],
            "stateMutability": "view",
            "type": "function"
        },
        {
            "inputs": [],
            "name": "checkHighestBid",
            "outputs": [
                {
                    "internalType": "uint256",
                    "name": "",
                    "type": "uint256"
                }
            ],
            "stateMutability": "view",
            "type": "function"
        },
        {
            "inputs": [],
            "name": "checkPendingReturns",
            "outputs": [
                {
                    "internalType": "uint256",
                    "name": "",
                    "type": "uint256"
                }
            ],
            "stateMutability": "view",
            "type": "function"
        },
        {
            "inputs": [],
            "name": "checkRefunded",
            "outputs": [
                {
                    "internalType": "uint256",
                    "name": "",
                    "type": "uint256"
                }
            ],
            "stateMutability": "view",
            "type": "function"
        },
        {
            "inputs": [],
            "name": "claimWinnerReward",
            "outputs": [],
            "stateMutability": "nonpayable",
            "type": "function"
        },
        {
            "inputs": [],
            "name": "domainClaimed",
            "outputs": [
                {
                    "internalType": "bool",
                    "name": "",
                    "type": "bool"
                }
            ],
            "stateMutability": "view",
            "type": "function"
        },
        {
            "inputs": [],
            "name": "ended",
            "outputs": [
                {
                    "internalType": "bool",
                    "name": "",
                    "type": "bool"
                }
            ],
            "stateMutability": "view",
            "type": "function"
        },
        {
            "inputs": [],
            "name": "getStage",
            "outputs": [
                {
                    "internalType": "string",
                    "name": "",
                    "type": "string"
                }
            ],
            "stateMutability": "view",
            "type": "function"
        },
        {
            "inputs": [],
            "name": "highestBid",
            "outputs": [
                {
                    "internalType": "uint256",
                    "name": "",
                    "type": "uint256"
                }
            ],
            "stateMutability": "view",
            "type": "function"
        },
        {
            "inputs": [],
            "name": "highestBidder",
            "outputs": [
                {
                    "internalType": "address",
                    "name": "",
                    "type": "address"
                }
            ],
            "stateMutability": "view",
            "type": "function"
        },
        {
            "inputs": [],
            "name": "node",
            "outputs": [
                {
                    "internalType": "string",
                    "name": "",
                    "type": "string"
                }
            ],
            "stateMutability": "view",
            "type": "function"
        },
        {
            "inputs": [],
            "name": "owner",
            "outputs": [
                {
                    "internalType": "address payable",
                    "name": "",
                    "type": "address"
                }
            ],
            "stateMutability": "view",
            "type": "function"
        },
        {
            "inputs": [
                {
                    "internalType": "uint256[]",
                    "name": "_values",
                    "type": "uint256[]"
                },
                {
                    "internalType": "bool[]",
                    "name": "_fake",
                    "type": "bool[]"
                },
                {
                    "internalType": "bytes32[]",
                    "name": "_secret",
                    "type": "bytes32[]"
                }
            ],
            "name": "reveal",
            "outputs": [],
            "stateMutability": "nonpayable",
            "type": "function"
        },
        {
            "inputs": [],
            "name": "revealDuration",
            "outputs": [
                {
                    "internalType": "uint256",
                    "name": "",
                    "type": "uint256"
                }
            ],
            "stateMutability": "view",
            "type": "function"
        },
        {
            "inputs": [],
            "name": "revealEnd",
            "outputs": [
                {
                    "internalType": "uint256",
                    "name": "",
                    "type": "uint256"
                }
            ],
            "stateMutability": "view",
            "type": "function"
        },
        {
            "inputs": [],
            "name": "withdraw",
            "outputs": [],
            "stateMutability": "nonpayable",
            "type": "function"
        }
    ],
    "bytecode": "6080604052600260045560026005553480156200001b57600080fd5b506040516200113c3803806200113c833981810160405260208110156200004157600080fd5b81019080805160405193929190846401000000008211156200006257600080fd5b9083019060208201858111156200007857600080fd5b82516401000000008111828201881017156200009357600080fd5b82525081516020918201929091019080838360005b83811015620000c2578181015183820152602001620000a8565b50505050905090810190601f168015620000f05780820380516001836020036101000a031916815260200191505b506040525050600080546001600160a01b031916331790555080516200011e90600190602084019062000137565b50506004544301600281905560055401600355620001dc565b828054600181600116156101000203166002900490600052602060002090601f016020900481019282601f106200017a57805160ff1916838001178555620001aa565b82800160010185558215620001aa579182015b82811115620001aa5782518255916020019190600101906200018d565b50620001b8929150620001bc565b5090565b620001d991905b80821115620001b85760008155600101620001c3565b90565b610f5080620001ec6000396000f3fe60806040526004361061012a5760003560e01c80638da5cb5b116100ab578063a7dae9091161006f578063a7dae9091461062d578063c5e434d914610642578063c8e7b31d14610657578063d57bde791461066c578063d70754ec14610681578063fcaa76641461070b5761012a565b80638da5cb5b14610403578063900f080a1461043457806391f90157146105e6578063957bb1e0146105fb578063a6e66477146106185761012a565b80633ccfd60b116100f25780633ccfd60b14610398578063423b217f146103af5780634e528de8146103c457806386c62a8f146103d9578063886a6de1146103ee5761012a565b806301495c1c1461012f57806312fa6feb14610181578063164db64c146101aa57806324905986146101d15780632fd7e5dd14610383575b600080fd5b34801561013b57600080fd5b506101686004803603604081101561015257600080fd5b506001600160a01b038135169060200135610720565b6040805192835260208301919091528051918290030190f35b34801561018d57600080fd5b50610196610759565b604080519115158252519081900360200190f35b3480156101b657600080fd5b506101bf610762565b60408051918252519081900360200190f35b3480156101dd57600080fd5b50610196600480360360608110156101f457600080fd5b810190602081018135600160201b81111561020e57600080fd5b82018360208201111561022057600080fd5b803590602001918460208302840111600160201b8311171561024157600080fd5b9190808060200260200160405190810160405280939291908181526020018383602002808284376000920191909152509295949360208101935035915050600160201b81111561029057600080fd5b8201836020820111156102a257600080fd5b803590602001918460208302840111600160201b831117156102c357600080fd5b9190808060200260200160405190810160405280939291908181526020018383602002808284376000920191909152509295949360208101935035915050600160201b81111561031257600080fd5b82018360208201111561032457600080fd5b803590602001918460208302840111600160201b8311171561034557600080fd5b919080806020026020016040519081016040528093929190818152602001838360200280828437600092019190915250929550610776945050505050565b34801561038f57600080fd5b506101bf610868565b3480156103a457600080fd5b506103ad6108b8565b005b3480156103bb57600080fd5b506101bf61090e565b3480156103d057600080fd5b50610196610914565b3480156103e557600080fd5b506103ad610922565b3480156103fa57600080fd5b506101bf610a6d565b34801561040f57600080fd5b50610418610a73565b604080516001600160a01b039092168252519081900360200190f35b34801561044057600080fd5b506103ad6004803603606081101561045757600080fd5b810190602081018135600160201b81111561047157600080fd5b82018360208201111561048357600080fd5b803590602001918460208302840111600160201b831117156104a457600080fd5b9190808060200260200160405190810160405280939291908181526020018383602002808284376000920191909152509295949360208101935035915050600160201b8111156104f357600080fd5b82018360208201111561050557600080fd5b803590602001918460208302840111600160201b8311171561052657600080fd5b9190808060200260200160405190810160405280939291908181526020018383602002808284376000920191909152509295949360208101935035915050600160201b81111561057557600080fd5b82018360208201111561058757600080fd5b803590602001918460208302840111600160201b831117156105a857600080fd5b919080806020026020016040519081016040528093929190818152602001838360200280828437600092019190915250929550610a82945050505050565b3480156105f257600080fd5b50610418610c3a565b6103ad6004803603602081101561061157600080fd5b5035610c4f565b34801561062457600080fd5b506101bf610ca6565b34801561063957600080fd5b506101bf610cac565b34801561064e57600080fd5b506101bf610cb2565b34801561066357600080fd5b506101bf610cc5565b34801561067857600080fd5b506101bf610ccb565b34801561068d57600080fd5b50610696610cd1565b6040805160208082528351818301528351919283929083019185019080838360005b838110156106d05781810151838201526020016106b8565b50505050905090810190601f1680156106fd5780820380516001836020036101000a031916815260200191505b509250505060405180910390f35b34801561071757600080fd5b50610696610d5e565b6008602052816000526040600020818154811061073957fe5b600091825260209091206002909102018054600190910154909250905082565b60065460ff1681565b336000908152600a60205260409020545b90565b336000908152600860205260408120541561085d578360008151811061079857fe5b6020026020010151836000815181106107ad57fe5b6020026020010151836000815181106107c257fe5b602002602001015160405160200180848152602001831515151560f81b815260010182815260200193505050506040516020818303038152906040528051906020012060086000336001600160a01b03166001600160a01b0316815260200190815260200160002060008154811061083657fe5b9060005260206000209060020201600001541461085557506000610861565b506001610861565b5060005b9392505050565b33600090815260086020526040812054156108b057336000908152600860205260408120805490919061089757fe5b9060005260206000209060020201600101549050610773565b5062010f2c90565b33600090815260096020526040902054801561090b57336000818152600960205260408082208290555183156108fc0291849190818181858888f19350505050158015610909573d6000803e3d6000fd5b505b50565b60025481565b600654610100900460ff1681565b60035480431161093157600080fd5b6006546201000090046001600160a01b0316331461094e57600080fd5b600654610100900460ff161561096357600080fd5b6006805461010061ff001990911681179091556000546007546040516356d36ae160e01b815233602482018190526044820183905260606004830190815260018054600281831615909802600019011696909604606484018190526001600160a01b039095169586956356d36ae195949193928592909182916084019086908015610a2f5780601f10610a0457610100808354040283529160200191610a2f565b820191906000526020600020905b815481529060010190602001808311610a1257829003601f168201915b50509450505050506000604051808303818588803b158015610a5057600080fd5b505af1158015610a64573d6000803e3d6000fd5b50505050505050565b60055481565b6000546001600160a01b031681565b600254804311610a9157600080fd5b60035480431115610aa157600080fd5b3360009081526008602052604090205485518114610abe57600080fd5b80855114610acb57600080fd5b80845114610ad857600080fd5b6000805b82811015610bed57336000908152600860205260408120805483908110610aff57fe5b9060005260206000209060020201905060008060008b8581518110610b2057fe5b60200260200101518b8681518110610b3457fe5b60200260200101518b8781518110610b4857fe5b602002602001015192509250925082828260405160200180848152602001831515151560f81b8152600101828152602001935050505060405160208183030381529060405280519060200120846000015414610ba75750505050610be5565b83600101548601955081158015610bc2575082846001015410155b15610bdc57610bd13384610dd7565b15610bdc5782860395505b50506000909155505b600101610adc565b50604051339082156108fc029083906000818181858888f19350505050158015610c1b573d6000803e3d6000fd5b50336000908152600a6020526040902080549091019055505050505050565b6006546201000090046001600160a01b031681565b60025480431115610c5f57600080fd5b503360009081526008602090815260408083208151808301909252938152348183019081528454600181810187559585529290932090516002909202019081559051910155565b60035481565b60075490565b3360009081526009602052604090205490565b60045481565b60075481565b60018054604080516020600284861615610100026000190190941693909304601f81018490048402820184019092528181529291830182828015610d565780601f10610d2b57610100808354040283529160200191610d56565b820191906000526020600020905b815481529060010190602001808311610d3957829003601f168201915b505050505081565b6060600254431015610d8a5750604080518082019091526003815262189a5960ea1b6020820152610773565b600354431015610db757506040805180820190915260068152651c995d99585b60d21b6020820152610773565b50604080518082019091526003815262195b9960ea1b6020820152610773565b60006007548211610dea57506000610f14565b6006546201000090046001600160a01b031615610e2c576007546006546201000090046001600160a01b03166000908152600960205260409020805490910190555b60078290556006805462010000600160b01b031916620100006001600160a01b0386811682029290921792839055604080519190930490911681526020810184905281517fb82fefdc651ee0dc2a48092a0a107978c235739dfbc58b8f52a11e939ea2d750929181900390910190a1600080546006546007546040805163a7181ae360e01b8152620100009093046001600160a01b03908116600485015260248401929092525192169263a7181ae39260448084019382900301818387803b158015610ef757600080fd5b505af1158015610f0b573d6000803e3d6000fd5b50505050600190505b9291505056fea264697066735822122076d702e085540fc993194f44a14f777a953ccb4402a86f1856caa16bcc254b5d64736f6c63430006000033",
    "sourcePath": "c:/Users/kai/OneDrive - Nanyang Technological University/Work/2020/2020-2021 Sem 1/Blockchain Technology/devproj/repo/contracts/BlindAuction.sol",
    "compiler": {
        "name": "solc",
        "version": "0.6.0+commit.26b70077"
    },
    "functionHashes": {
        "bid(bytes32)": "957bb1e0",
        "biddingDuration()": "c8e7b31d",
        "biddingEnd()": "423b217f",
        "bids(address,uint256)": "01495c1c",
        "checkBidAmount()": "2fd7e5dd",
        "checkHash(uint256[],bool[],bytes32[])": "24905986",
        "checkHighestBid()": "a7dae909",
        "checkPendingReturns()": "c5e434d9",
        "checkRefunded()": "164db64c",
        "claimWinnerReward()": "86c62a8f",
        "domainClaimed()": "4e528de8",
        "ended()": "12fa6feb",
        "getStage()": "fcaa7664",
        "highestBid()": "d57bde79",
        "highestBidder()": "91f90157",
        "node()": "d70754ec",
        "owner()": "8da5cb5b",
        "reveal(uint256[],bool[],bytes32[])": "900f080a",
        "revealDuration()": "886a6de1",
        "revealEnd()": "a6e66477",
        "withdraw()": "3ccfd60b"
    },
    "gasEstimates": {
        "creation": {
            "codeDepositCost": "784000",
            "executionCost": "infinite",
            "totalCost": "infinite"
        },
        "external": {
            "bid(bytes32)": "62136",
            "biddingDuration()": "1064",
            "biddingEnd()": "1043",
            "bids(address,uint256)": "2912",
            "checkBidAmount()": "2979",
            "checkHash(uint256[],bool[],bytes32[])": "infinite",
            "checkHighestBid()": "1020",
            "checkPendingReturns()": "1110",
            "checkRefunded()": "1135",
            "claimWinnerReward()": "infinite",
            "domainClaimed()": "1088",
            "ended()": "1056",
            "getStage()": "infinite",
            "highestBid()": "1086",
            "highestBidder()": "1115",
            "node()": "infinite",
            "owner()": "1060",
            "reveal(uint256[],bool[],bytes32[])": "infinite",
            "revealDuration()": "1109",
            "revealEnd()": "1109",
            "withdraw()": "infinite"
        },
        "internal": {
            "checkIfHighestBid(address,uint256)": "infinite"
        }
    }
}