{
    "contractName": "DomainRegistry",
    "abi": [
        {
            "inputs": [],
            "payable": false,
            "stateMutability": "nonpayable",
            "type": "constructor"
        },
        {
            "anonymous": false,
            "inputs": [
                {
                    "indexed": false,
                    "internalType": "bytes32",
                    "name": "node",
                    "type": "bytes32"
                },
                {
                    "indexed": false,
                    "internalType": "address",
                    "name": "auctionAddress",
                    "type": "address"
                }
            ],
            "name": "NewAuctionStarted",
            "type": "event"
        },
        {
            "anonymous": false,
            "inputs": [
                {
                    "indexed": false,
                    "internalType": "bytes32",
                    "name": "node",
                    "type": "bytes32"
                },
                {
                    "indexed": false,
                    "internalType": "address",
                    "name": "newOwner",
                    "type": "address"
                },
                {
                    "indexed": false,
                    "internalType": "uint256",
                    "name": "highestBid",
                    "type": "uint256"
                }
            ],
            "name": "NewDomainClaimed",
            "type": "event"
        },
        {
            "anonymous": false,
            "inputs": [],
            "name": "RecordsUpdate",
            "type": "event"
        },
        {
            "constant": true,
            "inputs": [
                {
                    "internalType": "bytes32",
                    "name": "node",
                    "type": "bytes32"
                }
            ],
            "name": "checkIfRegistered",
            "outputs": [
                {
                    "internalType": "bool",
                    "name": "",
                    "type": "bool"
                }
            ],
            "payable": false,
            "stateMutability": "view",
            "type": "function"
        },
        {
            "constant": true,
            "inputs": [],
            "name": "owner",
            "outputs": [
                {
                    "internalType": "address",
                    "name": "",
                    "type": "address"
                }
            ],
            "payable": false,
            "stateMutability": "view",
            "type": "function"
        },
        {
            "constant": false,
            "inputs": [
                {
                    "internalType": "bytes32",
                    "name": "node",
                    "type": "bytes32"
                },
                {
                    "internalType": "address",
                    "name": "newOwner",
                    "type": "address"
                },
                {
                    "internalType": "uint256",
                    "name": "highestBid",
                    "type": "uint256"
                }
            ],
            "name": "registerOwner",
            "outputs": [],
            "payable": true,
            "stateMutability": "payable",
            "type": "function"
        },
        {
            "constant": false,
            "inputs": [
                {
                    "internalType": "bytes32",
                    "name": "node",
                    "type": "bytes32"
                }
            ],
            "name": "startAuction",
            "outputs": [
                {
                    "internalType": "address",
                    "name": "auctionAddress",
                    "type": "address"
                }
            ],
            "payable": false,
            "stateMutability": "nonpayable",
            "type": "function"
        },
        {
            "constant": true,
            "inputs": [
                {
                    "internalType": "bytes32",
                    "name": "node",
                    "type": "bytes32"
                }
            ],
            "name": "viewAuctionAddress",
            "outputs": [
                {
                    "internalType": "address",
                    "name": "",
                    "type": "address"
                }
            ],
            "payable": false,
            "stateMutability": "view",
            "type": "function"
        },
        {
            "constant": true,
            "inputs": [
                {
                    "internalType": "bytes32",
                    "name": "node",
                    "type": "bytes32"
                }
            ],
            "name": "viewRecordOwner",
            "outputs": [
                {
                    "internalType": "address",
                    "name": "",
                    "type": "address"
                }
            ],
            "payable": false,
            "stateMutability": "view",
            "type": "function"
        },
        {
            "constant": true,
            "inputs": [
                {
                    "internalType": "bytes32",
                    "name": "node",
                    "type": "bytes32"
                }
            ],
            "name": "viewRegistration",
            "outputs": [
                {
                    "internalType": "bool",
                    "name": "",
                    "type": "bool"
                }
            ],
            "payable": false,
            "stateMutability": "view",
            "type": "function"
        },
        {
            "constant": true,
            "inputs": [],
            "name": "viewThisAddress",
            "outputs": [
                {
                    "internalType": "address",
                    "name": "",
                    "type": "address"
                }
            ],
            "payable": false,
            "stateMutability": "view",
            "type": "function"
        }
    ],
    "bytecode": "6080604052603260005534801561001557600080fd5b50600180546001600160a01b03191633179055611259806100376000396000f3fe60806040526004361061007b5760003560e01c80639daf90441161004e5780639daf90441461012e578063cde4f0c014610162578063ede8acdb1461018c578063f1a982fc146101b65761007b565b8063212a8cd9146100805780635f7a6666146100be5780638c3e57f6146100ef5780638da5cb5b14610119575b600080fd5b34801561008c57600080fd5b506100aa600480360360208110156100a357600080fd5b50356101e0565b604080519115158252519081900360200190f35b3480156100ca57600080fd5b506100d361020d565b604080516001600160a01b039092168252519081900360200190f35b3480156100fb57600080fd5b506100d36004803603602081101561011257600080fd5b5035610211565b34801561012557600080fd5b506100d361022c565b6101606004803603606081101561014457600080fd5b508035906001600160a01b03602082013516906040013561023b565b005b34801561016e57600080fd5b506100aa6004803603602081101561018557600080fd5b503561033c565b34801561019857600080fd5b506100d3600480360360208110156101af57600080fd5b5035610354565b3480156101c257600080fd5b506100d3600480360360208110156101d957600080fd5b50356104c0565b6000818152600460205260408120546001600160a01b031661020457506000610208565b5060015b919050565b3090565b6000908152600460205260409020546001600160a01b031690565b6001546001600160a01b031681565b60008381526004602052604090206001015483906001600160a01b0316331461026357600080fd5b6000805482825260046020526040909120600201544391011161028557600080fd5b600084815260046020908152604080832080546001600160a01b0388166001600160a01b0319909116811782556003909101805460ff191660019081179091556002805491820181559094527f405787fa12a823e0f2b7631cc41b3ba8828b3321ca811111fa75cd3aa3bb5ace90930187905580518781529182019290925280820184905290517f8ffd1c59775cf518923828a1f4116e38c409041b29ca057e2c922781abb82a009181900360600190a150505050565b60009081526004602052604090206003015460ff1690565b600081815260046020526040812060030154829060ff161561037557600080fd5b600083815260046020526040902060030154839060ff610100909104161515600114156103be57600080548282526004602052604090912060020154439101106103be57600080fd5b836040516103cb906104de565b90815260405190819003602001906000f0801580156103ee573d6000803e3d6000fd5b50600085815260046020908152604091829020600180820180546001600160a01b0319166001600160a01b039687161781554360028401556003928301805461010061ff001990911617905582549182019092557fc2575a0e9e593c00f959f8c92f12db2869c3395a3b0502d05e2516446f71f85b0188905554825188815293169083015280517f283c5968de49ef94d0ab89ee73dc06dd00f7f42c07d63d7f2aa9660c16dcc4c79281900390910190a15050506000908152600460205260409020600101546001600160a01b031690565b6000908152600460205260409020600101546001600160a01b031690565b610d39806104ec8339019056fe6080604052600a600455600a60055534801561001a57600080fd5b50604051610d39380380610d398339818101604052602081101561003d57600080fd5b5051600080546001600160a01b031916331790556001556004544301600281905560055401600355610cc5806100746000396000f3fe60806040526004361061011f5760003560e01c80638da5cb5b116100a0578063a7dae90911610064578063a7dae90914610622578063c5e434d914610637578063c8e7b31d1461064c578063d57bde7914610661578063d70754ec146106765761011f565b80638da5cb5b146103f8578063900f080a1461042957806391f90157146105db578063957bb1e0146105f0578063a6e664771461060d5761011f565b80633ccfd60b116100e75780633ccfd60b1461038d578063423b217f146103a45780634e528de8146103b957806386c62a8f146103ce578063886a6de1146103e35761011f565b806301495c1c1461012457806312fa6feb14610176578063164db64c1461019f57806324905986146101c65780632fd7e5dd14610378575b600080fd5b34801561013057600080fd5b5061015d6004803603604081101561014757600080fd5b506001600160a01b03813516906020013561068b565b6040805192835260208301919091528051918290030190f35b34801561018257600080fd5b5061018b6106c4565b604080519115158252519081900360200190f35b3480156101ab57600080fd5b506101b46106cd565b60408051918252519081900360200190f35b3480156101d257600080fd5b5061018b600480360360608110156101e957600080fd5b810190602081018135600160201b81111561020357600080fd5b82018360208201111561021557600080fd5b803590602001918460208302840111600160201b8311171561023657600080fd5b9190808060200260200160405190810160405280939291908181526020018383602002808284376000920191909152509295949360208101935035915050600160201b81111561028557600080fd5b82018360208201111561029757600080fd5b803590602001918460208302840111600160201b831117156102b857600080fd5b9190808060200260200160405190810160405280939291908181526020018383602002808284376000920191909152509295949360208101935035915050600160201b81111561030757600080fd5b82018360208201111561031957600080fd5b803590602001918460208302840111600160201b8311171561033a57600080fd5b9190808060200260200160405190810160405280939291908181526020018383602002808284376000920191909152509295506106e1945050505050565b34801561038457600080fd5b506101b46107d3565b34801561039957600080fd5b506103a2610823565b005b3480156103b057600080fd5b506101b4610879565b3480156103c557600080fd5b5061018b61087f565b3480156103da57600080fd5b506103a261088d565b3480156103ef57600080fd5b506101b461095a565b34801561040457600080fd5b5061040d610960565b604080516001600160a01b039092168252519081900360200190f35b34801561043557600080fd5b506103a26004803603606081101561044c57600080fd5b810190602081018135600160201b81111561046657600080fd5b82018360208201111561047857600080fd5b803590602001918460208302840111600160201b8311171561049957600080fd5b9190808060200260200160405190810160405280939291908181526020018383602002808284376000920191909152509295949360208101935035915050600160201b8111156104e857600080fd5b8201836020820111156104fa57600080fd5b803590602001918460208302840111600160201b8311171561051b57600080fd5b9190808060200260200160405190810160405280939291908181526020018383602002808284376000920191909152509295949360208101935035915050600160201b81111561056a57600080fd5b82018360208201111561057c57600080fd5b803590602001918460208302840111600160201b8311171561059d57600080fd5b91908080602002602001604051908101604052809392919081815260200183836020028082843760009201919091525092955061096f945050505050565b3480156105e757600080fd5b5061040d610b26565b6103a26004803603602081101561060657600080fd5b5035610b3b565b34801561061957600080fd5b506101b4610b91565b34801561062e57600080fd5b506101b4610b97565b34801561064357600080fd5b506101b4610b9d565b34801561065857600080fd5b506101b4610bb0565b34801561066d57600080fd5b506101b4610bb6565b34801561068257600080fd5b506101b4610bbc565b600860205281600052604060002081815481106106a457fe5b600091825260209091206002909102018054600190910154909250905082565b60065460ff1681565b336000908152600a60205260409020545b90565b33600090815260086020526040812054156107c8578360008151811061070357fe5b60200260200101518360008151811061071857fe5b60200260200101518360008151811061072d57fe5b602002602001015160405160200180848152602001831515151560f81b815260010182815260200193505050506040516020818303038152906040528051906020012060086000336001600160a01b03166001600160a01b031681526020019081526020016000206000815481106107a157fe5b906000526020600020906002020160000154146107c0575060006107cc565b5060016107cc565b5060005b9392505050565b336000908152600860205260408120541561081b57336000908152600860205260408120805490919061080257fe5b90600052602060002090600202016001015490506106de565b5062010f2c90565b33600090815260096020526040902054801561087657336000818152600960205260408082208290555183156108fc0291849190818181858888f19350505050158015610874573d6000803e3d6000fd5b505b50565b60025481565b600654610100900460ff1681565b60035480431161089c57600080fd5b6006546201000090046001600160a01b031633146108b957600080fd5b600654610100900460ff16156108ce57600080fd5b6006805461ff001916610100179055600080546007546001546040805163276be41160e21b8152600481019290925233602483015260448201839052516001600160a01b03909316938493639daf90449392606480820193929182900301818588803b15801561093d57600080fd5b505af1158015610951573d6000803e3d6000fd5b50505050505050565b60055481565b6000546001600160a01b031681565b60025480431161097e57600080fd5b60035480431061098d57600080fd5b33600090815260086020526040902054855181146109aa57600080fd5b808551146109b757600080fd5b808451146109c457600080fd5b6000805b82811015610ad9573360009081526008602052604081208054839081106109eb57fe5b9060005260206000209060020201905060008060008b8581518110610a0c57fe5b60200260200101518b8681518110610a2057fe5b60200260200101518b8781518110610a3457fe5b602002602001015192509250925082828260405160200180848152602001831515151560f81b8152600101828152602001935050505060405160208183030381529060405280519060200120846000015414610a935750505050610ad1565b83600101548601955081158015610aae575082846001015410155b15610ac857610abd3384610bc2565b15610ac85782860395505b50506000909155505b6001016109c8565b50604051339082156108fc029083906000818181858888f19350505050158015610b07573d6000803e3d6000fd5b50336000908152600a6020526040902080549091019055505050505050565b6006546201000090046001600160a01b031681565b600254804310610b4a57600080fd5b503360009081526008602090815260408083208151808301909252938152348183019081528454600181810187559585529290932090516002909202019081559051910155565b60035481565b60075490565b3360009081526009602052604090205490565b60045481565b60075481565b60015481565b60006007548211610bd557506000610c8a565b6006546201000090046001600160a01b031615610c17576007546006546201000090046001600160a01b03166000908152600960205260409020805490910190555b60078290556006805462010000600160b01b031916620100006001600160a01b0386811682029290921792839055604080519190930490911681526020810184905281517fb82fefdc651ee0dc2a48092a0a107978c235739dfbc58b8f52a11e939ea2d750929181900390910190a15060015b9291505056fea265627a7a7231582004c62fa9cdcaaabdd0467f3740cd19218066c3082d6aaa84ec21d7b417575f3564736f6c63430005100032a265627a7a7231582085d93cae30860f0a0fd7d303145b71df5cca19ef7038d508afcfa26246203e2064736f6c63430005100032",
    "sourcePath": "c:/Users/kai/OneDrive - Nanyang Technological University/Work/2020/2020-2021 Sem 1/Blockchain Technology/devproj/repo/contracts/DomainRegistry.sol",
    "compiler": {
        "name": "solc",
        "version": "0.5.16+commit.9c3226ce"
    },
    "functionHashes": {
        "checkIfRegistered(bytes32)": "212a8cd9",
        "owner()": "8da5cb5b",
        "registerOwner(bytes32,address,uint256)": "9daf9044",
        "startAuction(bytes32)": "ede8acdb",
        "viewAuctionAddress(bytes32)": "f1a982fc",
        "viewRecordOwner(bytes32)": "8c3e57f6",
        "viewRegistration(bytes32)": "cde4f0c0",
        "viewThisAddress()": "5f7a6666"
    },
    "gasEstimates": {
        "creation": {
            "codeDepositCost": "939400",
            "executionCost": "41816",
            "totalCost": "981216"
        },
        "external": {
            "checkIfRegistered(bytes32)": "1166",
            "owner()": "1104",
            "registerOwner(bytes32,address,uint256)": "87081",
            "startAuction(bytes32)": "infinite",
            "viewAuctionAddress(bytes32)": "1217",
            "viewRecordOwner(bytes32)": "1190",
            "viewRegistration(bytes32)": "1146",
            "viewThisAddress()": "241"
        }
    }
}