{
  "contractName": "BlindAuction",
  "abi": [
    {
      "inputs": [
        {
          "internalType": "string",
          "name": "_node",
          "type": "string"
        }
      ],
      "stateMutability": "nonpayable",
      "type": "constructor"
    },
    {
      "anonymous": false,
      "inputs": [
        {
          "indexed": false,
          "internalType": "address",
          "name": "winner",
          "type": "address"
        },
        {
          "indexed": false,
          "internalType": "uint256",
          "name": "highestBid",
          "type": "uint256"
        }
      ],
      "name": "PotentialWinnerFound",
      "type": "event"
    },
    {
      "anonymous": false,
      "inputs": [
        {
          "indexed": false,
          "internalType": "address",
          "name": "winner",
          "type": "address"
        },
        {
          "indexed": false,
          "internalType": "uint256",
          "name": "highestBid",
          "type": "uint256"
        }
      ],
      "name": "WinnerClaimed",
      "type": "event"
    },
    {
      "inputs": [],
      "name": "biddingDuration",
      "outputs": [
        {
          "internalType": "uint256",
          "name": "",
          "type": "uint256"
        }
      ],
      "stateMutability": "view",
      "type": "function"
    },
    {
      "inputs": [],
      "name": "biddingEnd",
      "outputs": [
        {
          "internalType": "uint256",
          "name": "",
          "type": "uint256"
        }
      ],
      "stateMutability": "view",
      "type": "function"
    },
    {
      "inputs": [
        {
          "internalType": "address",
          "name": "",
          "type": "address"
        },
        {
          "internalType": "uint256",
          "name": "",
          "type": "uint256"
        }
      ],
      "name": "bids",
      "outputs": [
        {
          "internalType": "bytes32",
          "name": "blindedBid",
          "type": "bytes32"
        },
        {
          "internalType": "uint256",
          "name": "deposit",
          "type": "uint256"
        }
      ],
      "stateMutability": "view",
      "type": "function"
    },
    {
      "inputs": [],
      "name": "domainClaimed",
      "outputs": [
        {
          "internalType": "bool",
          "name": "",
          "type": "bool"
        }
      ],
      "stateMutability": "view",
      "type": "function"
    },
    {
      "inputs": [],
      "name": "ended",
      "outputs": [
        {
          "internalType": "bool",
          "name": "",
          "type": "bool"
        }
      ],
      "stateMutability": "view",
      "type": "function"
    },
    {
      "inputs": [],
      "name": "highestBid",
      "outputs": [
        {
          "internalType": "uint256",
          "name": "",
          "type": "uint256"
        }
      ],
      "stateMutability": "view",
      "type": "function"
    },
    {
      "inputs": [],
      "name": "highestBidder",
      "outputs": [
        {
          "internalType": "address",
          "name": "",
          "type": "address"
        }
      ],
      "stateMutability": "view",
      "type": "function"
    },
    {
      "inputs": [],
      "name": "node",
      "outputs": [
        {
          "internalType": "string",
          "name": "",
          "type": "string"
        }
      ],
      "stateMutability": "view",
      "type": "function"
    },
    {
      "inputs": [],
      "name": "owner",
      "outputs": [
        {
          "internalType": "address payable",
          "name": "",
          "type": "address"
        }
      ],
      "stateMutability": "view",
      "type": "function"
    },
    {
      "inputs": [],
      "name": "revealDuration",
      "outputs": [
        {
          "internalType": "uint256",
          "name": "",
          "type": "uint256"
        }
      ],
      "stateMutability": "view",
      "type": "function"
    },
    {
      "inputs": [],
      "name": "revealEnd",
      "outputs": [
        {
          "internalType": "uint256",
          "name": "",
          "type": "uint256"
        }
      ],
      "stateMutability": "view",
      "type": "function"
    },
    {
      "inputs": [
        {
          "internalType": "bytes32",
          "name": "_blindedBid",
          "type": "bytes32"
        }
      ],
      "name": "bid",
      "outputs": [],
      "stateMutability": "payable",
      "type": "function"
    },
    {
      "inputs": [
        {
          "internalType": "uint256[]",
          "name": "_values",
          "type": "uint256[]"
        },
        {
          "internalType": "bool[]",
          "name": "_fake",
          "type": "bool[]"
        },
        {
          "internalType": "bytes32[]",
          "name": "_secret",
          "type": "bytes32[]"
        }
      ],
      "name": "reveal",
      "outputs": [],
      "stateMutability": "nonpayable",
      "type": "function"
    },
    {
      "inputs": [],
      "name": "withdraw",
      "outputs": [],
      "stateMutability": "nonpayable",
      "type": "function"
    },
    {
      "inputs": [],
      "name": "claimWinnerReward",
      "outputs": [],
      "stateMutability": "nonpayable",
      "type": "function"
    },
    {
      "inputs": [],
      "name": "getStage",
      "outputs": [
        {
          "internalType": "string",
          "name": "",
          "type": "string"
        }
      ],
      "stateMutability": "view",
      "type": "function"
    },
    {
      "inputs": [],
      "name": "checkBidAmount",
      "outputs": [
        {
          "internalType": "uint256",
          "name": "",
          "type": "uint256"
        }
      ],
      "stateMutability": "view",
      "type": "function"
    },
    {
      "inputs": [],
      "name": "checkRefunded",
      "outputs": [
        {
          "internalType": "uint256",
          "name": "",
          "type": "uint256"
        }
      ],
      "stateMutability": "view",
      "type": "function"
    },
    {
      "inputs": [],
      "name": "checkPendingReturns",
      "outputs": [
        {
          "internalType": "uint256",
          "name": "",
          "type": "uint256"
        }
      ],
      "stateMutability": "view",
      "type": "function"
    },
    {
      "inputs": [
        {
          "internalType": "uint256[]",
          "name": "_values",
          "type": "uint256[]"
        },
        {
          "internalType": "bool[]",
          "name": "_fake",
          "type": "bool[]"
        },
        {
          "internalType": "bytes32[]",
          "name": "_secret",
          "type": "bytes32[]"
        }
      ],
      "name": "checkHash",
      "outputs": [
        {
          "internalType": "bool",
          "name": "",
          "type": "bool"
        }
      ],
      "stateMutability": "view",
      "type": "function"
    },
    {
      "inputs": [],
      "name": "checkHighestBid",
      "outputs": [
        {
          "internalType": "uint256",
          "name": "",
          "type": "uint256"
        }
      ],
      "stateMutability": "view",
      "type": "function"
    }
  ],
  "bytecode": "0x6080604052600260045560026005553480156200001b57600080fd5b506040516200198938038062001989833981810160405260208110156200004157600080fd5b81019080805160405193929190846401000000008211156200006257600080fd5b838201915060208201858111156200007957600080fd5b82518660018202830111640100000000821117156200009757600080fd5b8083526020830192505050908051906020019080838360005b83811015620000cd578082015181840152602081019050620000b0565b50505050905090810190601f168015620000fb5780820380516001836020036101000a031916815260200191505b50604052505050336000806101000a81548173ffffffffffffffffffffffffffffffffffffffff021916908373ffffffffffffffffffffffffffffffffffffffff16021790555080600190805190602001906200015a9291906200017a565b506004544301600281905550600554600254016003819055505062000229565b828054600181600116156101000203166002900490600052602060002090601f016020900481019282601f10620001bd57805160ff1916838001178555620001ee565b82800160010185558215620001ee579182015b82811115620001ed578251825591602001919060010190620001d0565b5b509050620001fd919062000201565b5090565b6200022691905b808211156200022257600081600090555060010162000208565b5090565b90565b61175080620002396000396000f3fe60806040526004361061012a5760003560e01c80638da5cb5b116100ab578063a7dae9091161006f578063a7dae909146107d6578063c5e434d914610801578063c8e7b31d1461082c578063d57bde7914610857578063d70754ec14610882578063fcaa7664146109125761012a565b80638da5cb5b146104e2578063900f080a1461053957806391f9015714610726578063957bb1e01461077d578063a6e66477146107ab5761012a565b80633ccfd60b116100f25780633ccfd60b1461042f578063423b217f146104465780634e528de81461047157806386c62a8f146104a0578063886a6de1146104b75761012a565b806301495c1c1461012f57806312fa6feb146101a5578063164db64c146101d457806324905986146101ff5780632fd7e5dd14610404575b600080fd5b34801561013b57600080fd5b506101886004803603604081101561015257600080fd5b81019080803573ffffffffffffffffffffffffffffffffffffffff169060200190929190803590602001909291905050506109a2565b604051808381526020018281526020019250505060405180910390f35b3480156101b157600080fd5b506101ba6109e0565b604051808215151515815260200191505060405180910390f35b3480156101e057600080fd5b506101e96109f3565b6040518082815260200191505060405180910390f35b34801561020b57600080fd5b506103ea6004803603606081101561022257600080fd5b810190808035906020019064010000000081111561023f57600080fd5b82018360208201111561025157600080fd5b8035906020019184602083028401116401000000008311171561027357600080fd5b919080806020026020016040519081016040528093929190818152602001838360200280828437600081840152601f19601f820116905080830192505050505050509192919290803590602001906401000000008111156102d357600080fd5b8201836020820111156102e557600080fd5b8035906020019184602083028401116401000000008311171561030757600080fd5b919080806020026020016040519081016040528093929190818152602001838360200280828437600081840152601f19601f8201169050808301925050505050505091929192908035906020019064010000000081111561036757600080fd5b82018360208201111561037957600080fd5b8035906020019184602083028401116401000000008311171561039b57600080fd5b919080806020026020016040519081016040528093929190818152602001838360200280828437600081840152601f19601f820116905080830192505050505050509192919290505050610a3a565b604051808215151515815260200191505060405180910390f35b34801561041057600080fd5b50610419610b80565b6040518082815260200191505060405180910390f35b34801561043b57600080fd5b50610444610c3a565b005b34801561045257600080fd5b5061045b610d17565b6040518082815260200191505060405180910390f35b34801561047d57600080fd5b50610486610d1d565b604051808215151515815260200191505060405180910390f35b3480156104ac57600080fd5b506104b5610d30565b005b3480156104c357600080fd5b506104cc610f2d565b6040518082815260200191505060405180910390f35b3480156104ee57600080fd5b506104f7610f33565b604051808273ffffffffffffffffffffffffffffffffffffffff1673ffffffffffffffffffffffffffffffffffffffff16815260200191505060405180910390f35b34801561054557600080fd5b506107246004803603606081101561055c57600080fd5b810190808035906020019064010000000081111561057957600080fd5b82018360208201111561058b57600080fd5b803590602001918460208302840111640100000000831117156105ad57600080fd5b919080806020026020016040519081016040528093929190818152602001838360200280828437600081840152601f19601f8201169050808301925050505050505091929192908035906020019064010000000081111561060d57600080fd5b82018360208201111561061f57600080fd5b8035906020019184602083028401116401000000008311171561064157600080fd5b919080806020026020016040519081016040528093929190818152602001838360200280828437600081840152601f19601f820116905080830192505050505050509192919290803590602001906401000000008111156106a157600080fd5b8201836020820111156106b357600080fd5b803590602001918460208302840111640100000000831117156106d557600080fd5b919080806020026020016040519081016040528093929190818152602001838360200280828437600081840152601f19601f820116905080830192505050505050509192919290505050610f58565b005b34801561073257600080fd5b5061073b6111de565b604051808273ffffffffffffffffffffffffffffffffffffffff1673ffffffffffffffffffffffffffffffffffffffff16815260200191505060405180910390f35b6107a96004803603602081101561079357600080fd5b8101908080359060200190929190505050611204565b005b3480156107b757600080fd5b506107c06112ab565b6040518082815260200191505060405180910390f35b3480156107e257600080fd5b506107eb6112b1565b6040518082815260200191505060405180910390f35b34801561080d57600080fd5b506108166112bb565b6040518082815260200191505060405180910390f35b34801561083857600080fd5b50610841611302565b6040518082815260200191505060405180910390f35b34801561086357600080fd5b5061086c611308565b6040518082815260200191505060405180910390f35b34801561088e57600080fd5b5061089761130e565b6040518080602001828103825283818151815260200191508051906020019080838360005b838110156108d75780820151818401526020810190506108bc565b50505050905090810190601f1680156109045780820380516001836020036101000a031916815260200191505b509250505060405180910390f35b34801561091e57600080fd5b506109276113ac565b6040518080602001828103825283818151815260200191508051906020019080838360005b8381101561096757808201518184015260208101905061094c565b50505050905090810190601f1680156109945780820380516001836020036101000a031916815260200191505b509250505060405180910390f35b600860205281600052604060002081815481106109bb57fe5b9060005260206000209060020201600091509150508060000154908060010154905082565b600660009054906101000a900460ff1681565b6000600a60003373ffffffffffffffffffffffffffffffffffffffff1673ffffffffffffffffffffffffffffffffffffffff16815260200190815260200160002054905090565b600080600860003373ffffffffffffffffffffffffffffffffffffffff1673ffffffffffffffffffffffffffffffffffffffff168152602001908152602001600020805490501115610b745783600081518110610a9357fe5b602002602001015183600081518110610aa857fe5b602002602001015183600081518110610abd57fe5b602002602001015160405160200180848152602001831515151560f81b8152600101828152602001935050505060405160208183030381529060405280519060200120600860003373ffffffffffffffffffffffffffffffffffffffff1673ffffffffffffffffffffffffffffffffffffffff168152602001908152602001600020600081548110610b4b57fe5b90600052602060002090600202016000015414610b6b5760009050610b79565b60019050610b79565b600090505b9392505050565b600080600860003373ffffffffffffffffffffffffffffffffffffffff1673ffffffffffffffffffffffffffffffffffffffff168152602001908152602001600020805490501115610c3057600860003373ffffffffffffffffffffffffffffffffffffffff1673ffffffffffffffffffffffffffffffffffffffff168152602001908152602001600020600081548110610c1757fe5b9060005260206000209060020201600101549050610c37565b62010f2c90505b90565b6000600960003373ffffffffffffffffffffffffffffffffffffffff1673ffffffffffffffffffffffffffffffffffffffff1681526020019081526020016000205490506000811115610d14576000600960003373ffffffffffffffffffffffffffffffffffffffff1673ffffffffffffffffffffffffffffffffffffffff168152602001908152602001600020819055503373ffffffffffffffffffffffffffffffffffffffff166108fc829081150290604051600060405180830381858888f19350505050158015610d12573d6000803e3d6000fd5b505b50565b60025481565b600660019054906101000a900460ff1681565b600354804311610d3f57600080fd5b600660029054906101000a900473ffffffffffffffffffffffffffffffffffffffff1673ffffffffffffffffffffffffffffffffffffffff163373ffffffffffffffffffffffffffffffffffffffff1614610d9957600080fd5b60001515600660019054906101000a900460ff16151514610db957600080fd5b6001600660016101000a81548160ff02191690831515021790555060008060009054906101000a900473ffffffffffffffffffffffffffffffffffffffff1690508073ffffffffffffffffffffffffffffffffffffffff166356d36ae16007546001336007546040518563ffffffff1660e01b815260040180806020018473ffffffffffffffffffffffffffffffffffffffff1673ffffffffffffffffffffffffffffffffffffffff168152602001838152602001828103825285818154600181600116156101000203166002900481526020019150805460018160011615610100020316600290048015610eef5780601f10610ec457610100808354040283529160200191610eef565b820191906000526020600020905b815481529060010190602001808311610ed257829003601f168201915b50509450505050506000604051808303818588803b158015610f1057600080fd5b505af1158015610f24573d6000803e3d6000fd5b50505050505050565b60055481565b6000809054906101000a900473ffffffffffffffffffffffffffffffffffffffff1681565b600254804311610f6757600080fd5b60035480431115610f7757600080fd5b6000600860003373ffffffffffffffffffffffffffffffffffffffff1673ffffffffffffffffffffffffffffffffffffffff16815260200190815260200160002080549050905080865114610fcb57600080fd5b80855114610fd857600080fd5b80845114610fe557600080fd5b600080905060008090505b82811015611140576000600860003373ffffffffffffffffffffffffffffffffffffffff1673ffffffffffffffffffffffffffffffffffffffff168152602001908152602001600020828154811061104457fe5b9060005260206000209060020201905060008060008b858151811061106557fe5b60200260200101518b868151811061107957fe5b60200260200101518b878151811061108d57fe5b602002602001015192509250925082828260405160200180848152602001831515151560f81b81526001018281526020019350505050604051602081830303815290604052805190602001208460000154146110ec5750505050611133565b83600101548601955081158015611107575082846001015410155b15611122576111163384611478565b156111215782860395505b5b6000801b8460000181905550505050505b8080600101915050610ff0565b503373ffffffffffffffffffffffffffffffffffffffff166108fc829081150290604051600060405180830381858888f19350505050158015611187573d6000803e3d6000fd5b5080600a60003373ffffffffffffffffffffffffffffffffffffffff1673ffffffffffffffffffffffffffffffffffffffff1681526020019081526020016000206000828254019250508190555050505050505050565b600660029054906101000a900473ffffffffffffffffffffffffffffffffffffffff1681565b6002548043111561121457600080fd5b600860003373ffffffffffffffffffffffffffffffffffffffff1673ffffffffffffffffffffffffffffffffffffffff1681526020019081526020016000206040518060400160405280848152602001348152509080600181540180825580915050600190039060005260206000209060020201600090919091909150600082015181600001556020820151816001015550505050565b60035481565b6000600754905090565b6000600960003373ffffffffffffffffffffffffffffffffffffffff1673ffffffffffffffffffffffffffffffffffffffff16815260200190815260200160002054905090565b60045481565b60075481565b60018054600181600116156101000203166002900480601f0160208091040260200160405190810160405280929190818152602001828054600181600116156101000203166002900480156113a45780601f10611379576101008083540402835291602001916113a4565b820191906000526020600020905b81548152906001019060200180831161138757829003601f168201915b505050505081565b60606002544310156113f5576040518060400160405280600381526020017f62696400000000000000000000000000000000000000000000000000000000008152509050611475565b60035443101561143c576040518060400160405280600681526020017f72657665616c00000000000000000000000000000000000000000000000000008152509050611475565b6040518060400160405280600381526020017f656e64000000000000000000000000000000000000000000000000000000000081525090505b90565b6000600754821161148c5760009050611714565b600073ffffffffffffffffffffffffffffffffffffffff16600660029054906101000a900473ffffffffffffffffffffffffffffffffffffffff1673ffffffffffffffffffffffffffffffffffffffff16146115545760075460096000600660029054906101000a900473ffffffffffffffffffffffffffffffffffffffff1673ffffffffffffffffffffffffffffffffffffffff1673ffffffffffffffffffffffffffffffffffffffff168152602001908152602001600020600082825401925050819055505b8160078190555082600660026101000a81548173ffffffffffffffffffffffffffffffffffffffff021916908373ffffffffffffffffffffffffffffffffffffffff1602179055507fb82fefdc651ee0dc2a48092a0a107978c235739dfbc58b8f52a11e939ea2d750600660029054906101000a900473ffffffffffffffffffffffffffffffffffffffff16600754604051808373ffffffffffffffffffffffffffffffffffffffff1673ffffffffffffffffffffffffffffffffffffffff1681526020018281526020019250505060405180910390a16000809054906101000a900473ffffffffffffffffffffffffffffffffffffffff1673ffffffffffffffffffffffffffffffffffffffff1663a7181ae3600660029054906101000a900473ffffffffffffffffffffffffffffffffffffffff166007546040518363ffffffff1660e01b8152600401808373ffffffffffffffffffffffffffffffffffffffff1673ffffffffffffffffffffffffffffffffffffffff16815260200182815260200192505050600060405180830381600087803b1580156116f757600080fd5b505af115801561170b573d6000803e3d6000fd5b50505050600190505b9291505056fea2646970667358221220045ed031f5f0311edecc86d978cb0e82ab05daddc692940977fd00cbab11a33564736f6c63430006000033",
  "source": "// SPDX-License-Identifier: GPL-3.0\r\n//pragma solidity ^0.5.16;\r\npragma solidity ^0.6.0;\r\nimport './DomainRegistry.sol';\r\n\r\ncontract BlindAuction {\r\n    \r\n    //static variables\r\n    address payable public owner;\r\n    string public node;\r\n    uint public biddingEnd;\r\n    uint public revealEnd;\r\n    uint public biddingDuration = 2; //blocks\r\n    uint public revealDuration = 2; //blocks\r\n    bool public ended;\r\n    bool public domainClaimed;\r\n    \r\n    //state\r\n    address public highestBidder;\r\n    uint public highestBid;\r\n    \r\n    //events\r\n    event WinnerClaimed(address winner, uint highestBid);\r\n    // for debugging\r\n    event PotentialWinnerFound(address winner, uint highestBid);\r\n\r\n    //modifiers\r\n    //godammit kaichin you put the wrong condition at first\r\n    //modifier onlyBefore(uint _block) { require(block.number < _block); _; }\r\n    //cus of the above the auction locks up for ONE ENTIRE BLOCK (between bid stage and reveal stage)\r\n    //TODO: repent\r\n    modifier onlyBefore(uint _block) { require(block.number <= _block); _; }\r\n    modifier onlyAfter(uint _block) { require(block.number > _block); _; }\r\n\r\n    struct Bid {\r\n        bytes32 blindedBid; //hash(value, fake, secret)\r\n        uint deposit;\r\n    }\r\n\r\n    //mappings\r\n    mapping (address => Bid[]) public bids;\r\n    mapping (address => uint) pendingReturns;\r\n    mapping (address => uint) refunded;\r\n\r\n    constructor(string memory _node) public {\r\n        owner = msg.sender;\r\n        node = _node;\r\n        biddingEnd = block.number + biddingDuration;\r\n        revealEnd = biddingEnd + revealDuration;\r\n    }\r\n\r\n    function bid(bytes32 _blindedBid) \r\n        public\r\n        payable\r\n        onlyBefore(biddingEnd)\r\n    {\r\n        bids[msg.sender].push(Bid({\r\n            blindedBid: _blindedBid,\r\n            deposit: msg.value\r\n        }));\r\n    }\r\n\r\n    // Reveal blinded bids\r\n    // Refund all except if the bid is currently the highest (potential winner)\r\n    // The submitted values, fakes, secrets must be in the order of the bids\r\n    // TODO: fix multiple reveal bug - user can call reveal multiple times to get multiple transfers\r\n    function reveal (\r\n        uint[] memory _values,\r\n        bool[] memory _fake,\r\n        bytes32[] memory _secret\r\n    )\r\n        public\r\n        onlyAfter(biddingEnd)\r\n        onlyBefore(revealEnd)\r\n    {\r\n        uint length = bids[msg.sender].length;\r\n        require(_values.length == length);\r\n        require(_fake.length == length);\r\n        require(_secret.length == length);\r\n\r\n        uint refund = 0;\r\n\r\n        // iterate through all the bids\r\n        for (uint i = 0; i < length; i++) {\r\n            Bid storage bidToCheck = bids[msg.sender][i];\r\n            (uint value, bool fake, bytes32 secret) =\r\n                    (_values[i], _fake[i], _secret[i]);\r\n            if (bidToCheck.blindedBid != keccak256(abi.encodePacked(value, fake, secret))) {\r\n                // The proof does not match the blindedbid, do not refund deposit.\r\n                continue;\r\n            }\r\n            refund += bidToCheck.deposit;\r\n            if (!fake && bidToCheck.deposit >= value) {\r\n                if (checkIfHighestBid(msg.sender, value))\r\n                    // if the bid is the current highest, then don't refund it cos it might be the winner.\r\n                    refund -= value;\r\n            }\r\n            // Make it impossible for the sender to re-claim\r\n            // the same deposit.\r\n            bidToCheck.blindedBid = bytes32(0);\r\n        }\r\n        msg.sender.transfer(refund);\r\n        refunded[msg.sender] += refund;\r\n    }\r\n\r\n    // Withdraw a bid that is the winning bid, \r\n    // bit was once the highest bid during the reveal stage\r\n    // Qn: should this be just added on to the end of checkIfHighestBid fn?\r\n    // TODO: combine with checkIfHighestBid\r\n    function withdraw() public  {\r\n        uint amount = pendingReturns[msg.sender];\r\n        if (amount > 0) {\r\n            // It is important to set this to zero because the recipient\r\n            // can call this function again as part of the receiving call\r\n            // before `transfer` returns\r\n            pendingReturns[msg.sender] = 0;\r\n            msg.sender.transfer(amount);\r\n        }\r\n    }\r\n\r\n    /// End the auction and send the highest bid to the registry.\r\n    // If I'm not wrong, you only have to check that msg.sender == highestBidder,\r\n    // and don't have to check the actual bid again.\r\n    function claimWinnerReward()\r\n        public\r\n        onlyAfter(revealEnd)\r\n    {\r\n        // winner himself must claim\r\n        require(msg.sender == highestBidder);\r\n        // once claimed, cannot reclaim\r\n        require(domainClaimed == false);\r\n        domainClaimed = true;\r\n        // 'owner' refers to the DomainRegistry that created this auction\r\n        DomainRegistry registry = DomainRegistry(owner);\r\n        registry.registerOwner.value(highestBid)(node, msg.sender, highestBid);\r\n    }\r\n\r\n    function getStage() public view returns (string memory) {\r\n        //it is one less to inform what the next stage is\r\n        if (block.number < biddingEnd ) {\r\n            return \"bid\";\r\n        } else if (block.number < revealEnd ) {\r\n            return \"reveal\";\r\n        } else {\r\n            return \"end\";\r\n        }\r\n    }\r\n\r\n    // This is an \"internal\" function which means that it\r\n    // can only be called from the contract itself (or from\r\n    // derived contracts).\r\n    function checkIfHighestBid(address bidder, uint value) internal\r\n            returns (bool success)\r\n    {\r\n        if (value <= highestBid) {\r\n            return false;\r\n        }\r\n        if (highestBidder != address(0)) {\r\n            // Refund the previously highest bidder.\r\n            pendingReturns[highestBidder] += highestBid;\r\n        }\r\n        highestBid = value;\r\n        highestBidder = bidder;\r\n\r\n        //debug\r\n        emit PotentialWinnerFound(highestBidder, highestBid);\r\n        DomainRegistry(owner).emitPotentialWinner(highestBidder, highestBid);\r\n\r\n        return true;\r\n    }\r\n\r\n//------------------------------------------------------------------------------\r\n//debug helper functions\r\n\r\n    function checkBidAmount() view public returns (uint)\r\n    {\r\n        if (bids[msg.sender].length > 0) {\r\n            return bids[msg.sender][0].deposit;\r\n        }\r\n        // random number\r\n        return 69420;\r\n    }\r\n\r\n    function checkRefunded() view public returns (uint)\r\n    {\r\n        return refunded[msg.sender];\r\n    }\r\n\r\n    function checkPendingReturns() view public returns (uint)\r\n    {\r\n        return pendingReturns[msg.sender];\r\n    }\r\n\r\n    function checkHash(\r\n        uint[] memory _values,\r\n        bool[] memory _fake,\r\n        bytes32[] memory _secret\r\n    ) view public returns (bool)\r\n    {\r\n        if (bids[msg.sender].length > 0) {\r\n            if (bids[msg.sender][0].blindedBid != keccak256(abi.encodePacked(_values[0], _fake[0], _secret[0]))) {\r\n                return false;\r\n            }\r\n            return true;\r\n        }\r\n        return false;\r\n    }\r\n\r\n    function checkHighestBid() view public returns (uint) {\r\n        return highestBid;\r\n    }\r\n\r\n}\r\n\r\n\r\n\r\n",
  "sourcePath": "C:\\Users\\Lim Han Quan\\Desktop\\ethereum-dapp\\contracts\\BlindAuction.sol",
  "compiler": {
    "name": "solc",
    "version": "0.6.0+commit.26b70077.Emscripten.clang"
  },
  "schemaVersion": "3.3.1",
  "updatedAt": "2020-10-29T15:31:45.741Z",
  "devdoc": {
    "methods": {}
  },
  "userdoc": {
    "methods": {
      "claimWinnerReward()": {
        "notice": "End the auction and send the highest bid to the registry."
      }
    }
  }
}