{
  "contractName": "BlindAuction",
  "abi": [
    {
      "inputs": [],
      "payable": false,
      "stateMutability": "nonpayable",
      "type": "constructor"
    },
    {
      "anonymous": false,
      "inputs": [
        {
          "indexed": false,
          "internalType": "address",
          "name": "winner",
          "type": "address"
        },
        {
          "indexed": false,
          "internalType": "uint256",
          "name": "highestBid",
          "type": "uint256"
        }
      ],
      "name": "PotentialWinnerFound",
      "type": "event"
    },
    {
      "anonymous": false,
      "inputs": [
        {
          "indexed": false,
          "internalType": "address",
          "name": "winner",
          "type": "address"
        },
        {
          "indexed": false,
          "internalType": "uint256",
          "name": "highestBid",
          "type": "uint256"
        }
      ],
      "name": "WinnerClaimed",
      "type": "event"
    },
    {
      "constant": true,
      "inputs": [],
      "name": "biddingDuration",
      "outputs": [
        {
          "internalType": "uint256",
          "name": "",
          "type": "uint256"
        }
      ],
      "payable": false,
      "stateMutability": "view",
      "type": "function"
    },
    {
      "constant": true,
      "inputs": [],
      "name": "biddingEnd",
      "outputs": [
        {
          "internalType": "uint256",
          "name": "",
          "type": "uint256"
        }
      ],
      "payable": false,
      "stateMutability": "view",
      "type": "function"
    },
    {
      "constant": true,
      "inputs": [
        {
          "internalType": "address",
          "name": "",
          "type": "address"
        },
        {
          "internalType": "uint256",
          "name": "",
          "type": "uint256"
        }
      ],
      "name": "bids",
      "outputs": [
        {
          "internalType": "bytes32",
          "name": "blindedBid",
          "type": "bytes32"
        },
        {
          "internalType": "uint256",
          "name": "deposit",
          "type": "uint256"
        }
      ],
      "payable": false,
      "stateMutability": "view",
      "type": "function"
    },
    {
      "constant": true,
      "inputs": [],
      "name": "ended",
      "outputs": [
        {
          "internalType": "bool",
          "name": "",
          "type": "bool"
        }
      ],
      "payable": false,
      "stateMutability": "view",
      "type": "function"
    },
    {
      "constant": true,
      "inputs": [],
      "name": "highestBid",
      "outputs": [
        {
          "internalType": "uint256",
          "name": "",
          "type": "uint256"
        }
      ],
      "payable": false,
      "stateMutability": "view",
      "type": "function"
    },
    {
      "constant": true,
      "inputs": [],
      "name": "highestBidder",
      "outputs": [
        {
          "internalType": "address",
          "name": "",
          "type": "address"
        }
      ],
      "payable": false,
      "stateMutability": "view",
      "type": "function"
    },
    {
      "constant": true,
      "inputs": [],
      "name": "owner",
      "outputs": [
        {
          "internalType": "address",
          "name": "",
          "type": "address"
        }
      ],
      "payable": false,
      "stateMutability": "view",
      "type": "function"
    },
    {
      "constant": true,
      "inputs": [],
      "name": "revealDuration",
      "outputs": [
        {
          "internalType": "uint256",
          "name": "",
          "type": "uint256"
        }
      ],
      "payable": false,
      "stateMutability": "view",
      "type": "function"
    },
    {
      "constant": true,
      "inputs": [],
      "name": "revealEnd",
      "outputs": [
        {
          "internalType": "uint256",
          "name": "",
          "type": "uint256"
        }
      ],
      "payable": false,
      "stateMutability": "view",
      "type": "function"
    },
    {
      "constant": false,
      "inputs": [
        {
          "internalType": "bytes32",
          "name": "_blindedBid",
          "type": "bytes32"
        }
      ],
      "name": "bid",
      "outputs": [],
      "payable": true,
      "stateMutability": "payable",
      "type": "function"
    },
    {
      "constant": false,
      "inputs": [
        {
          "internalType": "uint256[]",
          "name": "_values",
          "type": "uint256[]"
        },
        {
          "internalType": "bool[]",
          "name": "_fake",
          "type": "bool[]"
        },
        {
          "internalType": "bytes32[]",
          "name": "_secret",
          "type": "bytes32[]"
        }
      ],
      "name": "reveal",
      "outputs": [],
      "payable": false,
      "stateMutability": "nonpayable",
      "type": "function"
    },
    {
      "constant": false,
      "inputs": [],
      "name": "withdraw",
      "outputs": [],
      "payable": false,
      "stateMutability": "nonpayable",
      "type": "function"
    },
    {
      "constant": false,
      "inputs": [],
      "name": "claimWinnerReward",
      "outputs": [],
      "payable": false,
      "stateMutability": "nonpayable",
      "type": "function"
    },
    {
      "constant": true,
      "inputs": [],
      "name": "checkBidAmount",
      "outputs": [
        {
          "internalType": "uint256",
          "name": "",
          "type": "uint256"
        }
      ],
      "payable": false,
      "stateMutability": "view",
      "type": "function"
    },
    {
      "constant": true,
      "inputs": [],
      "name": "checkRefunded",
      "outputs": [
        {
          "internalType": "uint256",
          "name": "",
          "type": "uint256"
        }
      ],
      "payable": false,
      "stateMutability": "view",
      "type": "function"
    },
    {
      "constant": true,
      "inputs": [
        {
          "internalType": "uint256[]",
          "name": "_values",
          "type": "uint256[]"
        },
        {
          "internalType": "bool[]",
          "name": "_fake",
          "type": "bool[]"
        },
        {
          "internalType": "bytes32[]",
          "name": "_secret",
          "type": "bytes32[]"
        }
      ],
      "name": "checkHash",
      "outputs": [
        {
          "internalType": "uint256",
          "name": "",
          "type": "uint256"
        }
      ],
      "payable": false,
      "stateMutability": "view",
      "type": "function"
    }
  ],
  "bytecode": "0x6080604052600a600355600a60045534801561001a57600080fd5b50336000806101000a81548173ffffffffffffffffffffffffffffffffffffffff021916908373ffffffffffffffffffffffffffffffffffffffff160217905550600354430160018190555060045460015401600281905550611164806100826000396000f3fe6080604052600436106100f35760003560e01c8063886a6de11161008a578063957bb1e011610059578063957bb1e014610713578063a6e6647714610741578063c8e7b31d1461076c578063d57bde7914610797576100f3565b8063886a6de11461044d5780638da5cb5b14610478578063900f080a146104cf57806391f90157146106bc576100f3565b80632fd7e5dd116100c65780632fd7e5dd146103c95780633ccfd60b146103f4578063423b217f1461040b57806386c62a8f14610436576100f3565b806301495c1c146100f857806312fa6feb1461016e578063164db64c1461019d57806324905986146101c8575b600080fd5b34801561010457600080fd5b506101516004803603604081101561011b57600080fd5b81019080803573ffffffffffffffffffffffffffffffffffffffff169060200190929190803590602001909291905050506107c2565b604051808381526020018281526020019250505060405180910390f35b34801561017a57600080fd5b50610183610800565b604051808215151515815260200191505060405180910390f35b3480156101a957600080fd5b506101b2610813565b6040518082815260200191505060405180910390f35b3480156101d457600080fd5b506103b3600480360360608110156101eb57600080fd5b810190808035906020019064010000000081111561020857600080fd5b82018360208201111561021a57600080fd5b8035906020019184602083028401116401000000008311171561023c57600080fd5b919080806020026020016040519081016040528093929190818152602001838360200280828437600081840152601f19601f8201169050808301925050505050505091929192908035906020019064010000000081111561029c57600080fd5b8201836020820111156102ae57600080fd5b803590602001918460208302840111640100000000831117156102d057600080fd5b919080806020026020016040519081016040528093929190818152602001838360200280828437600081840152601f19601f8201169050808301925050505050505091929192908035906020019064010000000081111561033057600080fd5b82018360208201111561034257600080fd5b8035906020019184602083028401116401000000008311171561036457600080fd5b919080806020026020016040519081016040528093929190818152602001838360200280828437600081840152601f19601f82011690508083019250505050505050919291929050505061085a565b6040518082815260200191505060405180910390f35b3480156103d557600080fd5b506103de6109a2565b6040518082815260200191505060405180910390f35b34801561040057600080fd5b50610409610a5c565b005b34801561041757600080fd5b50610420610b39565b6040518082815260200191505060405180910390f35b34801561044257600080fd5b5061044b610b3f565b005b34801561045957600080fd5b50610462610be0565b6040518082815260200191505060405180910390f35b34801561048457600080fd5b5061048d610be6565b604051808273ffffffffffffffffffffffffffffffffffffffff1673ffffffffffffffffffffffffffffffffffffffff16815260200191505060405180910390f35b3480156104db57600080fd5b506106ba600480360360608110156104f257600080fd5b810190808035906020019064010000000081111561050f57600080fd5b82018360208201111561052157600080fd5b8035906020019184602083028401116401000000008311171561054357600080fd5b919080806020026020016040519081016040528093929190818152602001838360200280828437600081840152601f19601f820116905080830192505050505050509192919290803590602001906401000000008111156105a357600080fd5b8201836020820111156105b557600080fd5b803590602001918460208302840111640100000000831117156105d757600080fd5b919080806020026020016040519081016040528093929190818152602001838360200280828437600081840152601f19601f8201169050808301925050505050505091929192908035906020019064010000000081111561063757600080fd5b82018360208201111561064957600080fd5b8035906020019184602083028401116401000000008311171561066b57600080fd5b919080806020026020016040519081016040528093929190818152602001838360200280828437600081840152601f19601f820116905080830192505050505050509192919290505050610c0b565b005b3480156106c857600080fd5b506106d1610e90565b604051808273ffffffffffffffffffffffffffffffffffffffff1673ffffffffffffffffffffffffffffffffffffffff16815260200191505060405180910390f35b61073f6004803603602081101561072957600080fd5b8101908080359060200190929190505050610eb6565b005b34801561074d57600080fd5b50610756610f5f565b6040518082815260200191505060405180910390f35b34801561077857600080fd5b50610781610f65565b6040518082815260200191505060405180910390f35b3480156107a357600080fd5b506107ac610f6b565b6040518082815260200191505060405180910390f35b600760205281600052604060002081815481106107db57fe5b9060005260206000209060020201600091509150508060000154908060010154905082565b600560009054906101000a900460ff1681565b6000600960003373ffffffffffffffffffffffffffffffffffffffff1673ffffffffffffffffffffffffffffffffffffffff16815260200190815260200160002054905090565b600080600760003373ffffffffffffffffffffffffffffffffffffffff1673ffffffffffffffffffffffffffffffffffffffff16815260200190815260200160002080549050111561099457836000815181106108b357fe5b6020026020010151836000815181106108c857fe5b6020026020010151836000815181106108dd57fe5b602002602001015160405160200180848152602001831515151560f81b8152600101828152602001935050505060405160208183030381529060405280519060200120600760003373ffffffffffffffffffffffffffffffffffffffff1673ffffffffffffffffffffffffffffffffffffffff16815260200190815260200160002060008154811061096b57fe5b9060005260206000209060020201600001541461098b576000905061099b565b6001905061099b565b62010f2c90505b9392505050565b600080600760003373ffffffffffffffffffffffffffffffffffffffff1673ffffffffffffffffffffffffffffffffffffffff168152602001908152602001600020805490501115610a5257600760003373ffffffffffffffffffffffffffffffffffffffff1673ffffffffffffffffffffffffffffffffffffffff168152602001908152602001600020600081548110610a3957fe5b9060005260206000209060020201600101549050610a59565b62010f2c90505b90565b6000600860003373ffffffffffffffffffffffffffffffffffffffff1673ffffffffffffffffffffffffffffffffffffffff1681526020019081526020016000205490506000811115610b36576000600860003373ffffffffffffffffffffffffffffffffffffffff1673ffffffffffffffffffffffffffffffffffffffff168152602001908152602001600020819055503373ffffffffffffffffffffffffffffffffffffffff166108fc829081150290604051600060405180830381858888f19350505050158015610b34573d6000803e3d6000fd5b505b50565b60015481565b600254804311610b4e57600080fd5b7f71afd1816b72faae4dced2e8c9ce8b5e21bae72e8353bb6c539a7f7c02d3c2e4600560019054906101000a900473ffffffffffffffffffffffffffffffffffffffff16600654604051808373ffffffffffffffffffffffffffffffffffffffff1673ffffffffffffffffffffffffffffffffffffffff1681526020018281526020019250505060405180910390a150565b60045481565b6000809054906101000a900473ffffffffffffffffffffffffffffffffffffffff1681565b600154804311610c1a57600080fd5b600254804310610c2957600080fd5b6000600760003373ffffffffffffffffffffffffffffffffffffffff1673ffffffffffffffffffffffffffffffffffffffff16815260200190815260200160002080549050905080865114610c7d57600080fd5b80855114610c8a57600080fd5b80845114610c9757600080fd5b600080905060008090505b82811015610df2576000600760003373ffffffffffffffffffffffffffffffffffffffff1673ffffffffffffffffffffffffffffffffffffffff1681526020019081526020016000208281548110610cf657fe5b9060005260206000209060020201905060008060008b8581518110610d1757fe5b60200260200101518b8681518110610d2b57fe5b60200260200101518b8781518110610d3f57fe5b602002602001015192509250925082828260405160200180848152602001831515151560f81b8152600101828152602001935050505060405160208183030381529060405280519060200120846000015414610d9e5750505050610de5565b83600101548601955081158015610db9575082846001015410155b15610dd457610dc83384610f71565b15610dd35782860395505b5b6000801b8460000181905550505050505b8080600101915050610ca2565b503373ffffffffffffffffffffffffffffffffffffffff166108fc829081150290604051600060405180830381858888f19350505050158015610e39573d6000803e3d6000fd5b5080600960003373ffffffffffffffffffffffffffffffffffffffff1673ffffffffffffffffffffffffffffffffffffffff1681526020019081526020016000206000828254019250508190555050505050505050565b600560019054906101000a900473ffffffffffffffffffffffffffffffffffffffff1681565b600154804310610ec557600080fd5b600760003373ffffffffffffffffffffffffffffffffffffffff1673ffffffffffffffffffffffffffffffffffffffff1681526020019081526020016000206040518060400160405280848152602001348152509080600181540180825580915050906001820390600052602060002090600202016000909192909190915060008201518160000155602082015181600101555050505050565b60025481565b60035481565b60065481565b60006006548211610f855760009050611129565b600073ffffffffffffffffffffffffffffffffffffffff16600560019054906101000a900473ffffffffffffffffffffffffffffffffffffffff1673ffffffffffffffffffffffffffffffffffffffff161461104d5760065460086000600560019054906101000a900473ffffffffffffffffffffffffffffffffffffffff1673ffffffffffffffffffffffffffffffffffffffff1673ffffffffffffffffffffffffffffffffffffffff168152602001908152602001600020600082825401925050819055505b8160068190555082600560016101000a81548173ffffffffffffffffffffffffffffffffffffffff021916908373ffffffffffffffffffffffffffffffffffffffff1602179055507fb82fefdc651ee0dc2a48092a0a107978c235739dfbc58b8f52a11e939ea2d750600560019054906101000a900473ffffffffffffffffffffffffffffffffffffffff16600654604051808373ffffffffffffffffffffffffffffffffffffffff1673ffffffffffffffffffffffffffffffffffffffff1681526020018281526020019250505060405180910390a1600190505b9291505056fea265627a7a723158207f60c7026dae05b00c078b9c53cf168050acc90a6d2fd916f7115b919882851164736f6c63430005100032",
  "source": "// SPDX-License-Identifier: GPL-3.0\r\npragma solidity ^0.5.16;\r\n\r\ncontract BlindAuction {\r\n    \r\n    //static variables\r\n    address public owner;\r\n    uint public biddingEnd;\r\n    uint public revealEnd;\r\n    uint public biddingDuration = 10; //blocks\r\n    uint public revealDuration = 10; //blocks\r\n    bool public ended;\r\n    \r\n    \r\n\r\n    //state\r\n    address public highestBidder;\r\n    uint public highestBid;\r\n    \r\n    //events\r\n    event WinnerClaimed(address winner, uint highestBid);\r\n    // for debugging\r\n    event PotentialWinnerFound(address winner, uint highestBid);\r\n\r\n    //modifiers\r\n    modifier onlyBefore(uint _block) { require(block.number < _block); _; }\r\n    modifier onlyAfter(uint _block) { require(block.number > _block); _; }\r\n\r\n\r\n    struct Bid {\r\n        bytes32 blindedBid; //hash(value, fake, secret)\r\n        uint deposit;\r\n    }\r\n\r\n    mapping (address => Bid[]) public bids;\r\n    mapping (address => uint) pendingReturns;\r\n    mapping (address => uint) refunded;\r\n\r\n    constructor(\r\n        \r\n    ) public {\r\n        owner = msg.sender;\r\n        biddingEnd = block.number + biddingDuration;\r\n        revealEnd = biddingEnd + revealDuration;\r\n    }\r\n\r\n    function bid(bytes32 _blindedBid) \r\n        public\r\n        payable\r\n        onlyBefore(biddingEnd)\r\n    {\r\n        bids[msg.sender].push(Bid({\r\n            blindedBid: _blindedBid,\r\n            deposit: msg.value\r\n        }));\r\n    }\r\n\r\n    // Reveal blinded bids\r\n    // Refund all except if the bid is currently the highest (potential winner)\r\n    // The submitted values, fakes, secrets must be in the order of the bids\r\n    function reveal (\r\n        uint[] memory _values,\r\n        bool[] memory _fake,\r\n        bytes32[] memory _secret\r\n    )\r\n        public\r\n        onlyAfter(biddingEnd)\r\n        onlyBefore(revealEnd)\r\n        //returns (uint)\r\n    {\r\n        uint length = bids[msg.sender].length;\r\n        require(_values.length == length);\r\n        require(_fake.length == length);\r\n        require(_secret.length == length);\r\n\r\n        uint refund = 0;\r\n        \r\n        // iterate through all the bids\r\n        for (uint i = 0; i < length; i++) {\r\n            Bid storage bidToCheck = bids[msg.sender][i];\r\n            (uint value, bool fake, bytes32 secret) =\r\n                    (_values[i], _fake[i], _secret[i]);\r\n            if (bidToCheck.blindedBid != keccak256(abi.encodePacked(value, fake, secret))) {\r\n                // Bid was not actually revealed.\r\n                // Do not refund deposit.\r\n                // Check the next bid\r\n                continue;\r\n            }\r\n            refund += bidToCheck.deposit;\r\n            if (!fake && bidToCheck.deposit >= value) {\r\n                if (checkIfHighestBid(msg.sender, value))\r\n                    refund -= value;\r\n            }\r\n            // Make it impossible for the sender to re-claim\r\n            // the same deposit.\r\n            bidToCheck.blindedBid = bytes32(0);\r\n        }\r\n        msg.sender.transfer(refund);\r\n        refunded[msg.sender] += refund;\r\n\r\n        //return refund;\r\n        \r\n    }\r\n\r\n    // Withdraw a bid that is the winning bid, \r\n    // bit was once the highest bid during the reveal stage\r\n    // Qn: should this be just added on to the end of checkIfHighestBid fn?\r\n    function withdraw() public  {\r\n        uint amount = pendingReturns[msg.sender];\r\n        if (amount > 0) {\r\n            // It is important to set this to zero because the recipient\r\n            // can call this function again as part of the receiving call\r\n            // before `transfer` returns\r\n            pendingReturns[msg.sender] = 0;\r\n            msg.sender.transfer(amount);\r\n        }\r\n    }\r\n\r\n    /// End the auction and send the highest bid\r\n    /// to the beneficiary.\r\n    function claimWinnerReward()\r\n        public\r\n        onlyAfter(revealEnd)\r\n    {\r\n        //require(!ended);\r\n        emit WinnerClaimed(highestBidder, highestBid);\r\n        //ended = true;\r\n        //beneficiary.transfer(highestBid);\r\n\r\n        // register winner address as owner\r\n    }\r\n\r\n    // This is an \"internal\" function which means that it\r\n    // can only be called from the contract itself (or from\r\n    // derived contracts).\r\n    function checkIfHighestBid(address bidder, uint value) internal\r\n            returns (bool success)\r\n    {\r\n        if (value <= highestBid) {\r\n            return false;\r\n        }\r\n        if (highestBidder != address(0)) {\r\n            // Refund the previously highest bidder.\r\n            pendingReturns[highestBidder] += highestBid;\r\n        }\r\n        highestBid = value;\r\n        highestBidder = bidder;\r\n        emit PotentialWinnerFound(highestBidder, highestBid);\r\n        return true;\r\n    }\r\n\r\n    function checkBidAmount() view public returns (uint)\r\n    {\r\n        if (bids[msg.sender].length > 0) {\r\n            return bids[msg.sender][0].deposit;\r\n        }\r\n        // random number\r\n        return 69420;\r\n    }\r\n\r\n    function checkRefunded() view public returns (uint)\r\n    {\r\n        return refunded[msg.sender];\r\n    }\r\n\r\n    function checkHash(\r\n        uint[] memory _values,\r\n        bool[] memory _fake,\r\n        bytes32[] memory _secret\r\n    ) view public returns (uint)\r\n    {\r\n        if (bids[msg.sender].length > 0) {\r\n            if (bids[msg.sender][0].blindedBid != keccak256(abi.encodePacked(_values[0], _fake[0], _secret[0]))) {\r\n                return 0;\r\n            }\r\n            return 1;\r\n        }\r\n        return 69420;\r\n        \r\n    }\r\n\r\n\r\n}\r\n\r\n\r\n\r\n",
  "sourcePath": "C:/Users/kai/OneDrive - Nanyang Technological University/Work/2020/2020-2021 Sem 1/Blockchain Technology/devproj/repo/contracts/BlindAuction.sol",
  "compiler": {
    "name": "solc",
    "version": "0.5.16+commit.9c3226ce.Emscripten.clang"
  },
  "schemaVersion": "3.3.1",
  "updatedAt": "2020-10-20T07:56:56.467Z",
  "networkType": "ethereum",
  "devdoc": {
    "methods": {}
  },
  "userdoc": {
    "methods": {
      "claimWinnerReward()": {
        "notice": "End the auction and send the highest bid to the beneficiary."
      }
    }
  }
}