{
  "contractName": "BlindAuction",
  "abi": [
    {
      "inputs": [
        {
          "internalType": "string",
          "name": "_node",
          "type": "string"
        }
      ],
      "stateMutability": "nonpayable",
      "type": "constructor"
    },
    {
      "anonymous": false,
      "inputs": [
        {
          "indexed": false,
          "internalType": "address",
          "name": "winner",
          "type": "address"
        },
        {
          "indexed": false,
          "internalType": "uint256",
          "name": "highestBid",
          "type": "uint256"
        }
      ],
      "name": "WinnerClaimed",
      "type": "event"
    },
    {
      "inputs": [],
      "name": "biddingDuration",
      "outputs": [
        {
          "internalType": "uint256",
          "name": "",
          "type": "uint256"
        }
      ],
      "stateMutability": "view",
      "type": "function"
    },
    {
      "inputs": [],
      "name": "biddingEnd",
      "outputs": [
        {
          "internalType": "uint256",
          "name": "",
          "type": "uint256"
        }
      ],
      "stateMutability": "view",
      "type": "function"
    },
    {
      "inputs": [
        {
          "internalType": "address",
          "name": "",
          "type": "address"
        },
        {
          "internalType": "uint256",
          "name": "",
          "type": "uint256"
        }
      ],
      "name": "bids",
      "outputs": [
        {
          "internalType": "bytes32",
          "name": "blindedBid",
          "type": "bytes32"
        },
        {
          "internalType": "uint256",
          "name": "deposit",
          "type": "uint256"
        }
      ],
      "stateMutability": "view",
      "type": "function"
    },
    {
      "inputs": [],
      "name": "claimDuration",
      "outputs": [
        {
          "internalType": "uint256",
          "name": "",
          "type": "uint256"
        }
      ],
      "stateMutability": "view",
      "type": "function"
    },
    {
      "inputs": [],
      "name": "claimEnd",
      "outputs": [
        {
          "internalType": "uint256",
          "name": "",
          "type": "uint256"
        }
      ],
      "stateMutability": "view",
      "type": "function"
    },
    {
      "inputs": [],
      "name": "domainClaimed",
      "outputs": [
        {
          "internalType": "bool",
          "name": "",
          "type": "bool"
        }
      ],
      "stateMutability": "view",
      "type": "function"
    },
    {
      "inputs": [],
      "name": "highestBid",
      "outputs": [
        {
          "internalType": "uint256",
          "name": "",
          "type": "uint256"
        }
      ],
      "stateMutability": "view",
      "type": "function"
    },
    {
      "inputs": [],
      "name": "highestBidder",
      "outputs": [
        {
          "internalType": "address payable",
          "name": "",
          "type": "address"
        }
      ],
      "stateMutability": "view",
      "type": "function"
    },
    {
      "inputs": [],
      "name": "node",
      "outputs": [
        {
          "internalType": "string",
          "name": "",
          "type": "string"
        }
      ],
      "stateMutability": "view",
      "type": "function"
    },
    {
      "inputs": [],
      "name": "owner",
      "outputs": [
        {
          "internalType": "address payable",
          "name": "",
          "type": "address"
        }
      ],
      "stateMutability": "view",
      "type": "function"
    },
    {
      "inputs": [],
      "name": "revealDuration",
      "outputs": [
        {
          "internalType": "uint256",
          "name": "",
          "type": "uint256"
        }
      ],
      "stateMutability": "view",
      "type": "function"
    },
    {
      "inputs": [],
      "name": "revealEnd",
      "outputs": [
        {
          "internalType": "uint256",
          "name": "",
          "type": "uint256"
        }
      ],
      "stateMutability": "view",
      "type": "function"
    },
    {
      "inputs": [
        {
          "internalType": "bytes32",
          "name": "_blindedBid",
          "type": "bytes32"
        }
      ],
      "name": "bid",
      "outputs": [],
      "stateMutability": "payable",
      "type": "function"
    },
    {
      "inputs": [
        {
          "internalType": "uint256[]",
          "name": "_values",
          "type": "uint256[]"
        },
        {
          "internalType": "bool[]",
          "name": "_fake",
          "type": "bool[]"
        },
        {
          "internalType": "bytes32[]",
          "name": "_secret",
          "type": "bytes32[]"
        }
      ],
      "name": "reveal",
      "outputs": [],
      "stateMutability": "nonpayable",
      "type": "function"
    },
    {
      "inputs": [],
      "name": "claimWinnerReward",
      "outputs": [],
      "stateMutability": "nonpayable",
      "type": "function"
    },
    {
      "inputs": [],
      "name": "getStage",
      "outputs": [
        {
          "internalType": "string",
          "name": "",
          "type": "string"
        }
      ],
      "stateMutability": "view",
      "type": "function"
    }
  ],
  "bytecode": "0x60806040526003600555600260065560026007553480156200002057600080fd5b50604051620013bc380380620013bc833981810160405260208110156200004657600080fd5b81019080805160405193929190846401000000008211156200006757600080fd5b838201915060208201858111156200007e57600080fd5b82518660018202830111640100000000821117156200009c57600080fd5b8083526020830192505050908051906020019080838360005b83811015620000d2578082015181840152602081019050620000b5565b50505050905090810190601f168015620001005780820380516001836020036101000a031916815260200191505b50604052505050336000806101000a81548173ffffffffffffffffffffffffffffffffffffffff021916908373ffffffffffffffffffffffffffffffffffffffff16021790555080600190805190602001906200015f9291906200018c565b5060055443016002819055506006546002540160038190555060075460035401600481905550506200023b565b828054600181600116156101000203166002900490600052602060002090601f016020900481019282601f10620001cf57805160ff191683800117855562000200565b8280016001018555821562000200579182015b82811115620001ff578251825591602001919060010190620001e2565b5b5090506200020f919062000213565b5090565b6200023891905b80821115620002345760008160009055506001016200021a565b5090565b90565b611171806200024b6000396000f3fe6080604052600436106100f35760003560e01c806391f901571161008a578063c8e7b31d11610059578063c8e7b31d14610554578063d57bde791461057f578063d70754ec146105aa578063fcaa76641461063a576100f3565b806391f9015714610479578063957bb1e0146104d0578063a6e66477146104fe578063ab1a4d9414610529576100f3565b806386c62a8f116100c657806386c62a8f146101f3578063886a6de11461020a5780638da5cb5b14610235578063900f080a1461028c576100f3565b806301495c1c146100f85780633ccfa92f1461016e578063423b217f146101995780634e528de8146101c4575b600080fd5b34801561010457600080fd5b506101516004803603604081101561011b57600080fd5b81019080803573ffffffffffffffffffffffffffffffffffffffff169060200190929190803590602001909291905050506106ca565b604051808381526020018281526020019250505060405180910390f35b34801561017a57600080fd5b50610183610708565b6040518082815260200191505060405180910390f35b3480156101a557600080fd5b506101ae61070e565b6040518082815260200191505060405180910390f35b3480156101d057600080fd5b506101d9610714565b604051808215151515815260200191505060405180910390f35b3480156101ff57600080fd5b50610208610727565b005b34801561021657600080fd5b5061021f610935565b6040518082815260200191505060405180910390f35b34801561024157600080fd5b5061024a61093b565b604051808273ffffffffffffffffffffffffffffffffffffffff1673ffffffffffffffffffffffffffffffffffffffff16815260200191505060405180910390f35b34801561029857600080fd5b50610477600480360360608110156102af57600080fd5b81019080803590602001906401000000008111156102cc57600080fd5b8201836020820111156102de57600080fd5b8035906020019184602083028401116401000000008311171561030057600080fd5b919080806020026020016040519081016040528093929190818152602001838360200280828437600081840152601f19601f8201169050808301925050505050505091929192908035906020019064010000000081111561036057600080fd5b82018360208201111561037257600080fd5b8035906020019184602083028401116401000000008311171561039457600080fd5b919080806020026020016040519081016040528093929190818152602001838360200280828437600081840152601f19601f820116905080830192505050505050509192919290803590602001906401000000008111156103f457600080fd5b82018360208201111561040657600080fd5b8035906020019184602083028401116401000000008311171561042857600080fd5b919080806020026020016040519081016040528093929190818152602001838360200280828437600081840152601f19601f820116905080830192505050505050509192919290505050610960565b005b34801561048557600080fd5b5061048e610c48565b604051808273ffffffffffffffffffffffffffffffffffffffff1673ffffffffffffffffffffffffffffffffffffffff16815260200191505060405180910390f35b6104fc600480360360208110156104e657600080fd5b8101908080359060200190929190505050610c6e565b005b34801561050a57600080fd5b50610513610d15565b6040518082815260200191505060405180910390f35b34801561053557600080fd5b5061053e610d1b565b6040518082815260200191505060405180910390f35b34801561056057600080fd5b50610569610d21565b6040518082815260200191505060405180910390f35b34801561058b57600080fd5b50610594610d27565b6040518082815260200191505060405180910390f35b3480156105b657600080fd5b506105bf610d2d565b6040518080602001828103825283818151815260200191508051906020019080838360005b838110156105ff5780820151818401526020810190506105e4565b50505050905090810190601f16801561062c5780820380516001836020036101000a031916815260200191505b509250505060405180910390f35b34801561064657600080fd5b5061064f610dcb565b6040518080602001828103825283818151815260200191508051906020019080838360005b8381101561068f578082015181840152602081019050610674565b50505050905090810190601f1680156106bc5780820380516001836020036101000a031916815260200191505b509250505060405180910390f35b600b60205281600052604060002081815481106106e357fe5b9060005260206000209060020201600091509150508060000154908060010154905082565b60045481565b60025481565b600a60009054906101000a900460ff1681565b60035480431161073657600080fd5b6004548043111561074657600080fd5b600860009054906101000a900473ffffffffffffffffffffffffffffffffffffffff1673ffffffffffffffffffffffffffffffffffffffff163373ffffffffffffffffffffffffffffffffffffffff16146107a057600080fd5b60001515600a60009054906101000a900460ff161515146107c057600080fd5b6001600a60006101000a81548160ff02191690831515021790555060008060009054906101000a900473ffffffffffffffffffffffffffffffffffffffff1690508073ffffffffffffffffffffffffffffffffffffffff166356d36ae16009546001336009546040518563ffffffff1660e01b815260040180806020018473ffffffffffffffffffffffffffffffffffffffff1673ffffffffffffffffffffffffffffffffffffffff1681526020018381526020018281038252858181546001816001161561010002031660029004815260200191508054600181600116156101000203166002900480156108f65780601f106108cb576101008083540402835291602001916108f6565b820191906000526020600020905b8154815290600101906020018083116108d957829003601f168201915b50509450505050506000604051808303818588803b15801561091757600080fd5b505af115801561092b573d6000803e3d6000fd5b5050505050505050565b60065481565b6000809054906101000a900473ffffffffffffffffffffffffffffffffffffffff1681565b60025480431161096f57600080fd5b6003548043111561097f57600080fd5b6000600b60003373ffffffffffffffffffffffffffffffffffffffff1673ffffffffffffffffffffffffffffffffffffffff168152602001908152602001600020805490509050808651146109d357600080fd5b808551146109e057600080fd5b808451146109ed57600080fd5b60008090506060600b60003373ffffffffffffffffffffffffffffffffffffffff1673ffffffffffffffffffffffffffffffffffffffff168152602001908152602001600020805480602002602001604051908101604052809291908181526020016000905b82821015610a9957838290600052602060002090600202016040518060400160405290816000820154815260200160018201548152505081526020019060010190610a53565b505050509050600b60003373ffffffffffffffffffffffffffffffffffffffff1673ffffffffffffffffffffffffffffffffffffffff1681526020019081526020016000206000610aea91906110cb565b60008090505b83811015610bf657610b006110ef565b828281518110610b0c57fe5b6020026020010151905060008060008c8581518110610b2757fe5b60200260200101518c8681518110610b3b57fe5b60200260200101518c8781518110610b4f57fe5b602002602001015192509250925082828260405160200180848152602001831515151560f81b8152600101828152602001935050505060405160208183030381529060405280519060200120846000015114610bae5750505050610be9565b83602001518701965081158015610bc9575082846020015110155b15610be457610bd83384610f49565b15610be35782870396505b5b505050505b8080600101915050610af0565b503373ffffffffffffffffffffffffffffffffffffffff166108fc839081150290604051600060405180830381858888f19350505050158015610c3d573d6000803e3d6000fd5b505050505050505050565b600860009054906101000a900473ffffffffffffffffffffffffffffffffffffffff1681565b60025480431115610c7e57600080fd5b600b60003373ffffffffffffffffffffffffffffffffffffffff1673ffffffffffffffffffffffffffffffffffffffff1681526020019081526020016000206040518060400160405280848152602001348152509080600181540180825580915050600190039060005260206000209060020201600090919091909150600082015181600001556020820151816001015550505050565b60035481565b60075481565b60055481565b60095481565b60018054600181600116156101000203166002900480601f016020809104026020016040519081016040528092919081815260200182805460018160011615610100020316600290048015610dc35780601f10610d9857610100808354040283529160200191610dc3565b820191906000526020600020905b815481529060010190602001808311610da657829003601f168201915b505050505081565b6060600254431015610e14576040518060400160405280600781526020017f62696464696e67000000000000000000000000000000000000000000000000008152509050610f46565b600354431015610e5b576040518060400160405280600981526020017f72657665616c696e6700000000000000000000000000000000000000000000008152509050610f46565b60045443108015610e795750600a60009054906101000a900460ff16155b15610ebb576040518060400160405280600881526020017f636c61696d696e670000000000000000000000000000000000000000000000008152509050610f46565b600a60009054906101000a900460ff1615610f0d576040518060400160405280600781526020017f636c61696d6564000000000000000000000000000000000000000000000000008152509050610f46565b6040518060400160405280600981526020017f756e636c61696d6564000000000000000000000000000000000000000000000081525090505b90565b60006009548211610f5d57600090506110c5565b600073ffffffffffffffffffffffffffffffffffffffff16600860009054906101000a900473ffffffffffffffffffffffffffffffffffffffff1673ffffffffffffffffffffffffffffffffffffffff1614611077576000600860009054906101000a900473ffffffffffffffffffffffffffffffffffffffff169050600060095490508360098190555084600860006101000a81548173ffffffffffffffffffffffffffffffffffffffff021916908373ffffffffffffffffffffffffffffffffffffffff1602179055508173ffffffffffffffffffffffffffffffffffffffff166108fc829081150290604051600060405180830381858888f1935050505015801561106f573d6000803e3d6000fd5b5050506110c0565b8160098190555082600860006101000a81548173ffffffffffffffffffffffffffffffffffffffff021916908373ffffffffffffffffffffffffffffffffffffffff1602179055505b600190505b92915050565b50805460008255600202906000526020600020908101906110ec919061110c565b50565b604051806040016040528060008019168152602001600081525090565b61113891905b8082111561113457600080820160009055600182016000905550600201611112565b5090565b9056fea264697066735822122088aecf091883ab2af0d6198bc0ecc46fa8a4def32f66684a4a83fc0408fdce0c64736f6c63430006000033",
  "source": "// SPDX-License-Identifier: GPL-3.0\r\npragma solidity ^0.6.0;\r\nimport './DomainRegistry.sol';\r\n\r\ncontract BlindAuction {\r\n    \r\n    //static variables\r\n    address payable public owner;\r\n    string public node;\r\n\r\n    uint public biddingEnd;\r\n    uint public revealEnd;\r\n    uint public claimEnd;\r\n    uint public biddingDuration = 3; //blocks\r\n    uint public revealDuration = 2; //blocks\r\n    uint public claimDuration = 2; //blocks\r\n    \r\n    //state\r\n    address payable public highestBidder;\r\n    uint public highestBid;\r\n    bool public domainClaimed;\r\n    \r\n    //events\r\n    event WinnerClaimed(address winner, uint highestBid);\r\n\r\n    //modifiers\r\n    modifier onlyBefore(uint _block) { require(block.number <= _block); _; }\r\n    modifier onlyAfter(uint _block) { require(block.number > _block); _; }\r\n\r\n    struct Bid {\r\n        bytes32 blindedBid; //hash(value, fake, secret)\r\n        uint deposit;\r\n    }\r\n\r\n    //mappings\r\n    mapping (address => Bid[]) public bids;\r\n\r\n    constructor(string memory _node) public {\r\n        owner = msg.sender;\r\n        node = _node;\r\n        biddingEnd = block.number + biddingDuration;\r\n        revealEnd = biddingEnd + revealDuration;\r\n        claimEnd = revealEnd + claimDuration;\r\n    }\r\n\r\n    function bid(bytes32 _blindedBid) \r\n        public\r\n        payable\r\n        onlyBefore(biddingEnd)\r\n    {\r\n        bids[msg.sender].push(Bid({\r\n            blindedBid: _blindedBid,\r\n            deposit: msg.value\r\n        }));\r\n    }\r\n\r\n    // Reveal blinded bids\r\n    // Refund all except if the bid is currently the highest (potential winner)\r\n    // The submitted values, fakes, secrets must be in the order of the bids\r\n    function reveal (\r\n        uint[] memory _values,\r\n        bool[] memory _fake,\r\n        bytes32[] memory _secret\r\n    )\r\n        public\r\n        onlyAfter(biddingEnd)\r\n        onlyBefore(revealEnd)\r\n    {\r\n        uint length = bids[msg.sender].length;\r\n        require(_values.length == length);\r\n        require(_fake.length == length);\r\n        require(_secret.length == length);\r\n\r\n        uint refund = 0;\r\n        Bid[] memory tempBids = bids[msg.sender];\r\n        delete bids[msg.sender];\r\n\r\n\r\n        // iterate through all the bids\r\n        for (uint i = 0; i < length; i++) {\r\n            Bid memory bidToCheck = tempBids[i];\r\n            (uint value, bool fake, bytes32 secret) =\r\n                    (_values[i], _fake[i], _secret[i]);\r\n            if (bidToCheck.blindedBid != keccak256(abi.encodePacked(value, fake, secret))) {\r\n                // The proof does not match the blindedbid, do not refund deposit.\r\n                continue;\r\n            }\r\n            refund += bidToCheck.deposit;\r\n            if (!fake && bidToCheck.deposit >= value) {\r\n                if (checkIfHighestBid(msg.sender, value))\r\n                    // if the bid is the current highest, then do not refund it.\r\n                    refund -= value;\r\n            }\r\n            \r\n        }\r\n        msg.sender.transfer(refund);\r\n    }\r\n\r\n    /// End the auction and send the highest bid to the registry.\r\n    function claimWinnerReward()\r\n        public\r\n        onlyAfter(revealEnd)\r\n        onlyBefore(claimEnd)\r\n    {\r\n        // winner himself must claim\r\n        require(msg.sender == highestBidder);\r\n        // once claimed, cannot reclaim\r\n        require(domainClaimed == false);\r\n        domainClaimed = true;\r\n        // 'owner' refers to the DomainRegistry that created this auction\r\n        DomainRegistry registry = DomainRegistry(owner);\r\n        registry.registerOwner.value(highestBid)(node, msg.sender, highestBid);\r\n    }\r\n\r\n    function getStage() public view returns (string memory) {\r\n        //it is one less to inform what the next stage is\r\n        if (block.number < biddingEnd ) {\r\n            return \"bidding\";\r\n        } else if (block.number < revealEnd ) {\r\n            return \"revealing\";\r\n        } else if (block.number < claimEnd && !domainClaimed){\r\n            return \"claiming\";\r\n        } else if (domainClaimed) {\r\n            return \"claimed\";\r\n        } else {\r\n            return \"unclaimed\";\r\n        }\r\n    }\r\n\r\n    // This is an \"internal\" function which means that it\r\n    // can only be called from the contract itself (or from\r\n    // derived contracts).\r\n    function checkIfHighestBid(address payable bidder, uint value) internal\r\n            returns (bool success)\r\n    {\r\n        if (value <= highestBid) {\r\n            return false;   \r\n        }\r\n        if (highestBidder != address(0)) {\r\n            // Refund the previously highest bidder.\r\n            address payable previousHighestBidder = highestBidder;\r\n            uint previousHighestBid = highestBid;\r\n\r\n            highestBid = value;\r\n            highestBidder = bidder;\r\n\r\n            previousHighestBidder.transfer(previousHighestBid);\r\n        } else {\r\n            // If there was no previous highestBidder/Bid\r\n            highestBid = value;\r\n            highestBidder = bidder;\r\n        }\r\n\r\n        return true;\r\n    }\r\n\r\n}\r\n",
  "sourcePath": "C:\\Users\\Lim Han Quan\\Desktop\\ethereum-dapp\\contracts\\BlindAuction.sol",
  "compiler": {
    "name": "solc",
    "version": "0.6.0+commit.26b70077.Emscripten.clang"
  },
  "schemaVersion": "3.3.1",
  "updatedAt": "2020-11-03T14:12:39.587Z",
  "devdoc": {
    "methods": {}
  },
  "userdoc": {
    "methods": {
      "claimWinnerReward()": {
        "notice": "End the auction and send the highest bid to the registry."
      }
    }
  }
}