{
  "contractName": "BlindAuction",
  "abi": [
    {
      "inputs": [],
      "payable": false,
      "stateMutability": "nonpayable",
      "type": "constructor"
    },
    {
      "anonymous": false,
      "inputs": [
        {
          "indexed": false,
          "internalType": "address",
          "name": "winner",
          "type": "address"
        },
        {
          "indexed": false,
          "internalType": "uint256",
          "name": "highestBid",
          "type": "uint256"
        }
      ],
      "name": "WinnerClaimed",
      "type": "event"
    },
    {
      "constant": true,
      "inputs": [],
      "name": "biddingDuration",
      "outputs": [
        {
          "internalType": "uint256",
          "name": "",
          "type": "uint256"
        }
      ],
      "payable": false,
      "stateMutability": "view",
      "type": "function"
    },
    {
      "constant": true,
      "inputs": [],
      "name": "biddingEnd",
      "outputs": [
        {
          "internalType": "uint256",
          "name": "",
          "type": "uint256"
        }
      ],
      "payable": false,
      "stateMutability": "view",
      "type": "function"
    },
    {
      "constant": true,
      "inputs": [
        {
          "internalType": "address",
          "name": "",
          "type": "address"
        },
        {
          "internalType": "uint256",
          "name": "",
          "type": "uint256"
        }
      ],
      "name": "bids",
      "outputs": [
        {
          "internalType": "bytes32",
          "name": "blindedBid",
          "type": "bytes32"
        },
        {
          "internalType": "uint256",
          "name": "deposit",
          "type": "uint256"
        }
      ],
      "payable": false,
      "stateMutability": "view",
      "type": "function"
    },
    {
      "constant": true,
      "inputs": [],
      "name": "ended",
      "outputs": [
        {
          "internalType": "bool",
          "name": "",
          "type": "bool"
        }
      ],
      "payable": false,
      "stateMutability": "view",
      "type": "function"
    },
    {
      "constant": true,
      "inputs": [],
      "name": "highestBid",
      "outputs": [
        {
          "internalType": "uint256",
          "name": "",
          "type": "uint256"
        }
      ],
      "payable": false,
      "stateMutability": "view",
      "type": "function"
    },
    {
      "constant": true,
      "inputs": [],
      "name": "highestBidder",
      "outputs": [
        {
          "internalType": "address",
          "name": "",
          "type": "address"
        }
      ],
      "payable": false,
      "stateMutability": "view",
      "type": "function"
    },
    {
      "constant": true,
      "inputs": [],
      "name": "owner",
      "outputs": [
        {
          "internalType": "address",
          "name": "",
          "type": "address"
        }
      ],
      "payable": false,
      "stateMutability": "view",
      "type": "function"
    },
    {
      "constant": true,
      "inputs": [],
      "name": "revealDuration",
      "outputs": [
        {
          "internalType": "uint256",
          "name": "",
          "type": "uint256"
        }
      ],
      "payable": false,
      "stateMutability": "view",
      "type": "function"
    },
    {
      "constant": true,
      "inputs": [],
      "name": "revealEnd",
      "outputs": [
        {
          "internalType": "uint256",
          "name": "",
          "type": "uint256"
        }
      ],
      "payable": false,
      "stateMutability": "view",
      "type": "function"
    },
    {
      "constant": false,
      "inputs": [
        {
          "internalType": "bytes32",
          "name": "_blindedBid",
          "type": "bytes32"
        }
      ],
      "name": "bid",
      "outputs": [],
      "payable": true,
      "stateMutability": "payable",
      "type": "function"
    },
    {
      "constant": false,
      "inputs": [
        {
          "internalType": "uint256[]",
          "name": "_values",
          "type": "uint256[]"
        },
        {
          "internalType": "bool[]",
          "name": "_fake",
          "type": "bool[]"
        },
        {
          "internalType": "bytes32[]",
          "name": "_secret",
          "type": "bytes32[]"
        }
      ],
      "name": "reveal",
      "outputs": [],
      "payable": false,
      "stateMutability": "nonpayable",
      "type": "function"
    },
    {
      "constant": false,
      "inputs": [],
      "name": "withdraw",
      "outputs": [],
      "payable": false,
      "stateMutability": "nonpayable",
      "type": "function"
    },
    {
      "constant": false,
      "inputs": [],
      "name": "claimWinnerReward",
      "outputs": [],
      "payable": false,
      "stateMutability": "nonpayable",
      "type": "function"
    },
    {
      "constant": true,
      "inputs": [],
      "name": "checkRefunded",
      "outputs": [
        {
          "internalType": "uint256",
          "name": "",
          "type": "uint256"
        }
      ],
      "payable": false,
      "stateMutability": "view",
      "type": "function"
    }
  ],
  "bytecode": "0x6080604052600a600355600a60045534801561001a57600080fd5b50336000806101000a81548173ffffffffffffffffffffffffffffffffffffffff021916908373ffffffffffffffffffffffffffffffffffffffff160217905550600354430160018190555060045460015401600281905550610c91806100826000396000f3fe6080604052600436106100dd5760003560e01c80638da5cb5b1161007f578063957bb1e011610059578063957bb1e0146104d1578063a6e66477146104ff578063c8e7b31d1461052a578063d57bde7914610555576100dd565b80638da5cb5b14610236578063900f080a1461028d57806391f901571461047a576100dd565b80633ccfd60b116100bb5780633ccfd60b146101b2578063423b217f146101c957806386c62a8f146101f4578063886a6de11461020b576100dd565b806301495c1c146100e257806312fa6feb14610158578063164db64c14610187575b600080fd5b3480156100ee57600080fd5b5061013b6004803603604081101561010557600080fd5b81019080803573ffffffffffffffffffffffffffffffffffffffff16906020019092919080359060200190929190505050610580565b604051808381526020018281526020019250505060405180910390f35b34801561016457600080fd5b5061016d6105be565b604051808215151515815260200191505060405180910390f35b34801561019357600080fd5b5061019c6105d1565b6040518082815260200191505060405180910390f35b3480156101be57600080fd5b506101c7610618565b005b3480156101d557600080fd5b506101de6106f5565b6040518082815260200191505060405180910390f35b34801561020057600080fd5b506102096106fb565b005b34801561021757600080fd5b5061022061079c565b6040518082815260200191505060405180910390f35b34801561024257600080fd5b5061024b6107a2565b604051808273ffffffffffffffffffffffffffffffffffffffff1673ffffffffffffffffffffffffffffffffffffffff16815260200191505060405180910390f35b34801561029957600080fd5b50610478600480360360608110156102b057600080fd5b81019080803590602001906401000000008111156102cd57600080fd5b8201836020820111156102df57600080fd5b8035906020019184602083028401116401000000008311171561030157600080fd5b919080806020026020016040519081016040528093929190818152602001838360200280828437600081840152601f19601f8201169050808301925050505050505091929192908035906020019064010000000081111561036157600080fd5b82018360208201111561037357600080fd5b8035906020019184602083028401116401000000008311171561039557600080fd5b919080806020026020016040519081016040528093929190818152602001838360200280828437600081840152601f19601f820116905080830192505050505050509192919290803590602001906401000000008111156103f557600080fd5b82018360208201111561040757600080fd5b8035906020019184602083028401116401000000008311171561042957600080fd5b919080806020026020016040519081016040528093929190818152602001838360200280828437600081840152601f19601f8201169050808301925050505050505091929192905050506107c7565b005b34801561048657600080fd5b5061048f610a4c565b604051808273ffffffffffffffffffffffffffffffffffffffff1673ffffffffffffffffffffffffffffffffffffffff16815260200191505060405180910390f35b6104fd600480360360208110156104e757600080fd5b8101908080359060200190929190505050610a72565b005b34801561050b57600080fd5b50610514610b1b565b6040518082815260200191505060405180910390f35b34801561053657600080fd5b5061053f610b21565b6040518082815260200191505060405180910390f35b34801561056157600080fd5b5061056a610b27565b6040518082815260200191505060405180910390f35b6007602052816000526040600020818154811061059957fe5b9060005260206000209060020201600091509150508060000154908060010154905082565b600560009054906101000a900460ff1681565b6000600960003373ffffffffffffffffffffffffffffffffffffffff1673ffffffffffffffffffffffffffffffffffffffff16815260200190815260200160002054905090565b6000600860003373ffffffffffffffffffffffffffffffffffffffff1673ffffffffffffffffffffffffffffffffffffffff16815260200190815260200160002054905060008111156106f2576000600860003373ffffffffffffffffffffffffffffffffffffffff1673ffffffffffffffffffffffffffffffffffffffff168152602001908152602001600020819055503373ffffffffffffffffffffffffffffffffffffffff166108fc829081150290604051600060405180830381858888f193505050501580156106f0573d6000803e3d6000fd5b505b50565b60015481565b60025480431161070a57600080fd5b7f71afd1816b72faae4dced2e8c9ce8b5e21bae72e8353bb6c539a7f7c02d3c2e4600560019054906101000a900473ffffffffffffffffffffffffffffffffffffffff16600654604051808373ffffffffffffffffffffffffffffffffffffffff1673ffffffffffffffffffffffffffffffffffffffff1681526020018281526020019250505060405180910390a150565b60045481565b6000809054906101000a900473ffffffffffffffffffffffffffffffffffffffff1681565b6001548043116107d657600080fd5b6002548043106107e557600080fd5b6000600760003373ffffffffffffffffffffffffffffffffffffffff1673ffffffffffffffffffffffffffffffffffffffff1681526020019081526020016000208054905090508086511461083957600080fd5b8085511461084657600080fd5b8084511461085357600080fd5b600080905060008090505b828110156109ae576000600760003373ffffffffffffffffffffffffffffffffffffffff1673ffffffffffffffffffffffffffffffffffffffff16815260200190815260200160002082815481106108b257fe5b9060005260206000209060020201905060008060008b85815181106108d357fe5b60200260200101518b86815181106108e757fe5b60200260200101518b87815181106108fb57fe5b602002602001015192509250925082828260405160200180848152602001831515151560f81b815260010182815260200193505050506040516020818303038152906040528051906020012084600001541461095a57505050506109a1565b83600101548601955081158015610975575082846001015410155b15610990576109843384610b2d565b1561098f5782860395505b5b6000801b8460000181905550505050505b808060010191505061085e565b503373ffffffffffffffffffffffffffffffffffffffff166108fc829081150290604051600060405180830381858888f193505050501580156109f5573d6000803e3d6000fd5b5080600960003373ffffffffffffffffffffffffffffffffffffffff1673ffffffffffffffffffffffffffffffffffffffff1681526020019081526020016000206000828254019250508190555050505050505050565b600560019054906101000a900473ffffffffffffffffffffffffffffffffffffffff1681565b600154804310610a8157600080fd5b600760003373ffffffffffffffffffffffffffffffffffffffff1673ffffffffffffffffffffffffffffffffffffffff1681526020019081526020016000206040518060400160405280848152602001348152509080600181540180825580915050906001820390600052602060002090600202016000909192909190915060008201518160000155602082015181600101555050505050565b60025481565b60035481565b60065481565b60006006548211610b415760009050610c56565b600073ffffffffffffffffffffffffffffffffffffffff16600560019054906101000a900473ffffffffffffffffffffffffffffffffffffffff1673ffffffffffffffffffffffffffffffffffffffff1614610c095760065460086000600560019054906101000a900473ffffffffffffffffffffffffffffffffffffffff1673ffffffffffffffffffffffffffffffffffffffff1673ffffffffffffffffffffffffffffffffffffffff168152602001908152602001600020600082825401925050819055505b8160068190555082600560016101000a81548173ffffffffffffffffffffffffffffffffffffffff021916908373ffffffffffffffffffffffffffffffffffffffff160217905550600190505b9291505056fea265627a7a72315820bf0c62726b1f1acf00eadf8c1254174878a02f43abe5e58db79f35369797277d64736f6c63430005100032",
  "source": "// SPDX-License-Identifier: GPL-3.0\r\npragma solidity ^0.5.16;\r\n\r\ncontract BlindAuction {\r\n    \r\n    //static variables\r\n    address public owner;\r\n    uint public biddingEnd;\r\n    uint public revealEnd;\r\n    uint public biddingDuration = 10; //blocks\r\n    uint public revealDuration = 10; //blocks\r\n    bool public ended;\r\n    \r\n    \r\n\r\n    //state\r\n    address public highestBidder;\r\n    uint public highestBid;\r\n    \r\n    //events\r\n    event WinnerClaimed(address winner, uint highestBid);\r\n\r\n    //modifiers\r\n    modifier onlyBefore(uint _block) { require(block.number < _block); _; }\r\n    modifier onlyAfter(uint _block) { require(block.number > _block); _; }\r\n\r\n\r\n    struct Bid {\r\n        bytes32 blindedBid; //hash(value, fake, secret)\r\n        uint deposit;\r\n    }\r\n\r\n    mapping (address => Bid[]) public bids;\r\n    mapping (address => uint) pendingReturns;\r\n    mapping (address => uint) refunded;\r\n\r\n    constructor(\r\n        \r\n    ) public {\r\n        owner = msg.sender;\r\n        biddingEnd = block.number + biddingDuration;\r\n        revealEnd = biddingEnd + revealDuration;\r\n    }\r\n\r\n    function bid(bytes32 _blindedBid) \r\n        public\r\n        payable\r\n        onlyBefore(biddingEnd)\r\n    {\r\n        bids[msg.sender].push(Bid({\r\n            blindedBid: _blindedBid,\r\n            deposit: msg.value\r\n        }));\r\n    }\r\n\r\n    // Reveal blinded bids\r\n    // Refund all except if the bid is currently the highest (potential winner)\r\n    // The submitted values, fakes, secrets must be in the order of the bids\r\n    function reveal (\r\n        uint[] memory _values,\r\n        bool[] memory _fake,\r\n        bytes32[] memory _secret\r\n    )\r\n        public\r\n        onlyAfter(biddingEnd)\r\n        onlyBefore(revealEnd)\r\n        //returns (uint)\r\n    {\r\n        uint length = bids[msg.sender].length;\r\n        require(_values.length == length);\r\n        require(_fake.length == length);\r\n        require(_secret.length == length);\r\n\r\n        uint refund = 0;\r\n        \r\n        // iterate through all the bids\r\n        for (uint i = 0; i < length; i++) {\r\n            Bid storage bidToCheck = bids[msg.sender][i];\r\n            (uint value, bool fake, bytes32 secret) =\r\n                    (_values[i], _fake[i], _secret[i]);\r\n            if (bidToCheck.blindedBid != keccak256(abi.encodePacked(value, fake, secret))) {\r\n                // Bid was not actually revealed.\r\n                // Do not refund deposit.\r\n                // Check the next bid\r\n                continue;\r\n            }\r\n            refund += bidToCheck.deposit;\r\n            if (!fake && bidToCheck.deposit >= value) {\r\n                if (checkIfHighestBid(msg.sender, value))\r\n                    refund -= value;\r\n            }\r\n            // Make it impossible for the sender to re-claim\r\n            // the same deposit.\r\n            bidToCheck.blindedBid = bytes32(0);\r\n        }\r\n        msg.sender.transfer(refund);\r\n        refunded[msg.sender] += refund;\r\n\r\n        //return refund;\r\n        \r\n    }\r\n\r\n    // Withdraw a bid that is the winning bid, \r\n    // bit was once the highest bid during the reveal stage\r\n    // Qn: should this be just added on to the end of checkIfHighestBid fn?\r\n    function withdraw() public  {\r\n        uint amount = pendingReturns[msg.sender];\r\n        if (amount > 0) {\r\n            // It is important to set this to zero because the recipient\r\n            // can call this function again as part of the receiving call\r\n            // before `transfer` returns\r\n            pendingReturns[msg.sender] = 0;\r\n            msg.sender.transfer(amount);\r\n        }\r\n    }\r\n\r\n    /// End the auction and send the highest bid\r\n    /// to the beneficiary.\r\n    function claimWinnerReward()\r\n        public\r\n        onlyAfter(revealEnd)\r\n    {\r\n        //require(!ended);\r\n        emit WinnerClaimed(highestBidder, highestBid);\r\n        //ended = true;\r\n        //beneficiary.transfer(highestBid);\r\n\r\n        // register winner address as owner\r\n    }\r\n\r\n    // This is an \"internal\" function which means that it\r\n    // can only be called from the contract itself (or from\r\n    // derived contracts).\r\n    function checkIfHighestBid(address bidder, uint value) internal\r\n            returns (bool success)\r\n    {\r\n        if (value <= highestBid) {\r\n            return false;\r\n        }\r\n        if (highestBidder != address(0)) {\r\n            // Refund the previously highest bidder.\r\n            pendingReturns[highestBidder] += highestBid;\r\n        }\r\n        highestBid = value;\r\n        highestBidder = bidder;\r\n        return true;\r\n    }\r\n\r\n    function checkRefunded()\r\n    view\r\n    public\r\n    returns (uint)\r\n    {\r\n        return refunded[msg.sender];\r\n    }\r\n\r\n\r\n}\r\n\r\n\r\n\r\n",
  "sourcePath": "C:/Users/kai/OneDrive - Nanyang Technological University/Work/2020/2020-2021 Sem 1/Blockchain Technology/devproj/repo/contracts/BlindAuction.sol",
  "compiler": {
    "name": "solc",
    "version": "0.5.16+commit.9c3226ce.Emscripten.clang"
  },
  "schemaVersion": "3.3.1",
  "updatedAt": "2020-10-18T15:07:30.642Z",
  "networkType": "ethereum",
  "devdoc": {
    "methods": {}
  },
  "userdoc": {
    "methods": {
      "claimWinnerReward()": {
        "notice": "End the auction and send the highest bid to the beneficiary."
      }
    }
  }
}