{
  "contractName": "BlindAuction",
  "abi": [
    {
      "inputs": [
        {
          "internalType": "string",
          "name": "_node",
          "type": "string"
        }
      ],
      "stateMutability": "nonpayable",
      "type": "constructor"
    },
    {
      "anonymous": false,
      "inputs": [
        {
          "indexed": false,
          "internalType": "address",
          "name": "winner",
          "type": "address"
        },
        {
          "indexed": false,
          "internalType": "uint256",
          "name": "highestBid",
          "type": "uint256"
        }
      ],
      "name": "WinnerClaimed",
      "type": "event"
    },
    {
      "inputs": [],
      "name": "biddingDuration",
      "outputs": [
        {
          "internalType": "uint256",
          "name": "",
          "type": "uint256"
        }
      ],
      "stateMutability": "view",
      "type": "function"
    },
    {
      "inputs": [],
      "name": "biddingEnd",
      "outputs": [
        {
          "internalType": "uint256",
          "name": "",
          "type": "uint256"
        }
      ],
      "stateMutability": "view",
      "type": "function"
    },
    {
      "inputs": [
        {
          "internalType": "address",
          "name": "",
          "type": "address"
        },
        {
          "internalType": "uint256",
          "name": "",
          "type": "uint256"
        }
      ],
      "name": "bids",
      "outputs": [
        {
          "internalType": "bytes32",
          "name": "blindedBid",
          "type": "bytes32"
        },
        {
          "internalType": "uint256",
          "name": "deposit",
          "type": "uint256"
        }
      ],
      "stateMutability": "view",
      "type": "function"
    },
    {
      "inputs": [],
      "name": "claimDuration",
      "outputs": [
        {
          "internalType": "uint256",
          "name": "",
          "type": "uint256"
        }
      ],
      "stateMutability": "view",
      "type": "function"
    },
    {
      "inputs": [],
      "name": "claimEnd",
      "outputs": [
        {
          "internalType": "uint256",
          "name": "",
          "type": "uint256"
        }
      ],
      "stateMutability": "view",
      "type": "function"
    },
    {
      "inputs": [],
      "name": "domainClaimed",
      "outputs": [
        {
          "internalType": "bool",
          "name": "",
          "type": "bool"
        }
      ],
      "stateMutability": "view",
      "type": "function"
    },
    {
      "inputs": [],
      "name": "highestBid",
      "outputs": [
        {
          "internalType": "uint256",
          "name": "",
          "type": "uint256"
        }
      ],
      "stateMutability": "view",
      "type": "function"
    },
    {
      "inputs": [],
      "name": "highestBidder",
      "outputs": [
        {
          "internalType": "address payable",
          "name": "",
          "type": "address"
        }
      ],
      "stateMutability": "view",
      "type": "function"
    },
    {
      "inputs": [],
      "name": "node",
      "outputs": [
        {
          "internalType": "string",
          "name": "",
          "type": "string"
        }
      ],
      "stateMutability": "view",
      "type": "function"
    },
    {
      "inputs": [],
      "name": "owner",
      "outputs": [
        {
          "internalType": "address payable",
          "name": "",
          "type": "address"
        }
      ],
      "stateMutability": "view",
      "type": "function"
    },
    {
      "inputs": [],
      "name": "revealDuration",
      "outputs": [
        {
          "internalType": "uint256",
          "name": "",
          "type": "uint256"
        }
      ],
      "stateMutability": "view",
      "type": "function"
    },
    {
      "inputs": [],
      "name": "revealEnd",
      "outputs": [
        {
          "internalType": "uint256",
          "name": "",
          "type": "uint256"
        }
      ],
      "stateMutability": "view",
      "type": "function"
    },
    {
      "inputs": [
        {
          "internalType": "bytes32",
          "name": "_blindedBid",
          "type": "bytes32"
        }
      ],
      "name": "bid",
      "outputs": [],
      "stateMutability": "payable",
      "type": "function"
    },
    {
      "inputs": [
        {
          "internalType": "uint256[]",
          "name": "_values",
          "type": "uint256[]"
        },
        {
          "internalType": "bool[]",
          "name": "_fake",
          "type": "bool[]"
        },
        {
          "internalType": "bytes32[]",
          "name": "_secret",
          "type": "bytes32[]"
        }
      ],
      "name": "reveal",
      "outputs": [],
      "stateMutability": "nonpayable",
      "type": "function"
    },
    {
      "inputs": [],
      "name": "claimWinnerReward",
      "outputs": [],
      "stateMutability": "nonpayable",
      "type": "function"
    },
    {
      "inputs": [],
      "name": "getStage",
      "outputs": [
        {
          "internalType": "string",
          "name": "",
          "type": "string"
        }
      ],
      "stateMutability": "view",
      "type": "function"
    },
    {
      "inputs": [],
      "name": "checkBidAmount",
      "outputs": [
        {
          "internalType": "uint256",
          "name": "",
          "type": "uint256"
        }
      ],
      "stateMutability": "view",
      "type": "function"
    },
    {
      "inputs": [
        {
          "internalType": "uint256[]",
          "name": "_values",
          "type": "uint256[]"
        },
        {
          "internalType": "bool[]",
          "name": "_fake",
          "type": "bool[]"
        },
        {
          "internalType": "bytes32[]",
          "name": "_secret",
          "type": "bytes32[]"
        }
      ],
      "name": "checkHash",
      "outputs": [
        {
          "internalType": "bool",
          "name": "",
          "type": "bool"
        }
      ],
      "stateMutability": "view",
      "type": "function"
    },
    {
      "inputs": [],
      "name": "checkHighestBid",
      "outputs": [
        {
          "internalType": "uint256",
          "name": "",
          "type": "uint256"
        }
      ],
      "stateMutability": "view",
      "type": "function"
    }
  ],
  "bytecode": "0x60806040526002600555600260065560026007553480156200002057600080fd5b506040516200192638038062001926833981810160405260208110156200004657600080fd5b81019080805160405193929190846401000000008211156200006757600080fd5b838201915060208201858111156200007e57600080fd5b82518660018202830111640100000000821117156200009c57600080fd5b8083526020830192505050908051906020019080838360005b83811015620000d2578082015181840152602081019050620000b5565b50505050905090810190601f168015620001005780820380516001836020036101000a031916815260200191505b50604052505050336000806101000a81548173ffffffffffffffffffffffffffffffffffffffff021916908373ffffffffffffffffffffffffffffffffffffffff16021790555080600190805190602001906200015f9291906200018c565b5060055443016002819055506006546002540160038190555060075460035401600481905550506200023b565b828054600181600116156101000203166002900490600052602060002090601f016020900481019282601f10620001cf57805160ff191683800117855562000200565b8280016001018555821562000200579182015b82811115620001ff578251825591602001919060010190620001e2565b5b5090506200020f919062000213565b5090565b6200023891905b80821115620002345760008160009055506001016200021a565b5090565b90565b6116db806200024b6000396000f3fe6080604052600436106101145760003560e01c8063900f080a116100a0578063ab1a4d9411610064578063ab1a4d94146107a5578063c8e7b31d146107d0578063d57bde79146107fb578063d70754ec14610826578063fcaa7664146108b657610114565b8063900f080a146104dd57806391f90157146106ca578063957bb1e014610721578063a6e664771461074f578063a7dae9091461077a57610114565b8063423b217f116100e7578063423b217f146103ea5780634e528de81461041557806386c62a8f14610444578063886a6de11461045b5780638da5cb5b1461048657610114565b806301495c1c14610119578063249059861461018f5780632fd7e5dd146103945780633ccfa92f146103bf575b600080fd5b34801561012557600080fd5b506101726004803603604081101561013c57600080fd5b81019080803573ffffffffffffffffffffffffffffffffffffffff16906020019092919080359060200190929190505050610946565b604051808381526020018281526020019250505060405180910390f35b34801561019b57600080fd5b5061037a600480360360608110156101b257600080fd5b81019080803590602001906401000000008111156101cf57600080fd5b8201836020820111156101e157600080fd5b8035906020019184602083028401116401000000008311171561020357600080fd5b919080806020026020016040519081016040528093929190818152602001838360200280828437600081840152601f19601f8201169050808301925050505050505091929192908035906020019064010000000081111561026357600080fd5b82018360208201111561027557600080fd5b8035906020019184602083028401116401000000008311171561029757600080fd5b919080806020026020016040519081016040528093929190818152602001838360200280828437600081840152601f19601f820116905080830192505050505050509192919290803590602001906401000000008111156102f757600080fd5b82018360208201111561030957600080fd5b8035906020019184602083028401116401000000008311171561032b57600080fd5b919080806020026020016040519081016040528093929190818152602001838360200280828437600081840152601f19601f820116905080830192505050505050509192919290505050610984565b604051808215151515815260200191505060405180910390f35b3480156103a057600080fd5b506103a9610aca565b6040518082815260200191505060405180910390f35b3480156103cb57600080fd5b506103d4610b84565b6040518082815260200191505060405180910390f35b3480156103f657600080fd5b506103ff610b8a565b6040518082815260200191505060405180910390f35b34801561042157600080fd5b5061042a610b90565b604051808215151515815260200191505060405180910390f35b34801561045057600080fd5b50610459610ba3565b005b34801561046757600080fd5b50610470610db1565b6040518082815260200191505060405180910390f35b34801561049257600080fd5b5061049b610db7565b604051808273ffffffffffffffffffffffffffffffffffffffff1673ffffffffffffffffffffffffffffffffffffffff16815260200191505060405180910390f35b3480156104e957600080fd5b506106c86004803603606081101561050057600080fd5b810190808035906020019064010000000081111561051d57600080fd5b82018360208201111561052f57600080fd5b8035906020019184602083028401116401000000008311171561055157600080fd5b919080806020026020016040519081016040528093929190818152602001838360200280828437600081840152601f19601f820116905080830192505050505050509192919290803590602001906401000000008111156105b157600080fd5b8201836020820111156105c357600080fd5b803590602001918460208302840111640100000000831117156105e557600080fd5b919080806020026020016040519081016040528093929190818152602001838360200280828437600081840152601f19601f8201169050808301925050505050505091929192908035906020019064010000000081111561064557600080fd5b82018360208201111561065757600080fd5b8035906020019184602083028401116401000000008311171561067957600080fd5b919080806020026020016040519081016040528093929190818152602001838360200280828437600081840152601f19601f820116905080830192505050505050509192919290505050610ddc565b005b3480156106d657600080fd5b506106df6110c4565b604051808273ffffffffffffffffffffffffffffffffffffffff1673ffffffffffffffffffffffffffffffffffffffff16815260200191505060405180910390f35b61074d6004803603602081101561073757600080fd5b81019080803590602001909291905050506110ea565b005b34801561075b57600080fd5b50610764611191565b6040518082815260200191505060405180910390f35b34801561078657600080fd5b5061078f611197565b6040518082815260200191505060405180910390f35b3480156107b157600080fd5b506107ba6111a1565b6040518082815260200191505060405180910390f35b3480156107dc57600080fd5b506107e56111a7565b6040518082815260200191505060405180910390f35b34801561080757600080fd5b506108106111ad565b6040518082815260200191505060405180910390f35b34801561083257600080fd5b5061083b6111b3565b6040518080602001828103825283818151815260200191508051906020019080838360005b8381101561087b578082015181840152602081019050610860565b50505050905090810190601f1680156108a85780820380516001836020036101000a031916815260200191505b509250505060405180910390f35b3480156108c257600080fd5b506108cb611251565b6040518080602001828103825283818151815260200191508051906020019080838360005b8381101561090b5780820151818401526020810190506108f0565b50505050905090810190601f1680156109385780820380516001836020036101000a031916815260200191505b509250505060405180910390f35b600b602052816000526040600020818154811061095f57fe5b9060005260206000209060020201600091509150508060000154908060010154905082565b600080600b60003373ffffffffffffffffffffffffffffffffffffffff1673ffffffffffffffffffffffffffffffffffffffff168152602001908152602001600020805490501115610abe57836000815181106109dd57fe5b6020026020010151836000815181106109f257fe5b602002602001015183600081518110610a0757fe5b602002602001015160405160200180848152602001831515151560f81b8152600101828152602001935050505060405160208183030381529060405280519060200120600b60003373ffffffffffffffffffffffffffffffffffffffff1673ffffffffffffffffffffffffffffffffffffffff168152602001908152602001600020600081548110610a9557fe5b90600052602060002090600202016000015414610ab55760009050610ac3565b60019050610ac3565b600090505b9392505050565b600080600b60003373ffffffffffffffffffffffffffffffffffffffff1673ffffffffffffffffffffffffffffffffffffffff168152602001908152602001600020805490501115610b7a57600b60003373ffffffffffffffffffffffffffffffffffffffff1673ffffffffffffffffffffffffffffffffffffffff168152602001908152602001600020600081548110610b6157fe5b9060005260206000209060020201600101549050610b81565b62010f2c90505b90565b60045481565b60025481565b600a60009054906101000a900460ff1681565b600354804311610bb257600080fd5b60045480431115610bc257600080fd5b600860009054906101000a900473ffffffffffffffffffffffffffffffffffffffff1673ffffffffffffffffffffffffffffffffffffffff163373ffffffffffffffffffffffffffffffffffffffff1614610c1c57600080fd5b60001515600a60009054906101000a900460ff16151514610c3c57600080fd5b6001600a60006101000a81548160ff02191690831515021790555060008060009054906101000a900473ffffffffffffffffffffffffffffffffffffffff1690508073ffffffffffffffffffffffffffffffffffffffff166356d36ae16009546001336009546040518563ffffffff1660e01b815260040180806020018473ffffffffffffffffffffffffffffffffffffffff1673ffffffffffffffffffffffffffffffffffffffff168152602001838152602001828103825285818154600181600116156101000203166002900481526020019150805460018160011615610100020316600290048015610d725780601f10610d4757610100808354040283529160200191610d72565b820191906000526020600020905b815481529060010190602001808311610d5557829003601f168201915b50509450505050506000604051808303818588803b158015610d9357600080fd5b505af1158015610da7573d6000803e3d6000fd5b5050505050505050565b60065481565b6000809054906101000a900473ffffffffffffffffffffffffffffffffffffffff1681565b600254804311610deb57600080fd5b60035480431115610dfb57600080fd5b6000600b60003373ffffffffffffffffffffffffffffffffffffffff1673ffffffffffffffffffffffffffffffffffffffff16815260200190815260200160002080549050905080865114610e4f57600080fd5b80855114610e5c57600080fd5b80845114610e6957600080fd5b60008090506060600b60003373ffffffffffffffffffffffffffffffffffffffff1673ffffffffffffffffffffffffffffffffffffffff168152602001908152602001600020805480602002602001604051908101604052809291908181526020016000905b82821015610f1557838290600052602060002090600202016040518060400160405290816000820154815260200160018201548152505081526020019060010190610ecf565b505050509050600b60003373ffffffffffffffffffffffffffffffffffffffff1673ffffffffffffffffffffffffffffffffffffffff1681526020019081526020016000206000610f669190611635565b60008090505b8381101561107257610f7c611659565b828281518110610f8857fe5b6020026020010151905060008060008c8581518110610fa357fe5b60200260200101518c8681518110610fb757fe5b60200260200101518c8781518110610fcb57fe5b602002602001015192509250925082828260405160200180848152602001831515151560f81b815260010182815260200193505050506040516020818303038152906040528051906020012084600001511461102a5750505050611065565b83602001518701965081158015611045575082846020015110155b156110605761105433846113cf565b1561105f5782870396505b5b505050505b8080600101915050610f6c565b503373ffffffffffffffffffffffffffffffffffffffff166108fc839081150290604051600060405180830381858888f193505050501580156110b9573d6000803e3d6000fd5b505050505050505050565b600860009054906101000a900473ffffffffffffffffffffffffffffffffffffffff1681565b600254804311156110fa57600080fd5b600b60003373ffffffffffffffffffffffffffffffffffffffff1673ffffffffffffffffffffffffffffffffffffffff1681526020019081526020016000206040518060400160405280848152602001348152509080600181540180825580915050600190039060005260206000209060020201600090919091909150600082015181600001556020820151816001015550505050565b60035481565b6000600954905090565b60075481565b60055481565b60095481565b60018054600181600116156101000203166002900480601f0160208091040260200160405190810160405280929190818152602001828054600181600116156101000203166002900480156112495780601f1061121e57610100808354040283529160200191611249565b820191906000526020600020905b81548152906001019060200180831161122c57829003601f168201915b505050505081565b606060025443101561129a576040518060400160405280600781526020017f62696464696e670000000000000000000000000000000000000000000000000081525090506113cc565b6003544310156112e1576040518060400160405280600981526020017f72657665616c696e67000000000000000000000000000000000000000000000081525090506113cc565b600454431080156112ff5750600a60009054906101000a900460ff16155b15611341576040518060400160405280600881526020017f636c61696d696e6700000000000000000000000000000000000000000000000081525090506113cc565b600a60009054906101000a900460ff1615611393576040518060400160405280600781526020017f636c61696d65640000000000000000000000000000000000000000000000000081525090506113cc565b6040518060400160405280600981526020017f756e636c61696d6564000000000000000000000000000000000000000000000081525090505b90565b600060095482116113e3576000905061162f565b600073ffffffffffffffffffffffffffffffffffffffff16600860009054906101000a900473ffffffffffffffffffffffffffffffffffffffff1673ffffffffffffffffffffffffffffffffffffffff16146114fd576000600860009054906101000a900473ffffffffffffffffffffffffffffffffffffffff169050600060095490508360098190555084600860006101000a81548173ffffffffffffffffffffffffffffffffffffffff021916908373ffffffffffffffffffffffffffffffffffffffff1602179055508173ffffffffffffffffffffffffffffffffffffffff166108fc829081150290604051600060405180830381858888f193505050501580156114f5573d6000803e3d6000fd5b505050611546565b8160098190555082600860006101000a81548173ffffffffffffffffffffffffffffffffffffffff021916908373ffffffffffffffffffffffffffffffffffffffff1602179055505b6000809054906101000a900473ffffffffffffffffffffffffffffffffffffffff1673ffffffffffffffffffffffffffffffffffffffff1663a7181ae3600860009054906101000a900473ffffffffffffffffffffffffffffffffffffffff166009546040518363ffffffff1660e01b8152600401808373ffffffffffffffffffffffffffffffffffffffff1673ffffffffffffffffffffffffffffffffffffffff16815260200182815260200192505050600060405180830381600087803b15801561161257600080fd5b505af1158015611626573d6000803e3d6000fd5b50505050600190505b92915050565b50805460008255600202906000526020600020908101906116569190611676565b50565b604051806040016040528060008019168152602001600081525090565b6116a291905b8082111561169e5760008082016000905560018201600090555060020161167c565b5090565b9056fea2646970667358221220c8624dbf1a4d0ac94ec847c40286904ab88c0995fb440434875533c9a235ab6764736f6c63430006000033",
  "source": "// SPDX-License-Identifier: GPL-3.0\r\npragma solidity ^0.6.0;\r\nimport './DomainRegistry.sol';\r\n\r\ncontract BlindAuction {\r\n    \r\n    //static variables\r\n    address payable public owner;\r\n    string public node;\r\n\r\n    uint public biddingEnd;\r\n    uint public revealEnd;\r\n    uint public claimEnd;\r\n    uint public biddingDuration = 2; //blocks\r\n    uint public revealDuration = 2; //blocks\r\n    uint public claimDuration = 2; //blocks\r\n    \r\n    //state\r\n    address payable public highestBidder;\r\n    uint public highestBid;\r\n    bool public domainClaimed;\r\n    \r\n    //events\r\n    event WinnerClaimed(address winner, uint highestBid);\r\n\r\n    //modifiers\r\n    modifier onlyBefore(uint _block) { require(block.number <= _block); _; }\r\n    modifier onlyAfter(uint _block) { require(block.number > _block); _; }\r\n\r\n    struct Bid {\r\n        bytes32 blindedBid; //hash(value, fake, secret)\r\n        uint deposit;\r\n    }\r\n\r\n    //mappings\r\n    mapping (address => Bid[]) public bids;\r\n\r\n    constructor(string memory _node) public {\r\n        owner = msg.sender;\r\n        node = _node;\r\n        biddingEnd = block.number + biddingDuration;\r\n        revealEnd = biddingEnd + revealDuration;\r\n        claimEnd = revealEnd + claimDuration;\r\n    }\r\n\r\n    function bid(bytes32 _blindedBid) \r\n        public\r\n        payable\r\n        onlyBefore(biddingEnd)\r\n    {\r\n        bids[msg.sender].push(Bid({\r\n            blindedBid: _blindedBid,\r\n            deposit: msg.value\r\n        }));\r\n    }\r\n\r\n    // Reveal blinded bids\r\n    // Refund all except if the bid is currently the highest (potential winner)\r\n    // The submitted values, fakes, secrets must be in the order of the bids\r\n    function reveal (\r\n        uint[] memory _values,\r\n        bool[] memory _fake,\r\n        bytes32[] memory _secret\r\n    )\r\n        public\r\n        onlyAfter(biddingEnd)\r\n        onlyBefore(revealEnd)\r\n    {\r\n        uint length = bids[msg.sender].length;\r\n        require(_values.length == length);\r\n        require(_fake.length == length);\r\n        require(_secret.length == length);\r\n\r\n        uint refund = 0;\r\n        Bid[] memory tempBids = bids[msg.sender];\r\n        delete bids[msg.sender]; //clear\r\n\r\n\r\n        // iterate through all the bids\r\n        for (uint i = 0; i < length; i++) {\r\n            Bid memory bidToCheck = tempBids[i];\r\n            (uint value, bool fake, bytes32 secret) =\r\n                    (_values[i], _fake[i], _secret[i]);\r\n            if (bidToCheck.blindedBid != keccak256(abi.encodePacked(value, fake, secret))) {\r\n                // The proof does not match the blindedbid, do not refund deposit.\r\n                continue;\r\n            }\r\n            refund += bidToCheck.deposit;\r\n            if (!fake && bidToCheck.deposit >= value) {\r\n                if (checkIfHighestBid(msg.sender, value))\r\n                    // if the bid is the current highest, then do not refund it.\r\n                    refund -= value;\r\n            }\r\n            \r\n        }\r\n        msg.sender.transfer(refund);\r\n    }\r\n\r\n    /// End the auction and send the highest bid to the registry.\r\n    function claimWinnerReward()\r\n        public\r\n        onlyAfter(revealEnd)\r\n        onlyBefore(claimEnd)\r\n    {\r\n        // winner himself must claim\r\n        require(msg.sender == highestBidder);\r\n        // once claimed, cannot reclaim\r\n        require(domainClaimed == false);\r\n        domainClaimed = true;\r\n        // 'owner' refers to the DomainRegistry that created this auction\r\n        DomainRegistry registry = DomainRegistry(owner);\r\n        registry.registerOwner.value(highestBid)(node, msg.sender, highestBid);\r\n    }\r\n\r\n    function getStage() public view returns (string memory) {\r\n        //it is one less to inform what the next stage is\r\n        if (block.number < biddingEnd ) {\r\n            return \"bidding\";\r\n        } else if (block.number < revealEnd ) {\r\n            return \"revealing\";\r\n        } else if (block.number < claimEnd && !domainClaimed){\r\n            return \"claiming\";\r\n        } else if (domainClaimed) {\r\n            return \"claimed\";\r\n        } else {\r\n            return \"unclaimed\";\r\n        }\r\n    }\r\n\r\n    // This is an \"internal\" function which means that it\r\n    // can only be called from the contract itself (or from\r\n    // derived contracts).\r\n    function checkIfHighestBid(address payable bidder, uint value) internal\r\n            returns (bool success)\r\n    {\r\n        if (value <= highestBid) {\r\n            return false;   \r\n        }\r\n        if (highestBidder != address(0)) {\r\n            // Refund the previously highest bidder.\r\n            address payable previousHighestBidder = highestBidder;\r\n            uint previousHighestBid = highestBid;\r\n\r\n            highestBid = value;\r\n            highestBidder = bidder;\r\n\r\n            previousHighestBidder.transfer(previousHighestBid);\r\n        } else {\r\n            // If there was no previous highestBidder/Bid\r\n            highestBid = value;\r\n            highestBidder = bidder;\r\n        }\r\n\r\n        DomainRegistry(owner).emitPotentialWinner(highestBidder, highestBid);\r\n\r\n        return true;\r\n    }\r\n\r\n//------------------------------------------------------------------------------\r\n//debug helper functions\r\n\r\n    function checkBidAmount() view public returns (uint)\r\n    {\r\n        if (bids[msg.sender].length > 0) {\r\n            return bids[msg.sender][0].deposit;\r\n        }\r\n        // random number\r\n        return 69420;\r\n    }\r\n\r\n    function checkHash(\r\n        uint[] memory _values,\r\n        bool[] memory _fake,\r\n        bytes32[] memory _secret\r\n    ) view public returns (bool)\r\n    {\r\n        if (bids[msg.sender].length > 0) {\r\n            if (bids[msg.sender][0].blindedBid != keccak256(abi.encodePacked(_values[0], _fake[0], _secret[0]))) {\r\n                return false;\r\n            }\r\n            return true;\r\n        }\r\n        return false;\r\n    }\r\n\r\n    function checkHighestBid() view public returns (uint) {\r\n        return highestBid;\r\n    }\r\n\r\n}\r\n",
  "sourcePath": "C:\\Users\\Lim Han Quan\\Desktop\\ethereum-dapp\\contracts\\BlindAuction.sol",
  "compiler": {
    "name": "solc",
    "version": "0.6.0+commit.26b70077.Emscripten.clang"
  },
  "schemaVersion": "3.3.1",
  "updatedAt": "2020-11-02T17:44:11.877Z",
  "devdoc": {
    "methods": {}
  },
  "userdoc": {
    "methods": {
      "claimWinnerReward()": {
        "notice": "End the auction and send the highest bid to the registry."
      }
    }
  }
}