{
  "contractName": "BlindAuction",
  "abi": [
    {
      "inputs": [
        {
          "internalType": "bytes32",
          "name": "_node",
          "type": "bytes32"
        }
      ],
      "payable": false,
      "stateMutability": "nonpayable",
      "type": "constructor"
    },
    {
      "anonymous": false,
      "inputs": [
        {
          "indexed": false,
          "internalType": "address",
          "name": "winner",
          "type": "address"
        },
        {
          "indexed": false,
          "internalType": "uint256",
          "name": "highestBid",
          "type": "uint256"
        }
      ],
      "name": "PotentialWinnerFound",
      "type": "event"
    },
    {
      "anonymous": false,
      "inputs": [
        {
          "indexed": false,
          "internalType": "address",
          "name": "winner",
          "type": "address"
        },
        {
          "indexed": false,
          "internalType": "uint256",
          "name": "highestBid",
          "type": "uint256"
        }
      ],
      "name": "WinnerClaimed",
      "type": "event"
    },
    {
      "constant": true,
      "inputs": [],
      "name": "biddingDuration",
      "outputs": [
        {
          "internalType": "uint256",
          "name": "",
          "type": "uint256"
        }
      ],
      "payable": false,
      "stateMutability": "view",
      "type": "function"
    },
    {
      "constant": true,
      "inputs": [],
      "name": "biddingEnd",
      "outputs": [
        {
          "internalType": "uint256",
          "name": "",
          "type": "uint256"
        }
      ],
      "payable": false,
      "stateMutability": "view",
      "type": "function"
    },
    {
      "constant": true,
      "inputs": [
        {
          "internalType": "address",
          "name": "",
          "type": "address"
        },
        {
          "internalType": "uint256",
          "name": "",
          "type": "uint256"
        }
      ],
      "name": "bids",
      "outputs": [
        {
          "internalType": "bytes32",
          "name": "blindedBid",
          "type": "bytes32"
        },
        {
          "internalType": "uint256",
          "name": "deposit",
          "type": "uint256"
        }
      ],
      "payable": false,
      "stateMutability": "view",
      "type": "function"
    },
    {
      "constant": true,
      "inputs": [],
      "name": "domainClaimed",
      "outputs": [
        {
          "internalType": "bool",
          "name": "",
          "type": "bool"
        }
      ],
      "payable": false,
      "stateMutability": "view",
      "type": "function"
    },
    {
      "constant": true,
      "inputs": [],
      "name": "ended",
      "outputs": [
        {
          "internalType": "bool",
          "name": "",
          "type": "bool"
        }
      ],
      "payable": false,
      "stateMutability": "view",
      "type": "function"
    },
    {
      "constant": true,
      "inputs": [],
      "name": "highestBid",
      "outputs": [
        {
          "internalType": "uint256",
          "name": "",
          "type": "uint256"
        }
      ],
      "payable": false,
      "stateMutability": "view",
      "type": "function"
    },
    {
      "constant": true,
      "inputs": [],
      "name": "highestBidder",
      "outputs": [
        {
          "internalType": "address",
          "name": "",
          "type": "address"
        }
      ],
      "payable": false,
      "stateMutability": "view",
      "type": "function"
    },
    {
      "constant": true,
      "inputs": [],
      "name": "node",
      "outputs": [
        {
          "internalType": "bytes32",
          "name": "",
          "type": "bytes32"
        }
      ],
      "payable": false,
      "stateMutability": "view",
      "type": "function"
    },
    {
      "constant": true,
      "inputs": [],
      "name": "owner",
      "outputs": [
        {
          "internalType": "address payable",
          "name": "",
          "type": "address"
        }
      ],
      "payable": false,
      "stateMutability": "view",
      "type": "function"
    },
    {
      "constant": true,
      "inputs": [],
      "name": "revealDuration",
      "outputs": [
        {
          "internalType": "uint256",
          "name": "",
          "type": "uint256"
        }
      ],
      "payable": false,
      "stateMutability": "view",
      "type": "function"
    },
    {
      "constant": true,
      "inputs": [],
      "name": "revealEnd",
      "outputs": [
        {
          "internalType": "uint256",
          "name": "",
          "type": "uint256"
        }
      ],
      "payable": false,
      "stateMutability": "view",
      "type": "function"
    },
    {
      "constant": false,
      "inputs": [
        {
          "internalType": "bytes32",
          "name": "_blindedBid",
          "type": "bytes32"
        }
      ],
      "name": "bid",
      "outputs": [],
      "payable": true,
      "stateMutability": "payable",
      "type": "function"
    },
    {
      "constant": false,
      "inputs": [
        {
          "internalType": "uint256[]",
          "name": "_values",
          "type": "uint256[]"
        },
        {
          "internalType": "bool[]",
          "name": "_fake",
          "type": "bool[]"
        },
        {
          "internalType": "bytes32[]",
          "name": "_secret",
          "type": "bytes32[]"
        }
      ],
      "name": "reveal",
      "outputs": [],
      "payable": false,
      "stateMutability": "nonpayable",
      "type": "function"
    },
    {
      "constant": false,
      "inputs": [],
      "name": "withdraw",
      "outputs": [],
      "payable": false,
      "stateMutability": "nonpayable",
      "type": "function"
    },
    {
      "constant": false,
      "inputs": [],
      "name": "claimWinnerReward",
      "outputs": [],
      "payable": false,
      "stateMutability": "nonpayable",
      "type": "function"
    },
    {
      "constant": true,
      "inputs": [],
      "name": "checkBidAmount",
      "outputs": [
        {
          "internalType": "uint256",
          "name": "",
          "type": "uint256"
        }
      ],
      "payable": false,
      "stateMutability": "view",
      "type": "function"
    },
    {
      "constant": true,
      "inputs": [],
      "name": "checkRefunded",
      "outputs": [
        {
          "internalType": "uint256",
          "name": "",
          "type": "uint256"
        }
      ],
      "payable": false,
      "stateMutability": "view",
      "type": "function"
    },
    {
      "constant": true,
      "inputs": [],
      "name": "checkPendingReturns",
      "outputs": [
        {
          "internalType": "uint256",
          "name": "",
          "type": "uint256"
        }
      ],
      "payable": false,
      "stateMutability": "view",
      "type": "function"
    },
    {
      "constant": true,
      "inputs": [
        {
          "internalType": "uint256[]",
          "name": "_values",
          "type": "uint256[]"
        },
        {
          "internalType": "bool[]",
          "name": "_fake",
          "type": "bool[]"
        },
        {
          "internalType": "bytes32[]",
          "name": "_secret",
          "type": "bytes32[]"
        }
      ],
      "name": "checkHash",
      "outputs": [
        {
          "internalType": "bool",
          "name": "",
          "type": "bool"
        }
      ],
      "payable": false,
      "stateMutability": "view",
      "type": "function"
    },
    {
      "constant": true,
      "inputs": [],
      "name": "checkHighestBid",
      "outputs": [
        {
          "internalType": "uint256",
          "name": "",
          "type": "uint256"
        }
      ],
      "payable": false,
      "stateMutability": "view",
      "type": "function"
    }
  ],
  "bytecode": "0x6080604052600a600455600a60055534801561001a57600080fd5b506040516114443803806114448339818101604052602081101561003d57600080fd5b8101908080519060200190929190505050336000806101000a81548173ffffffffffffffffffffffffffffffffffffffff021916908373ffffffffffffffffffffffffffffffffffffffff1602179055508060018190555060045443016002819055506005546002540160038190555050611387806100bd6000396000f3fe60806040526004361061011f5760003560e01c80638da5cb5b116100a0578063a7dae90911610064578063a7dae909146107cb578063c5e434d9146107f6578063c8e7b31d14610821578063d57bde791461084c578063d70754ec146108775761011f565b80638da5cb5b146104d7578063900f080a1461052e57806391f901571461071b578063957bb1e014610772578063a6e66477146107a05761011f565b80633ccfd60b116100e75780633ccfd60b14610424578063423b217f1461043b5780634e528de81461046657806386c62a8f14610495578063886a6de1146104ac5761011f565b806301495c1c1461012457806312fa6feb1461019a578063164db64c146101c957806324905986146101f45780632fd7e5dd146103f9575b600080fd5b34801561013057600080fd5b5061017d6004803603604081101561014757600080fd5b81019080803573ffffffffffffffffffffffffffffffffffffffff169060200190929190803590602001909291905050506108a2565b604051808381526020018281526020019250505060405180910390f35b3480156101a657600080fd5b506101af6108e0565b604051808215151515815260200191505060405180910390f35b3480156101d557600080fd5b506101de6108f3565b6040518082815260200191505060405180910390f35b34801561020057600080fd5b506103df6004803603606081101561021757600080fd5b810190808035906020019064010000000081111561023457600080fd5b82018360208201111561024657600080fd5b8035906020019184602083028401116401000000008311171561026857600080fd5b919080806020026020016040519081016040528093929190818152602001838360200280828437600081840152601f19601f820116905080830192505050505050509192919290803590602001906401000000008111156102c857600080fd5b8201836020820111156102da57600080fd5b803590602001918460208302840111640100000000831117156102fc57600080fd5b919080806020026020016040519081016040528093929190818152602001838360200280828437600081840152601f19601f8201169050808301925050505050505091929192908035906020019064010000000081111561035c57600080fd5b82018360208201111561036e57600080fd5b8035906020019184602083028401116401000000008311171561039057600080fd5b919080806020026020016040519081016040528093929190818152602001838360200280828437600081840152601f19601f82011690508083019250505050505050919291929050505061093a565b604051808215151515815260200191505060405180910390f35b34801561040557600080fd5b5061040e610a80565b6040518082815260200191505060405180910390f35b34801561043057600080fd5b50610439610b3a565b005b34801561044757600080fd5b50610450610c17565b6040518082815260200191505060405180910390f35b34801561047257600080fd5b5061047b610c1d565b604051808215151515815260200191505060405180910390f35b3480156104a157600080fd5b506104aa610c30565b005b3480156104b857600080fd5b506104c1610dac565b6040518082815260200191505060405180910390f35b3480156104e357600080fd5b506104ec610db2565b604051808273ffffffffffffffffffffffffffffffffffffffff1673ffffffffffffffffffffffffffffffffffffffff16815260200191505060405180910390f35b34801561053a57600080fd5b506107196004803603606081101561055157600080fd5b810190808035906020019064010000000081111561056e57600080fd5b82018360208201111561058057600080fd5b803590602001918460208302840111640100000000831117156105a257600080fd5b919080806020026020016040519081016040528093929190818152602001838360200280828437600081840152601f19601f8201169050808301925050505050505091929192908035906020019064010000000081111561060257600080fd5b82018360208201111561061457600080fd5b8035906020019184602083028401116401000000008311171561063657600080fd5b919080806020026020016040519081016040528093929190818152602001838360200280828437600081840152601f19601f8201169050808301925050505050505091929192908035906020019064010000000081111561069657600080fd5b8201836020820111156106a857600080fd5b803590602001918460208302840111640100000000831117156106ca57600080fd5b919080806020026020016040519081016040528093929190818152602001838360200280828437600081840152601f19601f820116905080830192505050505050509192919290505050610dd7565b005b34801561072757600080fd5b5061073061105c565b604051808273ffffffffffffffffffffffffffffffffffffffff1673ffffffffffffffffffffffffffffffffffffffff16815260200191505060405180910390f35b61079e6004803603602081101561078857600080fd5b8101908080359060200190929190505050611082565b005b3480156107ac57600080fd5b506107b561112b565b6040518082815260200191505060405180910390f35b3480156107d757600080fd5b506107e0611131565b6040518082815260200191505060405180910390f35b34801561080257600080fd5b5061080b61113b565b6040518082815260200191505060405180910390f35b34801561082d57600080fd5b50610836611182565b6040518082815260200191505060405180910390f35b34801561085857600080fd5b50610861611188565b6040518082815260200191505060405180910390f35b34801561088357600080fd5b5061088c61118e565b6040518082815260200191505060405180910390f35b600860205281600052604060002081815481106108bb57fe5b9060005260206000209060020201600091509150508060000154908060010154905082565b600660009054906101000a900460ff1681565b6000600a60003373ffffffffffffffffffffffffffffffffffffffff1673ffffffffffffffffffffffffffffffffffffffff16815260200190815260200160002054905090565b600080600860003373ffffffffffffffffffffffffffffffffffffffff1673ffffffffffffffffffffffffffffffffffffffff168152602001908152602001600020805490501115610a74578360008151811061099357fe5b6020026020010151836000815181106109a857fe5b6020026020010151836000815181106109bd57fe5b602002602001015160405160200180848152602001831515151560f81b8152600101828152602001935050505060405160208183030381529060405280519060200120600860003373ffffffffffffffffffffffffffffffffffffffff1673ffffffffffffffffffffffffffffffffffffffff168152602001908152602001600020600081548110610a4b57fe5b90600052602060002090600202016000015414610a6b5760009050610a79565b60019050610a79565b600090505b9392505050565b600080600860003373ffffffffffffffffffffffffffffffffffffffff1673ffffffffffffffffffffffffffffffffffffffff168152602001908152602001600020805490501115610b3057600860003373ffffffffffffffffffffffffffffffffffffffff1673ffffffffffffffffffffffffffffffffffffffff168152602001908152602001600020600081548110610b1757fe5b9060005260206000209060020201600101549050610b37565b62010f2c90505b90565b6000600960003373ffffffffffffffffffffffffffffffffffffffff1673ffffffffffffffffffffffffffffffffffffffff1681526020019081526020016000205490506000811115610c14576000600960003373ffffffffffffffffffffffffffffffffffffffff1673ffffffffffffffffffffffffffffffffffffffff168152602001908152602001600020819055503373ffffffffffffffffffffffffffffffffffffffff166108fc829081150290604051600060405180830381858888f19350505050158015610c12573d6000803e3d6000fd5b505b50565b60025481565b600660019054906101000a900460ff1681565b600354804311610c3f57600080fd5b600660029054906101000a900473ffffffffffffffffffffffffffffffffffffffff1673ffffffffffffffffffffffffffffffffffffffff163373ffffffffffffffffffffffffffffffffffffffff1614610c9957600080fd5b60001515600660019054906101000a900460ff16151514610cb957600080fd5b6001600660016101000a81548160ff02191690831515021790555060008060009054906101000a900473ffffffffffffffffffffffffffffffffffffffff1690508073ffffffffffffffffffffffffffffffffffffffff16639daf9044600754600154336007546040518563ffffffff1660e01b8152600401808481526020018373ffffffffffffffffffffffffffffffffffffffff1673ffffffffffffffffffffffffffffffffffffffff16815260200182815260200193505050506000604051808303818588803b158015610d8f57600080fd5b505af1158015610da3573d6000803e3d6000fd5b50505050505050565b60055481565b6000809054906101000a900473ffffffffffffffffffffffffffffffffffffffff1681565b600254804311610de657600080fd5b600354804310610df557600080fd5b6000600860003373ffffffffffffffffffffffffffffffffffffffff1673ffffffffffffffffffffffffffffffffffffffff16815260200190815260200160002080549050905080865114610e4957600080fd5b80855114610e5657600080fd5b80845114610e6357600080fd5b600080905060008090505b82811015610fbe576000600860003373ffffffffffffffffffffffffffffffffffffffff1673ffffffffffffffffffffffffffffffffffffffff1681526020019081526020016000208281548110610ec257fe5b9060005260206000209060020201905060008060008b8581518110610ee357fe5b60200260200101518b8681518110610ef757fe5b60200260200101518b8781518110610f0b57fe5b602002602001015192509250925082828260405160200180848152602001831515151560f81b8152600101828152602001935050505060405160208183030381529060405280519060200120846000015414610f6a5750505050610fb1565b83600101548601955081158015610f85575082846001015410155b15610fa057610f943384611194565b15610f9f5782860395505b5b6000801b8460000181905550505050505b8080600101915050610e6e565b503373ffffffffffffffffffffffffffffffffffffffff166108fc829081150290604051600060405180830381858888f19350505050158015611005573d6000803e3d6000fd5b5080600a60003373ffffffffffffffffffffffffffffffffffffffff1673ffffffffffffffffffffffffffffffffffffffff1681526020019081526020016000206000828254019250508190555050505050505050565b600660029054906101000a900473ffffffffffffffffffffffffffffffffffffffff1681565b60025480431061109157600080fd5b600860003373ffffffffffffffffffffffffffffffffffffffff1673ffffffffffffffffffffffffffffffffffffffff1681526020019081526020016000206040518060400160405280848152602001348152509080600181540180825580915050906001820390600052602060002090600202016000909192909190915060008201518160000155602082015181600101555050505050565b60035481565b6000600754905090565b6000600960003373ffffffffffffffffffffffffffffffffffffffff1673ffffffffffffffffffffffffffffffffffffffff16815260200190815260200160002054905090565b60045481565b60075481565b60015481565b600060075482116111a8576000905061134c565b600073ffffffffffffffffffffffffffffffffffffffff16600660029054906101000a900473ffffffffffffffffffffffffffffffffffffffff1673ffffffffffffffffffffffffffffffffffffffff16146112705760075460096000600660029054906101000a900473ffffffffffffffffffffffffffffffffffffffff1673ffffffffffffffffffffffffffffffffffffffff1673ffffffffffffffffffffffffffffffffffffffff168152602001908152602001600020600082825401925050819055505b8160078190555082600660026101000a81548173ffffffffffffffffffffffffffffffffffffffff021916908373ffffffffffffffffffffffffffffffffffffffff1602179055507fb82fefdc651ee0dc2a48092a0a107978c235739dfbc58b8f52a11e939ea2d750600660029054906101000a900473ffffffffffffffffffffffffffffffffffffffff16600754604051808373ffffffffffffffffffffffffffffffffffffffff1673ffffffffffffffffffffffffffffffffffffffff1681526020018281526020019250505060405180910390a1600190505b9291505056fea265627a7a723158205e2c7d247a062b9d810e17d82d56b5b914cc290d2a45b02d45c93045cba22c8b64736f6c63430005100032",
  "source": "// SPDX-License-Identifier: GPL-3.0\r\npragma solidity ^0.5.16;\r\nimport './DomainRegistry.sol';\r\n\r\ncontract BlindAuction {\r\n    \r\n    //static variables\r\n    address payable public owner;\r\n    bytes32 public node;\r\n    uint public biddingEnd;\r\n    uint public revealEnd;\r\n    uint public biddingDuration = 10; //blocks\r\n    uint public revealDuration = 10; //blocks\r\n    bool public ended;\r\n    bool public domainClaimed;\r\n    \r\n    //state\r\n    address public highestBidder;\r\n    uint public highestBid;\r\n    \r\n    //events\r\n    event WinnerClaimed(address winner, uint highestBid);\r\n    // for debugging\r\n    event PotentialWinnerFound(address winner, uint highestBid);\r\n\r\n    //modifiers\r\n    modifier onlyBefore(uint _block) { require(block.number < _block); _; }\r\n    modifier onlyAfter(uint _block) { require(block.number > _block); _; }\r\n\r\n\r\n    struct Bid {\r\n        bytes32 blindedBid; //hash(value, fake, secret)\r\n        uint deposit;\r\n    }\r\n\r\n    //mappings\r\n    mapping (address => Bid[]) public bids;\r\n    mapping (address => uint) pendingReturns;\r\n    mapping (address => uint) refunded;\r\n\r\n    constructor(bytes32 _node) public {\r\n        owner = msg.sender;\r\n        node = _node;\r\n        biddingEnd = block.number + biddingDuration;\r\n        revealEnd = biddingEnd + revealDuration;\r\n    }\r\n\r\n    function bid(bytes32 _blindedBid) \r\n        public\r\n        payable\r\n        onlyBefore(biddingEnd)\r\n    {\r\n        bids[msg.sender].push(Bid({\r\n            blindedBid: _blindedBid,\r\n            deposit: msg.value\r\n        }));\r\n    }\r\n\r\n    // Reveal blinded bids\r\n    // Refund all except if the bid is currently the highest (potential winner)\r\n    // The submitted values, fakes, secrets must be in the order of the bids\r\n    function reveal (\r\n        uint[] memory _values,\r\n        bool[] memory _fake,\r\n        bytes32[] memory _secret\r\n    )\r\n        public\r\n        onlyAfter(biddingEnd)\r\n        onlyBefore(revealEnd)\r\n    {\r\n        uint length = bids[msg.sender].length;\r\n        require(_values.length == length);\r\n        require(_fake.length == length);\r\n        require(_secret.length == length);\r\n\r\n        uint refund = 0;\r\n        \r\n        // iterate through all the bids\r\n        for (uint i = 0; i < length; i++) {\r\n            Bid storage bidToCheck = bids[msg.sender][i];\r\n            (uint value, bool fake, bytes32 secret) =\r\n                    (_values[i], _fake[i], _secret[i]);\r\n            if (bidToCheck.blindedBid != keccak256(abi.encodePacked(value, fake, secret))) {\r\n                // The proof does not match the blindedbid, do not refund deposit.\r\n                continue;\r\n            }\r\n            refund += bidToCheck.deposit;\r\n            if (!fake && bidToCheck.deposit >= value) {\r\n                if (checkIfHighestBid(msg.sender, value))\r\n                    // if the bid is the current highest, then don't refund it cos it might be the winner.\r\n                    refund -= value;\r\n            }\r\n            // Make it impossible for the sender to re-claim\r\n            // the same deposit.\r\n            bidToCheck.blindedBid = bytes32(0);\r\n        }\r\n        msg.sender.transfer(refund);\r\n        refunded[msg.sender] += refund;\r\n    }\r\n\r\n    // Withdraw a bid that is the winning bid, \r\n    // bit was once the highest bid during the reveal stage\r\n    // Qn: should this be just added on to the end of checkIfHighestBid fn?\r\n    function withdraw() public  {\r\n        uint amount = pendingReturns[msg.sender];\r\n        if (amount > 0) {\r\n            // It is important to set this to zero because the recipient\r\n            // can call this function again as part of the receiving call\r\n            // before `transfer` returns\r\n            pendingReturns[msg.sender] = 0;\r\n            msg.sender.transfer(amount);\r\n        }\r\n    }\r\n\r\n    /// End the auction and send the highest bid to the registry.\r\n    // If I'm not wrong, you only have to check that msg.sender == highestBidder,\r\n    // and don't have to check the actual bid again.\r\n    function claimWinnerReward()\r\n        public\r\n        onlyAfter(revealEnd)\r\n    {\r\n        // winner himself must claim\r\n        require(msg.sender == highestBidder);\r\n        // once claimed, cannot reclaim\r\n        require(domainClaimed == false);\r\n        domainClaimed = true;\r\n        // 'owner' refers to the DomainRegistry that created this auction\r\n        DomainRegistry registry = DomainRegistry(owner);\r\n        registry.registerOwner.value(highestBid)(node, msg.sender, highestBid);\r\n\r\n    }\r\n\r\n    // This is an \"internal\" function which means that it\r\n    // can only be called from the contract itself (or from\r\n    // derived contracts).\r\n    function checkIfHighestBid(address bidder, uint value) internal\r\n            returns (bool success)\r\n    {\r\n        if (value <= highestBid) {\r\n            return false;\r\n        }\r\n        if (highestBidder != address(0)) {\r\n            // Refund the previously highest bidder.\r\n            pendingReturns[highestBidder] += highestBid;\r\n        }\r\n        highestBid = value;\r\n        highestBidder = bidder;\r\n        emit PotentialWinnerFound(highestBidder, highestBid);\r\n        return true;\r\n    }\r\n\r\n//------------------------------------------------------------------------------\r\n//debug helper functions\r\n\r\n    function checkBidAmount() view public returns (uint)\r\n    {\r\n        if (bids[msg.sender].length > 0) {\r\n            return bids[msg.sender][0].deposit;\r\n        }\r\n        // random number\r\n        return 69420;\r\n    }\r\n\r\n    function checkRefunded() view public returns (uint)\r\n    {\r\n        return refunded[msg.sender];\r\n    }\r\n\r\n    function checkPendingReturns() view public returns (uint)\r\n    {\r\n        return pendingReturns[msg.sender];\r\n    }\r\n\r\n    function checkHash(\r\n        uint[] memory _values,\r\n        bool[] memory _fake,\r\n        bytes32[] memory _secret\r\n    ) view public returns (bool)\r\n    {\r\n        if (bids[msg.sender].length > 0) {\r\n            if (bids[msg.sender][0].blindedBid != keccak256(abi.encodePacked(_values[0], _fake[0], _secret[0]))) {\r\n                return false;\r\n            }\r\n            return true;\r\n        }\r\n        return false;\r\n    }\r\n\r\n    function checkHighestBid() view public returns (uint) {\r\n        return highestBid;\r\n    }\r\n\r\n}\r\n\r\n\r\n\r\n",
  "sourcePath": "C:\\Users\\kai\\OneDrive - Nanyang Technological University\\Work\\2020\\2020-2021 Sem 1\\Blockchain Technology\\devproj\\repo\\contracts\\BlindAuction.sol",
  "compiler": {
    "name": "solc",
    "version": "0.5.16+commit.9c3226ce.Emscripten.clang"
  },
  "schemaVersion": "3.3.1",
  "updatedAt": "2020-10-28T02:46:38.101Z",
  "devdoc": {
    "methods": {}
  },
  "userdoc": {
    "methods": {
      "claimWinnerReward()": {
        "notice": "End the auction and send the highest bid to the registry."
      }
    }
  }
}