{
  "contractName": "DomainRegistry",
  "abi": [
    {
      "inputs": [],
      "stateMutability": "nonpayable",
      "type": "constructor"
    },
    {
      "anonymous": false,
      "inputs": [
        {
          "indexed": false,
          "internalType": "string",
          "name": "node",
          "type": "string"
        },
        {
          "indexed": false,
          "internalType": "address",
          "name": "auctionAddress",
          "type": "address"
        }
      ],
      "name": "NewAuctionStarted",
      "type": "event"
    },
    {
      "anonymous": false,
      "inputs": [
        {
          "indexed": false,
          "internalType": "string",
          "name": "node",
          "type": "string"
        },
        {
          "indexed": false,
          "internalType": "address",
          "name": "newOwner",
          "type": "address"
        },
        {
          "indexed": false,
          "internalType": "uint256",
          "name": "highestBid",
          "type": "uint256"
        }
      ],
      "name": "NewDomainClaimed",
      "type": "event"
    },
    {
      "anonymous": false,
      "inputs": [
        {
          "indexed": false,
          "internalType": "address",
          "name": "winner",
          "type": "address"
        },
        {
          "indexed": false,
          "internalType": "uint256",
          "name": "highestBid",
          "type": "uint256"
        }
      ],
      "name": "PotentialWinnerFound",
      "type": "event"
    },
    {
      "inputs": [],
      "name": "owner",
      "outputs": [
        {
          "internalType": "address",
          "name": "",
          "type": "address"
        }
      ],
      "stateMutability": "view",
      "type": "function",
      "constant": true
    },
    {
      "inputs": [
        {
          "internalType": "string",
          "name": "node",
          "type": "string"
        }
      ],
      "name": "checkIfRegistered",
      "outputs": [
        {
          "internalType": "bool",
          "name": "",
          "type": "bool"
        }
      ],
      "stateMutability": "view",
      "type": "function",
      "constant": true
    },
    {
      "inputs": [
        {
          "internalType": "string",
          "name": "node",
          "type": "string"
        },
        {
          "internalType": "address",
          "name": "newOwner",
          "type": "address"
        },
        {
          "internalType": "uint256",
          "name": "highestBid",
          "type": "uint256"
        }
      ],
      "name": "registerOwner",
      "outputs": [],
      "stateMutability": "payable",
      "type": "function",
      "payable": true
    },
    {
      "inputs": [
        {
          "internalType": "string",
          "name": "node",
          "type": "string"
        }
      ],
      "name": "startAuction",
      "outputs": [
        {
          "internalType": "address",
          "name": "auctionAddress",
          "type": "address"
        }
      ],
      "stateMutability": "nonpayable",
      "type": "function"
    },
    {
      "inputs": [],
      "name": "getRegisteredDomains",
      "outputs": [
        {
          "internalType": "string[]",
          "name": "",
          "type": "string[]"
        },
        {
          "internalType": "address[]",
          "name": "",
          "type": "address[]"
        }
      ],
      "stateMutability": "view",
      "type": "function",
      "constant": true
    },
    {
      "inputs": [
        {
          "internalType": "string",
          "name": "domain",
          "type": "string"
        }
      ],
      "name": "resolveDomain",
      "outputs": [
        {
          "internalType": "address",
          "name": "",
          "type": "address"
        }
      ],
      "stateMutability": "view",
      "type": "function",
      "constant": true
    },
    {
      "inputs": [
        {
          "internalType": "address",
          "name": "_owner",
          "type": "address"
        }
      ],
      "name": "getOwnedDomains",
      "outputs": [
        {
          "internalType": "string[]",
          "name": "",
          "type": "string[]"
        }
      ],
      "stateMutability": "view",
      "type": "function",
      "constant": true
    },
    {
      "inputs": [
        {
          "internalType": "string",
          "name": "node",
          "type": "string"
        }
      ],
      "name": "viewAuctionAddress",
      "outputs": [
        {
          "internalType": "address",
          "name": "",
          "type": "address"
        }
      ],
      "stateMutability": "view",
      "type": "function",
      "constant": true
    },
    {
      "inputs": [],
      "name": "viewThisAddress",
      "outputs": [
        {
          "internalType": "address",
          "name": "",
          "type": "address"
        }
      ],
      "stateMutability": "view",
      "type": "function",
      "constant": true
    },
    {
      "inputs": [
        {
          "internalType": "string",
          "name": "node",
          "type": "string"
        }
      ],
      "name": "viewRecordOwner",
      "outputs": [
        {
          "internalType": "address",
          "name": "",
          "type": "address"
        }
      ],
      "stateMutability": "view",
      "type": "function",
      "constant": true
    },
    {
      "inputs": [
        {
          "internalType": "string",
          "name": "node",
          "type": "string"
        }
      ],
      "name": "viewRegistration",
      "outputs": [
        {
          "internalType": "bool",
          "name": "",
          "type": "bool"
        }
      ],
      "stateMutability": "view",
      "type": "function",
      "constant": true
    },
    {
      "inputs": [
        {
          "internalType": "address",
          "name": "winner",
          "type": "address"
        },
        {
          "internalType": "uint256",
          "name": "value",
          "type": "uint256"
        }
      ],
      "name": "emitPotentialWinner",
      "outputs": [],
      "stateMutability": "nonpayable",
      "type": "function"
    }
  ],
  "bytecode": "0x608060405234801561001057600080fd5b50336000806101000a81548173ffffffffffffffffffffffffffffffffffffffff021916908373ffffffffffffffffffffffffffffffffffffffff16021790555061339a806100606000396000f3fe608060405260043610620000b65760003560e01c80638da5cb5b116200006d5780638da5cb5b1462000208578063a7181ae31462000238578063bcef69f21462000266578063c33282d314620002aa578063e802d98f14620002ee578063ecf50fe2146200033257620000b6565b80631a6c821b14620000bb578063364460f314620000ff57806356d36ae114620001435780635f7a6666146200016357806373dc756c146200019357806380d2ec8614620001d7575b600080fd5b348015620000c857600080fd5b50620000e76004803603620000e1919081019062001240565b62000376565b604051620000f691906200172d565b60405180910390f35b3480156200010c57600080fd5b506200012b6004803603620001259190810190620012ad565b62000567565b6040516200013a9190620016e3565b60405180910390f35b6200016160048036036200015b919081019062001337565b62000638565b005b3480156200017057600080fd5b506200017b6200084f565b6040516200018a9190620016e3565b60405180910390f35b348015620001a057600080fd5b50620001bf6004803603620001b99190810190620012ad565b62000857565b604051620001ce9190620016e3565b60405180910390f35b348015620001e457600080fd5b50620001ef62000cbc565b604051620001ff92919062001751565b60405180910390f35b3480156200021557600080fd5b506200022062000ed7565b6040516200022f9190620016e3565b60405180910390f35b3480156200024557600080fd5b506200026460048036036200025e91908101906200126c565b62000efc565b005b3480156200027357600080fd5b506200029260048036036200028c9190810190620012ad565b62000f3b565b604051620002a191906200178c565b60405180910390f35b348015620002b757600080fd5b50620002d66004803603620002d09190810190620012ad565b62000f75565b604051620002e591906200178c565b60405180910390f35b348015620002fb57600080fd5b506200031a6004803603620003149190810190620012ad565b62001003565b604051620003299190620016e3565b60405180910390f35b3480156200033f57600080fd5b506200035e6004803603620003589190810190620012ad565b62001050565b6040516200036d9190620016e3565b60405180910390f35b606080600360008473ffffffffffffffffffffffffffffffffffffffff1673ffffffffffffffffffffffffffffffffffffffff16815260200190815260200160002080549050604051908082528060200260200182016040528015620003f157816020015b6060815260200190600190039081620003db5790505b50905060008090505b600360008573ffffffffffffffffffffffffffffffffffffffff1673ffffffffffffffffffffffffffffffffffffffff168152602001908152602001600020805490508110156200055d57600360008573ffffffffffffffffffffffffffffffffffffffff1673ffffffffffffffffffffffffffffffffffffffff16815260200190815260200160002081815481106200049057fe5b906000526020600020018054600181600116156101000203166002900480601f016020809104026020016040519081016040528092919081815260200182805460018160011615610100020316600290048015620005325780601f10620005065761010080835404028352916020019162000532565b820191906000526020600020905b8154815290600101906020018083116200051457829003601f168201915b50505050508282815181106200054457fe5b60200260200101819052508080600101915050620003fa565b5080915050919050565b60006002826040516200057b91906200169a565b908152602001604051809103902060030160009054906101000a900460ff1615620005ec57600282604051620005b291906200169a565b908152602001604051809103902060000160009054906101000a900473ffffffffffffffffffffffffffffffffffffffff16905062000633565b600282604051620005fe91906200169a565b908152602001604051809103902060010160009054906101000a900473ffffffffffffffffffffffffffffffffffffffff1690505b919050565b823373ffffffffffffffffffffffffffffffffffffffff166002826040516200066291906200169a565b908152602001604051809103902060010160009054906101000a900473ffffffffffffffffffffffffffffffffffffffff1673ffffffffffffffffffffffffffffffffffffffff1614620006b557600080fd5b82600285604051620006c891906200169a565b908152602001604051809103902060000160006101000a81548173ffffffffffffffffffffffffffffffffffffffff021916908373ffffffffffffffffffffffffffffffffffffffff16021790555060016002856040516200072b91906200169a565b908152602001604051809103902060030160006101000a81548160ff021916908315150217905550600184908060018154018082558091505060019003906000526020600020016000909190919091509080519060200190620007909291906200109d565b50600360008473ffffffffffffffffffffffffffffffffffffffff1673ffffffffffffffffffffffffffffffffffffffff168152602001908152602001600020849080600181540180825580915050600190039060005260206000200160009091909190915090805190602001906200080b9291906200109d565b507f12e0c0afd0cb01b210bc575b477c58890f065eb1d9793fa291726d0bca3daea6848484604051620008419392919062001801565b60405180910390a150505050565b600030905090565b600081606081905060606040518060400160405280600481526020017f75746e2e00000000000000000000000000000000000000000000000000000000815250905060008090505b60048110156200093c57818181518110620008b657fe5b602001015160f81c60f81b7effffffffffffffffffffffffffffffffffffffffffffffffffffffffffffff1916838260018651030381518110620008f657fe5b602001015160f81c60f81b7effffffffffffffffffffffffffffffffffffffffffffffffffffffffffffff1916146200092e57600080fd5b80806001019150506200089f565b5084600015156002826040516200095491906200169a565b908152602001604051809103902060030160009054906101000a900460ff161515146200098057600080fd5b85600115156002826040516200099791906200169a565b908152602001604051809103902060030160019054906101000a900460ff161515141562000af0576000600282604051620009d391906200169a565b908152602001604051809103902060010160009054906101000a900473ffffffffffffffffffffffffffffffffffffffff16905060608173ffffffffffffffffffffffffffffffffffffffff1663fcaa76646040518163ffffffff1660e01b815260040160006040518083038186803b15801562000a5057600080fd5b505afa15801562000a65573d6000803e3d6000fd5b505050506040513d6000823e3d601f19601f8201168201806040525062000a909190810190620012f2565b905060405160200162000aa390620016cc565b604051602081830303815290604052805190602001208160405160200162000acc91906200169a565b604051602081830303815290604052805190602001201462000aed57600080fd5b50505b8660405162000aff9062001124565b62000b0b9190620017a9565b604051809103906000f08015801562000b28573d6000803e3d6000fd5b5060028860405162000b3b91906200169a565b908152602001604051809103902060010160006101000a81548173ffffffffffffffffffffffffffffffffffffffff021916908373ffffffffffffffffffffffffffffffffffffffff1602179055504360028860405162000b9d91906200169a565b908152602001604051809103902060020181905550600160028860405162000bc691906200169a565b908152602001604051809103902060030160016101000a81548160ff0219169083151502179055507fd5d802d6a6ebd6a3147d5b04374599939cbbfa28bee645c79651c0e10fe7e6d08760028960405162000c2291906200169a565b908152602001604051809103902060010160009054906101000a900473ffffffffffffffffffffffffffffffffffffffff1660405162000c64929190620017cd565b60405180910390a160028760405162000c7e91906200169a565b908152602001604051809103902060010160009054906101000a900473ffffffffffffffffffffffffffffffffffffffff1695505050505050919050565b606080606060018054905060405190808252806020026020018201604052801562000cfc57816020015b606081526020019060019003908162000ce65790505b509050606060018054905060405190808252806020026020018201604052801562000d365781602001602082028038833980820191505090505b50905060008090505b60018054905081101562000eca576001818154811062000d5b57fe5b906000526020600020018054600181600116156101000203166002900480601f01602080910402602001604051908101604052809291908181526020018280546001816001161561010002031660029004801562000dfd5780601f1062000dd15761010080835404028352916020019162000dfd565b820191906000526020600020905b81548152906001019060200180831162000ddf57829003601f168201915b505050505083828151811062000e0f57fe5b602002602001018190525060026001828154811062000e2a57fe5b9060005260206000200160405162000e439190620016b3565b908152602001604051809103902060000160009054906101000a900473ffffffffffffffffffffffffffffffffffffffff1682828151811062000e8257fe5b602002602001019073ffffffffffffffffffffffffffffffffffffffff16908173ffffffffffffffffffffffffffffffffffffffff1681525050808060010191505062000d3f565b5081819350935050509091565b6000809054906101000a900473ffffffffffffffffffffffffffffffffffffffff1681565b7fb82fefdc651ee0dc2a48092a0a107978c235739dfbc58b8f52a11e939ea2d750828260405162000f2f92919062001700565b60405180910390a15050565b600060028260405162000f4f91906200169a565b908152602001604051809103902060030160009054906101000a900460ff169050919050565b60008073ffffffffffffffffffffffffffffffffffffffff1660028360405162000fa091906200169a565b908152602001604051809103902060000160009054906101000a900473ffffffffffffffffffffffffffffffffffffffff1673ffffffffffffffffffffffffffffffffffffffff16141562000ff9576000905062000ffe565b600190505b919050565b60006002826040516200101791906200169a565b908152602001604051809103902060000160009054906101000a900473ffffffffffffffffffffffffffffffffffffffff169050919050565b60006002826040516200106491906200169a565b908152602001604051809103902060010160009054906101000a900473ffffffffffffffffffffffffffffffffffffffff169050919050565b828054600181600116156101000203166002900490600052602060002090601f016020900481019282601f10620010e057805160ff191683800117855562001111565b8280016001018555821562001111579182015b8281111562001110578251825591602001919060010190620010f3565b5b50905062001120919062001132565b5090565b6119268062001a3f83390190565b6200115791905b808211156200115357600081600090555060010162001139565b5090565b90565b6000813590506200116b8162001a0a565b92915050565b600082601f8301126200118357600080fd5b81356200119a620011948262001873565b62001845565b91508082526020830160208301858383011115620011b757600080fd5b620011c4838284620019b4565b50505092915050565b600082601f830112620011df57600080fd5b8151620011f6620011f08262001873565b62001845565b915080825260208301602083018583830111156200121357600080fd5b62001220838284620019c3565b50505092915050565b6000813590506200123a8162001a24565b92915050565b6000602082840312156200125357600080fd5b600062001263848285016200115a565b91505092915050565b600080604083850312156200128057600080fd5b600062001290858286016200115a565b9250506020620012a38582860162001229565b9150509250929050565b600060208284031215620012c057600080fd5b600082013567ffffffffffffffff811115620012db57600080fd5b620012e98482850162001171565b91505092915050565b6000602082840312156200130557600080fd5b600082015167ffffffffffffffff8111156200132057600080fd5b6200132e84828501620011cd565b91505092915050565b6000806000606084860312156200134d57600080fd5b600084013567ffffffffffffffff8111156200136857600080fd5b620013768682870162001171565b935050602062001389868287016200115a565b92505060406200139c8682870162001229565b9150509250925092565b6000620013b48383620013d6565b60208301905092915050565b6000620013ce83836200156c565b905092915050565b620013e1816200196a565b82525050565b620013f2816200196a565b82525050565b60006200140582620018d5565b6200141181856200191b565b93506200141e83620018a0565b8060005b8381101562001455578151620014398882620013a6565b9750620014468362001901565b92505060018101905062001422565b5085935050505092915050565b60006200146f82620018e0565b6200147b81856200192c565b9350836020820285016200148f85620018b0565b8060005b85811015620014d15784840389528151620014af8582620013c0565b9450620014bc836200190e565b925060208a0199505060018101905062001493565b50829750879550505050505092915050565b620014ee816200197e565b82525050565b60006200150182620018f6565b6200150d81856200194e565b93506200151f818560208601620019c3565b6200152a81620019f9565b840191505092915050565b60006200154282620018f6565b6200154e81856200195f565b935062001560818560208601620019c3565b80840191505092915050565b60006200157982620018eb565b6200158581856200193d565b935062001597818560208601620019c3565b620015a281620019f9565b840191505092915050565b600081546001811660008114620015cd5760018114620015f5576200163f565b607f6002830416620015e081876200195f565b955060ff19831686528086019350506200163f565b600282046200160581876200195f565b95506200161285620018c0565b60005b82811015620016365781548189015260018201915060208101905062001615565b82880195505050505b505092915050565b6000620016566009836200195f565b91507f756e636c61696d656400000000000000000000000000000000000000000000006000830152600982019050919050565b6200169481620019aa565b82525050565b6000620016a8828462001535565b915081905092915050565b6000620016c18284620015ad565b915081905092915050565b6000620016d98262001647565b9150819050919050565b6000602082019050620016fa6000830184620013e7565b92915050565b6000604082019050620017176000830185620013e7565b62001726602083018462001689565b9392505050565b6000602082019050818103600083015262001749818462001462565b905092915050565b600060408201905081810360008301526200176d818562001462565b90508181036020830152620017838184620013f8565b90509392505050565b6000602082019050620017a36000830184620014e3565b92915050565b60006020820190508181036000830152620017c58184620014f4565b905092915050565b60006040820190508181036000830152620017e98185620014f4565b9050620017fa6020830184620013e7565b9392505050565b600060608201905081810360008301526200181d8186620014f4565b90506200182e6020830185620013e7565b6200183d604083018462001689565b949350505050565b6000604051905081810181811067ffffffffffffffff821117156200186957600080fd5b8060405250919050565b600067ffffffffffffffff8211156200188b57600080fd5b601f19601f8301169050602081019050919050565b6000819050602082019050919050565b6000819050602082019050919050565b60008190508160005260206000209050919050565b600081519050919050565b600081519050919050565b600081519050919050565b600081519050919050565b6000602082019050919050565b6000602082019050919050565b600082825260208201905092915050565b600082825260208201905092915050565b600082825260208201905092915050565b600082825260208201905092915050565b600081905092915050565b600062001977826200198a565b9050919050565b60008115159050919050565b600073ffffffffffffffffffffffffffffffffffffffff82169050919050565b6000819050919050565b82818337600083830152505050565b60005b83811015620019e3578082015181840152602081019050620019c6565b83811115620019f3576000848401525b50505050565b6000601f19601f8301169050919050565b62001a15816200196a565b811462001a2157600080fd5b50565b62001a2f81620019aa565b811462001a3b57600080fd5b5056fe60806040526002600555600260065560026007553480156200002057600080fd5b506040516200192638038062001926833981810160405260208110156200004657600080fd5b81019080805160405193929190846401000000008211156200006757600080fd5b838201915060208201858111156200007e57600080fd5b82518660018202830111640100000000821117156200009c57600080fd5b8083526020830192505050908051906020019080838360005b83811015620000d2578082015181840152602081019050620000b5565b50505050905090810190601f168015620001005780820380516001836020036101000a031916815260200191505b50604052505050336000806101000a81548173ffffffffffffffffffffffffffffffffffffffff021916908373ffffffffffffffffffffffffffffffffffffffff16021790555080600190805190602001906200015f9291906200018c565b5060055443016002819055506006546002540160038190555060075460035401600481905550506200023b565b828054600181600116156101000203166002900490600052602060002090601f016020900481019282601f10620001cf57805160ff191683800117855562000200565b8280016001018555821562000200579182015b82811115620001ff578251825591602001919060010190620001e2565b5b5090506200020f919062000213565b5090565b6200023891905b80821115620002345760008160009055506001016200021a565b5090565b90565b6116db806200024b6000396000f3fe6080604052600436106101145760003560e01c8063900f080a116100a0578063ab1a4d9411610064578063ab1a4d94146107a5578063c8e7b31d146107d0578063d57bde79146107fb578063d70754ec14610826578063fcaa7664146108b657610114565b8063900f080a146104dd57806391f90157146106ca578063957bb1e014610721578063a6e664771461074f578063a7dae9091461077a57610114565b8063423b217f116100e7578063423b217f146103ea5780634e528de81461041557806386c62a8f14610444578063886a6de11461045b5780638da5cb5b1461048657610114565b806301495c1c14610119578063249059861461018f5780632fd7e5dd146103945780633ccfa92f146103bf575b600080fd5b34801561012557600080fd5b506101726004803603604081101561013c57600080fd5b81019080803573ffffffffffffffffffffffffffffffffffffffff16906020019092919080359060200190929190505050610946565b604051808381526020018281526020019250505060405180910390f35b34801561019b57600080fd5b5061037a600480360360608110156101b257600080fd5b81019080803590602001906401000000008111156101cf57600080fd5b8201836020820111156101e157600080fd5b8035906020019184602083028401116401000000008311171561020357600080fd5b919080806020026020016040519081016040528093929190818152602001838360200280828437600081840152601f19601f8201169050808301925050505050505091929192908035906020019064010000000081111561026357600080fd5b82018360208201111561027557600080fd5b8035906020019184602083028401116401000000008311171561029757600080fd5b919080806020026020016040519081016040528093929190818152602001838360200280828437600081840152601f19601f820116905080830192505050505050509192919290803590602001906401000000008111156102f757600080fd5b82018360208201111561030957600080fd5b8035906020019184602083028401116401000000008311171561032b57600080fd5b919080806020026020016040519081016040528093929190818152602001838360200280828437600081840152601f19601f820116905080830192505050505050509192919290505050610984565b604051808215151515815260200191505060405180910390f35b3480156103a057600080fd5b506103a9610aca565b6040518082815260200191505060405180910390f35b3480156103cb57600080fd5b506103d4610b84565b6040518082815260200191505060405180910390f35b3480156103f657600080fd5b506103ff610b8a565b6040518082815260200191505060405180910390f35b34801561042157600080fd5b5061042a610b90565b604051808215151515815260200191505060405180910390f35b34801561045057600080fd5b50610459610ba3565b005b34801561046757600080fd5b50610470610db1565b6040518082815260200191505060405180910390f35b34801561049257600080fd5b5061049b610db7565b604051808273ffffffffffffffffffffffffffffffffffffffff1673ffffffffffffffffffffffffffffffffffffffff16815260200191505060405180910390f35b3480156104e957600080fd5b506106c86004803603606081101561050057600080fd5b810190808035906020019064010000000081111561051d57600080fd5b82018360208201111561052f57600080fd5b8035906020019184602083028401116401000000008311171561055157600080fd5b919080806020026020016040519081016040528093929190818152602001838360200280828437600081840152601f19601f820116905080830192505050505050509192919290803590602001906401000000008111156105b157600080fd5b8201836020820111156105c357600080fd5b803590602001918460208302840111640100000000831117156105e557600080fd5b919080806020026020016040519081016040528093929190818152602001838360200280828437600081840152601f19601f8201169050808301925050505050505091929192908035906020019064010000000081111561064557600080fd5b82018360208201111561065757600080fd5b8035906020019184602083028401116401000000008311171561067957600080fd5b919080806020026020016040519081016040528093929190818152602001838360200280828437600081840152601f19601f820116905080830192505050505050509192919290505050610ddc565b005b3480156106d657600080fd5b506106df6110c4565b604051808273ffffffffffffffffffffffffffffffffffffffff1673ffffffffffffffffffffffffffffffffffffffff16815260200191505060405180910390f35b61074d6004803603602081101561073757600080fd5b81019080803590602001909291905050506110ea565b005b34801561075b57600080fd5b50610764611191565b6040518082815260200191505060405180910390f35b34801561078657600080fd5b5061078f611197565b6040518082815260200191505060405180910390f35b3480156107b157600080fd5b506107ba6111a1565b6040518082815260200191505060405180910390f35b3480156107dc57600080fd5b506107e56111a7565b6040518082815260200191505060405180910390f35b34801561080757600080fd5b506108106111ad565b6040518082815260200191505060405180910390f35b34801561083257600080fd5b5061083b6111b3565b6040518080602001828103825283818151815260200191508051906020019080838360005b8381101561087b578082015181840152602081019050610860565b50505050905090810190601f1680156108a85780820380516001836020036101000a031916815260200191505b509250505060405180910390f35b3480156108c257600080fd5b506108cb611251565b6040518080602001828103825283818151815260200191508051906020019080838360005b8381101561090b5780820151818401526020810190506108f0565b50505050905090810190601f1680156109385780820380516001836020036101000a031916815260200191505b509250505060405180910390f35b600b602052816000526040600020818154811061095f57fe5b9060005260206000209060020201600091509150508060000154908060010154905082565b600080600b60003373ffffffffffffffffffffffffffffffffffffffff1673ffffffffffffffffffffffffffffffffffffffff168152602001908152602001600020805490501115610abe57836000815181106109dd57fe5b6020026020010151836000815181106109f257fe5b602002602001015183600081518110610a0757fe5b602002602001015160405160200180848152602001831515151560f81b8152600101828152602001935050505060405160208183030381529060405280519060200120600b60003373ffffffffffffffffffffffffffffffffffffffff1673ffffffffffffffffffffffffffffffffffffffff168152602001908152602001600020600081548110610a9557fe5b90600052602060002090600202016000015414610ab55760009050610ac3565b60019050610ac3565b600090505b9392505050565b600080600b60003373ffffffffffffffffffffffffffffffffffffffff1673ffffffffffffffffffffffffffffffffffffffff168152602001908152602001600020805490501115610b7a57600b60003373ffffffffffffffffffffffffffffffffffffffff1673ffffffffffffffffffffffffffffffffffffffff168152602001908152602001600020600081548110610b6157fe5b9060005260206000209060020201600101549050610b81565b62010f2c90505b90565b60045481565b60025481565b600a60009054906101000a900460ff1681565b600354804311610bb257600080fd5b60045480431115610bc257600080fd5b600860009054906101000a900473ffffffffffffffffffffffffffffffffffffffff1673ffffffffffffffffffffffffffffffffffffffff163373ffffffffffffffffffffffffffffffffffffffff1614610c1c57600080fd5b60001515600a60009054906101000a900460ff16151514610c3c57600080fd5b6001600a60006101000a81548160ff02191690831515021790555060008060009054906101000a900473ffffffffffffffffffffffffffffffffffffffff1690508073ffffffffffffffffffffffffffffffffffffffff166356d36ae16009546001336009546040518563ffffffff1660e01b815260040180806020018473ffffffffffffffffffffffffffffffffffffffff1673ffffffffffffffffffffffffffffffffffffffff168152602001838152602001828103825285818154600181600116156101000203166002900481526020019150805460018160011615610100020316600290048015610d725780601f10610d4757610100808354040283529160200191610d72565b820191906000526020600020905b815481529060010190602001808311610d5557829003601f168201915b50509450505050506000604051808303818588803b158015610d9357600080fd5b505af1158015610da7573d6000803e3d6000fd5b5050505050505050565b60065481565b6000809054906101000a900473ffffffffffffffffffffffffffffffffffffffff1681565b600254804311610deb57600080fd5b60035480431115610dfb57600080fd5b6000600b60003373ffffffffffffffffffffffffffffffffffffffff1673ffffffffffffffffffffffffffffffffffffffff16815260200190815260200160002080549050905080865114610e4f57600080fd5b80855114610e5c57600080fd5b80845114610e6957600080fd5b60008090506060600b60003373ffffffffffffffffffffffffffffffffffffffff1673ffffffffffffffffffffffffffffffffffffffff168152602001908152602001600020805480602002602001604051908101604052809291908181526020016000905b82821015610f1557838290600052602060002090600202016040518060400160405290816000820154815260200160018201548152505081526020019060010190610ecf565b505050509050600b60003373ffffffffffffffffffffffffffffffffffffffff1673ffffffffffffffffffffffffffffffffffffffff1681526020019081526020016000206000610f669190611635565b60008090505b8381101561107257610f7c611659565b828281518110610f8857fe5b6020026020010151905060008060008c8581518110610fa357fe5b60200260200101518c8681518110610fb757fe5b60200260200101518c8781518110610fcb57fe5b602002602001015192509250925082828260405160200180848152602001831515151560f81b815260010182815260200193505050506040516020818303038152906040528051906020012084600001511461102a5750505050611065565b83602001518701965081158015611045575082846020015110155b156110605761105433846113cf565b1561105f5782870396505b5b505050505b8080600101915050610f6c565b503373ffffffffffffffffffffffffffffffffffffffff166108fc839081150290604051600060405180830381858888f193505050501580156110b9573d6000803e3d6000fd5b505050505050505050565b600860009054906101000a900473ffffffffffffffffffffffffffffffffffffffff1681565b600254804311156110fa57600080fd5b600b60003373ffffffffffffffffffffffffffffffffffffffff1673ffffffffffffffffffffffffffffffffffffffff1681526020019081526020016000206040518060400160405280848152602001348152509080600181540180825580915050600190039060005260206000209060020201600090919091909150600082015181600001556020820151816001015550505050565b60035481565b6000600954905090565b60075481565b60055481565b60095481565b60018054600181600116156101000203166002900480601f0160208091040260200160405190810160405280929190818152602001828054600181600116156101000203166002900480156112495780601f1061121e57610100808354040283529160200191611249565b820191906000526020600020905b81548152906001019060200180831161122c57829003601f168201915b505050505081565b606060025443101561129a576040518060400160405280600781526020017f62696464696e670000000000000000000000000000000000000000000000000081525090506113cc565b6003544310156112e1576040518060400160405280600981526020017f72657665616c696e67000000000000000000000000000000000000000000000081525090506113cc565b600454431080156112ff5750600a60009054906101000a900460ff16155b15611341576040518060400160405280600881526020017f636c61696d696e6700000000000000000000000000000000000000000000000081525090506113cc565b600a60009054906101000a900460ff1615611393576040518060400160405280600781526020017f636c61696d65640000000000000000000000000000000000000000000000000081525090506113cc565b6040518060400160405280600981526020017f756e636c61696d6564000000000000000000000000000000000000000000000081525090505b90565b600060095482116113e3576000905061162f565b600073ffffffffffffffffffffffffffffffffffffffff16600860009054906101000a900473ffffffffffffffffffffffffffffffffffffffff1673ffffffffffffffffffffffffffffffffffffffff16146114fd576000600860009054906101000a900473ffffffffffffffffffffffffffffffffffffffff169050600060095490508360098190555084600860006101000a81548173ffffffffffffffffffffffffffffffffffffffff021916908373ffffffffffffffffffffffffffffffffffffffff1602179055508173ffffffffffffffffffffffffffffffffffffffff166108fc829081150290604051600060405180830381858888f193505050501580156114f5573d6000803e3d6000fd5b505050611546565b8160098190555082600860006101000a81548173ffffffffffffffffffffffffffffffffffffffff021916908373ffffffffffffffffffffffffffffffffffffffff1602179055505b6000809054906101000a900473ffffffffffffffffffffffffffffffffffffffff1673ffffffffffffffffffffffffffffffffffffffff1663a7181ae3600860009054906101000a900473ffffffffffffffffffffffffffffffffffffffff166009546040518363ffffffff1660e01b8152600401808373ffffffffffffffffffffffffffffffffffffffff1673ffffffffffffffffffffffffffffffffffffffff16815260200182815260200192505050600060405180830381600087803b15801561161257600080fd5b505af1158015611626573d6000803e3d6000fd5b50505050600190505b92915050565b50805460008255600202906000526020600020908101906116569190611676565b50565b604051806040016040528060008019168152602001600081525090565b6116a291905b8082111561169e5760008082016000905560018201600090555060020161167c565b5090565b9056fea2646970667358221220c8624dbf1a4d0ac94ec847c40286904ab88c0995fb440434875533c9a235ab6764736f6c63430006000033a26469706673582212205dc4d040dc3339829d96ae418f48863286a81cd292056be35f31ddb5a368816664736f6c63430006000033",
  "source": "// SPDX-License-Identifier: GPL-3.0\r\npragma solidity ^0.6.0;\r\npragma experimental ABIEncoderV2;\r\nimport './BlindAuction.sol';\r\n\r\n// \"node\" generally refers to domain name\r\n\r\ncontract DomainRegistry {\r\n\r\n    struct Record {\r\n        address owner;\r\n        address auctionAddress;\r\n        uint auctionStartBlock;\r\n        bool registered;\r\n        bool hasAuctionBefore;\r\n    }\r\n\r\n    //static variables\r\n    address public owner;\r\n    string[] registeredDomains;\r\n\r\n    //mappings\r\n    mapping(string=>Record) records;\r\n    mapping(address=>string[]) ownerToDomain;\r\n\r\n    //events\r\n    event NewAuctionStarted(string node, address auctionAddress);\r\n    event NewDomainClaimed(string node, address newOwner, uint highestBid);\r\n\r\n    // modifiers\r\n    modifier validAuctionContract(string memory node) {\r\n        //the auction contract for that node sent the msg\r\n        require(records[node].auctionAddress == msg.sender);\r\n        _;\r\n    }\r\n\r\n    // checks if domain has .ntu\r\n    modifier onlyValidDomainForm(string memory node) {\r\n        bytes memory strBytes = bytes(node);\r\n        bytes memory validForm = bytes(\"utn.\");\r\n        for (uint i = 0; i < 4; i++) {\r\n            require(strBytes[strBytes.length - 1 - i] == validForm[i]);\r\n        }\r\n        _;\r\n    }\r\n\r\n    modifier onlyUnregisteredDomain(string memory node) {\r\n        require(records[node].registered == false);\r\n        _;\r\n    }\r\n\r\n    modifier noOngoingAuction(string memory node) {\r\n        //the last auction (if any) has ended, and a reasonable amount of time has been given to claim domain\r\n        if (records[node].hasAuctionBefore == true) {\r\n            BlindAuction auction = BlindAuction(records[node].auctionAddress);\r\n            string memory stage = auction.getStage();\r\n            require(keccak256(abi.encodePacked(stage)) == keccak256(abi.encodePacked(\"unclaimed\")));\r\n        }\r\n        _;\r\n    }\r\n\r\n    //constructor\r\n    constructor() public {\r\n        owner = msg.sender;\r\n    }\r\n\r\n    // check if domain is registered already\r\n    function checkIfRegistered(string memory node) \r\n        public\r\n        view\r\n        returns (bool) \r\n    {\r\n        if(records[node].owner == address(0)) {\r\n            return false;\r\n        } else {\r\n            return true;\r\n        }\r\n    }\r\n\r\n    function registerOwner(string memory node, address newOwner, uint highestBid)\r\n        public\r\n        payable\r\n        validAuctionContract(node)\r\n    {\r\n        records[node].owner = newOwner;\r\n        records[node].registered = true;\r\n        registeredDomains.push(node);\r\n        ownerToDomain[newOwner].push(node);\r\n        emit NewDomainClaimed(node, newOwner, highestBid);\r\n    }\r\n\r\n    function startAuction(string memory node)\r\n        public\r\n        onlyValidDomainForm(node)\r\n        onlyUnregisteredDomain(node)\r\n        noOngoingAuction(node)\r\n        returns (address auctionAddress)\r\n    {\r\n        records[node].auctionAddress = address(new BlindAuction(node));\r\n        records[node].auctionStartBlock = block.number;\r\n        records[node].hasAuctionBefore = true;\r\n        emit NewAuctionStarted(node, records[node].auctionAddress);\r\n\r\n        return records[node].auctionAddress;\r\n    }\r\n\r\n//------------------------------------------------------------------------------\r\n//website functions\r\n\r\n    // gets registered domains and their owner addresses\r\n    function getRegisteredDomains() public view returns (string[] memory, address[] memory) {\r\n        string[] memory nodes = new string[](registeredDomains.length);\r\n        address[] memory ownerAddresses = new address[](registeredDomains.length);\r\n\r\n        for (uint i=0; i<registeredDomains.length; i++) {\r\n            nodes[i] = registeredDomains[i];\r\n            ownerAddresses[i] = records[registeredDomains[i]].owner;\r\n        }\r\n        return (nodes, ownerAddresses);\r\n    }\r\n\r\n    //if registered, resolved to owner address, if auctioning, resolve to auction address\r\n    //empty domain returns address(0)\r\n    function resolveDomain(string memory domain) \r\n        public\r\n        view \r\n        returns (address) \r\n    {\r\n        if (records[domain].registered) {\r\n            return records[domain].owner;\r\n        } else {\r\n            return records[domain].auctionAddress;\r\n        }\r\n    }\r\n\r\n    // Reversely resolve Ethereum address to their registered domains\r\n    function getOwnedDomains(address _owner)\r\n        public\r\n        view\r\n        returns (string[] memory)\r\n    {\r\n        string[] memory nodes = new string[](ownerToDomain[_owner].length);\r\n        for (uint i=0; i<ownerToDomain[_owner].length; i++) {\r\n            nodes[i] = ownerToDomain[_owner][i];\r\n        }\r\n        return nodes;\r\n    }\r\n\r\n\r\n// ----------------------------------------------------------------------------------\r\n// debug helper functions\r\n\r\n    function viewAuctionAddress(string memory node) public view returns (address)\r\n    {\r\n        return records[node].auctionAddress;\r\n    }\r\n\r\n    function viewThisAddress() public view returns (address)\r\n    {\r\n        return address(this);\r\n    }\r\n\r\n    function viewRecordOwner(string memory node) public view returns (address)\r\n    {\r\n        return records[node].owner;\r\n    }\r\n\r\n    function viewRegistration(string memory node) public view returns (bool)\r\n    {\r\n        return records[node].registered;\r\n    }\r\n\r\n    event PotentialWinnerFound(address winner, uint highestBid);\r\n    function emitPotentialWinner(address winner, uint value) public {\r\n        emit PotentialWinnerFound(winner, value);\r\n    }\r\n\r\n}",
  "sourcePath": "C:\\Users\\Lim Han Quan\\Desktop\\ethereum-dapp\\contracts\\DomainRegistry.sol",
  "compiler": {
    "name": "solc",
    "version": "0.6.0+commit.26b70077.Emscripten.clang"
  },
  "schemaVersion": "3.3.1",
  "updatedAt": "2020-11-02T17:44:16.058Z",
  "networkType": "ethereum",
  "devdoc": {
    "methods": {}
  },
  "userdoc": {
    "methods": {}
  }
}