{
  "contractName": "DomainRegistry",
  "abi": [
    {
      "inputs": [],
      "stateMutability": "nonpayable",
      "type": "constructor"
    },
    {
      "anonymous": false,
      "inputs": [
        {
          "indexed": false,
          "internalType": "string",
          "name": "node",
          "type": "string"
        },
        {
          "indexed": false,
          "internalType": "address",
          "name": "auctionAddress",
          "type": "address"
        }
      ],
      "name": "NewAuctionStarted",
      "type": "event"
    },
    {
      "anonymous": false,
      "inputs": [
        {
          "indexed": false,
          "internalType": "string",
          "name": "node",
          "type": "string"
        },
        {
          "indexed": false,
          "internalType": "address",
          "name": "newOwner",
          "type": "address"
        },
        {
          "indexed": false,
          "internalType": "uint256",
          "name": "highestBid",
          "type": "uint256"
        }
      ],
      "name": "NewDomainClaimed",
      "type": "event"
    },
    {
      "anonymous": false,
      "inputs": [],
      "name": "RecordsUpdate",
      "type": "event"
    },
    {
      "inputs": [],
      "name": "owner",
      "outputs": [
        {
          "internalType": "address",
          "name": "",
          "type": "address"
        }
      ],
      "stateMutability": "view",
      "type": "function",
      "constant": true
    },
    {
      "inputs": [
        {
          "internalType": "string",
          "name": "node",
          "type": "string"
        }
      ],
      "name": "checkIfRegistered",
      "outputs": [
        {
          "internalType": "bool",
          "name": "",
          "type": "bool"
        }
      ],
      "stateMutability": "view",
      "type": "function",
      "constant": true
    },
    {
      "inputs": [
        {
          "internalType": "string",
          "name": "node",
          "type": "string"
        },
        {
          "internalType": "address",
          "name": "newOwner",
          "type": "address"
        },
        {
          "internalType": "uint256",
          "name": "highestBid",
          "type": "uint256"
        }
      ],
      "name": "registerOwner",
      "outputs": [],
      "stateMutability": "payable",
      "type": "function",
      "payable": true
    },
    {
      "inputs": [
        {
          "internalType": "string",
          "name": "node",
          "type": "string"
        }
      ],
      "name": "startAuction",
      "outputs": [
        {
          "internalType": "address",
          "name": "auctionAddress",
          "type": "address"
        }
      ],
      "stateMutability": "nonpayable",
      "type": "function"
    },
    {
      "inputs": [],
      "name": "getCurrentAuctions",
      "outputs": [
        {
          "internalType": "string[]",
          "name": "",
          "type": "string[]"
        },
        {
          "internalType": "address[]",
          "name": "",
          "type": "address[]"
        },
        {
          "internalType": "uint256[]",
          "name": "",
          "type": "uint256[]"
        }
      ],
      "stateMutability": "nonpayable",
      "type": "function"
    },
    {
      "inputs": [],
      "name": "getRegisteredDomains",
      "outputs": [
        {
          "internalType": "string[]",
          "name": "",
          "type": "string[]"
        },
        {
          "internalType": "address[]",
          "name": "",
          "type": "address[]"
        }
      ],
      "stateMutability": "view",
      "type": "function",
      "constant": true
    },
    {
      "inputs": [
        {
          "internalType": "string",
          "name": "node",
          "type": "string"
        }
      ],
      "name": "viewAuctionAddress",
      "outputs": [
        {
          "internalType": "address",
          "name": "",
          "type": "address"
        }
      ],
      "stateMutability": "view",
      "type": "function",
      "constant": true
    },
    {
      "inputs": [],
      "name": "viewThisAddress",
      "outputs": [
        {
          "internalType": "address",
          "name": "",
          "type": "address"
        }
      ],
      "stateMutability": "view",
      "type": "function",
      "constant": true
    },
    {
      "inputs": [
        {
          "internalType": "string",
          "name": "node",
          "type": "string"
        }
      ],
      "name": "viewRecordOwner",
      "outputs": [
        {
          "internalType": "address",
          "name": "",
          "type": "address"
        }
      ],
      "stateMutability": "view",
      "type": "function",
      "constant": true
    },
    {
      "inputs": [
        {
          "internalType": "string",
          "name": "node",
          "type": "string"
        }
      ],
      "name": "viewRegistration",
      "outputs": [
        {
          "internalType": "bool",
          "name": "",
          "type": "bool"
        }
      ],
      "stateMutability": "view",
      "type": "function",
      "constant": true
    }
  ],
  "bytecode": "0x6080604052603260005534801561001557600080fd5b5033600160006101000a81548173ffffffffffffffffffffffffffffffffffffffff021916908373ffffffffffffffffffffffffffffffffffffffff1602179055506130e7806100666000396000f3fe6080604052600436106200009e5760003560e01c80638da5cb5b11620000615780638da5cb5b146200019a578063bcef69f214620001ca578063c33282d3146200020e578063e802d98f1462000252578063ecf50fe21462000296576200009e565b806356d36ae114620000a35780635be53e7414620000c35780635f7a666614620000f557806373dc756c146200012557806380d2ec861462000169575b600080fd5b620000c16004803603620000bb91908101906200116e565b620002da565b005b348015620000d057600080fd5b50620000db620005cb565b604051620000ec9392919062001616565b60405180910390f35b3480156200010257600080fd5b506200010d620008dc565b6040516200011c9190620015be565b60405180910390f35b3480156200013257600080fd5b506200015160048036036200014b919081019062001129565b620008e4565b604051620001609190620015be565b60405180910390f35b3480156200017657600080fd5b506200018162000bdc565b60405162000191929190620015db565b60405180910390f35b348015620001a757600080fd5b50620001b262000d80565b604051620001c19190620015be565b60405180910390f35b348015620001d757600080fd5b50620001f66004803603620001f0919081019062001129565b62000da6565b60405162000205919062001668565b60405180910390f35b3480156200021b57600080fd5b506200023a600480360362000234919081019062001129565b62000de0565b60405162000249919062001668565b60405180910390f35b3480156200025f57600080fd5b506200027e600480360362000278919081019062001129565b62000e6e565b6040516200028d9190620015be565b60405180910390f35b348015620002a357600080fd5b50620002c26004803603620002bc919081019062001129565b62000ebb565b604051620002d19190620015be565b60405180910390f35b823373ffffffffffffffffffffffffffffffffffffffff166004826040516200030491906200158c565b908152602001604051809103902060010160009054906101000a900473ffffffffffffffffffffffffffffffffffffffff1673ffffffffffffffffffffffffffffffffffffffff16146200035757600080fd5b436000546004836040516200036d91906200158c565b90815260200160405180910390206002015401116200038b57600080fd5b826004856040516200039e91906200158c565b908152602001604051809103902060000160006101000a81548173ffffffffffffffffffffffffffffffffffffffff021916908373ffffffffffffffffffffffffffffffffffffffff16021790555060016004856040516200040191906200158c565b908152602001604051809103902060030160006101000a81548160ff0219169083151502179055506002849080600181540180825580915050600190039060005260206000200160009091909190915090805190602001906200046692919062000f08565b5060008090505b6003805490508110156200058757846040516020016200048e91906200158c565b6040516020818303038152906040528051906020012060038281548110620004b257fe5b90600052602060002001604051602001620004ce9190620015a5565b60405160208183030381529060405280519060200120141562000579576003600260038054905003815481106200050157fe5b90600052602060002001600382815481106200051957fe5b9060005260206000200190805460018160011615610100020316600290046200054492919062000f8f565b506003600160038054905003815481106200055b57fe5b9060005260206000200160006200057391906200101d565b62000587565b80806001019150506200046d565b507f12e0c0afd0cb01b210bc575b477c58890f065eb1d9793fa291726d0bca3daea6848484604051620005bd93929190620016dd565b60405180910390a150505050565b60608060608060608060008090505b600380549050811015620008ca5743600054600460038481548110620005fc57fe5b90600052602060002001604051620006159190620015a5565b908152602001604051809103902060020154011115620006f957600160038054905014156200066a57600381815481106200064c57fe5b9060005260206000200160006200066491906200101d565b620006f8565b6003600260038054905003815481106200068057fe5b90600052602060002001600382815481106200069857fe5b906000526020600020019080546001816001161561010002031660029004620006c392919062000f8f565b50600360016003805490500381548110620006da57fe5b906000526020600020016000620006f291906200101d565b620008ca565b5b600381815481106200070757fe5b906000526020600020018054600181600116156101000203166002900480601f016020809104026020016040519081016040528092919081815260200182805460018160011615610100020316600290048015620007a95780601f106200077d57610100808354040283529160200191620007a9565b820191906000526020600020905b8154815290600101906020018083116200078b57829003601f168201915b5050505050848281518110620007bb57fe5b6020026020010181905250600460038281548110620007d657fe5b90600052602060002001604051620007ef9190620015a5565b908152602001604051809103902060010160009054906101000a900473ffffffffffffffffffffffffffffffffffffffff168382815181106200082e57fe5b602002602001019073ffffffffffffffffffffffffffffffffffffffff16908173ffffffffffffffffffffffffffffffffffffffff16815250506004600382815481106200087857fe5b90600052602060002001604051620008919190620015a5565b908152602001604051809103902060020154828281518110620008b057fe5b6020026020010181815250508080600101915050620005da565b50828282955095509550505050909192565b600030905090565b60008160001515600482604051620008fd91906200158c565b908152602001604051809103902060030160009054906101000a900460ff1615151462000961576040517f08c379a0000000000000000000000000000000000000000000000000000000008152600401620009589062001721565b60405180910390fd5b82600115156004826040516200097891906200158c565b908152602001604051809103902060030160019054906101000a900460ff1615151415620009d55743600054600483604051620009b691906200158c565b9081526020016040518091039020600201540110620009d457600080fd5b5b83604051620009e49062001069565b620009f0919062001685565b604051809103906000f08015801562000a0d573d6000803e3d6000fd5b5060048560405162000a2091906200158c565b908152602001604051809103902060010160006101000a81548173ffffffffffffffffffffffffffffffffffffffff021916908373ffffffffffffffffffffffffffffffffffffffff1602179055504360048560405162000a8291906200158c565b908152602001604051809103902060020181905550600160048560405162000aab91906200158c565b908152602001604051809103902060030160016101000a81548160ff02191690831515021790555060038490806001815401808255809150506001900390600052602060002001600090919091909150908051906020019062000b1092919062000f08565b507fd5d802d6a6ebd6a3147d5b04374599939cbbfa28bee645c79651c0e10fe7e6d08460048660405162000b4591906200158c565b908152602001604051809103902060010160009054906101000a900473ffffffffffffffffffffffffffffffffffffffff1660405162000b87929190620016a9565b60405180910390a160048460405162000ba191906200158c565b908152602001604051809103902060010160009054906101000a900473ffffffffffffffffffffffffffffffffffffffff1692505050919050565b60608060608060008090505b60028054905081101562000d73576002818154811062000c0457fe5b906000526020600020018054600181600116156101000203166002900480601f01602080910402602001604051908101604052809291908181526020018280546001816001161561010002031660029004801562000ca65780601f1062000c7a5761010080835404028352916020019162000ca6565b820191906000526020600020905b81548152906001019060200180831162000c8857829003601f168201915b505050505083828151811062000cb857fe5b602002602001018190525060046002828154811062000cd357fe5b9060005260206000200160405162000cec9190620015a5565b908152602001604051809103902060000160009054906101000a900473ffffffffffffffffffffffffffffffffffffffff1682828151811062000d2b57fe5b602002602001019073ffffffffffffffffffffffffffffffffffffffff16908173ffffffffffffffffffffffffffffffffffffffff1681525050808060010191505062000be8565b5081819350935050509091565b600160009054906101000a900473ffffffffffffffffffffffffffffffffffffffff1681565b600060048260405162000dba91906200158c565b908152602001604051809103902060030160009054906101000a900460ff169050919050565b60008073ffffffffffffffffffffffffffffffffffffffff1660048360405162000e0b91906200158c565b908152602001604051809103902060000160009054906101000a900473ffffffffffffffffffffffffffffffffffffffff1673ffffffffffffffffffffffffffffffffffffffff16141562000e64576000905062000e69565b600190505b919050565b600060048260405162000e8291906200158c565b908152602001604051809103902060000160009054906101000a900473ffffffffffffffffffffffffffffffffffffffff169050919050565b600060048260405162000ecf91906200158c565b908152602001604051809103902060010160009054906101000a900473ffffffffffffffffffffffffffffffffffffffff169050919050565b828054600181600116156101000203166002900490600052602060002090601f016020900481019282601f1062000f4b57805160ff191683800117855562000f7c565b8280016001018555821562000f7c579182015b8281111562000f7b57825182559160200191906001019062000f5e565b5b50905062000f8b919062001077565b5090565b828054600181600116156101000203166002900490600052602060002090601f016020900481019282601f1062000fca57805485556200100a565b828001600101855582156200100a57600052602060002091601f016020900482015b828111156200100957825482559160010191906001019062000fec565b5b50905062001019919062001077565b5090565b50805460018160011615610100020316600290046000825580601f1062001045575062001066565b601f01602090049060005260206000209081019062001065919062001077565b5b50565b61173c806200197683390190565b6200109c91905b80821115620010985760008160009055506001016200107e565b5090565b90565b600081359050620010b08162001941565b92915050565b600082601f830112620010c857600080fd5b8135620010df620010d98262001771565b62001743565b91508082526020830160208301858383011115620010fc57600080fd5b62001109838284620018eb565b50505092915050565b60008135905062001123816200195b565b92915050565b6000602082840312156200113c57600080fd5b600082013567ffffffffffffffff8111156200115757600080fd5b6200116584828501620010b6565b91505092915050565b6000806000606084860312156200118457600080fd5b600084013567ffffffffffffffff8111156200119f57600080fd5b620011ad86828701620010b6565b9350506020620011c0868287016200109f565b9250506040620011d38682870162001112565b9150509250925092565b6000620011eb838362001227565b60208301905092915050565b600062001205838362001427565b905092915050565b60006200121b83836200156a565b60208301905092915050565b6200123281620018a1565b82525050565b6200124381620018a1565b82525050565b60006200125682620017e3565b62001262818562001841565b93506200126f836200179e565b8060005b83811015620012a65781516200128a8882620011dd565b975062001297836200181a565b92505060018101905062001273565b5085935050505092915050565b6000620012c082620017ee565b620012cc818562001852565b935083602082028501620012e085620017ae565b8060005b85811015620013225784840389528151620013008582620011f7565b94506200130d8362001827565b925060208a01995050600181019050620012e4565b50829750879550505050505092915050565b60006200134182620017f9565b6200134d818562001863565b93506200135a83620017be565b8060005b83811015620013915781516200137588826200120d565b9750620013828362001834565b9250506001810190506200135e565b5085935050505092915050565b620013a981620018b5565b82525050565b6000620013bc826200180f565b620013c8818562001885565b9350620013da818560208601620018fa565b620013e58162001930565b840191505092915050565b6000620013fd826200180f565b62001409818562001896565b93506200141b818560208601620018fa565b80840191505092915050565b6000620014348262001804565b62001440818562001874565b935062001452818560208601620018fa565b6200145d8162001930565b840191505092915050565b600081546001811660008114620014885760018114620014b057620014fa565b607f60028304166200149b818762001896565b955060ff1983168652808601935050620014fa565b60028204620014c0818762001896565b9550620014cd85620017ce565b60005b82811015620014f157815481890152600182019150602081019050620014d0565b82880195505050505b505092915050565b60006200151160218362001885565b91507f54686520646f6d61696e20697320616c7265616479207265676973746572656460008301527f2e000000000000000000000000000000000000000000000000000000000000006020830152604082019050919050565b6200157581620018e1565b82525050565b6200158681620018e1565b82525050565b60006200159a8284620013f0565b915081905092915050565b6000620015b3828462001468565b915081905092915050565b6000602082019050620015d5600083018462001238565b92915050565b60006040820190508181036000830152620015f78185620012b3565b905081810360208301526200160d818462001249565b90509392505050565b60006060820190508181036000830152620016328186620012b3565b9050818103602083015262001648818562001249565b905081810360408301526200165e818462001334565b9050949350505050565b60006020820190506200167f60008301846200139e565b92915050565b60006020820190508181036000830152620016a18184620013af565b905092915050565b60006040820190508181036000830152620016c58185620013af565b9050620016d6602083018462001238565b9392505050565b60006060820190508181036000830152620016f98186620013af565b90506200170a602083018562001238565b6200171960408301846200157b565b949350505050565b600060208201905081810360008301526200173c8162001502565b9050919050565b6000604051905081810181811067ffffffffffffffff821117156200176757600080fd5b8060405250919050565b600067ffffffffffffffff8211156200178957600080fd5b601f19601f8301169050602081019050919050565b6000819050602082019050919050565b6000819050602082019050919050565b6000819050602082019050919050565b60008190508160005260206000209050919050565b600081519050919050565b600081519050919050565b600081519050919050565b600081519050919050565b600081519050919050565b6000602082019050919050565b6000602082019050919050565b6000602082019050919050565b600082825260208201905092915050565b600082825260208201905092915050565b600082825260208201905092915050565b600082825260208201905092915050565b600082825260208201905092915050565b600081905092915050565b6000620018ae82620018c1565b9050919050565b60008115159050919050565b600073ffffffffffffffffffffffffffffffffffffffff82169050919050565b6000819050919050565b82818337600083830152505050565b60005b838110156200191a578082015181840152602081019050620018fd565b838111156200192a576000848401525b50505050565b6000601f19601f8301169050919050565b6200194c81620018a1565b81146200195857600080fd5b50565b6200196681620018e1565b81146200197257600080fd5b5056fe6080604052600a600455600a6005553480156200001b57600080fd5b506040516200173c3803806200173c833981810160405260208110156200004157600080fd5b81019080805160405193929190846401000000008211156200006257600080fd5b838201915060208201858111156200007957600080fd5b82518660018202830111640100000000821117156200009757600080fd5b8083526020830192505050908051906020019080838360005b83811015620000cd578082015181840152602081019050620000b0565b50505050905090810190601f168015620000fb5780820380516001836020036101000a031916815260200191505b50604052505050336000806101000a81548173ffffffffffffffffffffffffffffffffffffffff021916908373ffffffffffffffffffffffffffffffffffffffff16021790555080600190805190602001906200015a9291906200017a565b506004544301600281905550600554600254016003819055505062000229565b828054600181600116156101000203166002900490600052602060002090601f016020900481019282601f10620001bd57805160ff1916838001178555620001ee565b82800160010185558215620001ee579182015b82811115620001ed578251825591602001919060010190620001d0565b5b509050620001fd919062000201565b5090565b6200022691905b808211156200022257600081600090555060010162000208565b5090565b90565b61150380620002396000396000f3fe60806040526004361061011f5760003560e01c80638da5cb5b116100a0578063a7dae90911610064578063a7dae909146107cb578063c5e434d9146107f6578063c8e7b31d14610821578063d57bde791461084c578063d70754ec146108775761011f565b80638da5cb5b146104d7578063900f080a1461052e57806391f901571461071b578063957bb1e014610772578063a6e66477146107a05761011f565b80633ccfd60b116100e75780633ccfd60b14610424578063423b217f1461043b5780634e528de81461046657806386c62a8f14610495578063886a6de1146104ac5761011f565b806301495c1c1461012457806312fa6feb1461019a578063164db64c146101c957806324905986146101f45780632fd7e5dd146103f9575b600080fd5b34801561013057600080fd5b5061017d6004803603604081101561014757600080fd5b81019080803573ffffffffffffffffffffffffffffffffffffffff16906020019092919080359060200190929190505050610907565b604051808381526020018281526020019250505060405180910390f35b3480156101a657600080fd5b506101af610945565b604051808215151515815260200191505060405180910390f35b3480156101d557600080fd5b506101de610958565b6040518082815260200191505060405180910390f35b34801561020057600080fd5b506103df6004803603606081101561021757600080fd5b810190808035906020019064010000000081111561023457600080fd5b82018360208201111561024657600080fd5b8035906020019184602083028401116401000000008311171561026857600080fd5b919080806020026020016040519081016040528093929190818152602001838360200280828437600081840152601f19601f820116905080830192505050505050509192919290803590602001906401000000008111156102c857600080fd5b8201836020820111156102da57600080fd5b803590602001918460208302840111640100000000831117156102fc57600080fd5b919080806020026020016040519081016040528093929190818152602001838360200280828437600081840152601f19601f8201169050808301925050505050505091929192908035906020019064010000000081111561035c57600080fd5b82018360208201111561036e57600080fd5b8035906020019184602083028401116401000000008311171561039057600080fd5b919080806020026020016040519081016040528093929190818152602001838360200280828437600081840152601f19601f82011690508083019250505050505050919291929050505061099f565b604051808215151515815260200191505060405180910390f35b34801561040557600080fd5b5061040e610ae5565b6040518082815260200191505060405180910390f35b34801561043057600080fd5b50610439610b9f565b005b34801561044757600080fd5b50610450610c7c565b6040518082815260200191505060405180910390f35b34801561047257600080fd5b5061047b610c82565b604051808215151515815260200191505060405180910390f35b3480156104a157600080fd5b506104aa610c95565b005b3480156104b857600080fd5b506104c1610e92565b6040518082815260200191505060405180910390f35b3480156104e357600080fd5b506104ec610e98565b604051808273ffffffffffffffffffffffffffffffffffffffff1673ffffffffffffffffffffffffffffffffffffffff16815260200191505060405180910390f35b34801561053a57600080fd5b506107196004803603606081101561055157600080fd5b810190808035906020019064010000000081111561056e57600080fd5b82018360208201111561058057600080fd5b803590602001918460208302840111640100000000831117156105a257600080fd5b919080806020026020016040519081016040528093929190818152602001838360200280828437600081840152601f19601f8201169050808301925050505050505091929192908035906020019064010000000081111561060257600080fd5b82018360208201111561061457600080fd5b8035906020019184602083028401116401000000008311171561063657600080fd5b919080806020026020016040519081016040528093929190818152602001838360200280828437600081840152601f19601f8201169050808301925050505050505091929192908035906020019064010000000081111561069657600080fd5b8201836020820111156106a857600080fd5b803590602001918460208302840111640100000000831117156106ca57600080fd5b919080806020026020016040519081016040528093929190818152602001838360200280828437600081840152601f19601f820116905080830192505050505050509192919290505050610ebd565b005b34801561072757600080fd5b50610730611142565b604051808273ffffffffffffffffffffffffffffffffffffffff1673ffffffffffffffffffffffffffffffffffffffff16815260200191505060405180910390f35b61079e6004803603602081101561078857600080fd5b8101908080359060200190929190505050611168565b005b3480156107ac57600080fd5b506107b561120e565b6040518082815260200191505060405180910390f35b3480156107d757600080fd5b506107e0611214565b6040518082815260200191505060405180910390f35b34801561080257600080fd5b5061080b61121e565b6040518082815260200191505060405180910390f35b34801561082d57600080fd5b50610836611265565b6040518082815260200191505060405180910390f35b34801561085857600080fd5b5061086161126b565b6040518082815260200191505060405180910390f35b34801561088357600080fd5b5061088c611271565b6040518080602001828103825283818151815260200191508051906020019080838360005b838110156108cc5780820151818401526020810190506108b1565b50505050905090810190601f1680156108f95780820380516001836020036101000a031916815260200191505b509250505060405180910390f35b6008602052816000526040600020818154811061092057fe5b9060005260206000209060020201600091509150508060000154908060010154905082565b600660009054906101000a900460ff1681565b6000600a60003373ffffffffffffffffffffffffffffffffffffffff1673ffffffffffffffffffffffffffffffffffffffff16815260200190815260200160002054905090565b600080600860003373ffffffffffffffffffffffffffffffffffffffff1673ffffffffffffffffffffffffffffffffffffffff168152602001908152602001600020805490501115610ad957836000815181106109f857fe5b602002602001015183600081518110610a0d57fe5b602002602001015183600081518110610a2257fe5b602002602001015160405160200180848152602001831515151560f81b8152600101828152602001935050505060405160208183030381529060405280519060200120600860003373ffffffffffffffffffffffffffffffffffffffff1673ffffffffffffffffffffffffffffffffffffffff168152602001908152602001600020600081548110610ab057fe5b90600052602060002090600202016000015414610ad05760009050610ade565b60019050610ade565b600090505b9392505050565b600080600860003373ffffffffffffffffffffffffffffffffffffffff1673ffffffffffffffffffffffffffffffffffffffff168152602001908152602001600020805490501115610b9557600860003373ffffffffffffffffffffffffffffffffffffffff1673ffffffffffffffffffffffffffffffffffffffff168152602001908152602001600020600081548110610b7c57fe5b9060005260206000209060020201600101549050610b9c565b62010f2c90505b90565b6000600960003373ffffffffffffffffffffffffffffffffffffffff1673ffffffffffffffffffffffffffffffffffffffff1681526020019081526020016000205490506000811115610c79576000600960003373ffffffffffffffffffffffffffffffffffffffff1673ffffffffffffffffffffffffffffffffffffffff168152602001908152602001600020819055503373ffffffffffffffffffffffffffffffffffffffff166108fc829081150290604051600060405180830381858888f19350505050158015610c77573d6000803e3d6000fd5b505b50565b60025481565b600660019054906101000a900460ff1681565b600354804311610ca457600080fd5b600660029054906101000a900473ffffffffffffffffffffffffffffffffffffffff1673ffffffffffffffffffffffffffffffffffffffff163373ffffffffffffffffffffffffffffffffffffffff1614610cfe57600080fd5b60001515600660019054906101000a900460ff16151514610d1e57600080fd5b6001600660016101000a81548160ff02191690831515021790555060008060009054906101000a900473ffffffffffffffffffffffffffffffffffffffff1690508073ffffffffffffffffffffffffffffffffffffffff166356d36ae16007546001336007546040518563ffffffff1660e01b815260040180806020018473ffffffffffffffffffffffffffffffffffffffff1673ffffffffffffffffffffffffffffffffffffffff168152602001838152602001828103825285818154600181600116156101000203166002900481526020019150805460018160011615610100020316600290048015610e545780601f10610e2957610100808354040283529160200191610e54565b820191906000526020600020905b815481529060010190602001808311610e3757829003601f168201915b50509450505050506000604051808303818588803b158015610e7557600080fd5b505af1158015610e89573d6000803e3d6000fd5b50505050505050565b60055481565b6000809054906101000a900473ffffffffffffffffffffffffffffffffffffffff1681565b600254804311610ecc57600080fd5b600354804310610edb57600080fd5b6000600860003373ffffffffffffffffffffffffffffffffffffffff1673ffffffffffffffffffffffffffffffffffffffff16815260200190815260200160002080549050905080865114610f2f57600080fd5b80855114610f3c57600080fd5b80845114610f4957600080fd5b600080905060008090505b828110156110a4576000600860003373ffffffffffffffffffffffffffffffffffffffff1673ffffffffffffffffffffffffffffffffffffffff1681526020019081526020016000208281548110610fa857fe5b9060005260206000209060020201905060008060008b8581518110610fc957fe5b60200260200101518b8681518110610fdd57fe5b60200260200101518b8781518110610ff157fe5b602002602001015192509250925082828260405160200180848152602001831515151560f81b81526001018281526020019350505050604051602081830303815290604052805190602001208460000154146110505750505050611097565b8360010154860195508115801561106b575082846001015410155b156110865761107a338461130f565b156110855782860395505b5b6000801b8460000181905550505050505b8080600101915050610f54565b503373ffffffffffffffffffffffffffffffffffffffff166108fc829081150290604051600060405180830381858888f193505050501580156110eb573d6000803e3d6000fd5b5080600a60003373ffffffffffffffffffffffffffffffffffffffff1673ffffffffffffffffffffffffffffffffffffffff1681526020019081526020016000206000828254019250508190555050505050505050565b600660029054906101000a900473ffffffffffffffffffffffffffffffffffffffff1681565b60025480431061117757600080fd5b600860003373ffffffffffffffffffffffffffffffffffffffff1673ffffffffffffffffffffffffffffffffffffffff1681526020019081526020016000206040518060400160405280848152602001348152509080600181540180825580915050600190039060005260206000209060020201600090919091909150600082015181600001556020820151816001015550505050565b60035481565b6000600754905090565b6000600960003373ffffffffffffffffffffffffffffffffffffffff1673ffffffffffffffffffffffffffffffffffffffff16815260200190815260200160002054905090565b60045481565b60075481565b60018054600181600116156101000203166002900480601f0160208091040260200160405190810160405280929190818152602001828054600181600116156101000203166002900480156113075780601f106112dc57610100808354040283529160200191611307565b820191906000526020600020905b8154815290600101906020018083116112ea57829003601f168201915b505050505081565b6000600754821161132357600090506114c7565b600073ffffffffffffffffffffffffffffffffffffffff16600660029054906101000a900473ffffffffffffffffffffffffffffffffffffffff1673ffffffffffffffffffffffffffffffffffffffff16146113eb5760075460096000600660029054906101000a900473ffffffffffffffffffffffffffffffffffffffff1673ffffffffffffffffffffffffffffffffffffffff1673ffffffffffffffffffffffffffffffffffffffff168152602001908152602001600020600082825401925050819055505b8160078190555082600660026101000a81548173ffffffffffffffffffffffffffffffffffffffff021916908373ffffffffffffffffffffffffffffffffffffffff1602179055507fb82fefdc651ee0dc2a48092a0a107978c235739dfbc58b8f52a11e939ea2d750600660029054906101000a900473ffffffffffffffffffffffffffffffffffffffff16600754604051808373ffffffffffffffffffffffffffffffffffffffff1673ffffffffffffffffffffffffffffffffffffffff1681526020018281526020019250505060405180910390a1600190505b9291505056fea2646970667358221220422027ada4984587c30034ae4fbef21039ed9833c3406d28d2600c96d445d9b764736f6c63430006000033a264697066735822122015243c57c13d9d23d8080605487c8434376320f320eb1b68d5317cac18e9fb9a64736f6c63430006000033",
  "source": "// SPDX-License-Identifier: GPL-3.0\r\n// pragma solidity ^0.5.16;\r\npragma solidity ^0.6.0;\r\n// to implement functions that return string[]\r\npragma experimental ABIEncoderV2;\r\nimport './BlindAuction.sol';\r\n\r\n// \"node\" generally refers to domain name\r\n\r\ncontract DomainRegistry {\r\n\r\n    struct Record {\r\n        address owner;\r\n        address auctionAddress;\r\n        uint auctionStartBlock;\r\n        bool registered;\r\n        bool hasAuctionBefore;\r\n    }\r\n\r\n    //static variables\r\n    uint durationOfAuction = 50; //if after 50 blocks there is no claimant, the auction is voided\r\n    address public owner;\r\n    string[] registeredDomains; // nodes that are registered\r\n    string[] currentAuctions; //stores nodes that have active auctions\r\n\r\n\r\n    // add list of current auctions\r\n\r\n    //mappings\r\n    mapping(string=>Record) records;\r\n    // storing strings\r\n    //mapping()\r\n\r\n    //events\r\n    // should this event also give the string form of the domain?\r\n    event NewAuctionStarted(string node, address auctionAddress);\r\n    event NewDomainClaimed(string node, address newOwner, uint highestBid);\r\n    event RecordsUpdate();\r\n\r\n    // modifiers\r\n    modifier validAuctionContract(string memory node) {\r\n        //the auction contract for that node sent the msg\r\n        require(records[node].auctionAddress == msg.sender);\r\n        // the auction has not \"ended\" yet, still valid period for claiming domain\r\n        require(records[node].auctionStartBlock + durationOfAuction > block.number);\r\n        _;\r\n    }\r\n\r\n    modifier onlyUnregisteredDomain(string memory node) {\r\n        require(records[node].registered == false,\r\n                \"The domain is already registered.\");\r\n        _;\r\n    }\r\n\r\n    modifier noOngoingAuction(string memory node) {\r\n        //the last auction (if any) has ended, and a reasonable amount of time has been given to claim domain\r\n        if (records[node].hasAuctionBefore == true) {\r\n            require(records[node].auctionStartBlock + durationOfAuction < block.number);\r\n        }\r\n        _;\r\n    }\r\n\r\n    //constructor\r\n    constructor() public {\r\n        owner = msg.sender;\r\n    }\r\n\r\n    // check if domain is registered already\r\n    function checkIfRegistered(string memory node) \r\n        public\r\n        view\r\n        returns (bool) \r\n    {\r\n        if(records[node].owner == address(0)) {\r\n            return false;\r\n        } else {\r\n            return true;\r\n        }\r\n    }\r\n\r\n    function registerOwner(string memory node, address newOwner, uint highestBid)\r\n        public\r\n        payable\r\n        validAuctionContract(node)\r\n    {\r\n        records[node].owner = newOwner;\r\n        records[node].registered = true;\r\n        registeredDomains.push(node);\r\n        // update currentAuctions\r\n        for (uint i=0; i<currentAuctions.length; i++) {\r\n            if (keccak256(abi.encodePacked(currentAuctions[i])) == keccak256(abi.encodePacked(node))) {\r\n                currentAuctions[i] = currentAuctions[currentAuctions.length-2];\r\n                delete currentAuctions[currentAuctions.length-1];\r\n                break;\r\n            }\r\n        }\r\n\r\n        emit NewDomainClaimed(node, newOwner, highestBid);\r\n    }\r\n\r\n    function startAuction(string memory node)\r\n        public\r\n        onlyUnregisteredDomain(node)\r\n        noOngoingAuction(node)\r\n        returns (address auctionAddress)\r\n    {\r\n        records[node].auctionAddress = address(new BlindAuction(node));\r\n        records[node].auctionStartBlock = block.number;\r\n        records[node].hasAuctionBefore = true;\r\n        currentAuctions.push(node);\r\n        emit NewAuctionStarted(node, records[node].auctionAddress);\r\n\r\n        return records[node].auctionAddress;\r\n    }\r\n\r\n    //------------------------------------------------------------------------------\r\n    //website functions\r\n    //I think these functions are very inefficient, maybe can redo\r\n\r\n    // get current auction addresses and their nodes\r\n    // also checks if the auctions in the list have expired.\r\n    function getCurrentAuctions() public returns (string[] memory, address[] memory, uint[] memory) {\r\n        string[] memory nodes;\r\n        address[] memory auctionAddresses;\r\n        uint[] memory auctionStartBlocks;\r\n\r\n        for (uint i=0; i<currentAuctions.length; i++) {\r\n            // if auction is no longer ongoing\r\n            if (records[currentAuctions[i]].auctionStartBlock + durationOfAuction > block.number) {\r\n                // if there is only 1 element in currentAuctions, simply delete it \r\n                if (currentAuctions.length == 1) {\r\n                    delete currentAuctions[i];\r\n                // else remove corresponding node from currentAuctions, move last entry to the empty slot\r\n                } else {\r\n                    currentAuctions[i] = currentAuctions[currentAuctions.length-2];\r\n                    delete currentAuctions[currentAuctions.length-1];\r\n                    break;\r\n                }\r\n            }\r\n            nodes[i] = (currentAuctions[i]);\r\n            auctionAddresses[i] = (records[currentAuctions[i]].auctionAddress);\r\n            auctionStartBlocks[i] = (records[currentAuctions[i]].auctionStartBlock);\r\n        }\r\n\r\n        return (nodes, auctionAddresses, auctionStartBlocks);\r\n    }\r\n\r\n    // gets registered domains and their owner addresses\r\n    function getRegisteredDomains() public view returns (string[] memory, address[] memory) {\r\n        string[] memory nodes;\r\n        address[] memory ownerAddresses;\r\n\r\n        for (uint i=0; i<registeredDomains.length; i++) {\r\n            nodes[i] = registeredDomains[i];\r\n            ownerAddresses[i] = records[registeredDomains[i]].owner;\r\n        }\r\n        return (nodes, ownerAddresses);\r\n    }\r\n\r\n\r\n// ----------------------------------------------------------------------------------\r\n// debug helper functions\r\n\r\n    function viewAuctionAddress(string memory node) public view returns (address)\r\n    {\r\n        return records[node].auctionAddress;\r\n    }\r\n\r\n    function viewThisAddress() public view returns (address)\r\n    {\r\n        return address(this);\r\n    }\r\n\r\n    function viewRecordOwner(string memory node) public view returns (address)\r\n    {\r\n        return records[node].owner;\r\n    }\r\n\r\n    function viewRegistration(string memory node) public view returns (bool)\r\n    {\r\n        return records[node].registered;\r\n    }\r\n\r\n\r\n}",
  "sourcePath": "C:\\Users\\kai\\OneDrive - Nanyang Technological University\\Work\\2020\\2020-2021 Sem 1\\Blockchain Technology\\devproj\\repo\\contracts\\DomainRegistry.sol",
  "compiler": {
    "name": "solc",
    "version": "0.6.0+commit.26b70077.Emscripten.clang"
  },
  "schemaVersion": "3.3.1",
  "updatedAt": "2020-10-28T08:22:45.398Z",
  "networkType": "ethereum",
  "devdoc": {
    "methods": {}
  },
  "userdoc": {
    "methods": {}
  }
}