{
  "contractName": "DomainRegistry",
  "abi": [
    {
      "inputs": [],
      "stateMutability": "nonpayable",
      "type": "constructor"
    },
    {
      "anonymous": false,
      "inputs": [
        {
          "indexed": false,
          "internalType": "string",
          "name": "node",
          "type": "string"
        },
        {
          "indexed": false,
          "internalType": "address",
          "name": "auctionAddress",
          "type": "address"
        }
      ],
      "name": "NewAuctionStarted",
      "type": "event"
    },
    {
      "anonymous": false,
      "inputs": [
        {
          "indexed": false,
          "internalType": "string",
          "name": "node",
          "type": "string"
        },
        {
          "indexed": false,
          "internalType": "address",
          "name": "newOwner",
          "type": "address"
        },
        {
          "indexed": false,
          "internalType": "uint256",
          "name": "highestBid",
          "type": "uint256"
        }
      ],
      "name": "NewDomainClaimed",
      "type": "event"
    },
    {
      "anonymous": false,
      "inputs": [
        {
          "indexed": false,
          "internalType": "address",
          "name": "winner",
          "type": "address"
        },
        {
          "indexed": false,
          "internalType": "uint256",
          "name": "highestBid",
          "type": "uint256"
        }
      ],
      "name": "PotentialWinnerFound",
      "type": "event"
    },
    {
      "inputs": [],
      "name": "owner",
      "outputs": [
        {
          "internalType": "address",
          "name": "",
          "type": "address"
        }
      ],
      "stateMutability": "view",
      "type": "function",
      "constant": true
    },
    {
      "inputs": [
        {
          "internalType": "string",
          "name": "node",
          "type": "string"
        }
      ],
      "name": "checkIfRegistered",
      "outputs": [
        {
          "internalType": "bool",
          "name": "",
          "type": "bool"
        }
      ],
      "stateMutability": "view",
      "type": "function",
      "constant": true
    },
    {
      "inputs": [
        {
          "internalType": "string",
          "name": "node",
          "type": "string"
        },
        {
          "internalType": "address",
          "name": "newOwner",
          "type": "address"
        },
        {
          "internalType": "uint256",
          "name": "highestBid",
          "type": "uint256"
        }
      ],
      "name": "registerOwner",
      "outputs": [],
      "stateMutability": "payable",
      "type": "function",
      "payable": true
    },
    {
      "inputs": [
        {
          "internalType": "string",
          "name": "node",
          "type": "string"
        }
      ],
      "name": "startAuction",
      "outputs": [
        {
          "internalType": "address",
          "name": "auctionAddress",
          "type": "address"
        }
      ],
      "stateMutability": "nonpayable",
      "type": "function"
    },
    {
      "inputs": [],
      "name": "getCurrentAuctions",
      "outputs": [
        {
          "internalType": "string[]",
          "name": "",
          "type": "string[]"
        },
        {
          "internalType": "address[]",
          "name": "",
          "type": "address[]"
        },
        {
          "internalType": "uint256[]",
          "name": "",
          "type": "uint256[]"
        }
      ],
      "stateMutability": "nonpayable",
      "type": "function"
    },
    {
      "inputs": [],
      "name": "getRegisteredDomains",
      "outputs": [
        {
          "internalType": "string[]",
          "name": "",
          "type": "string[]"
        },
        {
          "internalType": "address[]",
          "name": "",
          "type": "address[]"
        }
      ],
      "stateMutability": "view",
      "type": "function",
      "constant": true
    },
    {
      "inputs": [
        {
          "internalType": "string",
          "name": "domain",
          "type": "string"
        }
      ],
      "name": "resolveDomain",
      "outputs": [
        {
          "internalType": "address",
          "name": "",
          "type": "address"
        }
      ],
      "stateMutability": "view",
      "type": "function",
      "constant": true
    },
    {
      "inputs": [
        {
          "internalType": "string",
          "name": "node",
          "type": "string"
        }
      ],
      "name": "viewAuctionAddress",
      "outputs": [
        {
          "internalType": "address",
          "name": "",
          "type": "address"
        }
      ],
      "stateMutability": "view",
      "type": "function",
      "constant": true
    },
    {
      "inputs": [],
      "name": "viewThisAddress",
      "outputs": [
        {
          "internalType": "address",
          "name": "",
          "type": "address"
        }
      ],
      "stateMutability": "view",
      "type": "function",
      "constant": true
    },
    {
      "inputs": [
        {
          "internalType": "string",
          "name": "node",
          "type": "string"
        }
      ],
      "name": "viewRecordOwner",
      "outputs": [
        {
          "internalType": "address",
          "name": "",
          "type": "address"
        }
      ],
      "stateMutability": "view",
      "type": "function",
      "constant": true
    },
    {
      "inputs": [
        {
          "internalType": "string",
          "name": "node",
          "type": "string"
        }
      ],
      "name": "viewRegistration",
      "outputs": [
        {
          "internalType": "bool",
          "name": "",
          "type": "bool"
        }
      ],
      "stateMutability": "view",
      "type": "function",
      "constant": true
    },
    {
      "inputs": [
        {
          "internalType": "address",
          "name": "winner",
          "type": "address"
        },
        {
          "internalType": "uint256",
          "name": "value",
          "type": "uint256"
        }
      ],
      "name": "emitPotentialWinner",
      "outputs": [],
      "stateMutability": "nonpayable",
      "type": "function"
    }
  ],
  "bytecode": "0x6080604052603260005534801561001557600080fd5b5033600160006101000a81548173ffffffffffffffffffffffffffffffffffffffff021916908373ffffffffffffffffffffffffffffffffffffffff160217905550613641806100666000396000f3fe608060405260043610620000b65760003560e01c80638da5cb5b116200006d5780638da5cb5b14620001f6578063a7181ae31462000226578063bcef69f21462000254578063c33282d31462000298578063e802d98f14620002dc578063ecf50fe2146200032057620000b6565b8063364460f314620000bb57806356d36ae114620000ff5780635be53e74146200011f5780635f7a6666146200015157806373dc756c146200018157806380d2ec8614620001c5575b600080fd5b348015620000c857600080fd5b50620000e76004803603620000e1919081019062001409565b62000364565b604051620000f691906200189e565b60405180910390f35b6200011d60048036036200011791908101906200144e565b62000435565b005b3480156200012c57600080fd5b506200013762000761565b604051620001489392919062001923565b60405180910390f35b3480156200015e57600080fd5b506200016962000ae8565b6040516200017891906200189e565b60405180910390f35b3480156200018e57600080fd5b50620001ad6004803603620001a7919081019062001409565b62000af0565b604051620001bc91906200189e565b60405180910390f35b348015620001d257600080fd5b50620001dd62000de8565b604051620001ed929190620018e8565b60405180910390f35b3480156200020357600080fd5b506200020e62000f8c565b6040516200021d91906200189e565b60405180910390f35b3480156200023357600080fd5b506200025260048036036200024c9190810190620013c8565b62000fb2565b005b3480156200026157600080fd5b506200028060048036036200027a919081019062001409565b62000ff1565b6040516200028f919062001975565b60405180910390f35b348015620002a557600080fd5b50620002c46004803603620002be919081019062001409565b6200102b565b604051620002d3919062001975565b60405180910390f35b348015620002e957600080fd5b5062000308600480360362000302919081019062001409565b620010b9565b6040516200031791906200189e565b60405180910390f35b3480156200032d57600080fd5b506200034c600480360362000346919081019062001409565b62001106565b6040516200035b91906200189e565b60405180910390f35b60006004826040516200037891906200186c565b908152602001604051809103902060030160009054906101000a900460ff1615620003e957600482604051620003af91906200186c565b908152602001604051809103902060000160009054906101000a900473ffffffffffffffffffffffffffffffffffffffff16905062000430565b600482604051620003fb91906200186c565b908152602001604051809103902060010160009054906101000a900473ffffffffffffffffffffffffffffffffffffffff1690505b919050565b823373ffffffffffffffffffffffffffffffffffffffff166004826040516200045f91906200186c565b908152602001604051809103902060010160009054906101000a900473ffffffffffffffffffffffffffffffffffffffff1673ffffffffffffffffffffffffffffffffffffffff1614620004b257600080fd5b43600054600483604051620004c891906200186c565b9081526020016040518091039020600201540111620004e657600080fd5b82600485604051620004f991906200186c565b908152602001604051809103902060000160006101000a81548173ffffffffffffffffffffffffffffffffffffffff021916908373ffffffffffffffffffffffffffffffffffffffff16021790555060016004856040516200055c91906200186c565b908152602001604051809103902060030160006101000a81548160ff021916908315150217905550600284908060018154018082558091505060019003906000526020600020016000909190919091509080519060200190620005c192919062001153565b5060008090505b6003805490508110156200071d5784604051602001620005e991906200186c565b60405160208183030381529060405280519060200120600382815481106200060d57fe5b9060005260206000200160405160200162000629919062001885565b6040516020818303038152906040528051906020012014156200070f57600160038054905014156200068157600381815481106200066357fe5b9060005260206000200160006200067b9190620011da565b6200071d565b6003600260038054905003815481106200069757fe5b9060005260206000200160038281548110620006af57fe5b906000526020600020019080546001816001161561010002031660029004620006da92919062001226565b50600360016003805490500381548110620006f157fe5b906000526020600020016000620007099190620011da565b6200071d565b8080600101915050620005c8565b507f12e0c0afd0cb01b210bc575b477c58890f065eb1d9793fa291726d0bca3daea68484846040516200075393929190620019ea565b60405180910390a150505050565b606080606080600380549050604051908082528060200260200182016040528015620007a257816020015b60608152602001906001900390816200078c5790505b5090506060600380549050604051908082528060200260200182016040528015620007dc5781602001602082028038833980820191505090505b5090506060600380549050604051908082528060200260200182016040528015620008165781602001602082028038833980820191505090505b50905060008090506000809050600091505b60038054905082101562000a5757436000546004600385815481106200084a57fe5b9060005260206000200160405162000863919062001885565b90815260200160405180910390206002015401111562000a4957600382815481106200088b57fe5b906000526020600020018054600181600116156101000203166002900480601f0160208091040260200160405190810160405280929190818152602001828054600181600116156101000203166002900480156200092d5780601f1062000901576101008083540402835291602001916200092d565b820191906000526020600020905b8154815290600101906020018083116200090f57829003601f168201915b50505050508582815181106200093f57fe5b60200260200101819052506004600383815481106200095a57fe5b9060005260206000200160405162000973919062001885565b908152602001604051809103902060010160009054906101000a900473ffffffffffffffffffffffffffffffffffffffff16848281518110620009b257fe5b602002602001019073ffffffffffffffffffffffffffffffffffffffff16908173ffffffffffffffffffffffffffffffffffffffff1681525050600460038381548110620009fc57fe5b9060005260206000200160405162000a15919062001885565b90815260200160405180910390206002015483828151811062000a3457fe5b60200260200101818152505080806001019150505b818060010192505062000828565b6003600062000a679190620012b4565b600091505b8082101562000ad557600385838151811062000a8457fe5b602002602001015190806001815401808255809150506001900390600052602060002001600090919091909150908051906020019062000ac692919062001153565b50818060010192505062000a6c565b8484849750975097505050505050909192565b600030905090565b6000816000151560048260405162000b0991906200186c565b908152602001604051809103902060030160009054906101000a900460ff1615151462000b6d576040517f08c379a000000000000000000000000000000000000000000000000000000000815260040162000b649062001a2e565b60405180910390fd5b826001151560048260405162000b8491906200186c565b908152602001604051809103902060030160019054906101000a900460ff161515141562000be1574360005460048360405162000bc291906200186c565b908152602001604051809103902060020154011062000be057600080fd5b5b8360405162000bf090620012d7565b62000bfc919062001992565b604051809103906000f08015801562000c19573d6000803e3d6000fd5b5060048560405162000c2c91906200186c565b908152602001604051809103902060010160006101000a81548173ffffffffffffffffffffffffffffffffffffffff021916908373ffffffffffffffffffffffffffffffffffffffff1602179055504360048560405162000c8e91906200186c565b908152602001604051809103902060020181905550600160048560405162000cb791906200186c565b908152602001604051809103902060030160016101000a81548160ff02191690831515021790555060038490806001815401808255809150506001900390600052602060002001600090919091909150908051906020019062000d1c92919062001153565b507fd5d802d6a6ebd6a3147d5b04374599939cbbfa28bee645c79651c0e10fe7e6d08460048660405162000d5191906200186c565b908152602001604051809103902060010160009054906101000a900473ffffffffffffffffffffffffffffffffffffffff1660405162000d93929190620019b6565b60405180910390a160048460405162000dad91906200186c565b908152602001604051809103902060010160009054906101000a900473ffffffffffffffffffffffffffffffffffffffff1692505050919050565b60608060608060008090505b60028054905081101562000f7f576002818154811062000e1057fe5b906000526020600020018054600181600116156101000203166002900480601f01602080910402602001604051908101604052809291908181526020018280546001816001161561010002031660029004801562000eb25780601f1062000e865761010080835404028352916020019162000eb2565b820191906000526020600020905b81548152906001019060200180831162000e9457829003601f168201915b505050505083828151811062000ec457fe5b602002602001018190525060046002828154811062000edf57fe5b9060005260206000200160405162000ef8919062001885565b908152602001604051809103902060000160009054906101000a900473ffffffffffffffffffffffffffffffffffffffff1682828151811062000f3757fe5b602002602001019073ffffffffffffffffffffffffffffffffffffffff16908173ffffffffffffffffffffffffffffffffffffffff1681525050808060010191505062000df4565b5081819350935050509091565b600160009054906101000a900473ffffffffffffffffffffffffffffffffffffffff1681565b7fb82fefdc651ee0dc2a48092a0a107978c235739dfbc58b8f52a11e939ea2d750828260405162000fe5929190620018bb565b60405180910390a15050565b60006004826040516200100591906200186c565b908152602001604051809103902060030160009054906101000a900460ff169050919050565b60008073ffffffffffffffffffffffffffffffffffffffff166004836040516200105691906200186c565b908152602001604051809103902060000160009054906101000a900473ffffffffffffffffffffffffffffffffffffffff1673ffffffffffffffffffffffffffffffffffffffff161415620010af5760009050620010b4565b600190505b919050565b6000600482604051620010cd91906200186c565b908152602001604051809103902060000160009054906101000a900473ffffffffffffffffffffffffffffffffffffffff169050919050565b60006004826040516200111a91906200186c565b908152602001604051809103902060010160009054906101000a900473ffffffffffffffffffffffffffffffffffffffff169050919050565b828054600181600116156101000203166002900490600052602060002090601f016020900481019282601f106200119657805160ff1916838001178555620011c7565b82800160010185558215620011c7579182015b82811115620011c6578251825591602001919060010190620011a9565b5b509050620011d69190620012e5565b5090565b50805460018160011615610100020316600290046000825580601f1062001202575062001223565b601f016020900490600052602060002090810190620012229190620012e5565b5b50565b828054600181600116156101000203166002900490600052602060002090601f016020900481019282601f10620012615780548555620012a1565b82800160010185558215620012a157600052602060002091601f016020900482015b82811115620012a057825482559160010191906001019062001283565b5b509050620012b09190620012e5565b5090565b5080546000825590600052602060002090810190620012d491906200130d565b50565b6119898062001c8383390190565b6200130a91905b8082111562001306576000816000905550600101620012ec565b5090565b90565b6200133b91905b808211156200133757600081816200132d9190620011da565b5060010162001314565b5090565b90565b6000813590506200134f8162001c4e565b92915050565b600082601f8301126200136757600080fd5b81356200137e620013788262001a7e565b62001a50565b915080825260208301602083018583830111156200139b57600080fd5b620013a883828462001bf8565b50505092915050565b600081359050620013c28162001c68565b92915050565b60008060408385031215620013dc57600080fd5b6000620013ec858286016200133e565b9250506020620013ff85828601620013b1565b9150509250929050565b6000602082840312156200141c57600080fd5b600082013567ffffffffffffffff8111156200143757600080fd5b620014458482850162001355565b91505092915050565b6000806000606084860312156200146457600080fd5b600084013567ffffffffffffffff8111156200147f57600080fd5b6200148d8682870162001355565b9350506020620014a0868287016200133e565b9250506040620014b386828701620013b1565b9150509250925092565b6000620014cb838362001507565b60208301905092915050565b6000620014e5838362001707565b905092915050565b6000620014fb83836200184a565b60208301905092915050565b620015128162001bae565b82525050565b620015238162001bae565b82525050565b6000620015368262001af0565b62001542818562001b4e565b93506200154f8362001aab565b8060005b83811015620015865781516200156a8882620014bd565b9750620015778362001b27565b92505060018101905062001553565b5085935050505092915050565b6000620015a08262001afb565b620015ac818562001b5f565b935083602082028501620015c08562001abb565b8060005b85811015620016025784840389528151620015e08582620014d7565b9450620015ed8362001b34565b925060208a01995050600181019050620015c4565b50829750879550505050505092915050565b6000620016218262001b06565b6200162d818562001b70565b93506200163a8362001acb565b8060005b8381101562001671578151620016558882620014ed565b9750620016628362001b41565b9250506001810190506200163e565b5085935050505092915050565b620016898162001bc2565b82525050565b60006200169c8262001b1c565b620016a8818562001b92565b9350620016ba81856020860162001c07565b620016c58162001c3d565b840191505092915050565b6000620016dd8262001b1c565b620016e9818562001ba3565b9350620016fb81856020860162001c07565b80840191505092915050565b6000620017148262001b11565b62001720818562001b81565b93506200173281856020860162001c07565b6200173d8162001c3d565b840191505092915050565b6000815460018116600081146200176857600181146200179057620017da565b607f60028304166200177b818762001ba3565b955060ff1983168652808601935050620017da565b60028204620017a0818762001ba3565b9550620017ad8562001adb565b60005b82811015620017d157815481890152600182019150602081019050620017b0565b82880195505050505b505092915050565b6000620017f160218362001b92565b91507f54686520646f6d61696e20697320616c7265616479207265676973746572656460008301527f2e000000000000000000000000000000000000000000000000000000000000006020830152604082019050919050565b620018558162001bee565b82525050565b620018668162001bee565b82525050565b60006200187a8284620016d0565b915081905092915050565b600062001893828462001748565b915081905092915050565b6000602082019050620018b5600083018462001518565b92915050565b6000604082019050620018d2600083018562001518565b620018e160208301846200185b565b9392505050565b6000604082019050818103600083015262001904818562001593565b905081810360208301526200191a818462001529565b90509392505050565b600060608201905081810360008301526200193f818662001593565b9050818103602083015262001955818562001529565b905081810360408301526200196b818462001614565b9050949350505050565b60006020820190506200198c60008301846200167e565b92915050565b60006020820190508181036000830152620019ae81846200168f565b905092915050565b60006040820190508181036000830152620019d281856200168f565b9050620019e3602083018462001518565b9392505050565b6000606082019050818103600083015262001a0681866200168f565b905062001a17602083018562001518565b62001a2660408301846200185b565b949350505050565b6000602082019050818103600083015262001a4981620017e2565b9050919050565b6000604051905081810181811067ffffffffffffffff8211171562001a7457600080fd5b8060405250919050565b600067ffffffffffffffff82111562001a9657600080fd5b601f19601f8301169050602081019050919050565b6000819050602082019050919050565b6000819050602082019050919050565b6000819050602082019050919050565b60008190508160005260206000209050919050565b600081519050919050565b600081519050919050565b600081519050919050565b600081519050919050565b600081519050919050565b6000602082019050919050565b6000602082019050919050565b6000602082019050919050565b600082825260208201905092915050565b600082825260208201905092915050565b600082825260208201905092915050565b600082825260208201905092915050565b600082825260208201905092915050565b600081905092915050565b600062001bbb8262001bce565b9050919050565b60008115159050919050565b600073ffffffffffffffffffffffffffffffffffffffff82169050919050565b6000819050919050565b82818337600083830152505050565b60005b8381101562001c2757808201518184015260208101905062001c0a565b8381111562001c37576000848401525b50505050565b6000601f19601f8301169050919050565b62001c598162001bae565b811462001c6557600080fd5b50565b62001c738162001bee565b811462001c7f57600080fd5b5056fe6080604052600260045560026005553480156200001b57600080fd5b506040516200198938038062001989833981810160405260208110156200004157600080fd5b81019080805160405193929190846401000000008211156200006257600080fd5b838201915060208201858111156200007957600080fd5b82518660018202830111640100000000821117156200009757600080fd5b8083526020830192505050908051906020019080838360005b83811015620000cd578082015181840152602081019050620000b0565b50505050905090810190601f168015620000fb5780820380516001836020036101000a031916815260200191505b50604052505050336000806101000a81548173ffffffffffffffffffffffffffffffffffffffff021916908373ffffffffffffffffffffffffffffffffffffffff16021790555080600190805190602001906200015a9291906200017a565b506004544301600281905550600554600254016003819055505062000229565b828054600181600116156101000203166002900490600052602060002090601f016020900481019282601f10620001bd57805160ff1916838001178555620001ee565b82800160010185558215620001ee579182015b82811115620001ed578251825591602001919060010190620001d0565b5b509050620001fd919062000201565b5090565b6200022691905b808211156200022257600081600090555060010162000208565b5090565b90565b61175080620002396000396000f3fe60806040526004361061012a5760003560e01c80638da5cb5b116100ab578063a7dae9091161006f578063a7dae909146107d6578063c5e434d914610801578063c8e7b31d1461082c578063d57bde7914610857578063d70754ec14610882578063fcaa7664146109125761012a565b80638da5cb5b146104e2578063900f080a1461053957806391f9015714610726578063957bb1e01461077d578063a6e66477146107ab5761012a565b80633ccfd60b116100f25780633ccfd60b1461042f578063423b217f146104465780634e528de81461047157806386c62a8f146104a0578063886a6de1146104b75761012a565b806301495c1c1461012f57806312fa6feb146101a5578063164db64c146101d457806324905986146101ff5780632fd7e5dd14610404575b600080fd5b34801561013b57600080fd5b506101886004803603604081101561015257600080fd5b81019080803573ffffffffffffffffffffffffffffffffffffffff169060200190929190803590602001909291905050506109a2565b604051808381526020018281526020019250505060405180910390f35b3480156101b157600080fd5b506101ba6109e0565b604051808215151515815260200191505060405180910390f35b3480156101e057600080fd5b506101e96109f3565b6040518082815260200191505060405180910390f35b34801561020b57600080fd5b506103ea6004803603606081101561022257600080fd5b810190808035906020019064010000000081111561023f57600080fd5b82018360208201111561025157600080fd5b8035906020019184602083028401116401000000008311171561027357600080fd5b919080806020026020016040519081016040528093929190818152602001838360200280828437600081840152601f19601f820116905080830192505050505050509192919290803590602001906401000000008111156102d357600080fd5b8201836020820111156102e557600080fd5b8035906020019184602083028401116401000000008311171561030757600080fd5b919080806020026020016040519081016040528093929190818152602001838360200280828437600081840152601f19601f8201169050808301925050505050505091929192908035906020019064010000000081111561036757600080fd5b82018360208201111561037957600080fd5b8035906020019184602083028401116401000000008311171561039b57600080fd5b919080806020026020016040519081016040528093929190818152602001838360200280828437600081840152601f19601f820116905080830192505050505050509192919290505050610a3a565b604051808215151515815260200191505060405180910390f35b34801561041057600080fd5b50610419610b80565b6040518082815260200191505060405180910390f35b34801561043b57600080fd5b50610444610c3a565b005b34801561045257600080fd5b5061045b610d17565b6040518082815260200191505060405180910390f35b34801561047d57600080fd5b50610486610d1d565b604051808215151515815260200191505060405180910390f35b3480156104ac57600080fd5b506104b5610d30565b005b3480156104c357600080fd5b506104cc610f2d565b6040518082815260200191505060405180910390f35b3480156104ee57600080fd5b506104f7610f33565b604051808273ffffffffffffffffffffffffffffffffffffffff1673ffffffffffffffffffffffffffffffffffffffff16815260200191505060405180910390f35b34801561054557600080fd5b506107246004803603606081101561055c57600080fd5b810190808035906020019064010000000081111561057957600080fd5b82018360208201111561058b57600080fd5b803590602001918460208302840111640100000000831117156105ad57600080fd5b919080806020026020016040519081016040528093929190818152602001838360200280828437600081840152601f19601f8201169050808301925050505050505091929192908035906020019064010000000081111561060d57600080fd5b82018360208201111561061f57600080fd5b8035906020019184602083028401116401000000008311171561064157600080fd5b919080806020026020016040519081016040528093929190818152602001838360200280828437600081840152601f19601f820116905080830192505050505050509192919290803590602001906401000000008111156106a157600080fd5b8201836020820111156106b357600080fd5b803590602001918460208302840111640100000000831117156106d557600080fd5b919080806020026020016040519081016040528093929190818152602001838360200280828437600081840152601f19601f820116905080830192505050505050509192919290505050610f58565b005b34801561073257600080fd5b5061073b6111de565b604051808273ffffffffffffffffffffffffffffffffffffffff1673ffffffffffffffffffffffffffffffffffffffff16815260200191505060405180910390f35b6107a96004803603602081101561079357600080fd5b8101908080359060200190929190505050611204565b005b3480156107b757600080fd5b506107c06112ab565b6040518082815260200191505060405180910390f35b3480156107e257600080fd5b506107eb6112b1565b6040518082815260200191505060405180910390f35b34801561080d57600080fd5b506108166112bb565b6040518082815260200191505060405180910390f35b34801561083857600080fd5b50610841611302565b6040518082815260200191505060405180910390f35b34801561086357600080fd5b5061086c611308565b6040518082815260200191505060405180910390f35b34801561088e57600080fd5b5061089761130e565b6040518080602001828103825283818151815260200191508051906020019080838360005b838110156108d75780820151818401526020810190506108bc565b50505050905090810190601f1680156109045780820380516001836020036101000a031916815260200191505b509250505060405180910390f35b34801561091e57600080fd5b506109276113ac565b6040518080602001828103825283818151815260200191508051906020019080838360005b8381101561096757808201518184015260208101905061094c565b50505050905090810190601f1680156109945780820380516001836020036101000a031916815260200191505b509250505060405180910390f35b600860205281600052604060002081815481106109bb57fe5b9060005260206000209060020201600091509150508060000154908060010154905082565b600660009054906101000a900460ff1681565b6000600a60003373ffffffffffffffffffffffffffffffffffffffff1673ffffffffffffffffffffffffffffffffffffffff16815260200190815260200160002054905090565b600080600860003373ffffffffffffffffffffffffffffffffffffffff1673ffffffffffffffffffffffffffffffffffffffff168152602001908152602001600020805490501115610b745783600081518110610a9357fe5b602002602001015183600081518110610aa857fe5b602002602001015183600081518110610abd57fe5b602002602001015160405160200180848152602001831515151560f81b8152600101828152602001935050505060405160208183030381529060405280519060200120600860003373ffffffffffffffffffffffffffffffffffffffff1673ffffffffffffffffffffffffffffffffffffffff168152602001908152602001600020600081548110610b4b57fe5b90600052602060002090600202016000015414610b6b5760009050610b79565b60019050610b79565b600090505b9392505050565b600080600860003373ffffffffffffffffffffffffffffffffffffffff1673ffffffffffffffffffffffffffffffffffffffff168152602001908152602001600020805490501115610c3057600860003373ffffffffffffffffffffffffffffffffffffffff1673ffffffffffffffffffffffffffffffffffffffff168152602001908152602001600020600081548110610c1757fe5b9060005260206000209060020201600101549050610c37565b62010f2c90505b90565b6000600960003373ffffffffffffffffffffffffffffffffffffffff1673ffffffffffffffffffffffffffffffffffffffff1681526020019081526020016000205490506000811115610d14576000600960003373ffffffffffffffffffffffffffffffffffffffff1673ffffffffffffffffffffffffffffffffffffffff168152602001908152602001600020819055503373ffffffffffffffffffffffffffffffffffffffff166108fc829081150290604051600060405180830381858888f19350505050158015610d12573d6000803e3d6000fd5b505b50565b60025481565b600660019054906101000a900460ff1681565b600354804311610d3f57600080fd5b600660029054906101000a900473ffffffffffffffffffffffffffffffffffffffff1673ffffffffffffffffffffffffffffffffffffffff163373ffffffffffffffffffffffffffffffffffffffff1614610d9957600080fd5b60001515600660019054906101000a900460ff16151514610db957600080fd5b6001600660016101000a81548160ff02191690831515021790555060008060009054906101000a900473ffffffffffffffffffffffffffffffffffffffff1690508073ffffffffffffffffffffffffffffffffffffffff166356d36ae16007546001336007546040518563ffffffff1660e01b815260040180806020018473ffffffffffffffffffffffffffffffffffffffff1673ffffffffffffffffffffffffffffffffffffffff168152602001838152602001828103825285818154600181600116156101000203166002900481526020019150805460018160011615610100020316600290048015610eef5780601f10610ec457610100808354040283529160200191610eef565b820191906000526020600020905b815481529060010190602001808311610ed257829003601f168201915b50509450505050506000604051808303818588803b158015610f1057600080fd5b505af1158015610f24573d6000803e3d6000fd5b50505050505050565b60055481565b6000809054906101000a900473ffffffffffffffffffffffffffffffffffffffff1681565b600254804311610f6757600080fd5b60035480431115610f7757600080fd5b6000600860003373ffffffffffffffffffffffffffffffffffffffff1673ffffffffffffffffffffffffffffffffffffffff16815260200190815260200160002080549050905080865114610fcb57600080fd5b80855114610fd857600080fd5b80845114610fe557600080fd5b600080905060008090505b82811015611140576000600860003373ffffffffffffffffffffffffffffffffffffffff1673ffffffffffffffffffffffffffffffffffffffff168152602001908152602001600020828154811061104457fe5b9060005260206000209060020201905060008060008b858151811061106557fe5b60200260200101518b868151811061107957fe5b60200260200101518b878151811061108d57fe5b602002602001015192509250925082828260405160200180848152602001831515151560f81b81526001018281526020019350505050604051602081830303815290604052805190602001208460000154146110ec5750505050611133565b83600101548601955081158015611107575082846001015410155b15611122576111163384611478565b156111215782860395505b5b6000801b8460000181905550505050505b8080600101915050610ff0565b503373ffffffffffffffffffffffffffffffffffffffff166108fc829081150290604051600060405180830381858888f19350505050158015611187573d6000803e3d6000fd5b5080600a60003373ffffffffffffffffffffffffffffffffffffffff1673ffffffffffffffffffffffffffffffffffffffff1681526020019081526020016000206000828254019250508190555050505050505050565b600660029054906101000a900473ffffffffffffffffffffffffffffffffffffffff1681565b6002548043111561121457600080fd5b600860003373ffffffffffffffffffffffffffffffffffffffff1673ffffffffffffffffffffffffffffffffffffffff1681526020019081526020016000206040518060400160405280848152602001348152509080600181540180825580915050600190039060005260206000209060020201600090919091909150600082015181600001556020820151816001015550505050565b60035481565b6000600754905090565b6000600960003373ffffffffffffffffffffffffffffffffffffffff1673ffffffffffffffffffffffffffffffffffffffff16815260200190815260200160002054905090565b60045481565b60075481565b60018054600181600116156101000203166002900480601f0160208091040260200160405190810160405280929190818152602001828054600181600116156101000203166002900480156113a45780601f10611379576101008083540402835291602001916113a4565b820191906000526020600020905b81548152906001019060200180831161138757829003601f168201915b505050505081565b60606002544310156113f5576040518060400160405280600381526020017f62696400000000000000000000000000000000000000000000000000000000008152509050611475565b60035443101561143c576040518060400160405280600681526020017f72657665616c00000000000000000000000000000000000000000000000000008152509050611475565b6040518060400160405280600381526020017f656e64000000000000000000000000000000000000000000000000000000000081525090505b90565b6000600754821161148c5760009050611714565b600073ffffffffffffffffffffffffffffffffffffffff16600660029054906101000a900473ffffffffffffffffffffffffffffffffffffffff1673ffffffffffffffffffffffffffffffffffffffff16146115545760075460096000600660029054906101000a900473ffffffffffffffffffffffffffffffffffffffff1673ffffffffffffffffffffffffffffffffffffffff1673ffffffffffffffffffffffffffffffffffffffff168152602001908152602001600020600082825401925050819055505b8160078190555082600660026101000a81548173ffffffffffffffffffffffffffffffffffffffff021916908373ffffffffffffffffffffffffffffffffffffffff1602179055507fb82fefdc651ee0dc2a48092a0a107978c235739dfbc58b8f52a11e939ea2d750600660029054906101000a900473ffffffffffffffffffffffffffffffffffffffff16600754604051808373ffffffffffffffffffffffffffffffffffffffff1673ffffffffffffffffffffffffffffffffffffffff1681526020018281526020019250505060405180910390a16000809054906101000a900473ffffffffffffffffffffffffffffffffffffffff1673ffffffffffffffffffffffffffffffffffffffff1663a7181ae3600660029054906101000a900473ffffffffffffffffffffffffffffffffffffffff166007546040518363ffffffff1660e01b8152600401808373ffffffffffffffffffffffffffffffffffffffff1673ffffffffffffffffffffffffffffffffffffffff16815260200182815260200192505050600060405180830381600087803b1580156116f757600080fd5b505af115801561170b573d6000803e3d6000fd5b50505050600190505b9291505056fea2646970667358221220045ed031f5f0311edecc86d978cb0e82ab05daddc692940977fd00cbab11a33564736f6c63430006000033a2646970667358221220b9aaa77c10e04514e8b30d0399efb5ecda053521bdf857606eb3cbbee6c734ba64736f6c63430006000033",
  "source": "// SPDX-License-Identifier: GPL-3.0\r\n// pragma solidity ^0.5.16;\r\npragma solidity ^0.6.0;\r\n// to implement functions that return string[]\r\npragma experimental ABIEncoderV2;\r\nimport './BlindAuction.sol';\r\n\r\n// \"node\" generally refers to domain name\r\n\r\ncontract DomainRegistry {\r\n\r\n    struct Record {\r\n        address owner;\r\n        address auctionAddress;\r\n        uint auctionStartBlock;\r\n        bool registered;\r\n        bool hasAuctionBefore;\r\n    }\r\n\r\n    //static variables\r\n    uint durationOfAuction = 50; //if after 50 blocks there is no claimant, the auction is voided\r\n    address public owner;\r\n    string[] registeredDomains; // nodes that are registered\r\n    string[] currentAuctions; //stores nodes that have active auctions\r\n\r\n\r\n    // add list of current auctions\r\n\r\n    //mappings\r\n    mapping(string=>Record) records;\r\n    // storing strings\r\n    //mapping()\r\n\r\n    //events\r\n    // should this event also give the string form of the domain?\r\n    event NewAuctionStarted(string node, address auctionAddress);\r\n    event NewDomainClaimed(string node, address newOwner, uint highestBid);\r\n\r\n    // modifiers\r\n    modifier validAuctionContract(string memory node) {\r\n        //the auction contract for that node sent the msg\r\n        require(records[node].auctionAddress == msg.sender);\r\n        // the auction has not \"ended\" yet, still valid period for claiming domain\r\n        require(records[node].auctionStartBlock + durationOfAuction > block.number);\r\n        _;\r\n    }\r\n\r\n    modifier onlyUnregisteredDomain(string memory node) {\r\n        require(records[node].registered == false,\r\n                \"The domain is already registered.\");\r\n        _;\r\n    }\r\n\r\n    modifier noOngoingAuction(string memory node) {\r\n        //the last auction (if any) has ended, and a reasonable amount of time has been given to claim domain\r\n        if (records[node].hasAuctionBefore == true) {\r\n            require(records[node].auctionStartBlock + durationOfAuction < block.number);\r\n        }\r\n        _;\r\n    }\r\n\r\n    //constructor\r\n    constructor() public {\r\n        owner = msg.sender;\r\n    }\r\n\r\n    // check if domain is registered already\r\n    function checkIfRegistered(string memory node) \r\n        public\r\n        view\r\n        returns (bool) \r\n    {\r\n        if(records[node].owner == address(0)) {\r\n            return false;\r\n        } else {\r\n            return true;\r\n        }\r\n    }\r\n\r\n    function registerOwner(string memory node, address newOwner, uint highestBid)\r\n        public\r\n        payable\r\n        validAuctionContract(node)\r\n    {\r\n        records[node].owner = newOwner;\r\n        records[node].registered = true;\r\n        registeredDomains.push(node);\r\n        // update currentAuctions\r\n        for (uint i=0; i<currentAuctions.length; i++) {\r\n            if (keccak256(abi.encodePacked(currentAuctions[i])) == keccak256(abi.encodePacked(node))) {\r\n                if (currentAuctions.length == 1) {\r\n                    delete currentAuctions[i];\r\n                    break;\r\n                } else {\r\n                    currentAuctions[i] = currentAuctions[currentAuctions.length-2];\r\n                    delete currentAuctions[currentAuctions.length-1];\r\n                    break;\r\n                }\r\n                \r\n            }\r\n        }\r\n\r\n        emit NewDomainClaimed(node, newOwner, highestBid);\r\n    }\r\n\r\n    function startAuction(string memory node)\r\n        public\r\n        onlyUnregisteredDomain(node)\r\n        noOngoingAuction(node)\r\n        returns (address auctionAddress)\r\n    {\r\n        records[node].auctionAddress = address(new BlindAuction(node));\r\n        records[node].auctionStartBlock = block.number;\r\n        records[node].hasAuctionBefore = true;\r\n        currentAuctions.push(node);\r\n        emit NewAuctionStarted(node, records[node].auctionAddress);\r\n\r\n        return records[node].auctionAddress;\r\n    }\r\n\r\n    //------------------------------------------------------------------------------\r\n    //website functions\r\n    //I think these functions are very inefficient, maybe can redo\r\n\r\n    // get current auction addresses and their nodes\r\n    // also checks if the auctions in the list have expired.\r\n    //TODO: remove start blocks\r\n    function getCurrentAuctions() public returns (string[] memory, address[] memory, uint[] memory) {\r\n        string[] memory nodes = new string[](currentAuctions.length);\r\n        address[] memory auctionAddresses = new address[](currentAuctions.length);\r\n        uint[] memory auctionStartBlocks = new uint[](currentAuctions.length);\r\n\r\n        uint i = 0;\r\n        uint j = 0;\r\n        for (i=0; i<currentAuctions.length; i++) {\r\n            if (records[currentAuctions[i]].auctionStartBlock + durationOfAuction > block.number) {\r\n                nodes[j] = currentAuctions[i];\r\n                auctionAddresses[j] = records[currentAuctions[i]].auctionAddress;\r\n                auctionStartBlocks[j] = records[currentAuctions[i]].auctionStartBlock;\r\n                j++;\r\n            }\r\n        }\r\n\r\n        delete currentAuctions;\r\n        for (i=0; i<j; i++) {\r\n            currentAuctions.push(nodes[i]);\r\n        }\r\n\r\n        return (nodes, auctionAddresses, auctionStartBlocks);\r\n    }\r\n\r\n    // gets registered domains and their owner addresses\r\n    function getRegisteredDomains() public view returns (string[] memory, address[] memory) {\r\n        string[] memory nodes;\r\n        address[] memory ownerAddresses;\r\n\r\n        for (uint i=0; i<registeredDomains.length; i++) {\r\n            nodes[i] = registeredDomains[i];\r\n            ownerAddresses[i] = records[registeredDomains[i]].owner;\r\n        }\r\n        return (nodes, ownerAddresses);\r\n    }\r\n\r\n    //if registered, resolved to owner address, if auctioning, resolve to auction address\r\n    //empty domain returns address(0)\r\n    function resolveDomain(string memory domain) public view returns (address) {\r\n        if (records[domain].registered) {\r\n            return records[domain].owner;\r\n        } else {\r\n            return records[domain].auctionAddress;\r\n        }\r\n    }\r\n\r\n\r\n// ----------------------------------------------------------------------------------\r\n// debug helper functions\r\n\r\n    function viewAuctionAddress(string memory node) public view returns (address)\r\n    {\r\n        return records[node].auctionAddress;\r\n    }\r\n\r\n    function viewThisAddress() public view returns (address)\r\n    {\r\n        return address(this);\r\n    }\r\n\r\n    function viewRecordOwner(string memory node) public view returns (address)\r\n    {\r\n        return records[node].owner;\r\n    }\r\n\r\n    function viewRegistration(string memory node) public view returns (bool)\r\n    {\r\n        return records[node].registered;\r\n    }\r\n\r\n    event PotentialWinnerFound(address winner, uint highestBid);\r\n    function emitPotentialWinner(address winner, uint value) public {\r\n        emit PotentialWinnerFound(winner, value);\r\n    }\r\n\r\n\r\n}",
  "sourcePath": "C:\\Users\\Lim Han Quan\\Desktop\\ethereum-dapp\\contracts\\DomainRegistry.sol",
  "compiler": {
    "name": "solc",
    "version": "0.6.0+commit.26b70077.Emscripten.clang"
  },
  "schemaVersion": "3.3.1",
  "updatedAt": "2020-10-29T15:31:49.633Z",
  "networkType": "ethereum",
  "devdoc": {
    "methods": {}
  },
  "userdoc": {
    "methods": {}
  }
}