{
  "contractName": "DomainRegistry",
  "abi": [
    {
      "inputs": [],
      "payable": false,
      "stateMutability": "nonpayable",
      "type": "constructor"
    },
    {
      "anonymous": false,
      "inputs": [
        {
          "indexed": false,
          "internalType": "bytes32",
          "name": "node",
          "type": "bytes32"
        },
        {
          "indexed": false,
          "internalType": "address",
          "name": "auctionAddress",
          "type": "address"
        }
      ],
      "name": "NewAuctionStarted",
      "type": "event"
    },
    {
      "anonymous": false,
      "inputs": [
        {
          "indexed": false,
          "internalType": "bytes32",
          "name": "node",
          "type": "bytes32"
        },
        {
          "indexed": false,
          "internalType": "address",
          "name": "newOwner",
          "type": "address"
        },
        {
          "indexed": false,
          "internalType": "uint256",
          "name": "highestBid",
          "type": "uint256"
        }
      ],
      "name": "NewDomainClaimed",
      "type": "event"
    },
    {
      "anonymous": false,
      "inputs": [],
      "name": "RecordsUpdate",
      "type": "event"
    },
    {
      "constant": true,
      "inputs": [],
      "name": "owner",
      "outputs": [
        {
          "internalType": "address",
          "name": "",
          "type": "address"
        }
      ],
      "payable": false,
      "stateMutability": "view",
      "type": "function"
    },
    {
      "constant": true,
      "inputs": [
        {
          "internalType": "bytes32",
          "name": "node",
          "type": "bytes32"
        }
      ],
      "name": "checkIfRegistered",
      "outputs": [
        {
          "internalType": "bool",
          "name": "",
          "type": "bool"
        }
      ],
      "payable": false,
      "stateMutability": "view",
      "type": "function"
    },
    {
      "constant": false,
      "inputs": [
        {
          "internalType": "bytes32",
          "name": "node",
          "type": "bytes32"
        },
        {
          "internalType": "address",
          "name": "newOwner",
          "type": "address"
        },
        {
          "internalType": "uint256",
          "name": "highestBid",
          "type": "uint256"
        }
      ],
      "name": "registerOwner",
      "outputs": [],
      "payable": true,
      "stateMutability": "payable",
      "type": "function"
    },
    {
      "constant": false,
      "inputs": [
        {
          "internalType": "bytes32",
          "name": "node",
          "type": "bytes32"
        }
      ],
      "name": "startAuction",
      "outputs": [
        {
          "internalType": "address",
          "name": "auctionAddress",
          "type": "address"
        }
      ],
      "payable": false,
      "stateMutability": "nonpayable",
      "type": "function"
    },
    {
      "constant": false,
      "inputs": [],
      "name": "getCurrentAuctions",
      "outputs": [
        {
          "internalType": "bytes32[]",
          "name": "",
          "type": "bytes32[]"
        },
        {
          "internalType": "address[]",
          "name": "",
          "type": "address[]"
        }
      ],
      "payable": false,
      "stateMutability": "nonpayable",
      "type": "function"
    },
    {
      "constant": true,
      "inputs": [],
      "name": "getRegisteredDomains",
      "outputs": [
        {
          "internalType": "bytes32[]",
          "name": "",
          "type": "bytes32[]"
        },
        {
          "internalType": "address[]",
          "name": "",
          "type": "address[]"
        }
      ],
      "payable": false,
      "stateMutability": "view",
      "type": "function"
    },
    {
      "constant": true,
      "inputs": [
        {
          "internalType": "bytes32",
          "name": "node",
          "type": "bytes32"
        }
      ],
      "name": "viewAuctionAddress",
      "outputs": [
        {
          "internalType": "address",
          "name": "",
          "type": "address"
        }
      ],
      "payable": false,
      "stateMutability": "view",
      "type": "function"
    },
    {
      "constant": true,
      "inputs": [],
      "name": "viewThisAddress",
      "outputs": [
        {
          "internalType": "address",
          "name": "",
          "type": "address"
        }
      ],
      "payable": false,
      "stateMutability": "view",
      "type": "function"
    },
    {
      "constant": true,
      "inputs": [
        {
          "internalType": "bytes32",
          "name": "node",
          "type": "bytes32"
        }
      ],
      "name": "viewRecordOwner",
      "outputs": [
        {
          "internalType": "address",
          "name": "",
          "type": "address"
        }
      ],
      "payable": false,
      "stateMutability": "view",
      "type": "function"
    },
    {
      "constant": true,
      "inputs": [
        {
          "internalType": "bytes32",
          "name": "node",
          "type": "bytes32"
        }
      ],
      "name": "viewRegistration",
      "outputs": [
        {
          "internalType": "bool",
          "name": "",
          "type": "bool"
        }
      ],
      "payable": false,
      "stateMutability": "view",
      "type": "function"
    }
  ],
  "bytecode": "0x6080604052603260005534801561001557600080fd5b5033600160006101000a81548173ffffffffffffffffffffffffffffffffffffffff021916908373ffffffffffffffffffffffffffffffffffffffff1602179055506122c1806100666000396000f3fe6080604052600436106100915760003560e01c80638da5cb5b116100595780638da5cb5b146103235780639daf90441461037a578063cde4f0c0146103d2578063ede8acdb14610425578063f1a982fc146104a057610091565b8063212a8cd9146100965780635be53e74146100e95780635f7a66661461019d57806380d2ec86146101f45780638c3e57f6146102a8575b600080fd5b3480156100a257600080fd5b506100cf600480360360208110156100b957600080fd5b810190808035906020019092919050505061051b565b604051808215151515815260200191505060405180910390f35b3480156100f557600080fd5b506100fe61059a565b604051808060200180602001838103835285818151815260200191508051906020019060200280838360005b8381101561014557808201518184015260208101905061012a565b50505050905001838103825284818151815260200191508051906020019060200280838360005b8381101561018757808201518184015260208101905061016c565b5050505090500194505050505060405180910390f35b3480156101a957600080fd5b506101b261072d565b604051808273ffffffffffffffffffffffffffffffffffffffff1673ffffffffffffffffffffffffffffffffffffffff16815260200191505060405180910390f35b34801561020057600080fd5b50610209610735565b604051808060200180602001838103835285818151815260200191508051906020019060200280838360005b83811015610250578082015181840152602081019050610235565b50505050905001838103825284818151815260200191508051906020019060200280838360005b83811015610292578082015181840152602081019050610277565b5050505090500194505050505060405180910390f35b3480156102b457600080fd5b506102e1600480360360208110156102cb57600080fd5b810190808035906020019092919050505061082c565b604051808273ffffffffffffffffffffffffffffffffffffffff1673ffffffffffffffffffffffffffffffffffffffff16815260200191505060405180910390f35b34801561032f57600080fd5b5061033861086c565b604051808273ffffffffffffffffffffffffffffffffffffffff1673ffffffffffffffffffffffffffffffffffffffff16815260200191505060405180910390f35b6103d06004803603606081101561039057600080fd5b8101908080359060200190929190803573ffffffffffffffffffffffffffffffffffffffff16906020019092919080359060200190929190505050610892565b005b3480156103de57600080fd5b5061040b600480360360208110156103f557600080fd5b8101908080359060200190929190505050610af3565b604051808215151515815260200191505060405180910390f35b34801561043157600080fd5b5061045e6004803603602081101561044857600080fd5b8101908080359060200190929190505050610b20565b604051808273ffffffffffffffffffffffffffffffffffffffff1673ffffffffffffffffffffffffffffffffffffffff16815260200191505060405180910390f35b3480156104ac57600080fd5b506104d9600480360360208110156104c357600080fd5b8101908080359060200190929190505050610dda565b604051808273ffffffffffffffffffffffffffffffffffffffff1673ffffffffffffffffffffffffffffffffffffffff16815260200191505060405180910390f35b60008073ffffffffffffffffffffffffffffffffffffffff166004600084815260200190815260200160002060000160009054906101000a900473ffffffffffffffffffffffffffffffffffffffff1673ffffffffffffffffffffffffffffffffffffffff1614156105905760009050610595565b600190505b919050565b60608060608060008090505b600380549050811015610720574360005460046000600385815481106105c857fe5b906000526020600020015481526020019081526020016000206002015401111561064f5760036002600380549050038154811061060157fe5b90600052602060002001546003828154811061061957fe5b906000526020600020018190555060036001600380549050038154811061063c57fe5b9060005260206000200160009055610720565b6003818154811061065c57fe5b906000526020600020015483828151811061067357fe5b602002602001018181525050600460006003838154811061069057fe5b9060005260206000200154815260200190815260200160002060010160009054906101000a900473ffffffffffffffffffffffffffffffffffffffff168282815181106106d957fe5b602002602001019073ffffffffffffffffffffffffffffffffffffffff16908173ffffffffffffffffffffffffffffffffffffffff168152505080806001019150506105a6565b5081819350935050509091565b600030905090565b60608060608060008090505b60028054905081101561081f576002818154811061075b57fe5b906000526020600020015483828151811061077257fe5b602002602001018181525050600460006002838154811061078f57fe5b9060005260206000200154815260200190815260200160002060000160009054906101000a900473ffffffffffffffffffffffffffffffffffffffff168282815181106107d857fe5b602002602001019073ffffffffffffffffffffffffffffffffffffffff16908173ffffffffffffffffffffffffffffffffffffffff16815250508080600101915050610741565b5081819350935050509091565b60006004600083815260200190815260200160002060000160009054906101000a900473ffffffffffffffffffffffffffffffffffffffff169050919050565b600160009054906101000a900473ffffffffffffffffffffffffffffffffffffffff1681565b823373ffffffffffffffffffffffffffffffffffffffff166004600083815260200190815260200160002060010160009054906101000a900473ffffffffffffffffffffffffffffffffffffffff1673ffffffffffffffffffffffffffffffffffffffff161461090157600080fd5b436000546004600084815260200190815260200160002060020154011161092757600080fd5b826004600086815260200190815260200160002060000160006101000a81548173ffffffffffffffffffffffffffffffffffffffff021916908373ffffffffffffffffffffffffffffffffffffffff16021790555060016004600086815260200190815260200160002060030160006101000a81548160ff021916908315150217905550600284908060018154018082558091505090600182039060005260206000200160009091929091909150555060008090505b600380549050811015610a795784600382815481106109f857fe5b90600052602060002001541415610a6c57600360026003805490500381548110610a1e57fe5b906000526020600020015460038281548110610a3657fe5b9060005260206000200181905550600360016003805490500381548110610a5957fe5b9060005260206000200160009055610a79565b80806001019150506109dd565b507f8ffd1c59775cf518923828a1f4116e38c409041b29ca057e2c922781abb82a00848484604051808481526020018373ffffffffffffffffffffffffffffffffffffffff1673ffffffffffffffffffffffffffffffffffffffff168152602001828152602001935050505060405180910390a150505050565b60006004600083815260200190815260200160002060030160009054906101000a900460ff169050919050565b600081600015156004600083815260200190815260200160002060030160009054906101000a900460ff16151514610ba3576040517f08c379a000000000000000000000000000000000000000000000000000000000815260040180806020018281038252602181526020018061226c6021913960400191505060405180910390fd5b82600115156004600083815260200190815260200160002060030160019054906101000a900460ff1615151415610bfb574360005460046000848152602001908152602001600020600201540110610bfa57600080fd5b5b83604051610c0890610e1a565b80828152602001915050604051809103906000f080158015610c2e573d6000803e3d6000fd5b506004600086815260200190815260200160002060010160006101000a81548173ffffffffffffffffffffffffffffffffffffffff021916908373ffffffffffffffffffffffffffffffffffffffff16021790555043600460008681526020019081526020016000206002018190555060016004600086815260200190815260200160002060030160016101000a81548160ff02191690831515021790555060038490806001815401808255809150509060018203906000526020600020016000909192909190915055507f283c5968de49ef94d0ab89ee73dc06dd00f7f42c07d63d7f2aa9660c16dcc4c7846004600087815260200190815260200160002060010160009054906101000a900473ffffffffffffffffffffffffffffffffffffffff16604051808381526020018273ffffffffffffffffffffffffffffffffffffffff1673ffffffffffffffffffffffffffffffffffffffff1681526020019250505060405180910390a16004600085815260200190815260200160002060010160009054906101000a900473ffffffffffffffffffffffffffffffffffffffff1692505050919050565b60006004600083815260200190815260200160002060010160009054906101000a900473ffffffffffffffffffffffffffffffffffffffff169050919050565b61144480610e288339019056fe6080604052600a600455600a60055534801561001a57600080fd5b506040516114443803806114448339818101604052602081101561003d57600080fd5b8101908080519060200190929190505050336000806101000a81548173ffffffffffffffffffffffffffffffffffffffff021916908373ffffffffffffffffffffffffffffffffffffffff1602179055508060018190555060045443016002819055506005546002540160038190555050611387806100bd6000396000f3fe60806040526004361061011f5760003560e01c80638da5cb5b116100a0578063a7dae90911610064578063a7dae909146107cb578063c5e434d9146107f6578063c8e7b31d14610821578063d57bde791461084c578063d70754ec146108775761011f565b80638da5cb5b146104d7578063900f080a1461052e57806391f901571461071b578063957bb1e014610772578063a6e66477146107a05761011f565b80633ccfd60b116100e75780633ccfd60b14610424578063423b217f1461043b5780634e528de81461046657806386c62a8f14610495578063886a6de1146104ac5761011f565b806301495c1c1461012457806312fa6feb1461019a578063164db64c146101c957806324905986146101f45780632fd7e5dd146103f9575b600080fd5b34801561013057600080fd5b5061017d6004803603604081101561014757600080fd5b81019080803573ffffffffffffffffffffffffffffffffffffffff169060200190929190803590602001909291905050506108a2565b604051808381526020018281526020019250505060405180910390f35b3480156101a657600080fd5b506101af6108e0565b604051808215151515815260200191505060405180910390f35b3480156101d557600080fd5b506101de6108f3565b6040518082815260200191505060405180910390f35b34801561020057600080fd5b506103df6004803603606081101561021757600080fd5b810190808035906020019064010000000081111561023457600080fd5b82018360208201111561024657600080fd5b8035906020019184602083028401116401000000008311171561026857600080fd5b919080806020026020016040519081016040528093929190818152602001838360200280828437600081840152601f19601f820116905080830192505050505050509192919290803590602001906401000000008111156102c857600080fd5b8201836020820111156102da57600080fd5b803590602001918460208302840111640100000000831117156102fc57600080fd5b919080806020026020016040519081016040528093929190818152602001838360200280828437600081840152601f19601f8201169050808301925050505050505091929192908035906020019064010000000081111561035c57600080fd5b82018360208201111561036e57600080fd5b8035906020019184602083028401116401000000008311171561039057600080fd5b919080806020026020016040519081016040528093929190818152602001838360200280828437600081840152601f19601f82011690508083019250505050505050919291929050505061093a565b604051808215151515815260200191505060405180910390f35b34801561040557600080fd5b5061040e610a80565b6040518082815260200191505060405180910390f35b34801561043057600080fd5b50610439610b3a565b005b34801561044757600080fd5b50610450610c17565b6040518082815260200191505060405180910390f35b34801561047257600080fd5b5061047b610c1d565b604051808215151515815260200191505060405180910390f35b3480156104a157600080fd5b506104aa610c30565b005b3480156104b857600080fd5b506104c1610dac565b6040518082815260200191505060405180910390f35b3480156104e357600080fd5b506104ec610db2565b604051808273ffffffffffffffffffffffffffffffffffffffff1673ffffffffffffffffffffffffffffffffffffffff16815260200191505060405180910390f35b34801561053a57600080fd5b506107196004803603606081101561055157600080fd5b810190808035906020019064010000000081111561056e57600080fd5b82018360208201111561058057600080fd5b803590602001918460208302840111640100000000831117156105a257600080fd5b919080806020026020016040519081016040528093929190818152602001838360200280828437600081840152601f19601f8201169050808301925050505050505091929192908035906020019064010000000081111561060257600080fd5b82018360208201111561061457600080fd5b8035906020019184602083028401116401000000008311171561063657600080fd5b919080806020026020016040519081016040528093929190818152602001838360200280828437600081840152601f19601f8201169050808301925050505050505091929192908035906020019064010000000081111561069657600080fd5b8201836020820111156106a857600080fd5b803590602001918460208302840111640100000000831117156106ca57600080fd5b919080806020026020016040519081016040528093929190818152602001838360200280828437600081840152601f19601f820116905080830192505050505050509192919290505050610dd7565b005b34801561072757600080fd5b5061073061105c565b604051808273ffffffffffffffffffffffffffffffffffffffff1673ffffffffffffffffffffffffffffffffffffffff16815260200191505060405180910390f35b61079e6004803603602081101561078857600080fd5b8101908080359060200190929190505050611082565b005b3480156107ac57600080fd5b506107b561112b565b6040518082815260200191505060405180910390f35b3480156107d757600080fd5b506107e0611131565b6040518082815260200191505060405180910390f35b34801561080257600080fd5b5061080b61113b565b6040518082815260200191505060405180910390f35b34801561082d57600080fd5b50610836611182565b6040518082815260200191505060405180910390f35b34801561085857600080fd5b50610861611188565b6040518082815260200191505060405180910390f35b34801561088357600080fd5b5061088c61118e565b6040518082815260200191505060405180910390f35b600860205281600052604060002081815481106108bb57fe5b9060005260206000209060020201600091509150508060000154908060010154905082565b600660009054906101000a900460ff1681565b6000600a60003373ffffffffffffffffffffffffffffffffffffffff1673ffffffffffffffffffffffffffffffffffffffff16815260200190815260200160002054905090565b600080600860003373ffffffffffffffffffffffffffffffffffffffff1673ffffffffffffffffffffffffffffffffffffffff168152602001908152602001600020805490501115610a74578360008151811061099357fe5b6020026020010151836000815181106109a857fe5b6020026020010151836000815181106109bd57fe5b602002602001015160405160200180848152602001831515151560f81b8152600101828152602001935050505060405160208183030381529060405280519060200120600860003373ffffffffffffffffffffffffffffffffffffffff1673ffffffffffffffffffffffffffffffffffffffff168152602001908152602001600020600081548110610a4b57fe5b90600052602060002090600202016000015414610a6b5760009050610a79565b60019050610a79565b600090505b9392505050565b600080600860003373ffffffffffffffffffffffffffffffffffffffff1673ffffffffffffffffffffffffffffffffffffffff168152602001908152602001600020805490501115610b3057600860003373ffffffffffffffffffffffffffffffffffffffff1673ffffffffffffffffffffffffffffffffffffffff168152602001908152602001600020600081548110610b1757fe5b9060005260206000209060020201600101549050610b37565b62010f2c90505b90565b6000600960003373ffffffffffffffffffffffffffffffffffffffff1673ffffffffffffffffffffffffffffffffffffffff1681526020019081526020016000205490506000811115610c14576000600960003373ffffffffffffffffffffffffffffffffffffffff1673ffffffffffffffffffffffffffffffffffffffff168152602001908152602001600020819055503373ffffffffffffffffffffffffffffffffffffffff166108fc829081150290604051600060405180830381858888f19350505050158015610c12573d6000803e3d6000fd5b505b50565b60025481565b600660019054906101000a900460ff1681565b600354804311610c3f57600080fd5b600660029054906101000a900473ffffffffffffffffffffffffffffffffffffffff1673ffffffffffffffffffffffffffffffffffffffff163373ffffffffffffffffffffffffffffffffffffffff1614610c9957600080fd5b60001515600660019054906101000a900460ff16151514610cb957600080fd5b6001600660016101000a81548160ff02191690831515021790555060008060009054906101000a900473ffffffffffffffffffffffffffffffffffffffff1690508073ffffffffffffffffffffffffffffffffffffffff16639daf9044600754600154336007546040518563ffffffff1660e01b8152600401808481526020018373ffffffffffffffffffffffffffffffffffffffff1673ffffffffffffffffffffffffffffffffffffffff16815260200182815260200193505050506000604051808303818588803b158015610d8f57600080fd5b505af1158015610da3573d6000803e3d6000fd5b50505050505050565b60055481565b6000809054906101000a900473ffffffffffffffffffffffffffffffffffffffff1681565b600254804311610de657600080fd5b600354804310610df557600080fd5b6000600860003373ffffffffffffffffffffffffffffffffffffffff1673ffffffffffffffffffffffffffffffffffffffff16815260200190815260200160002080549050905080865114610e4957600080fd5b80855114610e5657600080fd5b80845114610e6357600080fd5b600080905060008090505b82811015610fbe576000600860003373ffffffffffffffffffffffffffffffffffffffff1673ffffffffffffffffffffffffffffffffffffffff1681526020019081526020016000208281548110610ec257fe5b9060005260206000209060020201905060008060008b8581518110610ee357fe5b60200260200101518b8681518110610ef757fe5b60200260200101518b8781518110610f0b57fe5b602002602001015192509250925082828260405160200180848152602001831515151560f81b8152600101828152602001935050505060405160208183030381529060405280519060200120846000015414610f6a5750505050610fb1565b83600101548601955081158015610f85575082846001015410155b15610fa057610f943384611194565b15610f9f5782860395505b5b6000801b8460000181905550505050505b8080600101915050610e6e565b503373ffffffffffffffffffffffffffffffffffffffff166108fc829081150290604051600060405180830381858888f19350505050158015611005573d6000803e3d6000fd5b5080600a60003373ffffffffffffffffffffffffffffffffffffffff1673ffffffffffffffffffffffffffffffffffffffff1681526020019081526020016000206000828254019250508190555050505050505050565b600660029054906101000a900473ffffffffffffffffffffffffffffffffffffffff1681565b60025480431061109157600080fd5b600860003373ffffffffffffffffffffffffffffffffffffffff1673ffffffffffffffffffffffffffffffffffffffff1681526020019081526020016000206040518060400160405280848152602001348152509080600181540180825580915050906001820390600052602060002090600202016000909192909190915060008201518160000155602082015181600101555050505050565b60035481565b6000600754905090565b6000600960003373ffffffffffffffffffffffffffffffffffffffff1673ffffffffffffffffffffffffffffffffffffffff16815260200190815260200160002054905090565b60045481565b60075481565b60015481565b600060075482116111a8576000905061134c565b600073ffffffffffffffffffffffffffffffffffffffff16600660029054906101000a900473ffffffffffffffffffffffffffffffffffffffff1673ffffffffffffffffffffffffffffffffffffffff16146112705760075460096000600660029054906101000a900473ffffffffffffffffffffffffffffffffffffffff1673ffffffffffffffffffffffffffffffffffffffff1673ffffffffffffffffffffffffffffffffffffffff168152602001908152602001600020600082825401925050819055505b8160078190555082600660026101000a81548173ffffffffffffffffffffffffffffffffffffffff021916908373ffffffffffffffffffffffffffffffffffffffff1602179055507fb82fefdc651ee0dc2a48092a0a107978c235739dfbc58b8f52a11e939ea2d750600660029054906101000a900473ffffffffffffffffffffffffffffffffffffffff16600754604051808373ffffffffffffffffffffffffffffffffffffffff1673ffffffffffffffffffffffffffffffffffffffff1681526020018281526020019250505060405180910390a1600190505b9291505056fea265627a7a723158205e2c7d247a062b9d810e17d82d56b5b914cc290d2a45b02d45c93045cba22c8b64736f6c6343000510003254686520646f6d61696e20697320616c726561647920726567697374657265642ea265627a7a7231582090a5b5bbdda69ab203d64aba8176b5694047987f1c10a48122f7d74bdcf7682064736f6c63430005100032",
  "source": "// SPDX-License-Identifier: GPL-3.0\r\npragma solidity ^0.5.16;\r\nimport './BlindAuction.sol';\r\n\r\ncontract DomainRegistry {\r\n\r\n    struct Record {\r\n        address owner;\r\n        address auctionAddress;\r\n        uint auctionStartBlock;\r\n        bool registered;\r\n        bool hasAuctionBefore;\r\n    }\r\n\r\n    //static variables\r\n    uint durationOfAuction = 50; //if after 50 blocks there is no claimant, the auction is voided\r\n    address public owner;\r\n    bytes32[] registeredDomains;\r\n    bytes32[] currentAuctions; \r\n\r\n\r\n    // add list of current auctions\r\n\r\n    //mappings\r\n    mapping(bytes32=>Record) records;\r\n\r\n    //events\r\n    // should this event also give the string form of the domain?\r\n    event NewAuctionStarted(bytes32 node, address auctionAddress);\r\n    event NewDomainClaimed(bytes32 node, address newOwner, uint highestBid);\r\n    event RecordsUpdate();\r\n\r\n    // modifiers\r\n    modifier validAuctionContract(bytes32 node) {\r\n        //the auction contract for that node sent the msg\r\n        require(records[node].auctionAddress == msg.sender);\r\n        // the auction has not \"ended\" yet, still valid period for claiming domain\r\n        require(records[node].auctionStartBlock + durationOfAuction > block.number);\r\n        _;\r\n    }\r\n\r\n    modifier onlyUnregisteredDomain(bytes32 node) {\r\n        require(records[node].registered == false,\r\n                \"The domain is already registered.\");\r\n        _;\r\n    }\r\n\r\n    modifier noOngoingAuction(bytes32 node) {\r\n        //the last auction (if any) has ended, and a reasonable amount of time has been given to claim domain\r\n        if (records[node].hasAuctionBefore == true) {\r\n            require(records[node].auctionStartBlock + durationOfAuction < block.number);\r\n        }\r\n        _;\r\n    }\r\n\r\n    //constructor\r\n    constructor() public {\r\n        owner = msg.sender;\r\n    }\r\n\r\n    // check if domain is registered already\r\n    function checkIfRegistered(bytes32 node) \r\n        public\r\n        view\r\n        returns (bool) \r\n    {\r\n        if(records[node].owner == address(0)) {\r\n            return false;\r\n        } else {\r\n            return true;\r\n        }\r\n    }\r\n\r\n    function registerOwner(bytes32 node, address newOwner, uint highestBid)\r\n        public\r\n        payable\r\n        validAuctionContract(node)\r\n    {\r\n        records[node].owner = newOwner;\r\n        records[node].registered = true;\r\n        registeredDomains.push(node);\r\n        // update currentAuctions\r\n        for (uint i=0; i<currentAuctions.length; i++) {\r\n            if (currentAuctions[i] == node) {\r\n                currentAuctions[i] = currentAuctions[currentAuctions.length-2];\r\n                delete currentAuctions[currentAuctions.length-1];\r\n                break;\r\n            }\r\n        }\r\n\r\n        emit NewDomainClaimed(node, newOwner, highestBid);\r\n    }\r\n\r\n    function startAuction(bytes32 node)\r\n        public\r\n        onlyUnregisteredDomain(node)\r\n        noOngoingAuction(node)\r\n        returns (address auctionAddress)\r\n    {\r\n        records[node].auctionAddress = address(new BlindAuction(node));\r\n        records[node].auctionStartBlock = block.number;\r\n        records[node].hasAuctionBefore = true;\r\n        currentAuctions.push(node);\r\n        emit NewAuctionStarted(node, records[node].auctionAddress);\r\n\r\n        return records[node].auctionAddress;\r\n    }\r\n\r\n    //------------------------------------------------------------------------------\r\n    //website functions\r\n    //I think these functions are very inefficient, maybe can redo\r\n\r\n    // get current auction addresses and their nodes\r\n    // also checks if the auctions in the list have expired.\r\n    function getCurrentAuctions() public returns (bytes32[] memory, address[] memory) {\r\n        bytes32[] memory nodes;\r\n        address[] memory auctionAddresses;\r\n\r\n        for (uint i=0; i<currentAuctions.length; i++) {\r\n            if (records[currentAuctions[i]].auctionStartBlock + durationOfAuction > block.number) {\r\n                currentAuctions[i] = currentAuctions[currentAuctions.length-2];\r\n                delete currentAuctions[currentAuctions.length-1];\r\n                break;\r\n            }\r\n            nodes[i] = (currentAuctions[i]);\r\n            auctionAddresses[i] = (records[currentAuctions[i]].auctionAddress);\r\n        }\r\n\r\n        return (nodes, auctionAddresses);\r\n    }\r\n\r\n    // gets registered domains and their owner addresses\r\n    function getRegisteredDomains() public view returns (bytes32[] memory, address[] memory) {\r\n        bytes32[] memory nodes;\r\n        address[] memory ownerAddresses;\r\n\r\n        for (uint i=0; i<registeredDomains.length; i++) {\r\n            nodes[i] = registeredDomains[i];\r\n            ownerAddresses[i] = records[registeredDomains[i]].owner;\r\n        }\r\n        return (nodes, ownerAddresses);\r\n    }\r\n\r\n\r\n// ----------------------------------------------------------------------------------\r\n// debug helper functions\r\n\r\n    function viewAuctionAddress(bytes32 node) public view returns (address)\r\n    {\r\n        return records[node].auctionAddress;\r\n    }\r\n\r\n    function viewThisAddress() public view returns (address)\r\n    {\r\n        return address(this);\r\n    }\r\n\r\n    function viewRecordOwner(bytes32 node) public view returns (address)\r\n    {\r\n        return records[node].owner;\r\n    }\r\n\r\n    function viewRegistration(bytes32 node) public view returns (bool)\r\n    {\r\n        return records[node].registered;\r\n    }\r\n\r\n\r\n}",
  "sourcePath": "C:\\Users\\kai\\OneDrive - Nanyang Technological University\\Work\\2020\\2020-2021 Sem 1\\Blockchain Technology\\devproj\\repo\\contracts\\DomainRegistry.sol",
  "compiler": {
    "name": "solc",
    "version": "0.5.16+commit.9c3226ce.Emscripten.clang"
  },
  "schemaVersion": "3.3.1",
  "updatedAt": "2020-10-28T02:46:40.668Z",
  "networkType": "ethereum",
  "devdoc": {
    "methods": {}
  },
  "userdoc": {
    "methods": {}
  }
}