{
  "contractName": "DomainRegistry",
  "abi": [
    {
      "inputs": [],
      "stateMutability": "nonpayable",
      "type": "constructor"
    },
    {
      "anonymous": false,
      "inputs": [
        {
          "indexed": false,
          "internalType": "string",
          "name": "node",
          "type": "string"
        },
        {
          "indexed": false,
          "internalType": "address",
          "name": "auctionAddress",
          "type": "address"
        }
      ],
      "name": "NewAuctionStarted",
      "type": "event"
    },
    {
      "anonymous": false,
      "inputs": [
        {
          "indexed": false,
          "internalType": "string",
          "name": "node",
          "type": "string"
        },
        {
          "indexed": false,
          "internalType": "address",
          "name": "newOwner",
          "type": "address"
        },
        {
          "indexed": false,
          "internalType": "uint256",
          "name": "highestBid",
          "type": "uint256"
        }
      ],
      "name": "NewDomainClaimed",
      "type": "event"
    },
    {
      "anonymous": false,
      "inputs": [
        {
          "indexed": false,
          "internalType": "address",
          "name": "winner",
          "type": "address"
        },
        {
          "indexed": false,
          "internalType": "uint256",
          "name": "highestBid",
          "type": "uint256"
        }
      ],
      "name": "PotentialWinnerFound",
      "type": "event"
    },
    {
      "inputs": [],
      "name": "owner",
      "outputs": [
        {
          "internalType": "address",
          "name": "",
          "type": "address"
        }
      ],
      "stateMutability": "view",
      "type": "function",
      "constant": true
    },
    {
      "inputs": [
        {
          "internalType": "string",
          "name": "node",
          "type": "string"
        }
      ],
      "name": "checkIfRegistered",
      "outputs": [
        {
          "internalType": "bool",
          "name": "",
          "type": "bool"
        }
      ],
      "stateMutability": "view",
      "type": "function",
      "constant": true
    },
    {
      "inputs": [
        {
          "internalType": "string",
          "name": "node",
          "type": "string"
        },
        {
          "internalType": "address",
          "name": "newOwner",
          "type": "address"
        },
        {
          "internalType": "uint256",
          "name": "highestBid",
          "type": "uint256"
        }
      ],
      "name": "registerOwner",
      "outputs": [],
      "stateMutability": "payable",
      "type": "function",
      "payable": true
    },
    {
      "inputs": [
        {
          "internalType": "string",
          "name": "node",
          "type": "string"
        }
      ],
      "name": "startAuction",
      "outputs": [
        {
          "internalType": "address",
          "name": "auctionAddress",
          "type": "address"
        }
      ],
      "stateMutability": "nonpayable",
      "type": "function"
    },
    {
      "inputs": [],
      "name": "updateCurrentAuctions",
      "outputs": [],
      "stateMutability": "nonpayable",
      "type": "function"
    },
    {
      "inputs": [],
      "name": "getCurrentAuctions",
      "outputs": [
        {
          "internalType": "string[]",
          "name": "",
          "type": "string[]"
        },
        {
          "internalType": "address[]",
          "name": "",
          "type": "address[]"
        }
      ],
      "stateMutability": "view",
      "type": "function",
      "constant": true
    },
    {
      "inputs": [],
      "name": "getRegisteredDomains",
      "outputs": [
        {
          "internalType": "string[]",
          "name": "",
          "type": "string[]"
        },
        {
          "internalType": "address[]",
          "name": "",
          "type": "address[]"
        }
      ],
      "stateMutability": "view",
      "type": "function",
      "constant": true
    },
    {
      "inputs": [
        {
          "internalType": "string",
          "name": "domain",
          "type": "string"
        }
      ],
      "name": "resolveDomain",
      "outputs": [
        {
          "internalType": "address",
          "name": "",
          "type": "address"
        }
      ],
      "stateMutability": "view",
      "type": "function",
      "constant": true
    },
    {
      "inputs": [
        {
          "internalType": "string",
          "name": "node",
          "type": "string"
        }
      ],
      "name": "viewAuctionAddress",
      "outputs": [
        {
          "internalType": "address",
          "name": "",
          "type": "address"
        }
      ],
      "stateMutability": "view",
      "type": "function",
      "constant": true
    },
    {
      "inputs": [],
      "name": "viewThisAddress",
      "outputs": [
        {
          "internalType": "address",
          "name": "",
          "type": "address"
        }
      ],
      "stateMutability": "view",
      "type": "function",
      "constant": true
    },
    {
      "inputs": [
        {
          "internalType": "string",
          "name": "node",
          "type": "string"
        }
      ],
      "name": "viewRecordOwner",
      "outputs": [
        {
          "internalType": "address",
          "name": "",
          "type": "address"
        }
      ],
      "stateMutability": "view",
      "type": "function",
      "constant": true
    },
    {
      "inputs": [
        {
          "internalType": "string",
          "name": "node",
          "type": "string"
        }
      ],
      "name": "viewRegistration",
      "outputs": [
        {
          "internalType": "bool",
          "name": "",
          "type": "bool"
        }
      ],
      "stateMutability": "view",
      "type": "function",
      "constant": true
    },
    {
      "inputs": [
        {
          "internalType": "address",
          "name": "winner",
          "type": "address"
        },
        {
          "internalType": "uint256",
          "name": "value",
          "type": "uint256"
        }
      ],
      "name": "emitPotentialWinner",
      "outputs": [],
      "stateMutability": "nonpayable",
      "type": "function"
    }
  ],
  "bytecode": "0x6080604052600660005534801561001557600080fd5b5033600160006101000a81548173ffffffffffffffffffffffffffffffffffffffff021916908373ffffffffffffffffffffffffffffffffffffffff16021790555061366e806100666000396000f3fe608060405260043610620000d35760003560e01c806380d2ec86116200008b578063bcef69f21162000061578063bcef69f2146200028a578063c33282d314620002ce578063e802d98f1462000312578063ecf50fe2146200035657620000d3565b806380d2ec8614620001fb5780638da5cb5b146200022c578063a7181ae3146200025c57620000d3565b8062de3c8b14620000d8578063364460f314620000f257806356d36ae114620001365780635be53e7414620001565780635f7a6666146200018757806373dc756c14620001b7575b600080fd5b348015620000e557600080fd5b50620000f06200039a565b005b348015620000ff57600080fd5b506200011e600480360362000118919081019062001556565b620005a2565b6040516200012d919062001956565b60405180910390f35b6200015460048036036200014e91908101906200159b565b62000673565b005b3480156200016357600080fd5b506200016e620009a3565b6040516200017e929190620019a0565b60405180910390f35b3480156200019457600080fd5b506200019f62000bbe565b604051620001ae919062001956565b60405180910390f35b348015620001c457600080fd5b50620001e36004803603620001dd919081019062001556565b62000bc6565b604051620001f2919062001956565b60405180910390f35b3480156200020857600080fd5b506200021362000ebe565b60405162000223929190620019a0565b60405180910390f35b3480156200023957600080fd5b5062000244620010d9565b60405162000253919062001956565b60405180910390f35b3480156200026957600080fd5b5062000288600480360362000282919081019062001515565b620010ff565b005b3480156200029757600080fd5b50620002b66004803603620002b0919081019062001556565b6200113e565b604051620002c59190620019db565b60405180910390f35b348015620002db57600080fd5b50620002fa6004803603620002f4919081019062001556565b62001178565b604051620003099190620019db565b60405180910390f35b3480156200031f57600080fd5b506200033e600480360362000338919081019062001556565b62001206565b6040516200034d919062001956565b60405180910390f35b3480156200036357600080fd5b506200038260048036036200037c919081019062001556565b62001253565b60405162000391919062001956565b60405180910390f35b6060600380549050604051908082528060200260200182016040528015620003d757816020015b6060815260200190600190039081620003c15790505b50905060008060009050600091505b6003805490508210156200051f57436000546004600385815481106200040857fe5b906000526020600020016040516200042191906200193d565b9081526020016040518091039020600201540111156200051157600382815481106200044957fe5b906000526020600020018054600181600116156101000203166002900480601f016020809104026020016040519081016040528092919081815260200182805460018160011615610100020316600290048015620004eb5780601f10620004bf57610100808354040283529160200191620004eb565b820191906000526020600020905b815481529060010190602001808311620004cd57829003601f168201915b5050505050838281518110620004fd57fe5b602002602001018190525080806001019150505b8180600101925050620003e6565b600360006200052f9190620012a0565b600091505b808210156200059d5760038383815181106200054c57fe5b60200260200101519080600181540180825580915050600190039060005260206000200160009091909190915090805190602001906200058e929190620012c3565b50818060010192505062000534565b505050565b6000600482604051620005b6919062001924565b908152602001604051809103902060030160009054906101000a900460ff16156200062757600482604051620005ed919062001924565b908152602001604051809103902060000160009054906101000a900473ffffffffffffffffffffffffffffffffffffffff1690506200066e565b60048260405162000639919062001924565b908152602001604051809103902060010160009054906101000a900473ffffffffffffffffffffffffffffffffffffffff1690505b919050565b823373ffffffffffffffffffffffffffffffffffffffff166004826040516200069d919062001924565b908152602001604051809103902060010160009054906101000a900473ffffffffffffffffffffffffffffffffffffffff1673ffffffffffffffffffffffffffffffffffffffff1614620006f057600080fd5b4360005460048360405162000706919062001924565b90815260200160405180910390206002015401116200072457600080fd5b8260048560405162000737919062001924565b908152602001604051809103902060000160006101000a81548173ffffffffffffffffffffffffffffffffffffffff021916908373ffffffffffffffffffffffffffffffffffffffff16021790555060016004856040516200079a919062001924565b908152602001604051809103902060030160006101000a81548160ff021916908315150217905550600284908060018154018082558091505060019003906000526020600020016000909190919091509080519060200190620007ff929190620012c3565b506000809050600090505b6003805490508110156200095f57846040516020016200082b919062001924565b60405160208183030381529060405280519060200120600382815481106200084f57fe5b906000526020600020016040516020016200086b91906200193d565b604051602081830303815290604052805190602001201415620009515760016003805490501415620008c35760038181548110620008a557fe5b906000526020600020016000620008bd91906200134a565b6200095f565b600360016003805490500381548110620008d957fe5b9060005260206000200160038281548110620008f157fe5b9060005260206000200190805460018160011615610100020316600290046200091c92919062001396565b506003600160038054905003815481106200093357fe5b9060005260206000200160006200094b91906200134a565b6200095f565b80806001019150506200080a565b7f12e0c0afd0cb01b210bc575b477c58890f065eb1d9793fa291726d0bca3daea6858585604051620009949392919062001a50565b60405180910390a15050505050565b6060806060600380549050604051908082528060200260200182016040528015620009e357816020015b6060815260200190600190039081620009cd5790505b509050606060038054905060405190808252806020026020018201604052801562000a1d5781602001602082028038833980820191505090505b50905060008090505b60038054905081101562000bb1576003818154811062000a4257fe5b906000526020600020018054600181600116156101000203166002900480601f01602080910402602001604051908101604052809291908181526020018280546001816001161561010002031660029004801562000ae45780601f1062000ab85761010080835404028352916020019162000ae4565b820191906000526020600020905b81548152906001019060200180831162000ac657829003601f168201915b505050505083828151811062000af657fe5b602002602001018190525060046003828154811062000b1157fe5b9060005260206000200160405162000b2a91906200193d565b908152602001604051809103902060010160009054906101000a900473ffffffffffffffffffffffffffffffffffffffff1682828151811062000b6957fe5b602002602001019073ffffffffffffffffffffffffffffffffffffffff16908173ffffffffffffffffffffffffffffffffffffffff1681525050808060010191505062000a26565b5081819350935050509091565b600030905090565b6000816000151560048260405162000bdf919062001924565b908152602001604051809103902060030160009054906101000a900460ff1615151462000c43576040517f08c379a000000000000000000000000000000000000000000000000000000000815260040162000c3a9062001a94565b60405180910390fd5b826001151560048260405162000c5a919062001924565b908152602001604051809103902060030160019054906101000a900460ff161515141562000cb7574360005460048360405162000c98919062001924565b908152602001604051809103902060020154011062000cb657600080fd5b5b8360405162000cc69062001424565b62000cd29190620019f8565b604051809103906000f08015801562000cef573d6000803e3d6000fd5b5060048560405162000d02919062001924565b908152602001604051809103902060010160006101000a81548173ffffffffffffffffffffffffffffffffffffffff021916908373ffffffffffffffffffffffffffffffffffffffff1602179055504360048560405162000d64919062001924565b908152602001604051809103902060020181905550600160048560405162000d8d919062001924565b908152602001604051809103902060030160016101000a81548160ff02191690831515021790555060038490806001815401808255809150506001900390600052602060002001600090919091909150908051906020019062000df2929190620012c3565b507fd5d802d6a6ebd6a3147d5b04374599939cbbfa28bee645c79651c0e10fe7e6d08460048660405162000e27919062001924565b908152602001604051809103902060010160009054906101000a900473ffffffffffffffffffffffffffffffffffffffff1660405162000e6992919062001a1c565b60405180910390a160048460405162000e83919062001924565b908152602001604051809103902060010160009054906101000a900473ffffffffffffffffffffffffffffffffffffffff1692505050919050565b606080606060028054905060405190808252806020026020018201604052801562000efe57816020015b606081526020019060019003908162000ee85790505b509050606060028054905060405190808252806020026020018201604052801562000f385781602001602082028038833980820191505090505b50905060008090505b600280549050811015620010cc576002818154811062000f5d57fe5b906000526020600020018054600181600116156101000203166002900480601f01602080910402602001604051908101604052809291908181526020018280546001816001161561010002031660029004801562000fff5780601f1062000fd35761010080835404028352916020019162000fff565b820191906000526020600020905b81548152906001019060200180831162000fe157829003601f168201915b50505050508382815181106200101157fe5b60200260200101819052506004600282815481106200102c57fe5b906000526020600020016040516200104591906200193d565b908152602001604051809103902060000160009054906101000a900473ffffffffffffffffffffffffffffffffffffffff168282815181106200108457fe5b602002602001019073ffffffffffffffffffffffffffffffffffffffff16908173ffffffffffffffffffffffffffffffffffffffff1681525050808060010191505062000f41565b5081819350935050509091565b600160009054906101000a900473ffffffffffffffffffffffffffffffffffffffff1681565b7fb82fefdc651ee0dc2a48092a0a107978c235739dfbc58b8f52a11e939ea2d75082826040516200113292919062001973565b60405180910390a15050565b600060048260405162001152919062001924565b908152602001604051809103902060030160009054906101000a900460ff169050919050565b60008073ffffffffffffffffffffffffffffffffffffffff16600483604051620011a3919062001924565b908152602001604051809103902060000160009054906101000a900473ffffffffffffffffffffffffffffffffffffffff1673ffffffffffffffffffffffffffffffffffffffff161415620011fc576000905062001201565b600190505b919050565b60006004826040516200121a919062001924565b908152602001604051809103902060000160009054906101000a900473ffffffffffffffffffffffffffffffffffffffff169050919050565b600060048260405162001267919062001924565b908152602001604051809103902060010160009054906101000a900473ffffffffffffffffffffffffffffffffffffffff169050919050565b5080546000825590600052602060002090810190620012c0919062001432565b50565b828054600181600116156101000203166002900490600052602060002090601f016020900481019282601f106200130657805160ff191683800117855562001337565b8280016001018555821562001337579182015b828111156200133657825182559160200191906001019062001319565b5b50905062001346919062001463565b5090565b50805460018160011615610100020316600290046000825580601f1062001372575062001393565b601f01602090049060005260206000209081019062001392919062001463565b5b50565b828054600181600116156101000203166002900490600052602060002090601f016020900481019282601f10620013d1578054855562001411565b828001600101855582156200141157600052602060002091601f016020900482015b8281111562001410578254825591600101919060010190620013f3565b5b50905062001420919062001463565b5090565b6119898062001cb083390190565b6200146091905b808211156200145c57600081816200145291906200134a565b5060010162001439565b5090565b90565b6200148891905b80821115620014845760008160009055506001016200146a565b5090565b90565b6000813590506200149c8162001c7b565b92915050565b600082601f830112620014b457600080fd5b8135620014cb620014c58262001ae4565b62001ab6565b91508082526020830160208301858383011115620014e857600080fd5b620014f583828462001c25565b50505092915050565b6000813590506200150f8162001c95565b92915050565b600080604083850312156200152957600080fd5b600062001539858286016200148b565b92505060206200154c85828601620014fe565b9150509250929050565b6000602082840312156200156957600080fd5b600082013567ffffffffffffffff8111156200158457600080fd5b6200159284828501620014a2565b91505092915050565b600080600060608486031215620015b157600080fd5b600084013567ffffffffffffffff811115620015cc57600080fd5b620015da86828701620014a2565b9350506020620015ed868287016200148b565b92505060406200160086828701620014fe565b9150509250925092565b60006200161883836200163a565b60208301905092915050565b6000620016328383620017d0565b905092915050565b620016458162001bdb565b82525050565b620016568162001bdb565b82525050565b6000620016698262001b46565b62001675818562001b8c565b9350620016828362001b11565b8060005b83811015620016b95781516200169d88826200160a565b9750620016aa8362001b72565b92505060018101905062001686565b5085935050505092915050565b6000620016d38262001b51565b620016df818562001b9d565b935083602082028501620016f38562001b21565b8060005b8581101562001735578484038952815162001713858262001624565b9450620017208362001b7f565b925060208a01995050600181019050620016f7565b50829750879550505050505092915050565b620017528162001bef565b82525050565b6000620017658262001b67565b62001771818562001bbf565b93506200178381856020860162001c34565b6200178e8162001c6a565b840191505092915050565b6000620017a68262001b67565b620017b2818562001bd0565b9350620017c481856020860162001c34565b80840191505092915050565b6000620017dd8262001b5c565b620017e9818562001bae565b9350620017fb81856020860162001c34565b620018068162001c6a565b840191505092915050565b6000815460018116600081146200183157600181146200185957620018a3565b607f600283041662001844818762001bd0565b955060ff1983168652808601935050620018a3565b6002820462001869818762001bd0565b9550620018768562001b31565b60005b828110156200189a5781548189015260018201915060208101905062001879565b82880195505050505b505092915050565b6000620018ba60218362001bbf565b91507f54686520646f6d61696e20697320616c7265616479207265676973746572656460008301527f2e000000000000000000000000000000000000000000000000000000000000006020830152604082019050919050565b6200191e8162001c1b565b82525050565b600062001932828462001799565b915081905092915050565b60006200194b828462001811565b915081905092915050565b60006020820190506200196d60008301846200164b565b92915050565b60006040820190506200198a60008301856200164b565b62001999602083018462001913565b9392505050565b60006040820190508181036000830152620019bc8185620016c6565b90508181036020830152620019d281846200165c565b90509392505050565b6000602082019050620019f2600083018462001747565b92915050565b6000602082019050818103600083015262001a14818462001758565b905092915050565b6000604082019050818103600083015262001a38818562001758565b905062001a4960208301846200164b565b9392505050565b6000606082019050818103600083015262001a6c818662001758565b905062001a7d60208301856200164b565b62001a8c604083018462001913565b949350505050565b6000602082019050818103600083015262001aaf81620018ab565b9050919050565b6000604051905081810181811067ffffffffffffffff8211171562001ada57600080fd5b8060405250919050565b600067ffffffffffffffff82111562001afc57600080fd5b601f19601f8301169050602081019050919050565b6000819050602082019050919050565b6000819050602082019050919050565b60008190508160005260206000209050919050565b600081519050919050565b600081519050919050565b600081519050919050565b600081519050919050565b6000602082019050919050565b6000602082019050919050565b600082825260208201905092915050565b600082825260208201905092915050565b600082825260208201905092915050565b600082825260208201905092915050565b600081905092915050565b600062001be88262001bfb565b9050919050565b60008115159050919050565b600073ffffffffffffffffffffffffffffffffffffffff82169050919050565b6000819050919050565b82818337600083830152505050565b60005b8381101562001c5457808201518184015260208101905062001c37565b8381111562001c64576000848401525b50505050565b6000601f19601f8301169050919050565b62001c868162001bdb565b811462001c9257600080fd5b50565b62001ca08162001c1b565b811462001cac57600080fd5b5056fe6080604052600260045560026005553480156200001b57600080fd5b506040516200198938038062001989833981810160405260208110156200004157600080fd5b81019080805160405193929190846401000000008211156200006257600080fd5b838201915060208201858111156200007957600080fd5b82518660018202830111640100000000821117156200009757600080fd5b8083526020830192505050908051906020019080838360005b83811015620000cd578082015181840152602081019050620000b0565b50505050905090810190601f168015620000fb5780820380516001836020036101000a031916815260200191505b50604052505050336000806101000a81548173ffffffffffffffffffffffffffffffffffffffff021916908373ffffffffffffffffffffffffffffffffffffffff16021790555080600190805190602001906200015a9291906200017a565b506004544301600281905550600554600254016003819055505062000229565b828054600181600116156101000203166002900490600052602060002090601f016020900481019282601f10620001bd57805160ff1916838001178555620001ee565b82800160010185558215620001ee579182015b82811115620001ed578251825591602001919060010190620001d0565b5b509050620001fd919062000201565b5090565b6200022691905b808211156200022257600081600090555060010162000208565b5090565b90565b61175080620002396000396000f3fe60806040526004361061012a5760003560e01c80638da5cb5b116100ab578063a7dae9091161006f578063a7dae909146107d6578063c5e434d914610801578063c8e7b31d1461082c578063d57bde7914610857578063d70754ec14610882578063fcaa7664146109125761012a565b80638da5cb5b146104e2578063900f080a1461053957806391f9015714610726578063957bb1e01461077d578063a6e66477146107ab5761012a565b80633ccfd60b116100f25780633ccfd60b1461042f578063423b217f146104465780634e528de81461047157806386c62a8f146104a0578063886a6de1146104b75761012a565b806301495c1c1461012f57806312fa6feb146101a5578063164db64c146101d457806324905986146101ff5780632fd7e5dd14610404575b600080fd5b34801561013b57600080fd5b506101886004803603604081101561015257600080fd5b81019080803573ffffffffffffffffffffffffffffffffffffffff169060200190929190803590602001909291905050506109a2565b604051808381526020018281526020019250505060405180910390f35b3480156101b157600080fd5b506101ba6109e0565b604051808215151515815260200191505060405180910390f35b3480156101e057600080fd5b506101e96109f3565b6040518082815260200191505060405180910390f35b34801561020b57600080fd5b506103ea6004803603606081101561022257600080fd5b810190808035906020019064010000000081111561023f57600080fd5b82018360208201111561025157600080fd5b8035906020019184602083028401116401000000008311171561027357600080fd5b919080806020026020016040519081016040528093929190818152602001838360200280828437600081840152601f19601f820116905080830192505050505050509192919290803590602001906401000000008111156102d357600080fd5b8201836020820111156102e557600080fd5b8035906020019184602083028401116401000000008311171561030757600080fd5b919080806020026020016040519081016040528093929190818152602001838360200280828437600081840152601f19601f8201169050808301925050505050505091929192908035906020019064010000000081111561036757600080fd5b82018360208201111561037957600080fd5b8035906020019184602083028401116401000000008311171561039b57600080fd5b919080806020026020016040519081016040528093929190818152602001838360200280828437600081840152601f19601f820116905080830192505050505050509192919290505050610a3a565b604051808215151515815260200191505060405180910390f35b34801561041057600080fd5b50610419610b80565b6040518082815260200191505060405180910390f35b34801561043b57600080fd5b50610444610c3a565b005b34801561045257600080fd5b5061045b610d17565b6040518082815260200191505060405180910390f35b34801561047d57600080fd5b50610486610d1d565b604051808215151515815260200191505060405180910390f35b3480156104ac57600080fd5b506104b5610d30565b005b3480156104c357600080fd5b506104cc610f2d565b6040518082815260200191505060405180910390f35b3480156104ee57600080fd5b506104f7610f33565b604051808273ffffffffffffffffffffffffffffffffffffffff1673ffffffffffffffffffffffffffffffffffffffff16815260200191505060405180910390f35b34801561054557600080fd5b506107246004803603606081101561055c57600080fd5b810190808035906020019064010000000081111561057957600080fd5b82018360208201111561058b57600080fd5b803590602001918460208302840111640100000000831117156105ad57600080fd5b919080806020026020016040519081016040528093929190818152602001838360200280828437600081840152601f19601f8201169050808301925050505050505091929192908035906020019064010000000081111561060d57600080fd5b82018360208201111561061f57600080fd5b8035906020019184602083028401116401000000008311171561064157600080fd5b919080806020026020016040519081016040528093929190818152602001838360200280828437600081840152601f19601f820116905080830192505050505050509192919290803590602001906401000000008111156106a157600080fd5b8201836020820111156106b357600080fd5b803590602001918460208302840111640100000000831117156106d557600080fd5b919080806020026020016040519081016040528093929190818152602001838360200280828437600081840152601f19601f820116905080830192505050505050509192919290505050610f58565b005b34801561073257600080fd5b5061073b6111de565b604051808273ffffffffffffffffffffffffffffffffffffffff1673ffffffffffffffffffffffffffffffffffffffff16815260200191505060405180910390f35b6107a96004803603602081101561079357600080fd5b8101908080359060200190929190505050611204565b005b3480156107b757600080fd5b506107c06112ab565b6040518082815260200191505060405180910390f35b3480156107e257600080fd5b506107eb6112b1565b6040518082815260200191505060405180910390f35b34801561080d57600080fd5b506108166112bb565b6040518082815260200191505060405180910390f35b34801561083857600080fd5b50610841611302565b6040518082815260200191505060405180910390f35b34801561086357600080fd5b5061086c611308565b6040518082815260200191505060405180910390f35b34801561088e57600080fd5b5061089761130e565b6040518080602001828103825283818151815260200191508051906020019080838360005b838110156108d75780820151818401526020810190506108bc565b50505050905090810190601f1680156109045780820380516001836020036101000a031916815260200191505b509250505060405180910390f35b34801561091e57600080fd5b506109276113ac565b6040518080602001828103825283818151815260200191508051906020019080838360005b8381101561096757808201518184015260208101905061094c565b50505050905090810190601f1680156109945780820380516001836020036101000a031916815260200191505b509250505060405180910390f35b600860205281600052604060002081815481106109bb57fe5b9060005260206000209060020201600091509150508060000154908060010154905082565b600660009054906101000a900460ff1681565b6000600a60003373ffffffffffffffffffffffffffffffffffffffff1673ffffffffffffffffffffffffffffffffffffffff16815260200190815260200160002054905090565b600080600860003373ffffffffffffffffffffffffffffffffffffffff1673ffffffffffffffffffffffffffffffffffffffff168152602001908152602001600020805490501115610b745783600081518110610a9357fe5b602002602001015183600081518110610aa857fe5b602002602001015183600081518110610abd57fe5b602002602001015160405160200180848152602001831515151560f81b8152600101828152602001935050505060405160208183030381529060405280519060200120600860003373ffffffffffffffffffffffffffffffffffffffff1673ffffffffffffffffffffffffffffffffffffffff168152602001908152602001600020600081548110610b4b57fe5b90600052602060002090600202016000015414610b6b5760009050610b79565b60019050610b79565b600090505b9392505050565b600080600860003373ffffffffffffffffffffffffffffffffffffffff1673ffffffffffffffffffffffffffffffffffffffff168152602001908152602001600020805490501115610c3057600860003373ffffffffffffffffffffffffffffffffffffffff1673ffffffffffffffffffffffffffffffffffffffff168152602001908152602001600020600081548110610c1757fe5b9060005260206000209060020201600101549050610c37565b62010f2c90505b90565b6000600960003373ffffffffffffffffffffffffffffffffffffffff1673ffffffffffffffffffffffffffffffffffffffff1681526020019081526020016000205490506000811115610d14576000600960003373ffffffffffffffffffffffffffffffffffffffff1673ffffffffffffffffffffffffffffffffffffffff168152602001908152602001600020819055503373ffffffffffffffffffffffffffffffffffffffff166108fc829081150290604051600060405180830381858888f19350505050158015610d12573d6000803e3d6000fd5b505b50565b60025481565b600660019054906101000a900460ff1681565b600354804311610d3f57600080fd5b600660029054906101000a900473ffffffffffffffffffffffffffffffffffffffff1673ffffffffffffffffffffffffffffffffffffffff163373ffffffffffffffffffffffffffffffffffffffff1614610d9957600080fd5b60001515600660019054906101000a900460ff16151514610db957600080fd5b6001600660016101000a81548160ff02191690831515021790555060008060009054906101000a900473ffffffffffffffffffffffffffffffffffffffff1690508073ffffffffffffffffffffffffffffffffffffffff166356d36ae16007546001336007546040518563ffffffff1660e01b815260040180806020018473ffffffffffffffffffffffffffffffffffffffff1673ffffffffffffffffffffffffffffffffffffffff168152602001838152602001828103825285818154600181600116156101000203166002900481526020019150805460018160011615610100020316600290048015610eef5780601f10610ec457610100808354040283529160200191610eef565b820191906000526020600020905b815481529060010190602001808311610ed257829003601f168201915b50509450505050506000604051808303818588803b158015610f1057600080fd5b505af1158015610f24573d6000803e3d6000fd5b50505050505050565b60055481565b6000809054906101000a900473ffffffffffffffffffffffffffffffffffffffff1681565b600254804311610f6757600080fd5b60035480431115610f7757600080fd5b6000600860003373ffffffffffffffffffffffffffffffffffffffff1673ffffffffffffffffffffffffffffffffffffffff16815260200190815260200160002080549050905080865114610fcb57600080fd5b80855114610fd857600080fd5b80845114610fe557600080fd5b600080905060008090505b82811015611140576000600860003373ffffffffffffffffffffffffffffffffffffffff1673ffffffffffffffffffffffffffffffffffffffff168152602001908152602001600020828154811061104457fe5b9060005260206000209060020201905060008060008b858151811061106557fe5b60200260200101518b868151811061107957fe5b60200260200101518b878151811061108d57fe5b602002602001015192509250925082828260405160200180848152602001831515151560f81b81526001018281526020019350505050604051602081830303815290604052805190602001208460000154146110ec5750505050611133565b83600101548601955081158015611107575082846001015410155b15611122576111163384611478565b156111215782860395505b5b6000801b8460000181905550505050505b8080600101915050610ff0565b503373ffffffffffffffffffffffffffffffffffffffff166108fc829081150290604051600060405180830381858888f19350505050158015611187573d6000803e3d6000fd5b5080600a60003373ffffffffffffffffffffffffffffffffffffffff1673ffffffffffffffffffffffffffffffffffffffff1681526020019081526020016000206000828254019250508190555050505050505050565b600660029054906101000a900473ffffffffffffffffffffffffffffffffffffffff1681565b6002548043111561121457600080fd5b600860003373ffffffffffffffffffffffffffffffffffffffff1673ffffffffffffffffffffffffffffffffffffffff1681526020019081526020016000206040518060400160405280848152602001348152509080600181540180825580915050600190039060005260206000209060020201600090919091909150600082015181600001556020820151816001015550505050565b60035481565b6000600754905090565b6000600960003373ffffffffffffffffffffffffffffffffffffffff1673ffffffffffffffffffffffffffffffffffffffff16815260200190815260200160002054905090565b60045481565b60075481565b60018054600181600116156101000203166002900480601f0160208091040260200160405190810160405280929190818152602001828054600181600116156101000203166002900480156113a45780601f10611379576101008083540402835291602001916113a4565b820191906000526020600020905b81548152906001019060200180831161138757829003601f168201915b505050505081565b60606002544310156113f5576040518060400160405280600381526020017f62696400000000000000000000000000000000000000000000000000000000008152509050611475565b60035443101561143c576040518060400160405280600681526020017f72657665616c00000000000000000000000000000000000000000000000000008152509050611475565b6040518060400160405280600381526020017f656e64000000000000000000000000000000000000000000000000000000000081525090505b90565b6000600754821161148c5760009050611714565b600073ffffffffffffffffffffffffffffffffffffffff16600660029054906101000a900473ffffffffffffffffffffffffffffffffffffffff1673ffffffffffffffffffffffffffffffffffffffff16146115545760075460096000600660029054906101000a900473ffffffffffffffffffffffffffffffffffffffff1673ffffffffffffffffffffffffffffffffffffffff1673ffffffffffffffffffffffffffffffffffffffff168152602001908152602001600020600082825401925050819055505b8160078190555082600660026101000a81548173ffffffffffffffffffffffffffffffffffffffff021916908373ffffffffffffffffffffffffffffffffffffffff1602179055507fb82fefdc651ee0dc2a48092a0a107978c235739dfbc58b8f52a11e939ea2d750600660029054906101000a900473ffffffffffffffffffffffffffffffffffffffff16600754604051808373ffffffffffffffffffffffffffffffffffffffff1673ffffffffffffffffffffffffffffffffffffffff1681526020018281526020019250505060405180910390a16000809054906101000a900473ffffffffffffffffffffffffffffffffffffffff1673ffffffffffffffffffffffffffffffffffffffff1663a7181ae3600660029054906101000a900473ffffffffffffffffffffffffffffffffffffffff166007546040518363ffffffff1660e01b8152600401808373ffffffffffffffffffffffffffffffffffffffff1673ffffffffffffffffffffffffffffffffffffffff16815260200182815260200192505050600060405180830381600087803b1580156116f757600080fd5b505af115801561170b573d6000803e3d6000fd5b50505050600190505b9291505056fea2646970667358221220326b598c85a0e11ea9786b9153114bb0a262721a596be5a1eb464aeaef165ade64736f6c63430006000033a2646970667358221220c93abc3af491173d5a4d2709ed274cdf8f1527d104a8a6162ba19ad812dd634064736f6c63430006000033",
  "source": "// SPDX-License-Identifier: GPL-3.0\r\npragma solidity ^0.6.0;\r\n// to implement functions that return string[]\r\npragma experimental ABIEncoderV2;\r\nimport './BlindAuction.sol';\r\n\r\n// \"node\" generally refers to domain name\r\n\r\ncontract DomainRegistry {\r\n\r\n    struct Record {\r\n        address owner;\r\n        address auctionAddress;\r\n        uint auctionStartBlock;\r\n        bool registered;\r\n        bool hasAuctionBefore;\r\n    }\r\n\r\n    //static variables\r\n    uint durationOfAuction = 6; //if after 50 blocks there is no claimant, the auction is voided\r\n    address public owner;\r\n    string[] registeredDomains; // nodes that are registered\r\n    string[] currentAuctions; //stores nodes that have active auctions\r\n\r\n\r\n    // add list of current auctions\r\n\r\n    //mappings\r\n    mapping(string=>Record) records;\r\n\r\n    //events\r\n    event NewAuctionStarted(string node, address auctionAddress);\r\n    event NewDomainClaimed(string node, address newOwner, uint highestBid);\r\n\r\n    // modifiers\r\n    modifier validAuctionContract(string memory node) {\r\n        //the auction contract for that node sent the msg\r\n        require(records[node].auctionAddress == msg.sender);\r\n        // the auction has not \"ended\" yet, still valid period for claiming domain\r\n        require(records[node].auctionStartBlock + durationOfAuction > block.number);\r\n        _;\r\n    }\r\n\r\n    modifier onlyUnregisteredDomain(string memory node) {\r\n        require(records[node].registered == false,\r\n                \"The domain is already registered.\");\r\n        _;\r\n    }\r\n\r\n    modifier noOngoingAuction(string memory node) {\r\n        //the last auction (if any) has ended, and a reasonable amount of time has been given to claim domain\r\n        if (records[node].hasAuctionBefore == true) {\r\n            require(records[node].auctionStartBlock + durationOfAuction < block.number);\r\n        }\r\n        _;\r\n    }\r\n\r\n    //constructor\r\n    constructor() public {\r\n        owner = msg.sender;\r\n    }\r\n\r\n    // check if domain is registered already\r\n    function checkIfRegistered(string memory node) \r\n        public\r\n        view\r\n        returns (bool) \r\n    {\r\n        if(records[node].owner == address(0)) {\r\n            return false;\r\n        } else {\r\n            return true;\r\n        }\r\n    }\r\n\r\n    function registerOwner(string memory node, address newOwner, uint highestBid)\r\n        public\r\n        payable\r\n        validAuctionContract(node)\r\n    {\r\n        records[node].owner = newOwner;\r\n        records[node].registered = true;\r\n        registeredDomains.push(node);\r\n        // update currentAuctions\r\n        uint i = 0;\r\n        for (i=0; i<currentAuctions.length; i++) {\r\n            if (keccak256(abi.encodePacked(currentAuctions[i])) == keccak256(abi.encodePacked(node))) {\r\n                if (currentAuctions.length == 1) {\r\n                    delete currentAuctions[i];\r\n                    break;\r\n                } else {\r\n                    currentAuctions[i] = currentAuctions[currentAuctions.length-1];\r\n                    delete currentAuctions[currentAuctions.length-1];\r\n                    break;\r\n                }\r\n                \r\n            }\r\n        }\r\n\r\n        emit NewDomainClaimed(node, newOwner, highestBid);\r\n    }\r\n\r\n    function startAuction(string memory node)\r\n        public\r\n        onlyUnregisteredDomain(node)\r\n        noOngoingAuction(node)\r\n        returns (address auctionAddress)\r\n    {\r\n        records[node].auctionAddress = address(new BlindAuction(node));\r\n        records[node].auctionStartBlock = block.number;\r\n        records[node].hasAuctionBefore = true;\r\n        currentAuctions.push(node);\r\n        emit NewAuctionStarted(node, records[node].auctionAddress);\r\n\r\n        return records[node].auctionAddress;\r\n    }\r\n\r\n    //------------------------------------------------------------------------------\r\n    //website functions\r\n    //I think these functions are very inefficient, maybe can redo\r\n\r\n    //update the current auctions\r\n    function updateCurrentAuctions() public {\r\n        string[] memory keep = new string[](currentAuctions.length);\r\n\r\n        uint i;\r\n        uint j = 0;\r\n        for (i = 0; i < currentAuctions.length; i++) {\r\n            if (records[currentAuctions[i]].auctionStartBlock + durationOfAuction > block.number) {\r\n                keep[j] = currentAuctions[i];\r\n                j++;\r\n            }\r\n        }\r\n\r\n        delete currentAuctions;\r\n        for (i = 0; i < j; i++) {\r\n            currentAuctions.push(keep[i]);\r\n        }\r\n    }\r\n\r\n    // get current auction addresses and their nodes\r\n    // also checks if the auctions in the list have expired.\r\n    function getCurrentAuctions() public view returns (string[] memory, address[] memory) {\r\n        string[] memory nodes = new string[](currentAuctions.length);\r\n        address[] memory auctionAddresses = new address[](currentAuctions.length);\r\n\r\n        for (uint i = 0; i < currentAuctions.length; i++) {\r\n            nodes[i] = currentAuctions[i];\r\n            auctionAddresses[i] = records[currentAuctions[i]].auctionAddress;\r\n        }\r\n\r\n        return (nodes, auctionAddresses);\r\n    }\r\n\r\n    // gets registered domains and their owner addresses\r\n    //TODO: currently broken, refer to getCurrentAuctions for reference\r\n    function getRegisteredDomains() public view returns (string[] memory, address[] memory) {\r\n        string[] memory nodes = new string[](registeredDomains.length);\r\n        address[] memory ownerAddresses = new address[](registeredDomains.length);\r\n\r\n        for (uint i=0; i<registeredDomains.length; i++) {\r\n            nodes[i] = registeredDomains[i];\r\n            ownerAddresses[i] = records[registeredDomains[i]].owner;\r\n        }\r\n        return (nodes, ownerAddresses);\r\n    }\r\n\r\n    //if registered, resolved to owner address, if auctioning, resolve to auction address\r\n    //empty domain returns address(0)\r\n    function resolveDomain(string memory domain) public view returns (address) {\r\n        if (records[domain].registered) {\r\n            return records[domain].owner;\r\n        } else {\r\n            return records[domain].auctionAddress;\r\n        }\r\n    }\r\n\r\n\r\n// ----------------------------------------------------------------------------------\r\n// debug helper functions\r\n\r\n    function viewAuctionAddress(string memory node) public view returns (address)\r\n    {\r\n        return records[node].auctionAddress;\r\n    }\r\n\r\n    function viewThisAddress() public view returns (address)\r\n    {\r\n        return address(this);\r\n    }\r\n\r\n    function viewRecordOwner(string memory node) public view returns (address)\r\n    {\r\n        return records[node].owner;\r\n    }\r\n\r\n    function viewRegistration(string memory node) public view returns (bool)\r\n    {\r\n        return records[node].registered;\r\n    }\r\n\r\n    event PotentialWinnerFound(address winner, uint highestBid);\r\n    function emitPotentialWinner(address winner, uint value) public {\r\n        emit PotentialWinnerFound(winner, value);\r\n    }\r\n\r\n\r\n}",
  "sourcePath": "C:\\Users\\Lim Han Quan\\Desktop\\ethereum-dapp\\contracts\\DomainRegistry.sol",
  "compiler": {
    "name": "solc",
    "version": "0.6.0+commit.26b70077.Emscripten.clang"
  },
  "schemaVersion": "3.3.1",
  "updatedAt": "2020-11-01T13:32:07.591Z",
  "networkType": "ethereum",
  "devdoc": {
    "methods": {}
  },
  "userdoc": {
    "methods": {}
  }
}