{
  "contractName": "DomainRegistry",
  "abi": [
    {
      "inputs": [],
      "stateMutability": "nonpayable",
      "type": "constructor"
    },
    {
      "anonymous": false,
      "inputs": [
        {
          "indexed": false,
          "internalType": "string",
          "name": "node",
          "type": "string"
        },
        {
          "indexed": false,
          "internalType": "address",
          "name": "auctionAddress",
          "type": "address"
        }
      ],
      "name": "NewAuctionStarted",
      "type": "event"
    },
    {
      "anonymous": false,
      "inputs": [
        {
          "indexed": false,
          "internalType": "string",
          "name": "node",
          "type": "string"
        },
        {
          "indexed": false,
          "internalType": "address",
          "name": "newOwner",
          "type": "address"
        },
        {
          "indexed": false,
          "internalType": "uint256",
          "name": "highestBid",
          "type": "uint256"
        }
      ],
      "name": "NewDomainClaimed",
      "type": "event"
    },
    {
      "inputs": [],
      "name": "owner",
      "outputs": [
        {
          "internalType": "address",
          "name": "",
          "type": "address"
        }
      ],
      "stateMutability": "view",
      "type": "function",
      "constant": true
    },
    {
      "inputs": [
        {
          "internalType": "string",
          "name": "node",
          "type": "string"
        }
      ],
      "name": "checkIfRegistered",
      "outputs": [
        {
          "internalType": "bool",
          "name": "",
          "type": "bool"
        }
      ],
      "stateMutability": "view",
      "type": "function",
      "constant": true
    },
    {
      "inputs": [
        {
          "internalType": "string",
          "name": "node",
          "type": "string"
        },
        {
          "internalType": "address",
          "name": "newOwner",
          "type": "address"
        },
        {
          "internalType": "uint256",
          "name": "highestBid",
          "type": "uint256"
        }
      ],
      "name": "registerOwner",
      "outputs": [],
      "stateMutability": "payable",
      "type": "function",
      "payable": true
    },
    {
      "inputs": [
        {
          "internalType": "string",
          "name": "node",
          "type": "string"
        }
      ],
      "name": "startAuction",
      "outputs": [
        {
          "internalType": "address",
          "name": "auctionAddress",
          "type": "address"
        }
      ],
      "stateMutability": "nonpayable",
      "type": "function"
    },
    {
      "inputs": [],
      "name": "getRegisteredDomains",
      "outputs": [
        {
          "internalType": "string[]",
          "name": "",
          "type": "string[]"
        },
        {
          "internalType": "address[]",
          "name": "",
          "type": "address[]"
        }
      ],
      "stateMutability": "view",
      "type": "function",
      "constant": true
    },
    {
      "inputs": [
        {
          "internalType": "string",
          "name": "domain",
          "type": "string"
        }
      ],
      "name": "resolveDomain",
      "outputs": [
        {
          "internalType": "address",
          "name": "",
          "type": "address"
        }
      ],
      "stateMutability": "view",
      "type": "function",
      "constant": true
    },
    {
      "inputs": [
        {
          "internalType": "address",
          "name": "_owner",
          "type": "address"
        }
      ],
      "name": "getOwnedDomains",
      "outputs": [
        {
          "internalType": "string[]",
          "name": "",
          "type": "string[]"
        }
      ],
      "stateMutability": "view",
      "type": "function",
      "constant": true
    },
    {
      "inputs": [
        {
          "internalType": "string",
          "name": "node",
          "type": "string"
        }
      ],
      "name": "viewAuctionAddress",
      "outputs": [
        {
          "internalType": "address",
          "name": "",
          "type": "address"
        }
      ],
      "stateMutability": "view",
      "type": "function",
      "constant": true
    }
  ],
  "bytecode": "0x608060405234801561001057600080fd5b50336000806101000a81548173ffffffffffffffffffffffffffffffffffffffff021916908373ffffffffffffffffffffffffffffffffffffffff160217905550612bde806100606000396000f3fe608060405260043610620000865760003560e01c806380d2ec86116200005557806380d2ec8614620001775780638da5cb5b14620001a8578063c33282d314620001d8578063ecf50fe2146200021c5762000086565b80631a6c821b146200008b578063364460f314620000cf57806356d36ae1146200011357806373dc756c1462000133575b600080fd5b3480156200009857600080fd5b50620000b76004803603620000b191908101906200105c565b62000260565b604051620000c69190620014db565b60405180910390f35b348015620000dc57600080fd5b50620000fb6004803603620000f5919081019062001088565b62000451565b6040516200010a9190620014be565b60405180910390f35b6200013160048036036200012b919081019062001112565b62000522565b005b3480156200014057600080fd5b506200015f600480360362000159919081019062001088565b62000739565b6040516200016e9190620014be565b60405180910390f35b3480156200018457600080fd5b506200018f62000b9e565b6040516200019f929190620014ff565b60405180910390f35b348015620001b557600080fd5b50620001c062000db9565b604051620001cf9190620014be565b60405180910390f35b348015620001e557600080fd5b50620002046004803603620001fe919081019062001088565b62000dde565b6040516200021391906200153a565b60405180910390f35b3480156200022957600080fd5b5062000248600480360362000242919081019062001088565b62000e6c565b604051620002579190620014be565b60405180910390f35b606080600360008473ffffffffffffffffffffffffffffffffffffffff1673ffffffffffffffffffffffffffffffffffffffff16815260200190815260200160002080549050604051908082528060200260200182016040528015620002db57816020015b6060815260200190600190039081620002c55790505b50905060008090505b600360008573ffffffffffffffffffffffffffffffffffffffff1673ffffffffffffffffffffffffffffffffffffffff168152602001908152602001600020805490508110156200044757600360008573ffffffffffffffffffffffffffffffffffffffff1673ffffffffffffffffffffffffffffffffffffffff16815260200190815260200160002081815481106200037a57fe5b906000526020600020018054600181600116156101000203166002900480601f0160208091040260200160405190810160405280929190818152602001828054600181600116156101000203166002900480156200041c5780601f10620003f0576101008083540402835291602001916200041c565b820191906000526020600020905b815481529060010190602001808311620003fe57829003601f168201915b50505050508282815181106200042e57fe5b60200260200101819052508080600101915050620002e4565b5080915050919050565b600060028260405162000465919062001475565b908152602001604051809103902060030160009054906101000a900460ff1615620004d6576002826040516200049c919062001475565b908152602001604051809103902060000160009054906101000a900473ffffffffffffffffffffffffffffffffffffffff1690506200051d565b600282604051620004e8919062001475565b908152602001604051809103902060010160009054906101000a900473ffffffffffffffffffffffffffffffffffffffff1690505b919050565b823373ffffffffffffffffffffffffffffffffffffffff166002826040516200054c919062001475565b908152602001604051809103902060010160009054906101000a900473ffffffffffffffffffffffffffffffffffffffff1673ffffffffffffffffffffffffffffffffffffffff16146200059f57600080fd5b82600285604051620005b2919062001475565b908152602001604051809103902060000160006101000a81548173ffffffffffffffffffffffffffffffffffffffff021916908373ffffffffffffffffffffffffffffffffffffffff160217905550600160028560405162000615919062001475565b908152602001604051809103902060030160006101000a81548160ff0219169083151502179055506001849080600181540180825580915050600190039060005260206000200160009091909190915090805190602001906200067a92919062000eb9565b50600360008473ffffffffffffffffffffffffffffffffffffffff1673ffffffffffffffffffffffffffffffffffffffff16815260200190815260200160002084908060018154018082558091505060019003906000526020600020016000909190919091509080519060200190620006f592919062000eb9565b507f12e0c0afd0cb01b210bc575b477c58890f065eb1d9793fa291726d0bca3daea68484846040516200072b93929190620015af565b60405180910390a150505050565b600081606081905060606040518060400160405280600481526020017f75746e2e00000000000000000000000000000000000000000000000000000000815250905060008090505b60048110156200081e578181815181106200079857fe5b602001015160f81c60f81b7effffffffffffffffffffffffffffffffffffffffffffffffffffffffffffff1916838260018651030381518110620007d857fe5b602001015160f81c60f81b7effffffffffffffffffffffffffffffffffffffffffffffffffffffffffffff1916146200081057600080fd5b808060010191505062000781565b50846000151560028260405162000836919062001475565b908152602001604051809103902060030160009054906101000a900460ff161515146200086257600080fd5b856001151560028260405162000879919062001475565b908152602001604051809103902060030160019054906101000a900460ff1615151415620009d2576000600282604051620008b5919062001475565b908152602001604051809103902060010160009054906101000a900473ffffffffffffffffffffffffffffffffffffffff16905060608173ffffffffffffffffffffffffffffffffffffffff1663fcaa76646040518163ffffffff1660e01b815260040160006040518083038186803b1580156200093257600080fd5b505afa15801562000947573d6000803e3d6000fd5b505050506040513d6000823e3d601f19601f82011682018060405250620009729190810190620010cd565b90506040516020016200098590620014a7565b6040516020818303038152906040528051906020012081604051602001620009ae919062001475565b6040516020818303038152906040528051906020012014620009cf57600080fd5b50505b86604051620009e19062000f40565b620009ed919062001557565b604051809103906000f08015801562000a0a573d6000803e3d6000fd5b5060028860405162000a1d919062001475565b908152602001604051809103902060010160006101000a81548173ffffffffffffffffffffffffffffffffffffffff021916908373ffffffffffffffffffffffffffffffffffffffff1602179055504360028860405162000a7f919062001475565b908152602001604051809103902060020181905550600160028860405162000aa8919062001475565b908152602001604051809103902060030160016101000a81548160ff0219169083151502179055507fd5d802d6a6ebd6a3147d5b04374599939cbbfa28bee645c79651c0e10fe7e6d08760028960405162000b04919062001475565b908152602001604051809103902060010160009054906101000a900473ffffffffffffffffffffffffffffffffffffffff1660405162000b469291906200157b565b60405180910390a160028760405162000b60919062001475565b908152602001604051809103902060010160009054906101000a900473ffffffffffffffffffffffffffffffffffffffff1695505050505050919050565b606080606060018054905060405190808252806020026020018201604052801562000bde57816020015b606081526020019060019003908162000bc85790505b509050606060018054905060405190808252806020026020018201604052801562000c185781602001602082028038833980820191505090505b50905060008090505b60018054905081101562000dac576001818154811062000c3d57fe5b906000526020600020018054600181600116156101000203166002900480601f01602080910402602001604051908101604052809291908181526020018280546001816001161561010002031660029004801562000cdf5780601f1062000cb35761010080835404028352916020019162000cdf565b820191906000526020600020905b81548152906001019060200180831162000cc157829003601f168201915b505050505083828151811062000cf157fe5b602002602001018190525060026001828154811062000d0c57fe5b9060005260206000200160405162000d2591906200148e565b908152602001604051809103902060000160009054906101000a900473ffffffffffffffffffffffffffffffffffffffff1682828151811062000d6457fe5b602002602001019073ffffffffffffffffffffffffffffffffffffffff16908173ffffffffffffffffffffffffffffffffffffffff1681525050808060010191505062000c21565b5081819350935050509091565b6000809054906101000a900473ffffffffffffffffffffffffffffffffffffffff1681565b60008073ffffffffffffffffffffffffffffffffffffffff1660028360405162000e09919062001475565b908152602001604051809103902060000160009054906101000a900473ffffffffffffffffffffffffffffffffffffffff1673ffffffffffffffffffffffffffffffffffffffff16141562000e62576000905062000e67565b600190505b919050565b600060028260405162000e80919062001475565b908152602001604051809103902060010160009054906101000a900473ffffffffffffffffffffffffffffffffffffffff169050919050565b828054600181600116156101000203166002900490600052602060002090601f016020900481019282601f1062000efc57805160ff191683800117855562000f2d565b8280016001018555821562000f2d579182015b8281111562000f2c57825182559160200191906001019062000f0f565b5b50905062000f3c919062000f4e565b5090565b6113bc80620017ed83390190565b62000f7391905b8082111562000f6f57600081600090555060010162000f55565b5090565b90565b60008135905062000f8781620017b8565b92915050565b600082601f83011262000f9f57600080fd5b813562000fb662000fb08262001621565b620015f3565b9150808252602083016020830185838301111562000fd357600080fd5b62000fe083828462001762565b50505092915050565b600082601f83011262000ffb57600080fd5b8151620010126200100c8262001621565b620015f3565b915080825260208301602083018583830111156200102f57600080fd5b6200103c83828462001771565b50505092915050565b6000813590506200105681620017d2565b92915050565b6000602082840312156200106f57600080fd5b60006200107f8482850162000f76565b91505092915050565b6000602082840312156200109b57600080fd5b600082013567ffffffffffffffff811115620010b657600080fd5b620010c48482850162000f8d565b91505092915050565b600060208284031215620010e057600080fd5b600082015167ffffffffffffffff811115620010fb57600080fd5b620011098482850162000fe9565b91505092915050565b6000806000606084860312156200112857600080fd5b600084013567ffffffffffffffff8111156200114357600080fd5b620011518682870162000f8d565b9350506020620011648682870162000f76565b9250506040620011778682870162001045565b9150509250925092565b60006200118f8383620011b1565b60208301905092915050565b6000620011a9838362001347565b905092915050565b620011bc8162001718565b82525050565b620011cd8162001718565b82525050565b6000620011e08262001683565b620011ec8185620016c9565b9350620011f9836200164e565b8060005b838110156200123057815162001214888262001181565b97506200122183620016af565b925050600181019050620011fd565b5085935050505092915050565b60006200124a826200168e565b620012568185620016da565b9350836020820285016200126a856200165e565b8060005b85811015620012ac57848403895281516200128a85826200119b565b94506200129783620016bc565b925060208a019950506001810190506200126e565b50829750879550505050505092915050565b620012c9816200172c565b82525050565b6000620012dc82620016a4565b620012e88185620016fc565b9350620012fa81856020860162001771565b6200130581620017a7565b840191505092915050565b60006200131d82620016a4565b6200132981856200170d565b93506200133b81856020860162001771565b80840191505092915050565b6000620013548262001699565b620013608185620016eb565b93506200137281856020860162001771565b6200137d81620017a7565b840191505092915050565b600081546001811660008114620013a85760018114620013d0576200141a565b607f6002830416620013bb81876200170d565b955060ff19831686528086019350506200141a565b60028204620013e081876200170d565b9550620013ed856200166e565b60005b828110156200141157815481890152600182019150602081019050620013f0565b82880195505050505b505092915050565b6000620014316009836200170d565b91507f756e636c61696d656400000000000000000000000000000000000000000000006000830152600982019050919050565b6200146f8162001758565b82525050565b600062001483828462001310565b915081905092915050565b60006200149c828462001388565b915081905092915050565b6000620014b48262001422565b9150819050919050565b6000602082019050620014d56000830184620011c2565b92915050565b60006020820190508181036000830152620014f781846200123d565b905092915050565b600060408201905081810360008301526200151b81856200123d565b90508181036020830152620015318184620011d3565b90509392505050565b6000602082019050620015516000830184620012be565b92915050565b60006020820190508181036000830152620015738184620012cf565b905092915050565b60006040820190508181036000830152620015978185620012cf565b9050620015a86020830184620011c2565b9392505050565b60006060820190508181036000830152620015cb8186620012cf565b9050620015dc6020830185620011c2565b620015eb604083018462001464565b949350505050565b6000604051905081810181811067ffffffffffffffff821117156200161757600080fd5b8060405250919050565b600067ffffffffffffffff8211156200163957600080fd5b601f19601f8301169050602081019050919050565b6000819050602082019050919050565b6000819050602082019050919050565b60008190508160005260206000209050919050565b600081519050919050565b600081519050919050565b600081519050919050565b600081519050919050565b6000602082019050919050565b6000602082019050919050565b600082825260208201905092915050565b600082825260208201905092915050565b600082825260208201905092915050565b600082825260208201905092915050565b600081905092915050565b6000620017258262001738565b9050919050565b60008115159050919050565b600073ffffffffffffffffffffffffffffffffffffffff82169050919050565b6000819050919050565b82818337600083830152505050565b60005b838110156200179157808201518184015260208101905062001774565b83811115620017a1576000848401525b50505050565b6000601f19601f8301169050919050565b620017c38162001718565b8114620017cf57600080fd5b50565b620017dd8162001758565b8114620017e957600080fd5b5056fe60806040526003600555600260065560026007553480156200002057600080fd5b50604051620013bc380380620013bc833981810160405260208110156200004657600080fd5b81019080805160405193929190846401000000008211156200006757600080fd5b838201915060208201858111156200007e57600080fd5b82518660018202830111640100000000821117156200009c57600080fd5b8083526020830192505050908051906020019080838360005b83811015620000d2578082015181840152602081019050620000b5565b50505050905090810190601f168015620001005780820380516001836020036101000a031916815260200191505b50604052505050336000806101000a81548173ffffffffffffffffffffffffffffffffffffffff021916908373ffffffffffffffffffffffffffffffffffffffff16021790555080600190805190602001906200015f9291906200018c565b5060055443016002819055506006546002540160038190555060075460035401600481905550506200023b565b828054600181600116156101000203166002900490600052602060002090601f016020900481019282601f10620001cf57805160ff191683800117855562000200565b8280016001018555821562000200579182015b82811115620001ff578251825591602001919060010190620001e2565b5b5090506200020f919062000213565b5090565b6200023891905b80821115620002345760008160009055506001016200021a565b5090565b90565b611171806200024b6000396000f3fe6080604052600436106100f35760003560e01c806391f901571161008a578063c8e7b31d11610059578063c8e7b31d14610554578063d57bde791461057f578063d70754ec146105aa578063fcaa76641461063a576100f3565b806391f9015714610479578063957bb1e0146104d0578063a6e66477146104fe578063ab1a4d9414610529576100f3565b806386c62a8f116100c657806386c62a8f146101f3578063886a6de11461020a5780638da5cb5b14610235578063900f080a1461028c576100f3565b806301495c1c146100f85780633ccfa92f1461016e578063423b217f146101995780634e528de8146101c4575b600080fd5b34801561010457600080fd5b506101516004803603604081101561011b57600080fd5b81019080803573ffffffffffffffffffffffffffffffffffffffff169060200190929190803590602001909291905050506106ca565b604051808381526020018281526020019250505060405180910390f35b34801561017a57600080fd5b50610183610708565b6040518082815260200191505060405180910390f35b3480156101a557600080fd5b506101ae61070e565b6040518082815260200191505060405180910390f35b3480156101d057600080fd5b506101d9610714565b604051808215151515815260200191505060405180910390f35b3480156101ff57600080fd5b50610208610727565b005b34801561021657600080fd5b5061021f610935565b6040518082815260200191505060405180910390f35b34801561024157600080fd5b5061024a61093b565b604051808273ffffffffffffffffffffffffffffffffffffffff1673ffffffffffffffffffffffffffffffffffffffff16815260200191505060405180910390f35b34801561029857600080fd5b50610477600480360360608110156102af57600080fd5b81019080803590602001906401000000008111156102cc57600080fd5b8201836020820111156102de57600080fd5b8035906020019184602083028401116401000000008311171561030057600080fd5b919080806020026020016040519081016040528093929190818152602001838360200280828437600081840152601f19601f8201169050808301925050505050505091929192908035906020019064010000000081111561036057600080fd5b82018360208201111561037257600080fd5b8035906020019184602083028401116401000000008311171561039457600080fd5b919080806020026020016040519081016040528093929190818152602001838360200280828437600081840152601f19601f820116905080830192505050505050509192919290803590602001906401000000008111156103f457600080fd5b82018360208201111561040657600080fd5b8035906020019184602083028401116401000000008311171561042857600080fd5b919080806020026020016040519081016040528093929190818152602001838360200280828437600081840152601f19601f820116905080830192505050505050509192919290505050610960565b005b34801561048557600080fd5b5061048e610c48565b604051808273ffffffffffffffffffffffffffffffffffffffff1673ffffffffffffffffffffffffffffffffffffffff16815260200191505060405180910390f35b6104fc600480360360208110156104e657600080fd5b8101908080359060200190929190505050610c6e565b005b34801561050a57600080fd5b50610513610d15565b6040518082815260200191505060405180910390f35b34801561053557600080fd5b5061053e610d1b565b6040518082815260200191505060405180910390f35b34801561056057600080fd5b50610569610d21565b6040518082815260200191505060405180910390f35b34801561058b57600080fd5b50610594610d27565b6040518082815260200191505060405180910390f35b3480156105b657600080fd5b506105bf610d2d565b6040518080602001828103825283818151815260200191508051906020019080838360005b838110156105ff5780820151818401526020810190506105e4565b50505050905090810190601f16801561062c5780820380516001836020036101000a031916815260200191505b509250505060405180910390f35b34801561064657600080fd5b5061064f610dcb565b6040518080602001828103825283818151815260200191508051906020019080838360005b8381101561068f578082015181840152602081019050610674565b50505050905090810190601f1680156106bc5780820380516001836020036101000a031916815260200191505b509250505060405180910390f35b600b60205281600052604060002081815481106106e357fe5b9060005260206000209060020201600091509150508060000154908060010154905082565b60045481565b60025481565b600a60009054906101000a900460ff1681565b60035480431161073657600080fd5b6004548043111561074657600080fd5b600860009054906101000a900473ffffffffffffffffffffffffffffffffffffffff1673ffffffffffffffffffffffffffffffffffffffff163373ffffffffffffffffffffffffffffffffffffffff16146107a057600080fd5b60001515600a60009054906101000a900460ff161515146107c057600080fd5b6001600a60006101000a81548160ff02191690831515021790555060008060009054906101000a900473ffffffffffffffffffffffffffffffffffffffff1690508073ffffffffffffffffffffffffffffffffffffffff166356d36ae16009546001336009546040518563ffffffff1660e01b815260040180806020018473ffffffffffffffffffffffffffffffffffffffff1673ffffffffffffffffffffffffffffffffffffffff1681526020018381526020018281038252858181546001816001161561010002031660029004815260200191508054600181600116156101000203166002900480156108f65780601f106108cb576101008083540402835291602001916108f6565b820191906000526020600020905b8154815290600101906020018083116108d957829003601f168201915b50509450505050506000604051808303818588803b15801561091757600080fd5b505af115801561092b573d6000803e3d6000fd5b5050505050505050565b60065481565b6000809054906101000a900473ffffffffffffffffffffffffffffffffffffffff1681565b60025480431161096f57600080fd5b6003548043111561097f57600080fd5b6000600b60003373ffffffffffffffffffffffffffffffffffffffff1673ffffffffffffffffffffffffffffffffffffffff168152602001908152602001600020805490509050808651146109d357600080fd5b808551146109e057600080fd5b808451146109ed57600080fd5b60008090506060600b60003373ffffffffffffffffffffffffffffffffffffffff1673ffffffffffffffffffffffffffffffffffffffff168152602001908152602001600020805480602002602001604051908101604052809291908181526020016000905b82821015610a9957838290600052602060002090600202016040518060400160405290816000820154815260200160018201548152505081526020019060010190610a53565b505050509050600b60003373ffffffffffffffffffffffffffffffffffffffff1673ffffffffffffffffffffffffffffffffffffffff1681526020019081526020016000206000610aea91906110cb565b60008090505b83811015610bf657610b006110ef565b828281518110610b0c57fe5b6020026020010151905060008060008c8581518110610b2757fe5b60200260200101518c8681518110610b3b57fe5b60200260200101518c8781518110610b4f57fe5b602002602001015192509250925082828260405160200180848152602001831515151560f81b8152600101828152602001935050505060405160208183030381529060405280519060200120846000015114610bae5750505050610be9565b83602001518701965081158015610bc9575082846020015110155b15610be457610bd83384610f49565b15610be35782870396505b5b505050505b8080600101915050610af0565b503373ffffffffffffffffffffffffffffffffffffffff166108fc839081150290604051600060405180830381858888f19350505050158015610c3d573d6000803e3d6000fd5b505050505050505050565b600860009054906101000a900473ffffffffffffffffffffffffffffffffffffffff1681565b60025480431115610c7e57600080fd5b600b60003373ffffffffffffffffffffffffffffffffffffffff1673ffffffffffffffffffffffffffffffffffffffff1681526020019081526020016000206040518060400160405280848152602001348152509080600181540180825580915050600190039060005260206000209060020201600090919091909150600082015181600001556020820151816001015550505050565b60035481565b60075481565b60055481565b60095481565b60018054600181600116156101000203166002900480601f016020809104026020016040519081016040528092919081815260200182805460018160011615610100020316600290048015610dc35780601f10610d9857610100808354040283529160200191610dc3565b820191906000526020600020905b815481529060010190602001808311610da657829003601f168201915b505050505081565b6060600254431015610e14576040518060400160405280600781526020017f62696464696e67000000000000000000000000000000000000000000000000008152509050610f46565b600354431015610e5b576040518060400160405280600981526020017f72657665616c696e6700000000000000000000000000000000000000000000008152509050610f46565b60045443108015610e795750600a60009054906101000a900460ff16155b15610ebb576040518060400160405280600881526020017f636c61696d696e670000000000000000000000000000000000000000000000008152509050610f46565b600a60009054906101000a900460ff1615610f0d576040518060400160405280600781526020017f636c61696d6564000000000000000000000000000000000000000000000000008152509050610f46565b6040518060400160405280600981526020017f756e636c61696d6564000000000000000000000000000000000000000000000081525090505b90565b60006009548211610f5d57600090506110c5565b600073ffffffffffffffffffffffffffffffffffffffff16600860009054906101000a900473ffffffffffffffffffffffffffffffffffffffff1673ffffffffffffffffffffffffffffffffffffffff1614611077576000600860009054906101000a900473ffffffffffffffffffffffffffffffffffffffff169050600060095490508360098190555084600860006101000a81548173ffffffffffffffffffffffffffffffffffffffff021916908373ffffffffffffffffffffffffffffffffffffffff1602179055508173ffffffffffffffffffffffffffffffffffffffff166108fc829081150290604051600060405180830381858888f1935050505015801561106f573d6000803e3d6000fd5b5050506110c0565b8160098190555082600860006101000a81548173ffffffffffffffffffffffffffffffffffffffff021916908373ffffffffffffffffffffffffffffffffffffffff1602179055505b600190505b92915050565b50805460008255600202906000526020600020908101906110ec919061110c565b50565b604051806040016040528060008019168152602001600081525090565b61113891905b8082111561113457600080820160009055600182016000905550600201611112565b5090565b9056fea264697066735822122088aecf091883ab2af0d6198bc0ecc46fa8a4def32f66684a4a83fc0408fdce0c64736f6c63430006000033a264697066735822122090cc729030b49eb8e574f9e8c89ac8ab2b5b36cc39e4f613d5b8db462ceb603364736f6c63430006000033",
  "source": "// SPDX-License-Identifier: GPL-3.0\r\npragma solidity ^0.6.0;\r\npragma experimental ABIEncoderV2;\r\nimport './BlindAuction.sol';\r\n\r\n// \"node\" generally refers to domain name\r\n\r\ncontract DomainRegistry {\r\n\r\n    struct Record {\r\n        address owner;\r\n        address auctionAddress;\r\n        uint auctionStartBlock;\r\n        bool registered;\r\n        bool hasAuctionBefore;\r\n    }\r\n\r\n    //static variables\r\n    address public owner;\r\n    string[] registeredDomains;\r\n\r\n    //mappings\r\n    mapping(string=>Record) records;\r\n    mapping(address=>string[]) ownerToDomain;\r\n\r\n    //events\r\n    event NewAuctionStarted(string node, address auctionAddress);\r\n    event NewDomainClaimed(string node, address newOwner, uint highestBid);\r\n\r\n    // modifiers\r\n    modifier validAuctionContract(string memory node) {\r\n        //the auction contract for that node sent the msg\r\n        require(records[node].auctionAddress == msg.sender);\r\n        _;\r\n    }\r\n\r\n    // checks if domain has .ntu\r\n    modifier onlyValidDomainForm(string memory node) {\r\n        bytes memory strBytes = bytes(node);\r\n        bytes memory validForm = bytes(\"utn.\");\r\n        for (uint i = 0; i < 4; i++) {\r\n            require(strBytes[strBytes.length - 1 - i] == validForm[i]);\r\n        }\r\n        _;\r\n    }\r\n\r\n    modifier onlyUnregisteredDomain(string memory node) {\r\n        require(records[node].registered == false);\r\n        _;\r\n    }\r\n\r\n    modifier noOngoingAuction(string memory node) {\r\n        //the last auction (if any) has ended, and a reasonable amount of time has been given to claim domain\r\n        if (records[node].hasAuctionBefore == true) {\r\n            BlindAuction auction = BlindAuction(records[node].auctionAddress);\r\n            string memory stage = auction.getStage();\r\n            require(keccak256(abi.encodePacked(stage)) == keccak256(abi.encodePacked(\"unclaimed\")));\r\n        }\r\n        _;\r\n    }\r\n\r\n    //constructor\r\n    constructor() public {\r\n        owner = msg.sender;\r\n    }\r\n\r\n    // check if domain is registered already\r\n    function checkIfRegistered(string memory node) \r\n        public\r\n        view\r\n        returns (bool) \r\n    {\r\n        if(records[node].owner == address(0)) {\r\n            return false;\r\n        } else {\r\n            return true;\r\n        }\r\n    }\r\n\r\n    function registerOwner(string memory node, address newOwner, uint highestBid)\r\n        public\r\n        payable\r\n        validAuctionContract(node)\r\n    {\r\n        records[node].owner = newOwner;\r\n        records[node].registered = true;\r\n        registeredDomains.push(node);\r\n        ownerToDomain[newOwner].push(node);\r\n        emit NewDomainClaimed(node, newOwner, highestBid);\r\n    }\r\n\r\n    function startAuction(string memory node)\r\n        public\r\n        onlyValidDomainForm(node)\r\n        onlyUnregisteredDomain(node)\r\n        noOngoingAuction(node)\r\n        returns (address auctionAddress)\r\n    {\r\n        records[node].auctionAddress = address(new BlindAuction(node));\r\n        records[node].auctionStartBlock = block.number;\r\n        records[node].hasAuctionBefore = true;\r\n        emit NewAuctionStarted(node, records[node].auctionAddress);\r\n\r\n        return records[node].auctionAddress;\r\n    }\r\n\r\n//------------------------------------------------------------------------------\r\n//website functions\r\n\r\n    // gets registered domains and their owner addresses\r\n    function getRegisteredDomains() public view returns (string[] memory, address[] memory) {\r\n        string[] memory nodes = new string[](registeredDomains.length);\r\n        address[] memory ownerAddresses = new address[](registeredDomains.length);\r\n\r\n        for (uint i=0; i<registeredDomains.length; i++) {\r\n            nodes[i] = registeredDomains[i];\r\n            ownerAddresses[i] = records[registeredDomains[i]].owner;\r\n        }\r\n        return (nodes, ownerAddresses);\r\n    }\r\n\r\n    //if registered, resolved to owner address, if auctioning, resolve to auction address\r\n    //empty domain returns address(0)\r\n    function resolveDomain(string memory domain) \r\n        public\r\n        view \r\n        returns (address) \r\n    {\r\n        if (records[domain].registered) {\r\n            return records[domain].owner;\r\n        } else {\r\n            return records[domain].auctionAddress;\r\n        }\r\n    }\r\n\r\n    // Reversely resolve Ethereum address to their registered domains\r\n    function getOwnedDomains(address _owner)\r\n        public\r\n        view\r\n        returns (string[] memory)\r\n    {\r\n        string[] memory nodes = new string[](ownerToDomain[_owner].length);\r\n        for (uint i=0; i<ownerToDomain[_owner].length; i++) {\r\n            nodes[i] = ownerToDomain[_owner][i];\r\n        }\r\n        return nodes;\r\n    }\r\n\r\n\r\n// ----------------------------------------------------------------------------------\r\n// debug helper functions\r\n\r\n    function viewAuctionAddress(string memory node) public view returns (address)\r\n    {\r\n        return records[node].auctionAddress;\r\n    }\r\n\r\n}",
  "sourcePath": "C:\\Users\\Lim Han Quan\\Desktop\\ethereum-dapp\\contracts\\DomainRegistry.sol",
  "compiler": {
    "name": "solc",
    "version": "0.6.0+commit.26b70077.Emscripten.clang"
  },
  "schemaVersion": "3.3.1",
  "updatedAt": "2020-11-03T14:12:43.119Z",
  "networkType": "ethereum",
  "devdoc": {
    "methods": {}
  },
  "userdoc": {
    "methods": {}
  }
}