{
  "contractName": "DomainRegistry",
  "abi": [
    {
      "inputs": [],
      "stateMutability": "nonpayable",
      "type": "constructor"
    },
    {
      "anonymous": false,
      "inputs": [
        {
          "indexed": false,
          "internalType": "string",
          "name": "node",
          "type": "string"
        },
        {
          "indexed": false,
          "internalType": "address",
          "name": "auctionAddress",
          "type": "address"
        }
      ],
      "name": "NewAuctionStarted",
      "type": "event"
    },
    {
      "anonymous": false,
      "inputs": [
        {
          "indexed": false,
          "internalType": "string",
          "name": "node",
          "type": "string"
        },
        {
          "indexed": false,
          "internalType": "address",
          "name": "newOwner",
          "type": "address"
        },
        {
          "indexed": false,
          "internalType": "uint256",
          "name": "highestBid",
          "type": "uint256"
        }
      ],
      "name": "NewDomainClaimed",
      "type": "event"
    },
    {
      "anonymous": false,
      "inputs": [
        {
          "indexed": false,
          "internalType": "address",
          "name": "winner",
          "type": "address"
        },
        {
          "indexed": false,
          "internalType": "uint256",
          "name": "highestBid",
          "type": "uint256"
        }
      ],
      "name": "PotentialWinnerFound",
      "type": "event"
    },
    {
      "inputs": [],
      "name": "owner",
      "outputs": [
        {
          "internalType": "address",
          "name": "",
          "type": "address"
        }
      ],
      "stateMutability": "view",
      "type": "function",
      "constant": true
    },
    {
      "inputs": [
        {
          "internalType": "string",
          "name": "node",
          "type": "string"
        }
      ],
      "name": "checkIfRegistered",
      "outputs": [
        {
          "internalType": "bool",
          "name": "",
          "type": "bool"
        }
      ],
      "stateMutability": "view",
      "type": "function",
      "constant": true
    },
    {
      "inputs": [
        {
          "internalType": "string",
          "name": "node",
          "type": "string"
        },
        {
          "internalType": "address",
          "name": "newOwner",
          "type": "address"
        },
        {
          "internalType": "uint256",
          "name": "highestBid",
          "type": "uint256"
        }
      ],
      "name": "registerOwner",
      "outputs": [],
      "stateMutability": "payable",
      "type": "function",
      "payable": true
    },
    {
      "inputs": [
        {
          "internalType": "string",
          "name": "node",
          "type": "string"
        }
      ],
      "name": "startAuction",
      "outputs": [
        {
          "internalType": "address",
          "name": "auctionAddress",
          "type": "address"
        }
      ],
      "stateMutability": "nonpayable",
      "type": "function"
    },
    {
      "inputs": [
        {
          "internalType": "string",
          "name": "node",
          "type": "string"
        }
      ],
      "name": "getStage",
      "outputs": [
        {
          "internalType": "string",
          "name": "",
          "type": "string"
        }
      ],
      "stateMutability": "view",
      "type": "function",
      "constant": true
    },
    {
      "inputs": [
        {
          "internalType": "string",
          "name": "domain",
          "type": "string"
        }
      ],
      "name": "resolveDomain",
      "outputs": [
        {
          "internalType": "address",
          "name": "",
          "type": "address"
        }
      ],
      "stateMutability": "view",
      "type": "function",
      "constant": true
    },
    {
      "inputs": [
        {
          "internalType": "string",
          "name": "node",
          "type": "string"
        }
      ],
      "name": "viewAuctionAddress",
      "outputs": [
        {
          "internalType": "address",
          "name": "",
          "type": "address"
        }
      ],
      "stateMutability": "view",
      "type": "function",
      "constant": true
    },
    {
      "inputs": [],
      "name": "viewThisAddress",
      "outputs": [
        {
          "internalType": "address",
          "name": "",
          "type": "address"
        }
      ],
      "stateMutability": "view",
      "type": "function",
      "constant": true
    },
    {
      "inputs": [
        {
          "internalType": "string",
          "name": "node",
          "type": "string"
        }
      ],
      "name": "viewRecordOwner",
      "outputs": [
        {
          "internalType": "address",
          "name": "",
          "type": "address"
        }
      ],
      "stateMutability": "view",
      "type": "function",
      "constant": true
    },
    {
      "inputs": [
        {
          "internalType": "string",
          "name": "node",
          "type": "string"
        }
      ],
      "name": "viewRegistration",
      "outputs": [
        {
          "internalType": "bool",
          "name": "",
          "type": "bool"
        }
      ],
      "stateMutability": "view",
      "type": "function",
      "constant": true
    },
    {
      "inputs": [
        {
          "internalType": "address",
          "name": "winner",
          "type": "address"
        },
        {
          "internalType": "uint256",
          "name": "value",
          "type": "uint256"
        }
      ],
      "name": "emitPotentialWinner",
      "outputs": [],
      "stateMutability": "nonpayable",
      "type": "function"
    }
  ],
  "bytecode": "0x608060405234801561001057600080fd5b50336000806101000a81548173ffffffffffffffffffffffffffffffffffffffff021916908373ffffffffffffffffffffffffffffffffffffffff160217905550612ac3806100606000396000f3fe608060405260043610620000aa5760003560e01c80638da5cb5b116200006d5780638da5cb5b14620001cb578063a7181ae314620001fb578063bcef69f21462000229578063c33282d3146200026d578063e802d98f14620002b1578063ecf50fe214620002f557620000aa565b8063364460f314620000af57806356d36ae114620000f35780635f7a666614620001135780636a4c492b146200014357806373dc756c1462000187575b600080fd5b348015620000bc57600080fd5b50620000db6004803603620000d5919081019062000cfe565b62000339565b604051620000ea919062000f7c565b60405180910390f35b6200011160048036036200010b919081019062000d88565b6200040a565b005b3480156200012057600080fd5b506200012b62000567565b6040516200013a919062000f7c565b60405180910390f35b3480156200015057600080fd5b506200016f600480360362000169919081019062000cfe565b6200056f565b6040516200017e919062000fe3565b60405180910390f35b3480156200019457600080fd5b50620001b36004803603620001ad919081019062000cfe565b6200064e565b604051620001c2919062000f7c565b60405180910390f35b348015620001d857600080fd5b50620001e362000a03565b604051620001f2919062000f7c565b60405180910390f35b3480156200020857600080fd5b5062000227600480360362000221919081019062000cbd565b62000a28565b005b3480156200023657600080fd5b506200025560048036036200024f919081019062000cfe565b62000a67565b60405162000264919062000fc6565b60405180910390f35b3480156200027a57600080fd5b5062000299600480360362000293919081019062000cfe565b62000aa1565b604051620002a8919062000fc6565b60405180910390f35b348015620002be57600080fd5b50620002dd6004803603620002d7919081019062000cfe565b62000b2f565b604051620002ec919062000f7c565b60405180910390f35b3480156200030257600080fd5b506200032160048036036200031b919081019062000cfe565b62000b7c565b60405162000330919062000f7c565b60405180910390f35b60006001826040516200034d919062000f4c565b908152602001604051809103902060030160009054906101000a900460ff1615620003be5760018260405162000384919062000f4c565b908152602001604051809103902060000160009054906101000a900473ffffffffffffffffffffffffffffffffffffffff16905062000405565b600182604051620003d0919062000f4c565b908152602001604051809103902060010160009054906101000a900473ffffffffffffffffffffffffffffffffffffffff1690505b919050565b823373ffffffffffffffffffffffffffffffffffffffff1660018260405162000434919062000f4c565b908152602001604051809103902060010160009054906101000a900473ffffffffffffffffffffffffffffffffffffffff1673ffffffffffffffffffffffffffffffffffffffff16146200048757600080fd5b826001856040516200049a919062000f4c565b908152602001604051809103902060000160006101000a81548173ffffffffffffffffffffffffffffffffffffffff021916908373ffffffffffffffffffffffffffffffffffffffff16021790555060018085604051620004fc919062000f4c565b908152602001604051809103902060030160006101000a81548160ff0219169083151502179055507f12e0c0afd0cb01b210bc575b477c58890f065eb1d9793fa291726d0bca3daea684848460405162000559939291906200103b565b60405180910390a150505050565b600030905090565b6060600060018360405162000585919062000f4c565b908152602001604051809103902060010160009054906101000a900473ffffffffffffffffffffffffffffffffffffffff16905060608173ffffffffffffffffffffffffffffffffffffffff1663fcaa76646040518163ffffffff1660e01b815260040160006040518083038186803b1580156200060257600080fd5b505afa15801562000617573d6000803e3d6000fd5b505050506040513d6000823e3d601f19601f8201168201806040525062000642919081019062000d43565b90508092505050919050565b6000816000151560018260405162000667919062000f4c565b908152602001604051809103902060030160009054906101000a900460ff16151514620006cb576040517f08c379a0000000000000000000000000000000000000000000000000000000008152600401620006c2906200107f565b60405180910390fd5b8260011515600182604051620006e2919062000f4c565b908152602001604051809103902060030160019054906101000a900460ff16151514156200083b5760006001826040516200071e919062000f4c565b908152602001604051809103902060010160009054906101000a900473ffffffffffffffffffffffffffffffffffffffff16905060608173ffffffffffffffffffffffffffffffffffffffff1663fcaa76646040518163ffffffff1660e01b815260040160006040518083038186803b1580156200079b57600080fd5b505afa158015620007b0573d6000803e3d6000fd5b505050506040513d6000823e3d601f19601f82011682018060405250620007db919081019062000d43565b9050604051602001620007ee9062000f65565b604051602081830303815290604052805190602001208160405160200162000817919062000f4c565b60405160208183030381529060405280519060200120146200083857600080fd5b50505b836040516200084a9062000bc9565b62000856919062000fe3565b604051809103906000f08015801562000873573d6000803e3d6000fd5b5060018560405162000886919062000f4c565b908152602001604051809103902060010160006101000a81548173ffffffffffffffffffffffffffffffffffffffff021916908373ffffffffffffffffffffffffffffffffffffffff16021790555043600185604051620008e8919062000f4c565b9081526020016040518091039020600201819055506001808560405162000910919062000f4c565b908152602001604051809103902060030160016101000a81548160ff0219169083151502179055507fd5d802d6a6ebd6a3147d5b04374599939cbbfa28bee645c79651c0e10fe7e6d0846001866040516200096c919062000f4c565b908152602001604051809103902060010160009054906101000a900473ffffffffffffffffffffffffffffffffffffffff16604051620009ae92919062001007565b60405180910390a1600184604051620009c8919062000f4c565b908152602001604051809103902060010160009054906101000a900473ffffffffffffffffffffffffffffffffffffffff1692505050919050565b6000809054906101000a900473ffffffffffffffffffffffffffffffffffffffff1681565b7fb82fefdc651ee0dc2a48092a0a107978c235739dfbc58b8f52a11e939ea2d750828260405162000a5b92919062000f99565b60405180910390a15050565b600060018260405162000a7b919062000f4c565b908152602001604051809103902060030160009054906101000a900460ff169050919050565b60008073ffffffffffffffffffffffffffffffffffffffff1660018360405162000acc919062000f4c565b908152602001604051809103902060000160009054906101000a900473ffffffffffffffffffffffffffffffffffffffff1673ffffffffffffffffffffffffffffffffffffffff16141562000b25576000905062000b2a565b600190505b919050565b600060018260405162000b43919062000f4c565b908152602001604051809103902060000160009054906101000a900473ffffffffffffffffffffffffffffffffffffffff169050919050565b600060018260405162000b90919062000f4c565b908152602001604051809103902060010160009054906101000a900473ffffffffffffffffffffffffffffffffffffffff169050919050565b61189680620011f883390190565b60008135905062000be881620011c3565b92915050565b600082601f83011262000c0057600080fd5b813562000c1762000c1182620010cf565b620010a1565b9150808252602083016020830185838301111562000c3457600080fd5b62000c418382846200116d565b50505092915050565b600082601f83011262000c5c57600080fd5b815162000c7362000c6d82620010cf565b620010a1565b9150808252602083016020830185838301111562000c9057600080fd5b62000c9d8382846200117c565b50505092915050565b60008135905062000cb781620011dd565b92915050565b6000806040838503121562000cd157600080fd5b600062000ce18582860162000bd7565b925050602062000cf48582860162000ca6565b9150509250929050565b60006020828403121562000d1157600080fd5b600082013567ffffffffffffffff81111562000d2c57600080fd5b62000d3a8482850162000bee565b91505092915050565b60006020828403121562000d5657600080fd5b600082015167ffffffffffffffff81111562000d7157600080fd5b62000d7f8482850162000c4a565b91505092915050565b60008060006060848603121562000d9e57600080fd5b600084013567ffffffffffffffff81111562000db957600080fd5b62000dc78682870162000bee565b935050602062000dda8682870162000bd7565b925050604062000ded8682870162000ca6565b9150509250925092565b62000e028162001123565b82525050565b62000e138162001137565b82525050565b600062000e2682620010fc565b62000e32818562001107565b935062000e448185602086016200117c565b62000e4f81620011b2565b840191505092915050565b600062000e6782620010fc565b62000e73818562001118565b935062000e858185602086016200117c565b80840191505092915050565b600062000ea060218362001107565b91507f54686520646f6d61696e20697320616c7265616479207265676973746572656460008301527f2e000000000000000000000000000000000000000000000000000000000000006020830152604082019050919050565b600062000f0860098362001118565b91507f756e636c61696d656400000000000000000000000000000000000000000000006000830152600982019050919050565b62000f468162001163565b82525050565b600062000f5a828462000e5a565b915081905092915050565b600062000f728262000ef9565b9150819050919050565b600060208201905062000f93600083018462000df7565b92915050565b600060408201905062000fb0600083018562000df7565b62000fbf602083018462000f3b565b9392505050565b600060208201905062000fdd600083018462000e08565b92915050565b6000602082019050818103600083015262000fff818462000e19565b905092915050565b6000604082019050818103600083015262001023818562000e19565b905062001034602083018462000df7565b9392505050565b6000606082019050818103600083015262001057818662000e19565b905062001068602083018562000df7565b62001077604083018462000f3b565b949350505050565b600060208201905081810360008301526200109a8162000e91565b9050919050565b6000604051905081810181811067ffffffffffffffff82111715620010c557600080fd5b8060405250919050565b600067ffffffffffffffff821115620010e757600080fd5b601f19601f8301169050602081019050919050565b600081519050919050565b600082825260208201905092915050565b600081905092915050565b6000620011308262001143565b9050919050565b60008115159050919050565b600073ffffffffffffffffffffffffffffffffffffffff82169050919050565b6000819050919050565b82818337600083830152505050565b60005b838110156200119c5780820151818401526020810190506200117f565b83811115620011ac576000848401525b50505050565b6000601f19601f8301169050919050565b620011ce8162001123565b8114620011da57600080fd5b50565b620011e88162001163565b8114620011f457600080fd5b5056fe60806040526002600555600260065560026007553480156200002057600080fd5b506040516200189638038062001896833981810160405260208110156200004657600080fd5b81019080805160405193929190846401000000008211156200006757600080fd5b838201915060208201858111156200007e57600080fd5b82518660018202830111640100000000821117156200009c57600080fd5b8083526020830192505050908051906020019080838360005b83811015620000d2578082015181840152602081019050620000b5565b50505050905090810190601f168015620001005780820380516001836020036101000a031916815260200191505b50604052505050336000806101000a81548173ffffffffffffffffffffffffffffffffffffffff021916908373ffffffffffffffffffffffffffffffffffffffff16021790555080600190805190602001906200015f9291906200018c565b5060055443016002819055506006546002540160038190555060045460035401600481905550506200023b565b828054600181600116156101000203166002900490600052602060002090601f016020900481019282601f10620001cf57805160ff191683800117855562000200565b8280016001018555821562000200579182015b82811115620001ff578251825591602001919060010190620001e2565b5b5090506200020f919062000213565b5090565b6200023891905b80821115620002345760008160009055506001016200021a565b5090565b90565b61164b806200024b6000396000f3fe6080604052600436106101145760003560e01c8063900f080a116100a0578063ab1a4d9411610064578063ab1a4d94146107a5578063c8e7b31d146107d0578063d57bde79146107fb578063d70754ec14610826578063fcaa7664146108b657610114565b8063900f080a146104dd57806391f90157146106ca578063957bb1e014610721578063a6e664771461074f578063a7dae9091461077a57610114565b8063423b217f116100e7578063423b217f146103ea5780634e528de81461041557806386c62a8f14610444578063886a6de11461045b5780638da5cb5b1461048657610114565b806301495c1c14610119578063249059861461018f5780632fd7e5dd146103945780633ccfa92f146103bf575b600080fd5b34801561012557600080fd5b506101726004803603604081101561013c57600080fd5b81019080803573ffffffffffffffffffffffffffffffffffffffff16906020019092919080359060200190929190505050610946565b604051808381526020018281526020019250505060405180910390f35b34801561019b57600080fd5b5061037a600480360360608110156101b257600080fd5b81019080803590602001906401000000008111156101cf57600080fd5b8201836020820111156101e157600080fd5b8035906020019184602083028401116401000000008311171561020357600080fd5b919080806020026020016040519081016040528093929190818152602001838360200280828437600081840152601f19601f8201169050808301925050505050505091929192908035906020019064010000000081111561026357600080fd5b82018360208201111561027557600080fd5b8035906020019184602083028401116401000000008311171561029757600080fd5b919080806020026020016040519081016040528093929190818152602001838360200280828437600081840152601f19601f820116905080830192505050505050509192919290803590602001906401000000008111156102f757600080fd5b82018360208201111561030957600080fd5b8035906020019184602083028401116401000000008311171561032b57600080fd5b919080806020026020016040519081016040528093929190818152602001838360200280828437600081840152601f19601f820116905080830192505050505050509192919290505050610984565b604051808215151515815260200191505060405180910390f35b3480156103a057600080fd5b506103a9610aca565b6040518082815260200191505060405180910390f35b3480156103cb57600080fd5b506103d4610b84565b6040518082815260200191505060405180910390f35b3480156103f657600080fd5b506103ff610b8a565b6040518082815260200191505060405180910390f35b34801561042157600080fd5b5061042a610b90565b604051808215151515815260200191505060405180910390f35b34801561045057600080fd5b50610459610ba3565b005b34801561046757600080fd5b50610470610db1565b6040518082815260200191505060405180910390f35b34801561049257600080fd5b5061049b610db7565b604051808273ffffffffffffffffffffffffffffffffffffffff1673ffffffffffffffffffffffffffffffffffffffff16815260200191505060405180910390f35b3480156104e957600080fd5b506106c86004803603606081101561050057600080fd5b810190808035906020019064010000000081111561051d57600080fd5b82018360208201111561052f57600080fd5b8035906020019184602083028401116401000000008311171561055157600080fd5b919080806020026020016040519081016040528093929190818152602001838360200280828437600081840152601f19601f820116905080830192505050505050509192919290803590602001906401000000008111156105b157600080fd5b8201836020820111156105c357600080fd5b803590602001918460208302840111640100000000831117156105e557600080fd5b919080806020026020016040519081016040528093929190818152602001838360200280828437600081840152601f19601f8201169050808301925050505050505091929192908035906020019064010000000081111561064557600080fd5b82018360208201111561065757600080fd5b8035906020019184602083028401116401000000008311171561067957600080fd5b919080806020026020016040519081016040528093929190818152602001838360200280828437600081840152601f19601f820116905080830192505050505050509192919290505050610ddc565b005b3480156106d657600080fd5b506106df611015565b604051808273ffffffffffffffffffffffffffffffffffffffff1673ffffffffffffffffffffffffffffffffffffffff16815260200191505060405180910390f35b61074d6004803603602081101561073757600080fd5b810190808035906020019092919050505061103b565b005b34801561075b57600080fd5b506107646110e2565b6040518082815260200191505060405180910390f35b34801561078657600080fd5b5061078f6110e8565b6040518082815260200191505060405180910390f35b3480156107b157600080fd5b506107ba6110f2565b6040518082815260200191505060405180910390f35b3480156107dc57600080fd5b506107e56110f8565b6040518082815260200191505060405180910390f35b34801561080757600080fd5b506108106110fe565b6040518082815260200191505060405180910390f35b34801561083257600080fd5b5061083b611104565b6040518080602001828103825283818151815260200191508051906020019080838360005b8381101561087b578082015181840152602081019050610860565b50505050905090810190601f1680156108a85780820380516001836020036101000a031916815260200191505b509250505060405180910390f35b3480156108c257600080fd5b506108cb6111a2565b6040518080602001828103825283818151815260200191508051906020019080838360005b8381101561090b5780820151818401526020810190506108f0565b50505050905090810190601f1680156109385780820380516001836020036101000a031916815260200191505b509250505060405180910390f35b600b602052816000526040600020818154811061095f57fe5b9060005260206000209060020201600091509150508060000154908060010154905082565b600080600b60003373ffffffffffffffffffffffffffffffffffffffff1673ffffffffffffffffffffffffffffffffffffffff168152602001908152602001600020805490501115610abe57836000815181106109dd57fe5b6020026020010151836000815181106109f257fe5b602002602001015183600081518110610a0757fe5b602002602001015160405160200180848152602001831515151560f81b8152600101828152602001935050505060405160208183030381529060405280519060200120600b60003373ffffffffffffffffffffffffffffffffffffffff1673ffffffffffffffffffffffffffffffffffffffff168152602001908152602001600020600081548110610a9557fe5b90600052602060002090600202016000015414610ab55760009050610ac3565b60019050610ac3565b600090505b9392505050565b600080600b60003373ffffffffffffffffffffffffffffffffffffffff1673ffffffffffffffffffffffffffffffffffffffff168152602001908152602001600020805490501115610b7a57600b60003373ffffffffffffffffffffffffffffffffffffffff1673ffffffffffffffffffffffffffffffffffffffff168152602001908152602001600020600081548110610b6157fe5b9060005260206000209060020201600101549050610b81565b62010f2c90505b90565b60045481565b60025481565b600a60009054906101000a900460ff1681565b600354804311610bb257600080fd5b60045480431115610bc257600080fd5b600860009054906101000a900473ffffffffffffffffffffffffffffffffffffffff1673ffffffffffffffffffffffffffffffffffffffff163373ffffffffffffffffffffffffffffffffffffffff1614610c1c57600080fd5b60001515600a60009054906101000a900460ff16151514610c3c57600080fd5b6001600a60006101000a81548160ff02191690831515021790555060008060009054906101000a900473ffffffffffffffffffffffffffffffffffffffff1690508073ffffffffffffffffffffffffffffffffffffffff166356d36ae16009546001336009546040518563ffffffff1660e01b815260040180806020018473ffffffffffffffffffffffffffffffffffffffff1673ffffffffffffffffffffffffffffffffffffffff168152602001838152602001828103825285818154600181600116156101000203166002900481526020019150805460018160011615610100020316600290048015610d725780601f10610d4757610100808354040283529160200191610d72565b820191906000526020600020905b815481529060010190602001808311610d5557829003601f168201915b50509450505050506000604051808303818588803b158015610d9357600080fd5b505af1158015610da7573d6000803e3d6000fd5b5050505050505050565b60065481565b6000809054906101000a900473ffffffffffffffffffffffffffffffffffffffff1681565b600254804311610deb57600080fd5b60035480431115610dfb57600080fd5b6000600b60003373ffffffffffffffffffffffffffffffffffffffff1673ffffffffffffffffffffffffffffffffffffffff16815260200190815260200160002080549050905080865114610e4f57600080fd5b80855114610e5c57600080fd5b80845114610e6957600080fd5b600080905060008090505b82811015610fc4576000600b60003373ffffffffffffffffffffffffffffffffffffffff1673ffffffffffffffffffffffffffffffffffffffff1681526020019081526020016000208281548110610ec857fe5b9060005260206000209060020201905060008060008b8581518110610ee957fe5b60200260200101518b8681518110610efd57fe5b60200260200101518b8781518110610f1157fe5b602002602001015192509250925082828260405160200180848152602001831515151560f81b8152600101828152602001935050505060405160208183030381529060405280519060200120846000015414610f705750505050610fb7565b83600101548601955081158015610f8b575082846001015410155b15610fa657610f9a3384611320565b15610fa55782860395505b5b6000801b8460000181905550505050505b8080600101915050610e74565b503373ffffffffffffffffffffffffffffffffffffffff166108fc829081150290604051600060405180830381858888f1935050505015801561100b573d6000803e3d6000fd5b5050505050505050565b600860009054906101000a900473ffffffffffffffffffffffffffffffffffffffff1681565b6002548043111561104b57600080fd5b600b60003373ffffffffffffffffffffffffffffffffffffffff1673ffffffffffffffffffffffffffffffffffffffff1681526020019081526020016000206040518060400160405280848152602001348152509080600181540180825580915050600190039060005260206000209060020201600090919091909150600082015181600001556020820151816001015550505050565b60035481565b6000600954905090565b60075481565b60055481565b60095481565b60018054600181600116156101000203166002900480601f01602080910402602001604051908101604052809291908181526020018280546001816001161561010002031660029004801561119a5780601f1061116f5761010080835404028352916020019161119a565b820191906000526020600020905b81548152906001019060200180831161117d57829003601f168201915b505050505081565b60606002544310156111eb576040518060400160405280600781526020017f62696464696e6700000000000000000000000000000000000000000000000000815250905061131d565b600354431015611232576040518060400160405280600981526020017f72657665616c696e670000000000000000000000000000000000000000000000815250905061131d565b600454431080156112505750600a60009054906101000a900460ff16155b15611292576040518060400160405280600881526020017f636c61696d696e67000000000000000000000000000000000000000000000000815250905061131d565b600a60009054906101000a900460ff16156112e4576040518060400160405280600781526020017f636c61696d656400000000000000000000000000000000000000000000000000815250905061131d565b6040518060400160405280600981526020017f756e636c61696d6564000000000000000000000000000000000000000000000081525090505b90565b60006009548211611334576000905061160f565b600073ffffffffffffffffffffffffffffffffffffffff16600860009054906101000a900473ffffffffffffffffffffffffffffffffffffffff1673ffffffffffffffffffffffffffffffffffffffff161461144e576000600860009054906101000a900473ffffffffffffffffffffffffffffffffffffffff169050600060095490508360098190555084600860006101000a81548173ffffffffffffffffffffffffffffffffffffffff021916908373ffffffffffffffffffffffffffffffffffffffff1602179055508173ffffffffffffffffffffffffffffffffffffffff166108fc829081150290604051600060405180830381858888f19350505050158015611446573d6000803e3d6000fd5b505050611497565b8160098190555082600860006101000a81548173ffffffffffffffffffffffffffffffffffffffff021916908373ffffffffffffffffffffffffffffffffffffffff1602179055505b7fb82fefdc651ee0dc2a48092a0a107978c235739dfbc58b8f52a11e939ea2d750600860009054906101000a900473ffffffffffffffffffffffffffffffffffffffff16600954604051808373ffffffffffffffffffffffffffffffffffffffff1673ffffffffffffffffffffffffffffffffffffffff1681526020018281526020019250505060405180910390a16000809054906101000a900473ffffffffffffffffffffffffffffffffffffffff1673ffffffffffffffffffffffffffffffffffffffff1663a7181ae3600860009054906101000a900473ffffffffffffffffffffffffffffffffffffffff166009546040518363ffffffff1660e01b8152600401808373ffffffffffffffffffffffffffffffffffffffff1673ffffffffffffffffffffffffffffffffffffffff16815260200182815260200192505050600060405180830381600087803b1580156115f257600080fd5b505af1158015611606573d6000803e3d6000fd5b50505050600190505b9291505056fea2646970667358221220105ce18092b9cfcd963c48da3a436f3d205216118fcf00165561e1ad8fd9b49364736f6c63430006000033a26469706673582212208210e73963dcdd09eb85085f934b8d1793790b5f11c932f3dda83249e7ce797364736f6c63430006000033",
  "source": "// SPDX-License-Identifier: GPL-3.0\r\npragma solidity ^0.6.0;\r\n// to implement functions that return string[]\r\npragma experimental ABIEncoderV2;\r\nimport './BlindAuction.sol';\r\n\r\n// \"node\" generally refers to domain name\r\n\r\ncontract DomainRegistry {\r\n\r\n    struct Record {\r\n        address owner;\r\n        address auctionAddress;\r\n        uint auctionStartBlock;\r\n        bool registered;\r\n        bool hasAuctionBefore;\r\n    }\r\n\r\n    //static variables\r\n    //uint durationOfAuction = 6; //if after this duration there is no claimant, the auction is voided\r\n    address public owner;\r\n    //string[] registeredDomains; // nodes that are registered\r\n    //string[] currentAuctions; //stores nodes that have active auctions\r\n\r\n\r\n    // add list of current auctions\r\n\r\n    //mappings\r\n    mapping(string=>Record) records;\r\n\r\n    //events\r\n    event NewAuctionStarted(string node, address auctionAddress);\r\n    event NewDomainClaimed(string node, address newOwner, uint highestBid);\r\n\r\n    // modifiers\r\n    modifier validAuctionContract(string memory node) {\r\n        //the auction contract for that node sent the msg\r\n        require(records[node].auctionAddress == msg.sender);\r\n        _;\r\n    }\r\n\r\n    modifier onlyUnregisteredDomain(string memory node) {\r\n        require(records[node].registered == false,\r\n                \"The domain is already registered.\");\r\n        _;\r\n    }\r\n\r\n    modifier noOngoingAuction(string memory node) {\r\n        //the last auction (if any) has ended, and a reasonable amount of time has been given to claim domain\r\n        if (records[node].hasAuctionBefore == true) {\r\n            BlindAuction auction = BlindAuction(records[node].auctionAddress);\r\n            string memory stage = auction.getStage();\r\n            require(keccak256(abi.encodePacked(stage)) == keccak256(abi.encodePacked(\"unclaimed\")));\r\n        }\r\n        _;\r\n    }\r\n\r\n    //constructor\r\n    constructor() public {\r\n        owner = msg.sender;\r\n    }\r\n\r\n    // check if domain is registered already\r\n    function checkIfRegistered(string memory node) \r\n        public\r\n        view\r\n        returns (bool) \r\n    {\r\n        if(records[node].owner == address(0)) {\r\n            return false;\r\n        } else {\r\n            return true;\r\n        }\r\n    }\r\n\r\n    function registerOwner(string memory node, address newOwner, uint highestBid)\r\n        public\r\n        payable\r\n        validAuctionContract(node)\r\n    {\r\n        records[node].owner = newOwner;\r\n        records[node].registered = true;\r\n        //registeredDomains.push(node);\r\n        emit NewDomainClaimed(node, newOwner, highestBid);\r\n    }\r\n\r\n    function startAuction(string memory node)\r\n        public\r\n        onlyUnregisteredDomain(node)\r\n        noOngoingAuction(node)\r\n        returns (address auctionAddress)\r\n    {\r\n        records[node].auctionAddress = address(new BlindAuction(node));\r\n        records[node].auctionStartBlock = block.number;\r\n        records[node].hasAuctionBefore = true;\r\n        //currentAuctions.push(node);\r\n        emit NewAuctionStarted(node, records[node].auctionAddress);\r\n\r\n        return records[node].auctionAddress;\r\n    }\r\n\r\n    //------------------------------------------------------------------------------\r\n    //website functions\r\n    //I think these functions are very inefficient, maybe can redo\r\n\r\n    //update the current auctions\r\n    // function updateCurrentAuctions() public {\r\n    //     string[] memory keep = new string[](currentAuctions.length);\r\n\r\n    //     uint i;\r\n    //     uint j = 0;\r\n    //     for (i = 0; i < currentAuctions.length; i++) {\r\n    //         if (records[currentAuctions[i]].auctionStartBlock + durationOfAuction > block.number) {\r\n    //             keep[j] = currentAuctions[i];\r\n    //             j++;\r\n    //         }\r\n    //     }\r\n\r\n    //     delete currentAuctions;\r\n    //     for (i = 0; i < j; i++) {\r\n    //         currentAuctions.push(keep[i]);\r\n    //     }\r\n    // }\r\n\r\n    // deprecated\r\n    // get current auction addresses and their nodes\r\n    // also checks if the auctions in the list have expired.\r\n    // function getCurrentAuctions() public view returns (string[] memory, address[] memory) {\r\n    //     string[] memory nodes = new string[](currentAuctions.length);\r\n    //     address[] memory auctionAddresses = new address[](currentAuctions.length);\r\n\r\n    //     for (uint i = 0; i < currentAuctions.length; i++) {\r\n    //         nodes[i] = currentAuctions[i];\r\n    //         auctionAddresses[i] = records[currentAuctions[i]].auctionAddress;\r\n    //     }\r\n\r\n    //     return (nodes, auctionAddresses);\r\n    // }\r\n\r\n    // deprecated\r\n    // gets registered domains and their owner addresses\r\n    //TODO: currently broken, refer to getCurrentAuctions for reference\r\n    // function getRegisteredDomains() public view returns (string[] memory, address[] memory) {\r\n    //     string[] memory nodes = new string[](registeredDomains.length);\r\n    //     address[] memory ownerAddresses = new address[](registeredDomains.length);\r\n\r\n    //     for (uint i=0; i<registeredDomains.length; i++) {\r\n    //         nodes[i] = registeredDomains[i];\r\n    //         ownerAddresses[i] = records[registeredDomains[i]].owner;\r\n    //     }\r\n    //     return (nodes, ownerAddresses);\r\n    // }\r\n\r\n    // calls BlindAuction to get the stage\r\n    function getStage(string memory node) \r\n        public \r\n        view \r\n        returns (string memory) \r\n    {    \r\n        BlindAuction auction = BlindAuction(records[node].auctionAddress);\r\n        string memory stage = auction.getStage();\r\n        return stage;\r\n    }\r\n\r\n    //if registered, resolved to owner address, if auctioning, resolve to auction address\r\n    //empty domain returns address(0)\r\n    function resolveDomain(string memory domain) \r\n        public\r\n        view \r\n        returns (address) \r\n    {\r\n        if (records[domain].registered) {\r\n            return records[domain].owner;\r\n        } else {\r\n            return records[domain].auctionAddress;\r\n        }\r\n    }\r\n\r\n\r\n// ----------------------------------------------------------------------------------\r\n// debug helper functions\r\n\r\n    function viewAuctionAddress(string memory node) public view returns (address)\r\n    {\r\n        return records[node].auctionAddress;\r\n    }\r\n\r\n    function viewThisAddress() public view returns (address)\r\n    {\r\n        return address(this);\r\n    }\r\n\r\n    function viewRecordOwner(string memory node) public view returns (address)\r\n    {\r\n        return records[node].owner;\r\n    }\r\n\r\n    function viewRegistration(string memory node) public view returns (bool)\r\n    {\r\n        return records[node].registered;\r\n    }\r\n\r\n    event PotentialWinnerFound(address winner, uint highestBid);\r\n    function emitPotentialWinner(address winner, uint value) public {\r\n        emit PotentialWinnerFound(winner, value);\r\n    }\r\n\r\n}",
  "sourcePath": "C:\\Users\\Lim Han Quan\\Desktop\\ethereum-dapp\\contracts\\DomainRegistry.sol",
  "compiler": {
    "name": "solc",
    "version": "0.6.0+commit.26b70077.Emscripten.clang"
  },
  "schemaVersion": "3.3.1",
  "updatedAt": "2020-11-01T15:55:23.309Z",
  "networkType": "ethereum",
  "devdoc": {
    "methods": {}
  },
  "userdoc": {
    "methods": {}
  }
}