{
  "contractName": "DomainRegistry",
  "abi": [
    {
      "inputs": [],
      "stateMutability": "nonpayable",
      "type": "constructor"
    },
    {
      "anonymous": false,
      "inputs": [
        {
          "indexed": false,
          "internalType": "string",
          "name": "node",
          "type": "string"
        },
        {
          "indexed": false,
          "internalType": "address",
          "name": "auctionAddress",
          "type": "address"
        }
      ],
      "name": "NewAuctionStarted",
      "type": "event"
    },
    {
      "anonymous": false,
      "inputs": [
        {
          "indexed": false,
          "internalType": "string",
          "name": "node",
          "type": "string"
        },
        {
          "indexed": false,
          "internalType": "address",
          "name": "newOwner",
          "type": "address"
        },
        {
          "indexed": false,
          "internalType": "uint256",
          "name": "highestBid",
          "type": "uint256"
        }
      ],
      "name": "NewDomainClaimed",
      "type": "event"
    },
    {
      "anonymous": false,
      "inputs": [
        {
          "indexed": false,
          "internalType": "address",
          "name": "winner",
          "type": "address"
        },
        {
          "indexed": false,
          "internalType": "uint256",
          "name": "highestBid",
          "type": "uint256"
        }
      ],
      "name": "PotentialWinnerFound",
      "type": "event"
    },
    {
      "inputs": [],
      "name": "owner",
      "outputs": [
        {
          "internalType": "address",
          "name": "",
          "type": "address"
        }
      ],
      "stateMutability": "view",
      "type": "function",
      "constant": true
    },
    {
      "inputs": [
        {
          "internalType": "string",
          "name": "node",
          "type": "string"
        }
      ],
      "name": "checkIfRegistered",
      "outputs": [
        {
          "internalType": "bool",
          "name": "",
          "type": "bool"
        }
      ],
      "stateMutability": "view",
      "type": "function",
      "constant": true
    },
    {
      "inputs": [
        {
          "internalType": "string",
          "name": "node",
          "type": "string"
        },
        {
          "internalType": "address",
          "name": "newOwner",
          "type": "address"
        },
        {
          "internalType": "uint256",
          "name": "highestBid",
          "type": "uint256"
        }
      ],
      "name": "registerOwner",
      "outputs": [],
      "stateMutability": "payable",
      "type": "function",
      "payable": true
    },
    {
      "inputs": [
        {
          "internalType": "string",
          "name": "node",
          "type": "string"
        }
      ],
      "name": "startAuction",
      "outputs": [
        {
          "internalType": "address",
          "name": "auctionAddress",
          "type": "address"
        }
      ],
      "stateMutability": "nonpayable",
      "type": "function"
    },
    {
      "inputs": [],
      "name": "getRegisteredDomains",
      "outputs": [
        {
          "internalType": "string[]",
          "name": "",
          "type": "string[]"
        },
        {
          "internalType": "address[]",
          "name": "",
          "type": "address[]"
        }
      ],
      "stateMutability": "view",
      "type": "function",
      "constant": true
    },
    {
      "inputs": [
        {
          "internalType": "string",
          "name": "node",
          "type": "string"
        }
      ],
      "name": "getStage",
      "outputs": [
        {
          "internalType": "string",
          "name": "",
          "type": "string"
        }
      ],
      "stateMutability": "view",
      "type": "function",
      "constant": true
    },
    {
      "inputs": [
        {
          "internalType": "string",
          "name": "domain",
          "type": "string"
        }
      ],
      "name": "resolveDomain",
      "outputs": [
        {
          "internalType": "address",
          "name": "",
          "type": "address"
        }
      ],
      "stateMutability": "view",
      "type": "function",
      "constant": true
    },
    {
      "inputs": [
        {
          "internalType": "address",
          "name": "_owner",
          "type": "address"
        }
      ],
      "name": "getOwnedDomains",
      "outputs": [
        {
          "internalType": "string[]",
          "name": "",
          "type": "string[]"
        }
      ],
      "stateMutability": "view",
      "type": "function",
      "constant": true
    },
    {
      "inputs": [
        {
          "internalType": "string",
          "name": "node",
          "type": "string"
        }
      ],
      "name": "viewAuctionAddress",
      "outputs": [
        {
          "internalType": "address",
          "name": "",
          "type": "address"
        }
      ],
      "stateMutability": "view",
      "type": "function",
      "constant": true
    },
    {
      "inputs": [],
      "name": "viewThisAddress",
      "outputs": [
        {
          "internalType": "address",
          "name": "",
          "type": "address"
        }
      ],
      "stateMutability": "view",
      "type": "function",
      "constant": true
    },
    {
      "inputs": [
        {
          "internalType": "string",
          "name": "node",
          "type": "string"
        }
      ],
      "name": "viewRecordOwner",
      "outputs": [
        {
          "internalType": "address",
          "name": "",
          "type": "address"
        }
      ],
      "stateMutability": "view",
      "type": "function",
      "constant": true
    },
    {
      "inputs": [
        {
          "internalType": "string",
          "name": "node",
          "type": "string"
        }
      ],
      "name": "viewRegistration",
      "outputs": [
        {
          "internalType": "bool",
          "name": "",
          "type": "bool"
        }
      ],
      "stateMutability": "view",
      "type": "function",
      "constant": true
    },
    {
      "inputs": [
        {
          "internalType": "address",
          "name": "winner",
          "type": "address"
        },
        {
          "internalType": "uint256",
          "name": "value",
          "type": "uint256"
        }
      ],
      "name": "emitPotentialWinner",
      "outputs": [],
      "stateMutability": "nonpayable",
      "type": "function"
    }
  ],
  "bytecode": "0x608060405234801561001057600080fd5b50336000806101000a81548173ffffffffffffffffffffffffffffffffffffffff021916908373ffffffffffffffffffffffffffffffffffffffff16021790555061363e806100606000396000f3fe608060405260043610620000d45760003560e01c806380d2ec86116200008b578063bcef69f21162000061578063bcef69f214620002c8578063c33282d3146200030c578063e802d98f1462000350578063ecf50fe2146200039457620000d4565b806380d2ec8614620002395780638da5cb5b146200026a578063a7181ae3146200029a57620000d4565b80631a6c821b14620000d9578063364460f3146200011d57806356d36ae114620001615780635f7a666614620001815780636a4c492b14620001b157806373dc756c14620001f5575b600080fd5b348015620000e657600080fd5b50620001056004803603620000ff9190810190620013cb565b620003d8565b60405162000114919062001920565b60405180910390f35b3480156200012a57600080fd5b5062000149600480360362000143919081019062001438565b620005c9565b604051620001589190620018d6565b60405180910390f35b6200017f6004803603620001799190810190620014c2565b6200069a565b005b3480156200018e57600080fd5b5062000199620008b1565b604051620001a89190620018d6565b60405180910390f35b348015620001be57600080fd5b50620001dd6004803603620001d7919081019062001438565b620008b9565b604051620001ec91906200199c565b60405180910390f35b3480156200020257600080fd5b506200022160048036036200021b919081019062001438565b62000a91565b604051620002309190620018d6565b60405180910390f35b3480156200024657600080fd5b506200025162000e47565b6040516200026192919062001944565b60405180910390f35b3480156200027757600080fd5b506200028262001062565b604051620002919190620018d6565b60405180910390f35b348015620002a757600080fd5b50620002c66004803603620002c09190810190620013f7565b62001087565b005b348015620002d557600080fd5b50620002f46004803603620002ee919081019062001438565b620010c6565b6040516200030391906200197f565b60405180910390f35b3480156200031957600080fd5b5062000338600480360362000332919081019062001438565b62001100565b6040516200034791906200197f565b60405180910390f35b3480156200035d57600080fd5b506200037c600480360362000376919081019062001438565b6200118e565b6040516200038b9190620018d6565b60405180910390f35b348015620003a157600080fd5b50620003c06004803603620003ba919081019062001438565b620011db565b604051620003cf9190620018d6565b60405180910390f35b606080600360008473ffffffffffffffffffffffffffffffffffffffff1673ffffffffffffffffffffffffffffffffffffffff168152602001908152602001600020805490506040519080825280602002602001820160405280156200045357816020015b60608152602001906001900390816200043d5790505b50905060008090505b600360008573ffffffffffffffffffffffffffffffffffffffff1673ffffffffffffffffffffffffffffffffffffffff16815260200190815260200160002080549050811015620005bf57600360008573ffffffffffffffffffffffffffffffffffffffff1673ffffffffffffffffffffffffffffffffffffffff1681526020019081526020016000208181548110620004f257fe5b906000526020600020018054600181600116156101000203166002900480601f016020809104026020016040519081016040528092919081815260200182805460018160011615610100020316600290048015620005945780601f10620005685761010080835404028352916020019162000594565b820191906000526020600020905b8154815290600101906020018083116200057657829003601f168201915b5050505050828281518110620005a657fe5b602002602001018190525080806001019150506200045c565b5080915050919050565b6000600282604051620005dd91906200188d565b908152602001604051809103902060030160009054906101000a900460ff16156200064e576002826040516200061491906200188d565b908152602001604051809103902060000160009054906101000a900473ffffffffffffffffffffffffffffffffffffffff16905062000695565b6002826040516200066091906200188d565b908152602001604051809103902060010160009054906101000a900473ffffffffffffffffffffffffffffffffffffffff1690505b919050565b823373ffffffffffffffffffffffffffffffffffffffff16600282604051620006c491906200188d565b908152602001604051809103902060010160009054906101000a900473ffffffffffffffffffffffffffffffffffffffff1673ffffffffffffffffffffffffffffffffffffffff16146200071757600080fd5b826002856040516200072a91906200188d565b908152602001604051809103902060000160006101000a81548173ffffffffffffffffffffffffffffffffffffffff021916908373ffffffffffffffffffffffffffffffffffffffff16021790555060016002856040516200078d91906200188d565b908152602001604051809103902060030160006101000a81548160ff021916908315150217905550600184908060018154018082558091505060019003906000526020600020016000909190919091509080519060200190620007f292919062001228565b50600360008473ffffffffffffffffffffffffffffffffffffffff1673ffffffffffffffffffffffffffffffffffffffff168152602001908152602001600020849080600181540180825580915050600190039060005260206000200160009091909190915090805190602001906200086d92919062001228565b507f12e0c0afd0cb01b210bc575b477c58890f065eb1d9793fa291726d0bca3daea6848484604051620008a393929190620019f4565b60405180910390a150505050565b600030905090565b606060011515600283604051620008d191906200188d565b908152602001604051809103902060030160009054906101000a900460ff161515141562000937576040518060400160405280600781526020017f636c61696d656400000000000000000000000000000000000000000000000000815250905062000a8c565b600015156002836040516200094d91906200188d565b908152602001604051809103902060030160019054906101000a900460ff1615151415620009b3576040518060400160405280600981526020017f756e636c61696d65640000000000000000000000000000000000000000000000815250905062000a8c565b6000600283604051620009c791906200188d565b908152602001604051809103902060010160009054906101000a900473ffffffffffffffffffffffffffffffffffffffff16905060608173ffffffffffffffffffffffffffffffffffffffff1663fcaa76646040518163ffffffff1660e01b815260040160006040518083038186803b15801562000a4457600080fd5b505afa15801562000a59573d6000803e3d6000fd5b505050506040513d6000823e3d601f19601f8201168201806040525062000a8491908101906200147d565b905080925050505b919050565b6000816000151560028260405162000aaa91906200188d565b908152602001604051809103902060030160009054906101000a900460ff1615151462000b0e576040517f08c379a000000000000000000000000000000000000000000000000000000000815260040162000b059062001a38565b60405180910390fd5b826001151560028260405162000b2591906200188d565b908152602001604051809103902060030160019054906101000a900460ff161515141562000c7e57600060028260405162000b6191906200188d565b908152602001604051809103902060010160009054906101000a900473ffffffffffffffffffffffffffffffffffffffff16905060608173ffffffffffffffffffffffffffffffffffffffff1663fcaa76646040518163ffffffff1660e01b815260040160006040518083038186803b15801562000bde57600080fd5b505afa15801562000bf3573d6000803e3d6000fd5b505050506040513d6000823e3d601f19601f8201168201806040525062000c1e91908101906200147d565b905060405160200162000c3190620018bf565b604051602081830303815290604052805190602001208160405160200162000c5a91906200188d565b604051602081830303815290604052805190602001201462000c7b57600080fd5b50505b8360405162000c8d90620012af565b62000c9991906200199c565b604051809103906000f08015801562000cb6573d6000803e3d6000fd5b5060028560405162000cc991906200188d565b908152602001604051809103902060010160006101000a81548173ffffffffffffffffffffffffffffffffffffffff021916908373ffffffffffffffffffffffffffffffffffffffff1602179055504360028560405162000d2b91906200188d565b908152602001604051809103902060020181905550600160028560405162000d5491906200188d565b908152602001604051809103902060030160016101000a81548160ff0219169083151502179055507fd5d802d6a6ebd6a3147d5b04374599939cbbfa28bee645c79651c0e10fe7e6d08460028660405162000db091906200188d565b908152602001604051809103902060010160009054906101000a900473ffffffffffffffffffffffffffffffffffffffff1660405162000df2929190620019c0565b60405180910390a160028460405162000e0c91906200188d565b908152602001604051809103902060010160009054906101000a900473ffffffffffffffffffffffffffffffffffffffff1692505050919050565b606080606060018054905060405190808252806020026020018201604052801562000e8757816020015b606081526020019060019003908162000e715790505b509050606060018054905060405190808252806020026020018201604052801562000ec15781602001602082028038833980820191505090505b50905060008090505b60018054905081101562001055576001818154811062000ee657fe5b906000526020600020018054600181600116156101000203166002900480601f01602080910402602001604051908101604052809291908181526020018280546001816001161561010002031660029004801562000f885780601f1062000f5c5761010080835404028352916020019162000f88565b820191906000526020600020905b81548152906001019060200180831162000f6a57829003601f168201915b505050505083828151811062000f9a57fe5b602002602001018190525060026001828154811062000fb557fe5b9060005260206000200160405162000fce9190620018a6565b908152602001604051809103902060000160009054906101000a900473ffffffffffffffffffffffffffffffffffffffff168282815181106200100d57fe5b602002602001019073ffffffffffffffffffffffffffffffffffffffff16908173ffffffffffffffffffffffffffffffffffffffff1681525050808060010191505062000eca565b5081819350935050509091565b6000809054906101000a900473ffffffffffffffffffffffffffffffffffffffff1681565b7fb82fefdc651ee0dc2a48092a0a107978c235739dfbc58b8f52a11e939ea2d7508282604051620010ba929190620018f3565b60405180910390a15050565b6000600282604051620010da91906200188d565b908152602001604051809103902060030160009054906101000a900460ff169050919050565b60008073ffffffffffffffffffffffffffffffffffffffff166002836040516200112b91906200188d565b908152602001604051809103902060000160009054906101000a900473ffffffffffffffffffffffffffffffffffffffff1673ffffffffffffffffffffffffffffffffffffffff16141562001184576000905062001189565b600190505b919050565b6000600282604051620011a291906200188d565b908152602001604051809103902060000160009054906101000a900473ffffffffffffffffffffffffffffffffffffffff169050919050565b6000600282604051620011ef91906200188d565b908152602001604051809103902060010160009054906101000a900473ffffffffffffffffffffffffffffffffffffffff169050919050565b828054600181600116156101000203166002900490600052602060002090601f016020900481019282601f106200126b57805160ff19168380011785556200129c565b828001600101855582156200129c579182015b828111156200129b5782518255916020019190600101906200127e565b5b509050620012ab9190620012bd565b5090565b6119b58062001c5483390190565b620012e291905b80821115620012de576000816000905550600101620012c4565b5090565b90565b600081359050620012f68162001c1f565b92915050565b600082601f8301126200130e57600080fd5b8135620013256200131f8262001a88565b62001a5a565b915080825260208301602083018583830111156200134257600080fd5b6200134f83828462001bc9565b50505092915050565b600082601f8301126200136a57600080fd5b8151620013816200137b8262001a88565b62001a5a565b915080825260208301602083018583830111156200139e57600080fd5b620013ab83828462001bd8565b50505092915050565b600081359050620013c58162001c39565b92915050565b600060208284031215620013de57600080fd5b6000620013ee84828501620012e5565b91505092915050565b600080604083850312156200140b57600080fd5b60006200141b85828601620012e5565b92505060206200142e85828601620013b4565b9150509250929050565b6000602082840312156200144b57600080fd5b600082013567ffffffffffffffff8111156200146657600080fd5b6200147484828501620012fc565b91505092915050565b6000602082840312156200149057600080fd5b600082015167ffffffffffffffff811115620014ab57600080fd5b620014b98482850162001358565b91505092915050565b600080600060608486031215620014d857600080fd5b600084013567ffffffffffffffff811115620014f357600080fd5b6200150186828701620012fc565b93505060206200151486828701620012e5565b92505060406200152786828701620013b4565b9150509250925092565b60006200153f838362001561565b60208301905092915050565b6000620015598383620016f7565b905092915050565b6200156c8162001b7f565b82525050565b6200157d8162001b7f565b82525050565b6000620015908262001aea565b6200159c818562001b30565b9350620015a98362001ab5565b8060005b83811015620015e0578151620015c4888262001531565b9750620015d18362001b16565b925050600181019050620015ad565b5085935050505092915050565b6000620015fa8262001af5565b62001606818562001b41565b9350836020820285016200161a8562001ac5565b8060005b858110156200165c57848403895281516200163a85826200154b565b9450620016478362001b23565b925060208a019950506001810190506200161e565b50829750879550505050505092915050565b620016798162001b93565b82525050565b60006200168c8262001b0b565b62001698818562001b63565b9350620016aa81856020860162001bd8565b620016b58162001c0e565b840191505092915050565b6000620016cd8262001b0b565b620016d9818562001b74565b9350620016eb81856020860162001bd8565b80840191505092915050565b6000620017048262001b00565b62001710818562001b52565b93506200172281856020860162001bd8565b6200172d8162001c0e565b840191505092915050565b6000815460018116600081146200175857600181146200178057620017ca565b607f60028304166200176b818762001b74565b955060ff1983168652808601935050620017ca565b6002820462001790818762001b74565b95506200179d8562001ad5565b60005b82811015620017c157815481890152600182019150602081019050620017a0565b82880195505050505b505092915050565b6000620017e160218362001b63565b91507f54686520646f6d61696e20697320616c7265616479207265676973746572656460008301527f2e000000000000000000000000000000000000000000000000000000000000006020830152604082019050919050565b60006200184960098362001b74565b91507f756e636c61696d656400000000000000000000000000000000000000000000006000830152600982019050919050565b620018878162001bbf565b82525050565b60006200189b8284620016c0565b915081905092915050565b6000620018b4828462001738565b915081905092915050565b6000620018cc826200183a565b9150819050919050565b6000602082019050620018ed600083018462001572565b92915050565b60006040820190506200190a600083018562001572565b6200191960208301846200187c565b9392505050565b600060208201905081810360008301526200193c8184620015ed565b905092915050565b60006040820190508181036000830152620019608185620015ed565b9050818103602083015262001976818462001583565b90509392505050565b60006020820190506200199660008301846200166e565b92915050565b60006020820190508181036000830152620019b881846200167f565b905092915050565b60006040820190508181036000830152620019dc81856200167f565b9050620019ed602083018462001572565b9392505050565b6000606082019050818103600083015262001a1081866200167f565b905062001a21602083018562001572565b62001a3060408301846200187c565b949350505050565b6000602082019050818103600083015262001a5381620017d2565b9050919050565b6000604051905081810181811067ffffffffffffffff8211171562001a7e57600080fd5b8060405250919050565b600067ffffffffffffffff82111562001aa057600080fd5b601f19601f8301169050602081019050919050565b6000819050602082019050919050565b6000819050602082019050919050565b60008190508160005260206000209050919050565b600081519050919050565b600081519050919050565b600081519050919050565b600081519050919050565b6000602082019050919050565b6000602082019050919050565b600082825260208201905092915050565b600082825260208201905092915050565b600082825260208201905092915050565b600082825260208201905092915050565b600081905092915050565b600062001b8c8262001b9f565b9050919050565b60008115159050919050565b600073ffffffffffffffffffffffffffffffffffffffff82169050919050565b6000819050919050565b82818337600083830152505050565b60005b8381101562001bf857808201518184015260208101905062001bdb565b8381111562001c08576000848401525b50505050565b6000601f19601f8301169050919050565b62001c2a8162001b7f565b811462001c3657600080fd5b50565b62001c448162001bbf565b811462001c5057600080fd5b5056fe60806040526002600555600260065560026007553480156200002057600080fd5b50604051620019b5380380620019b5833981810160405260208110156200004657600080fd5b81019080805160405193929190846401000000008211156200006757600080fd5b838201915060208201858111156200007e57600080fd5b82518660018202830111640100000000821117156200009c57600080fd5b8083526020830192505050908051906020019080838360005b83811015620000d2578082015181840152602081019050620000b5565b50505050905090810190601f168015620001005780820380516001836020036101000a031916815260200191505b50604052505050336000806101000a81548173ffffffffffffffffffffffffffffffffffffffff021916908373ffffffffffffffffffffffffffffffffffffffff16021790555080600190805190602001906200015f9291906200018c565b5060055443016002819055506006546002540160038190555060075460035401600481905550506200023b565b828054600181600116156101000203166002900490600052602060002090601f016020900481019282601f10620001cf57805160ff191683800117855562000200565b8280016001018555821562000200579182015b82811115620001ff578251825591602001919060010190620001e2565b5b5090506200020f919062000213565b5090565b6200023891905b80821115620002345760008160009055506001016200021a565b5090565b90565b61176a806200024b6000396000f3fe6080604052600436106101145760003560e01c8063900f080a116100a0578063ab1a4d9411610064578063ab1a4d94146107a5578063c8e7b31d146107d0578063d57bde79146107fb578063d70754ec14610826578063fcaa7664146108b657610114565b8063900f080a146104dd57806391f90157146106ca578063957bb1e014610721578063a6e664771461074f578063a7dae9091461077a57610114565b8063423b217f116100e7578063423b217f146103ea5780634e528de81461041557806386c62a8f14610444578063886a6de11461045b5780638da5cb5b1461048657610114565b806301495c1c14610119578063249059861461018f5780632fd7e5dd146103945780633ccfa92f146103bf575b600080fd5b34801561012557600080fd5b506101726004803603604081101561013c57600080fd5b81019080803573ffffffffffffffffffffffffffffffffffffffff16906020019092919080359060200190929190505050610946565b604051808381526020018281526020019250505060405180910390f35b34801561019b57600080fd5b5061037a600480360360608110156101b257600080fd5b81019080803590602001906401000000008111156101cf57600080fd5b8201836020820111156101e157600080fd5b8035906020019184602083028401116401000000008311171561020357600080fd5b919080806020026020016040519081016040528093929190818152602001838360200280828437600081840152601f19601f8201169050808301925050505050505091929192908035906020019064010000000081111561026357600080fd5b82018360208201111561027557600080fd5b8035906020019184602083028401116401000000008311171561029757600080fd5b919080806020026020016040519081016040528093929190818152602001838360200280828437600081840152601f19601f820116905080830192505050505050509192919290803590602001906401000000008111156102f757600080fd5b82018360208201111561030957600080fd5b8035906020019184602083028401116401000000008311171561032b57600080fd5b919080806020026020016040519081016040528093929190818152602001838360200280828437600081840152601f19601f820116905080830192505050505050509192919290505050610984565b604051808215151515815260200191505060405180910390f35b3480156103a057600080fd5b506103a9610aca565b6040518082815260200191505060405180910390f35b3480156103cb57600080fd5b506103d4610b84565b6040518082815260200191505060405180910390f35b3480156103f657600080fd5b506103ff610b8a565b6040518082815260200191505060405180910390f35b34801561042157600080fd5b5061042a610b90565b604051808215151515815260200191505060405180910390f35b34801561045057600080fd5b50610459610ba3565b005b34801561046757600080fd5b50610470610db1565b6040518082815260200191505060405180910390f35b34801561049257600080fd5b5061049b610db7565b604051808273ffffffffffffffffffffffffffffffffffffffff1673ffffffffffffffffffffffffffffffffffffffff16815260200191505060405180910390f35b3480156104e957600080fd5b506106c86004803603606081101561050057600080fd5b810190808035906020019064010000000081111561051d57600080fd5b82018360208201111561052f57600080fd5b8035906020019184602083028401116401000000008311171561055157600080fd5b919080806020026020016040519081016040528093929190818152602001838360200280828437600081840152601f19601f820116905080830192505050505050509192919290803590602001906401000000008111156105b157600080fd5b8201836020820111156105c357600080fd5b803590602001918460208302840111640100000000831117156105e557600080fd5b919080806020026020016040519081016040528093929190818152602001838360200280828437600081840152601f19601f8201169050808301925050505050505091929192908035906020019064010000000081111561064557600080fd5b82018360208201111561065757600080fd5b8035906020019184602083028401116401000000008311171561067957600080fd5b919080806020026020016040519081016040528093929190818152602001838360200280828437600081840152601f19601f820116905080830192505050505050509192919290505050610ddc565b005b3480156106d657600080fd5b506106df6110c4565b604051808273ffffffffffffffffffffffffffffffffffffffff1673ffffffffffffffffffffffffffffffffffffffff16815260200191505060405180910390f35b61074d6004803603602081101561073757600080fd5b81019080803590602001909291905050506110ea565b005b34801561075b57600080fd5b50610764611191565b6040518082815260200191505060405180910390f35b34801561078657600080fd5b5061078f611197565b6040518082815260200191505060405180910390f35b3480156107b157600080fd5b506107ba6111a1565b6040518082815260200191505060405180910390f35b3480156107dc57600080fd5b506107e56111a7565b6040518082815260200191505060405180910390f35b34801561080757600080fd5b506108106111ad565b6040518082815260200191505060405180910390f35b34801561083257600080fd5b5061083b6111b3565b6040518080602001828103825283818151815260200191508051906020019080838360005b8381101561087b578082015181840152602081019050610860565b50505050905090810190601f1680156108a85780820380516001836020036101000a031916815260200191505b509250505060405180910390f35b3480156108c257600080fd5b506108cb611251565b6040518080602001828103825283818151815260200191508051906020019080838360005b8381101561090b5780820151818401526020810190506108f0565b50505050905090810190601f1680156109385780820380516001836020036101000a031916815260200191505b509250505060405180910390f35b600b602052816000526040600020818154811061095f57fe5b9060005260206000209060020201600091509150508060000154908060010154905082565b600080600b60003373ffffffffffffffffffffffffffffffffffffffff1673ffffffffffffffffffffffffffffffffffffffff168152602001908152602001600020805490501115610abe57836000815181106109dd57fe5b6020026020010151836000815181106109f257fe5b602002602001015183600081518110610a0757fe5b602002602001015160405160200180848152602001831515151560f81b8152600101828152602001935050505060405160208183030381529060405280519060200120600b60003373ffffffffffffffffffffffffffffffffffffffff1673ffffffffffffffffffffffffffffffffffffffff168152602001908152602001600020600081548110610a9557fe5b90600052602060002090600202016000015414610ab55760009050610ac3565b60019050610ac3565b600090505b9392505050565b600080600b60003373ffffffffffffffffffffffffffffffffffffffff1673ffffffffffffffffffffffffffffffffffffffff168152602001908152602001600020805490501115610b7a57600b60003373ffffffffffffffffffffffffffffffffffffffff1673ffffffffffffffffffffffffffffffffffffffff168152602001908152602001600020600081548110610b6157fe5b9060005260206000209060020201600101549050610b81565b62010f2c90505b90565b60045481565b60025481565b600a60009054906101000a900460ff1681565b600354804311610bb257600080fd5b60045480431115610bc257600080fd5b600860009054906101000a900473ffffffffffffffffffffffffffffffffffffffff1673ffffffffffffffffffffffffffffffffffffffff163373ffffffffffffffffffffffffffffffffffffffff1614610c1c57600080fd5b60001515600a60009054906101000a900460ff16151514610c3c57600080fd5b6001600a60006101000a81548160ff02191690831515021790555060008060009054906101000a900473ffffffffffffffffffffffffffffffffffffffff1690508073ffffffffffffffffffffffffffffffffffffffff166356d36ae16009546001336009546040518563ffffffff1660e01b815260040180806020018473ffffffffffffffffffffffffffffffffffffffff1673ffffffffffffffffffffffffffffffffffffffff168152602001838152602001828103825285818154600181600116156101000203166002900481526020019150805460018160011615610100020316600290048015610d725780601f10610d4757610100808354040283529160200191610d72565b820191906000526020600020905b815481529060010190602001808311610d5557829003601f168201915b50509450505050506000604051808303818588803b158015610d9357600080fd5b505af1158015610da7573d6000803e3d6000fd5b5050505050505050565b60065481565b6000809054906101000a900473ffffffffffffffffffffffffffffffffffffffff1681565b600254804311610deb57600080fd5b60035480431115610dfb57600080fd5b6000600b60003373ffffffffffffffffffffffffffffffffffffffff1673ffffffffffffffffffffffffffffffffffffffff16815260200190815260200160002080549050905080865114610e4f57600080fd5b80855114610e5c57600080fd5b80845114610e6957600080fd5b60008090506060600b60003373ffffffffffffffffffffffffffffffffffffffff1673ffffffffffffffffffffffffffffffffffffffff168152602001908152602001600020805480602002602001604051908101604052809291908181526020016000905b82821015610f1557838290600052602060002090600202016040518060400160405290816000820154815260200160018201548152505081526020019060010190610ecf565b505050509050600b60003373ffffffffffffffffffffffffffffffffffffffff1673ffffffffffffffffffffffffffffffffffffffff1681526020019081526020016000206000610f6691906116c4565b60008090505b8381101561107257610f7c6116e8565b828281518110610f8857fe5b6020026020010151905060008060008c8581518110610fa357fe5b60200260200101518c8681518110610fb757fe5b60200260200101518c8781518110610fcb57fe5b602002602001015192509250925082828260405160200180848152602001831515151560f81b815260010182815260200193505050506040516020818303038152906040528051906020012084600001511461102a5750505050611065565b83602001518701965081158015611045575082846020015110155b156110605761105433846113cf565b1561105f5782870396505b5b505050505b8080600101915050610f6c565b503373ffffffffffffffffffffffffffffffffffffffff166108fc839081150290604051600060405180830381858888f193505050501580156110b9573d6000803e3d6000fd5b505050505050505050565b600860009054906101000a900473ffffffffffffffffffffffffffffffffffffffff1681565b600254804311156110fa57600080fd5b600b60003373ffffffffffffffffffffffffffffffffffffffff1673ffffffffffffffffffffffffffffffffffffffff1681526020019081526020016000206040518060400160405280848152602001348152509080600181540180825580915050600190039060005260206000209060020201600090919091909150600082015181600001556020820151816001015550505050565b60035481565b6000600954905090565b60075481565b60055481565b60095481565b60018054600181600116156101000203166002900480601f0160208091040260200160405190810160405280929190818152602001828054600181600116156101000203166002900480156112495780601f1061121e57610100808354040283529160200191611249565b820191906000526020600020905b81548152906001019060200180831161122c57829003601f168201915b505050505081565b606060025443101561129a576040518060400160405280600781526020017f62696464696e670000000000000000000000000000000000000000000000000081525090506113cc565b6003544310156112e1576040518060400160405280600981526020017f72657665616c696e67000000000000000000000000000000000000000000000081525090506113cc565b600454431080156112ff5750600a60009054906101000a900460ff16155b15611341576040518060400160405280600881526020017f636c61696d696e6700000000000000000000000000000000000000000000000081525090506113cc565b600a60009054906101000a900460ff1615611393576040518060400160405280600781526020017f636c61696d65640000000000000000000000000000000000000000000000000081525090506113cc565b6040518060400160405280600981526020017f756e636c61696d6564000000000000000000000000000000000000000000000081525090505b90565b600060095482116113e357600090506116be565b600073ffffffffffffffffffffffffffffffffffffffff16600860009054906101000a900473ffffffffffffffffffffffffffffffffffffffff1673ffffffffffffffffffffffffffffffffffffffff16146114fd576000600860009054906101000a900473ffffffffffffffffffffffffffffffffffffffff169050600060095490508360098190555084600860006101000a81548173ffffffffffffffffffffffffffffffffffffffff021916908373ffffffffffffffffffffffffffffffffffffffff1602179055508173ffffffffffffffffffffffffffffffffffffffff166108fc829081150290604051600060405180830381858888f193505050501580156114f5573d6000803e3d6000fd5b505050611546565b8160098190555082600860006101000a81548173ffffffffffffffffffffffffffffffffffffffff021916908373ffffffffffffffffffffffffffffffffffffffff1602179055505b7fb82fefdc651ee0dc2a48092a0a107978c235739dfbc58b8f52a11e939ea2d750600860009054906101000a900473ffffffffffffffffffffffffffffffffffffffff16600954604051808373ffffffffffffffffffffffffffffffffffffffff1673ffffffffffffffffffffffffffffffffffffffff1681526020018281526020019250505060405180910390a16000809054906101000a900473ffffffffffffffffffffffffffffffffffffffff1673ffffffffffffffffffffffffffffffffffffffff1663a7181ae3600860009054906101000a900473ffffffffffffffffffffffffffffffffffffffff166009546040518363ffffffff1660e01b8152600401808373ffffffffffffffffffffffffffffffffffffffff1673ffffffffffffffffffffffffffffffffffffffff16815260200182815260200192505050600060405180830381600087803b1580156116a157600080fd5b505af11580156116b5573d6000803e3d6000fd5b50505050600190505b92915050565b50805460008255600202906000526020600020908101906116e59190611705565b50565b604051806040016040528060008019168152602001600081525090565b61173191905b8082111561172d5760008082016000905560018201600090555060020161170b565b5090565b9056fea26469706673582212201fc8677d65a44cc85eafd103beade74e9ee349db7b9ff776ab74e0e47fb7e36a64736f6c63430006000033a264697066735822122075fb18962de94f334e669228eb34ef9e7671b94a4105101fee58f7167b3ef74d64736f6c63430006000033",
  "source": "// SPDX-License-Identifier: GPL-3.0\r\npragma solidity ^0.6.0;\r\npragma experimental ABIEncoderV2;\r\nimport './BlindAuction.sol';\r\n\r\n// \"node\" generally refers to domain name\r\n\r\ncontract DomainRegistry {\r\n\r\n    struct Record {\r\n        address owner;\r\n        address auctionAddress;\r\n        uint auctionStartBlock;\r\n        bool registered;\r\n        bool hasAuctionBefore;\r\n    }\r\n\r\n    //static variables\r\n    address public owner;\r\n    string[] registeredDomains;\r\n\r\n    //mappings\r\n    mapping(string=>Record) records;\r\n    mapping(address=>string[]) ownerToDomain;\r\n\r\n    //events\r\n    event NewAuctionStarted(string node, address auctionAddress);\r\n    event NewDomainClaimed(string node, address newOwner, uint highestBid);\r\n\r\n    // modifiers\r\n    modifier validAuctionContract(string memory node) {\r\n        //the auction contract for that node sent the msg\r\n        require(records[node].auctionAddress == msg.sender);\r\n        _;\r\n    }\r\n\r\n    modifier onlyUnregisteredDomain(string memory node) {\r\n        require(records[node].registered == false,\r\n                \"The domain is already registered.\");\r\n        _;\r\n    }\r\n\r\n    modifier noOngoingAuction(string memory node) {\r\n        //the last auction (if any) has ended, and a reasonable amount of time has been given to claim domain\r\n        if (records[node].hasAuctionBefore == true) {\r\n            BlindAuction auction = BlindAuction(records[node].auctionAddress);\r\n            string memory stage = auction.getStage();\r\n            require(keccak256(abi.encodePacked(stage)) == keccak256(abi.encodePacked(\"unclaimed\")));\r\n        }\r\n        _;\r\n    }\r\n\r\n    //constructor\r\n    constructor() public {\r\n        owner = msg.sender;\r\n    }\r\n\r\n    // check if domain is registered already\r\n    function checkIfRegistered(string memory node) \r\n        public\r\n        view\r\n        returns (bool) \r\n    {\r\n        if(records[node].owner == address(0)) {\r\n            return false;\r\n        } else {\r\n            return true;\r\n        }\r\n    }\r\n\r\n    function registerOwner(string memory node, address newOwner, uint highestBid)\r\n        public\r\n        payable\r\n        validAuctionContract(node)\r\n    {\r\n        records[node].owner = newOwner;\r\n        records[node].registered = true;\r\n        registeredDomains.push(node);\r\n        ownerToDomain[newOwner].push(node);\r\n        emit NewDomainClaimed(node, newOwner, highestBid);\r\n    }\r\n\r\n    function startAuction(string memory node)\r\n        public\r\n        onlyUnregisteredDomain(node)\r\n        noOngoingAuction(node)\r\n        returns (address auctionAddress)\r\n    {\r\n        records[node].auctionAddress = address(new BlindAuction(node));\r\n        records[node].auctionStartBlock = block.number;\r\n        records[node].hasAuctionBefore = true;\r\n        //currentAuctions.push(node);\r\n        emit NewAuctionStarted(node, records[node].auctionAddress);\r\n\r\n        return records[node].auctionAddress;\r\n    }\r\n\r\n    //------------------------------------------------------------------------------\r\n    //website functions\r\n\r\n    // gets registered domains and their owner addresses\r\n    //TODO: currently broken, refer to getCurrentAuctions for reference\r\n    function getRegisteredDomains() public view returns (string[] memory, address[] memory) {\r\n        string[] memory nodes = new string[](registeredDomains.length);\r\n        address[] memory ownerAddresses = new address[](registeredDomains.length);\r\n\r\n        for (uint i=0; i<registeredDomains.length; i++) {\r\n            nodes[i] = registeredDomains[i];\r\n            ownerAddresses[i] = records[registeredDomains[i]].owner;\r\n        }\r\n        return (nodes, ownerAddresses);\r\n    }\r\n\r\n    // calls BlindAuction to get the stage\r\n    function getStage(string memory node) \r\n        public \r\n        view \r\n        returns (string memory) \r\n    {    \r\n        if (records[node].registered == true) {\r\n            return \"claimed\";\r\n        } else if (records[node].hasAuctionBefore == false) {\r\n            return \"unclaimed\";\r\n        } else {\r\n            BlindAuction auction = BlindAuction(records[node].auctionAddress);\r\n            string memory stage = auction.getStage();\r\n            return stage;\r\n        }\r\n        \r\n    }\r\n\r\n    //if registered, resolved to owner address, if auctioning, resolve to auction address\r\n    //empty domain returns address(0)\r\n    function resolveDomain(string memory domain) \r\n        public\r\n        view \r\n        returns (address) \r\n    {\r\n        if (records[domain].registered) {\r\n            return records[domain].owner;\r\n        } else {\r\n            return records[domain].auctionAddress;\r\n        }\r\n    }\r\n\r\n    // Reversely resolve Ethereum address to their registered domains\r\n    function getOwnedDomains(address _owner)\r\n        public\r\n        view\r\n        returns (string[] memory)\r\n    {\r\n        string[] memory nodes = new string[](ownerToDomain[_owner].length);\r\n        for (uint i=0; i<ownerToDomain[_owner].length; i++) {\r\n            nodes[i] = ownerToDomain[_owner][i];\r\n        }\r\n        return nodes;\r\n    }\r\n\r\n\r\n// ----------------------------------------------------------------------------------\r\n// debug helper functions\r\n\r\n    function viewAuctionAddress(string memory node) public view returns (address)\r\n    {\r\n        return records[node].auctionAddress;\r\n    }\r\n\r\n    function viewThisAddress() public view returns (address)\r\n    {\r\n        return address(this);\r\n    }\r\n\r\n    function viewRecordOwner(string memory node) public view returns (address)\r\n    {\r\n        return records[node].owner;\r\n    }\r\n\r\n    function viewRegistration(string memory node) public view returns (bool)\r\n    {\r\n        return records[node].registered;\r\n    }\r\n\r\n    event PotentialWinnerFound(address winner, uint highestBid);\r\n    function emitPotentialWinner(address winner, uint value) public {\r\n        emit PotentialWinnerFound(winner, value);\r\n    }\r\n\r\n}",
  "sourcePath": "C:\\Users\\Lim Han Quan\\Desktop\\ethereum-dapp\\contracts\\DomainRegistry.sol",
  "compiler": {
    "name": "solc",
    "version": "0.6.0+commit.26b70077.Emscripten.clang"
  },
  "schemaVersion": "3.3.1",
  "updatedAt": "2020-11-02T16:55:44.146Z",
  "networkType": "ethereum",
  "devdoc": {
    "methods": {}
  },
  "userdoc": {
    "methods": {}
  }
}